{
  "contractName": "PointlyUser",
  "abi": [
    {
      "inputs": [],
      "stateMutability": "nonpayable",
      "type": "constructor"
    },
    {
      "anonymous": false,
      "inputs": [
        {
          "indexed": true,
          "internalType": "address",
          "name": "userAddress",
          "type": "address"
        },
        {
          "indexed": false,
          "internalType": "uint256",
          "name": "newTotalPoints",
          "type": "uint256"
        },
        {
          "indexed": false,
          "internalType": "uint256",
          "name": "newAvailablePoints",
          "type": "uint256"
        }
      ],
      "name": "PointsUpdated",
      "type": "event"
    },
    {
      "anonymous": false,
      "inputs": [
        {
          "indexed": true,
          "internalType": "address",
          "name": "userAddress",
          "type": "address"
        },
        {
          "indexed": false,
          "internalType": "string",
          "name": "newTier",
          "type": "string"
        }
      ],
      "name": "TierUpdated",
      "type": "event"
    },
    {
      "anonymous": false,
      "inputs": [
        {
          "indexed": true,
          "internalType": "address",
          "name": "userAddress",
          "type": "address"
        },
        {
          "indexed": false,
          "internalType": "string",
          "name": "name",
          "type": "string"
        }
      ],
      "name": "UserCreated",
      "type": "event"
    },
    {
      "anonymous": false,
      "inputs": [
        {
          "indexed": true,
          "internalType": "address",
          "name": "userAddress",
          "type": "address"
        }
      ],
      "name": "UserDeleted",
      "type": "event"
    },
    {
      "inputs": [],
      "name": "owner",
      "outputs": [
        {
          "internalType": "address",
          "name": "",
          "type": "address"
        }
      ],
      "stateMutability": "view",
      "type": "function",
      "constant": true
    },
    {
      "inputs": [
        {
          "internalType": "string",
          "name": "email",
          "type": "string"
        },
        {
          "internalType": "string",
          "name": "name",
          "type": "string"
        },
        {
          "internalType": "string",
          "name": "phone",
          "type": "string"
        },
        {
          "internalType": "string",
          "name": "addressDetails",
          "type": "string"
        },
        {
          "internalType": "string",
          "name": "profileImage",
          "type": "string"
        }
      ],
      "name": "createUser",
      "outputs": [],
      "stateMutability": "nonpayable",
      "type": "function"
    },
    {
      "inputs": [
        {
          "internalType": "address",
          "name": "userAddress",
          "type": "address"
        }
      ],
      "name": "getUser",
      "outputs": [
        {
          "internalType": "string",
          "name": "email",
          "type": "string"
        },
        {
          "internalType": "string",
          "name": "name",
          "type": "string"
        },
        {
          "internalType": "string",
          "name": "phone",
          "type": "string"
        },
        {
          "internalType": "string",
          "name": "addressDetails",
          "type": "string"
        },
        {
          "internalType": "string",
          "name": "profileImage",
          "type": "string"
        },
        {
          "internalType": "string",
          "name": "tier",
          "type": "string"
        },
        {
          "internalType": "uint256",
          "name": "totalPoints",
          "type": "uint256"
        },
        {
          "internalType": "uint256",
          "name": "availablePoints",
          "type": "uint256"
        },
        {
          "internalType": "bool",
          "name": "exists",
          "type": "bool"
        }
      ],
      "stateMutability": "view",
      "type": "function",
      "constant": true
    },
    {
      "inputs": [
        {
          "internalType": "address",
          "name": "userAddress",
          "type": "address"
        },
        {
          "internalType": "uint256",
          "name": "points",
          "type": "uint256"
        },
        {
          "internalType": "bool",
          "name": "isAddition",
          "type": "bool"
        }
      ],
      "name": "updatePoints",
      "outputs": [],
      "stateMutability": "nonpayable",
      "type": "function"
    },
    {
      "inputs": [],
      "name": "deleteUser",
      "outputs": [],
      "stateMutability": "nonpayable",
      "type": "function"
    }
  ],
  "bytecode": "0x608060405234801561001057600080fd5b50336000806101000a81548173ffffffffffffffffffffffffffffffffffffffff021916908373ffffffffffffffffffffffffffffffffffffffff160217905550611976806100606000396000f3fe608060405234801561001057600080fd5b50600436106100575760003560e01c8063026ff05e1461005c57806365c06f70146100665780636f77926b146100825780638da5cb5b146100ba578063c2bb5e13146100d8575b600080fd5b6100646100f4565b005b610080600480360381019061007b9190611251565b61028e565b005b61009c600480360381019061009791906111d9565b610512565b6040516100b199989796959493929190611523565b60405180910390f35b6100c26109e7565b6040516100cf91906114e6565b60405180910390f35b6100f260048036038101906100ed9190611202565b610a0b565b005b600160003373ffffffffffffffffffffffffffffffffffffffff1673ffffffffffffffffffffffffffffffffffffffff16815260200190815260200160002060080160009054906101000a900460ff16610183576040517f08c379a000000000000000000000000000000000000000000000000000000000815260040161017a9061161c565b60405180910390fd5b600160003373ffffffffffffffffffffffffffffffffffffffff1673ffffffffffffffffffffffffffffffffffffffff168152602001908152602001600020600080820160006101d3919061104f565b6001820160006101e3919061104f565b6002820160006101f3919061104f565b600382016000610203919061104f565b600482016000610213919061104f565b600582016000610223919061104f565b600682016000905560078201600090556008820160006101000a81549060ff021916905550503373ffffffffffffffffffffffffffffffffffffffff167f4bc56f1321288dfb5b416cb3a7fd188723979f9e866c91d88eccf7fca039d03960405160405180910390a2565b600160003373ffffffffffffffffffffffffffffffffffffffff1673ffffffffffffffffffffffffffffffffffffffff16815260200190815260200160002060080160009054906101000a900460ff161561031e576040517f08c379a0000000000000000000000000000000000000000000000000000000008152600401610315906115fc565b60405180910390fd5b6040518061012001604052808681526020018581526020018481526020018381526020018281526020016040518060400160405280600681526020017f51756172747a00000000000000000000000000000000000000000000000000008152508152602001600081526020016000815260200160011515815250600160003373ffffffffffffffffffffffffffffffffffffffff1673ffffffffffffffffffffffffffffffffffffffff16815260200190815260200160002060008201518160000190805190602001906103f392919061108f565b50602082015181600101908051906020019061041092919061108f565b50604082015181600201908051906020019061042d92919061108f565b50606082015181600301908051906020019061044a92919061108f565b50608082015181600401908051906020019061046792919061108f565b5060a082015181600501908051906020019061048492919061108f565b5060c0820151816006015560e082015181600701556101008201518160080160006101000a81548160ff0219169083151502179055509050503373ffffffffffffffffffffffffffffffffffffffff167f9954bce02f72fbdef0fa668ac6f42e434b5829615dac2fb22448054d2359d4f6856040516105039190611501565b60405180910390a25050505050565b6060806060806060806000806000600160008b73ffffffffffffffffffffffffffffffffffffffff1673ffffffffffffffffffffffffffffffffffffffff16815260200190815260200160002060080160009054906101000a900460ff166105af576040517f08c379a00000000000000000000000000000000000000000000000000000000081526004016105a69061161c565b60405180910390fd5b6000600160008c73ffffffffffffffffffffffffffffffffffffffff1673ffffffffffffffffffffffffffffffffffffffff1681526020019081526020016000206040518061012001604052908160008201805461060c9061182b565b80601f01602080910402602001604051908101604052809291908181526020018280546106389061182b565b80156106855780601f1061065a57610100808354040283529160200191610685565b820191906000526020600020905b81548152906001019060200180831161066857829003601f168201915b5050505050815260200160018201805461069e9061182b565b80601f01602080910402602001604051908101604052809291908181526020018280546106ca9061182b565b80156107175780601f106106ec57610100808354040283529160200191610717565b820191906000526020600020905b8154815290600101906020018083116106fa57829003601f168201915b505050505081526020016002820180546107309061182b565b80601f016020809104026020016040519081016040528092919081815260200182805461075c9061182b565b80156107a95780601f1061077e576101008083540402835291602001916107a9565b820191906000526020600020905b81548152906001019060200180831161078c57829003601f168201915b505050505081526020016003820180546107c29061182b565b80601f01602080910402602001604051908101604052809291908181526020018280546107ee9061182b565b801561083b5780601f106108105761010080835404028352916020019161083b565b820191906000526020600020905b81548152906001019060200180831161081e57829003601f168201915b505050505081526020016004820180546108549061182b565b80601f01602080910402602001604051908101604052809291908181526020018280546108809061182b565b80156108cd5780601f106108a2576101008083540402835291602001916108cd565b820191906000526020600020905b8154815290600101906020018083116108b057829003601f168201915b505050505081526020016005820180546108e69061182b565b80601f01602080910402602001604051908101604052809291908181526020018280546109129061182b565b801561095f5780601f106109345761010080835404028352916020019161095f565b820191906000526020600020905b81548152906001019060200180831161094257829003601f168201915b5050505050815260200160068201548152602001600782015481526020016008820160009054906101000a900460ff1615151515815250509050806000015181602001518260400151836060015184608001518560a001518660c001518760e00151886101000151995099509950995099509950995099509950509193959799909294969850565b60008054906101000a900473ffffffffffffffffffffffffffffffffffffffff1681565b600160008473ffffffffffffffffffffffffffffffffffffffff1673ffffffffffffffffffffffffffffffffffffffff16815260200190815260200160002060080160009054906101000a900460ff16610a9a576040517f08c379a0000000000000000000000000000000000000000000000000000000008152600401610a919061161c565b60405180910390fd5b8015610b575781600160008573ffffffffffffffffffffffffffffffffffffffff1673ffffffffffffffffffffffffffffffffffffffff1681526020019081526020016000206006016000828254610af29190611717565b9250508190555081600160008573ffffffffffffffffffffffffffffffffffffffff1673ffffffffffffffffffffffffffffffffffffffff1681526020019081526020016000206007016000828254610b4b9190611717565b92505081905550610c36565b81600160008573ffffffffffffffffffffffffffffffffffffffff1673ffffffffffffffffffffffffffffffffffffffff168152602001908152602001600020600701541015610bdc576040517f08c379a0000000000000000000000000000000000000000000000000000000008152600401610bd39061163c565b60405180910390fd5b81600160008573ffffffffffffffffffffffffffffffffffffffff1673ffffffffffffffffffffffffffffffffffffffff1681526020019081526020016000206007016000828254610c2e919061176d565b925050819055505b610c3f83610d18565b8273ffffffffffffffffffffffffffffffffffffffff167feceb10b266995afd3009502df537b0421b7f635dd268f4b0a74b99a87be65213600160008673ffffffffffffffffffffffffffffffffffffffff1673ffffffffffffffffffffffffffffffffffffffff16815260200190815260200160002060060154600160008773ffffffffffffffffffffffffffffffffffffffff1673ffffffffffffffffffffffffffffffffffffffff16815260200190815260200160002060070154604051610d0b92919061165c565b60405180910390a2505050565b6000600160008373ffffffffffffffffffffffffffffffffffffffff1673ffffffffffffffffffffffffffffffffffffffff1681526020019081526020016000206006015490506127108110610df9576040518060400160405280600781526020017f4469616d6f6e6400000000000000000000000000000000000000000000000000815250600160008473ffffffffffffffffffffffffffffffffffffffff1673ffffffffffffffffffffffffffffffffffffffff1681526020019081526020016000206005019080519060200190610df392919061108f565b50610fbc565b6113888110610e93576040518060400160405280600881526020017f5361707068697265000000000000000000000000000000000000000000000000815250600160008473ffffffffffffffffffffffffffffffffffffffff1673ffffffffffffffffffffffffffffffffffffffff1681526020019081526020016000206005019080519060200190610e8d92919061108f565b50610fbb565b6103e88110610f2d576040518060400160405280600781526020017f456d6572616c6400000000000000000000000000000000000000000000000000815250600160008473ffffffffffffffffffffffffffffffffffffffff1673ffffffffffffffffffffffffffffffffffffffff1681526020019081526020016000206005019080519060200190610f2792919061108f565b50610fba565b6040518060400160405280600681526020017f51756172747a0000000000000000000000000000000000000000000000000000815250600160008473ffffffffffffffffffffffffffffffffffffffff1673ffffffffffffffffffffffffffffffffffffffff1681526020019081526020016000206005019080519060200190610fb892919061108f565b505b5b5b8173ffffffffffffffffffffffffffffffffffffffff167f7c5463c5531ead7f0ba72ac58bed8430f619c4cfe506277c9d84245129f0df7a600160008573ffffffffffffffffffffffffffffffffffffffff1673ffffffffffffffffffffffffffffffffffffffff16815260200190815260200160002060050160405161104391906115da565b60405180910390a25050565b50805461105b9061182b565b6000825580601f1061106d575061108c565b601f01602090049060005260206000209081019061108b9190611115565b5b50565b82805461109b9061182b565b90600052602060002090601f0160209004810192826110bd5760008555611104565b82601f106110d657805160ff1916838001178555611104565b82800160010185558215611104579182015b828111156111035782518255916020019190600101906110e8565b5b5090506111119190611115565b5090565b5b8082111561112e576000816000905550600101611116565b5090565b6000611145611140846116b6565b611685565b90508281526020810184848401111561115d57600080fd5b6111688482856117e9565b509392505050565b60008135905061117f816118fb565b92915050565b60008135905061119481611912565b92915050565b600082601f8301126111ab57600080fd5b81356111bb848260208601611132565b91505092915050565b6000813590506111d381611929565b92915050565b6000602082840312156111eb57600080fd5b60006111f984828501611170565b91505092915050565b60008060006060848603121561121757600080fd5b600061122586828701611170565b9350506020611236868287016111c4565b925050604061124786828701611185565b9150509250925092565b600080600080600060a0868803121561126957600080fd5b600086013567ffffffffffffffff81111561128357600080fd5b61128f8882890161119a565b955050602086013567ffffffffffffffff8111156112ac57600080fd5b6112b88882890161119a565b945050604086013567ffffffffffffffff8111156112d557600080fd5b6112e18882890161119a565b935050606086013567ffffffffffffffff8111156112fe57600080fd5b61130a8882890161119a565b925050608086013567ffffffffffffffff81111561132757600080fd5b6113338882890161119a565b9150509295509295909350565b611349816117a1565b82525050565b611358816117b3565b82525050565b6000611369826116fb565b6113738185611706565b93506113838185602086016117f8565b61138c816118ea565b840191505092915050565b600081546113a48161182b565b6113ae8186611706565b945060018216600081146113c957600181146113db5761140e565b60ff198316865260208601935061140e565b6113e4856116e6565b60005b83811015611406578154818901526001820191506020810190506113e7565b808801955050505b50505092915050565b6000611424601383611706565b91507f5573657220616c726561647920657869737473000000000000000000000000006000830152602082019050919050565b6000611464601383611706565b91507f5573657220646f6573206e6f74206578697374000000000000000000000000006000830152602082019050919050565b60006114a4601383611706565b91507f496e73756666696369656e7420706f696e7473000000000000000000000000006000830152602082019050919050565b6114e0816117df565b82525050565b60006020820190506114fb6000830184611340565b92915050565b6000602082019050818103600083015261151b818461135e565b905092915050565b600061012082019050818103600083015261153e818c61135e565b90508181036020830152611552818b61135e565b90508181036040830152611566818a61135e565b9050818103606083015261157a818961135e565b9050818103608083015261158e818861135e565b905081810360a08301526115a2818761135e565b90506115b160c08301866114d7565b6115be60e08301856114d7565b6115cc61010083018461134f565b9a9950505050505050505050565b600060208201905081810360008301526115f48184611397565b905092915050565b6000602082019050818103600083015261161581611417565b9050919050565b6000602082019050818103600083015261163581611457565b9050919050565b6000602082019050818103600083015261165581611497565b9050919050565b600060408201905061167160008301856114d7565b61167e60208301846114d7565b9392505050565b6000604051905081810181811067ffffffffffffffff821117156116ac576116ab6118bb565b5b8060405250919050565b600067ffffffffffffffff8211156116d1576116d06118bb565b5b601f19601f8301169050602081019050919050565b60008190508160005260206000209050919050565b600081519050919050565b600082825260208201905092915050565b6000611722826117df565b915061172d836117df565b9250827fffffffffffffffffffffffffffffffffffffffffffffffffffffffffffffffff038211156117625761176161185d565b5b828201905092915050565b6000611778826117df565b9150611783836117df565b9250828210156117965761179561185d565b5b828203905092915050565b60006117ac826117bf565b9050919050565b60008115159050919050565b600073ffffffffffffffffffffffffffffffffffffffff82169050919050565b6000819050919050565b82818337600083830152505050565b60005b838110156118165780820151818401526020810190506117fb565b83811115611825576000848401525b50505050565b6000600282049050600182168061184357607f821691505b602082108114156118575761185661188c565b5b50919050565b7f4e487b7100000000000000000000000000000000000000000000000000000000600052601160045260246000fd5b7f4e487b7100000000000000000000000000000000000000000000000000000000600052602260045260246000fd5b7f4e487b7100000000000000000000000000000000000000000000000000000000600052604160045260246000fd5b6000601f19601f8301169050919050565b611904816117a1565b811461190f57600080fd5b50565b61191b816117b3565b811461192657600080fd5b50565b611932816117df565b811461193d57600080fd5b5056fea2646970667358221220c0a8d46c71fca04aec893d079f0ce571c9d0e6257cb29b8820cb351dcfca58c664736f6c63430008000033",
  "immutableReferences": {},
  "source": "// SPDX-License-Identifier: MIT\r\npragma solidity ^0.8.0;\r\n\r\ncontract PointlyUser {\r\n    // Owner of the contract (platform admin)\r\n    address public owner;\r\n\r\n    // User structure for storing user data\r\n    struct User {\r\n        string email;\r\n        string name;\r\n        string phone;\r\n        string addressDetails; // Renamed to avoid keyword conflict\r\n        string profileImage;\r\n        string tier;\r\n        uint256 totalPoints;\r\n        uint256 availablePoints;\r\n        bool exists; // To check if a user exists\r\n    }\r\n\r\n    // Mapping of addresses to users\r\n    mapping(address => User) private users;\r\n\r\n    // Events for logging actions\r\n    event UserCreated(address indexed userAddress, string name);\r\n    event PointsUpdated(address indexed userAddress, uint256 newTotalPoints, uint256 newAvailablePoints);\r\n    event TierUpdated(address indexed userAddress, string newTier);\r\n    event UserDeleted(address indexed userAddress);\r\n\r\n    // Constructor to initialize the contract owner\r\n    constructor() {\r\n        owner = msg.sender; // Assign contract deployer as owner\r\n    }\r\n\r\n    // Function to create a new user\r\n    function createUser(\r\n        string memory email,\r\n        string memory name,\r\n        string memory phone,\r\n        string memory addressDetails,\r\n        string memory profileImage\r\n    ) public {\r\n        require(!users[msg.sender].exists, \"User already exists\");\r\n\r\n        users[msg.sender] = User({\r\n            email: email,\r\n            name: name,\r\n            phone: phone,\r\n            addressDetails: addressDetails,\r\n            profileImage: profileImage,\r\n            tier: \"Quartz\",\r\n            totalPoints: 0,\r\n            availablePoints: 0,\r\n            exists: true\r\n        });\r\n\r\n        emit UserCreated(msg.sender, name);\r\n    }\r\n\r\n    // Function to get user details\r\n    function getUser(address userAddress) \r\n    public \r\n    view \r\n    returns (\r\n        string memory email,\r\n        string memory name,\r\n        string memory phone,\r\n        string memory addressDetails,\r\n        string memory profileImage,\r\n        string memory tier,\r\n        uint256 totalPoints,\r\n        uint256 availablePoints,\r\n        bool exists\r\n    ) \r\n    {\r\n        require(users[userAddress].exists, \"User does not exist\");\r\n        User memory user = users[userAddress];\r\n\r\n        return (\r\n            user.email,\r\n            user.name,\r\n            user.phone,\r\n            user.addressDetails,\r\n            user.profileImage,\r\n            user.tier,\r\n            user.totalPoints,\r\n            user.availablePoints,\r\n            user.exists\r\n        );\r\n    }\r\n\r\n\r\n    // Function to update points\r\n    function updatePoints(address userAddress, uint256 points, bool isAddition) public {\r\n        require(users[userAddress].exists, \"User does not exist\");\r\n\r\n        if (isAddition) {\r\n            users[userAddress].totalPoints += points;\r\n            users[userAddress].availablePoints += points;\r\n        } else {\r\n            require(users[userAddress].availablePoints >= points, \"Insufficient points\");\r\n            users[userAddress].availablePoints -= points;\r\n        }\r\n\r\n        updateUserTier(userAddress);\r\n\r\n        emit PointsUpdated(\r\n            userAddress,\r\n            users[userAddress].totalPoints,\r\n            users[userAddress].availablePoints\r\n        );\r\n    }\r\n\r\n    // Internal function to update the user's tier\r\n    function updateUserTier(address userAddress) internal {\r\n        uint256 totalPoints = users[userAddress].totalPoints;\r\n\r\n        if (totalPoints >= 10000) {\r\n            users[userAddress].tier = \"Diamond\";\r\n        } else if (totalPoints >= 5000) {\r\n            users[userAddress].tier = \"Sapphire\";\r\n        } else if (totalPoints >= 1000) {\r\n            users[userAddress].tier = \"Emerald\";\r\n        } else {\r\n            users[userAddress].tier = \"Quartz\";\r\n        }\r\n\r\n        emit TierUpdated(userAddress, users[userAddress].tier);\r\n    }\r\n\r\n    // Function to delete a user\r\n    function deleteUser() public {\r\n        require(users[msg.sender].exists, \"User does not exist\");\r\n\r\n        delete users[msg.sender];\r\n        emit UserDeleted(msg.sender);\r\n    }\r\n}\r\n",
  "sourcePath": "C:\\Users\\user\\Documents\\MMU\\Pointly-Blockchain\\Pointly-Blockchain\\contracts\\PointlyUser.sol",
  "compiler": {
    "name": "solc",
    "version": "0.8.0+commit.c7dfd78e.Emscripten.clang"
  },
  "schemaVersion": "3.4.16",
  "updatedAt": "2025-01-18T10:45:05.069Z",
  "networkType": "ethereum",
  "devdoc": {
    "kind": "dev",
    "methods": {},
    "version": 1
  },
  "userdoc": {
    "kind": "user",
    "methods": {},
    "version": 1
  }
}