{
  "contractName": "PointlyUser",
  "abi": [
    {
      "inputs": [],
      "stateMutability": "nonpayable",
      "type": "constructor"
    },
    {
      "anonymous": false,
      "inputs": [
        {
          "indexed": true,
          "internalType": "address",
          "name": "userAddress",
          "type": "address"
        },
        {
          "indexed": false,
          "internalType": "uint256",
          "name": "newTotalPoints",
          "type": "uint256"
        },
        {
          "indexed": false,
          "internalType": "uint256",
          "name": "newAvailablePoints",
          "type": "uint256"
        }
      ],
      "name": "PointsUpdated",
      "type": "event"
    },
    {
      "anonymous": false,
      "inputs": [
        {
          "indexed": true,
          "internalType": "address",
          "name": "userAddress",
          "type": "address"
        },
        {
          "indexed": false,
          "internalType": "string",
          "name": "newTier",
          "type": "string"
        }
      ],
      "name": "TierUpdated",
      "type": "event"
    },
    {
      "anonymous": false,
      "inputs": [
        {
          "indexed": true,
          "internalType": "address",
          "name": "userAddress",
          "type": "address"
        },
        {
          "indexed": false,
          "internalType": "string",
          "name": "name",
          "type": "string"
        }
      ],
      "name": "UserCreated",
      "type": "event"
    },
    {
      "anonymous": false,
      "inputs": [
        {
          "indexed": true,
          "internalType": "address",
          "name": "userAddress",
          "type": "address"
        }
      ],
      "name": "UserDeleted",
      "type": "event"
    },
    {
      "inputs": [],
      "name": "owner",
      "outputs": [
        {
          "internalType": "address",
          "name": "",
          "type": "address"
        }
      ],
      "stateMutability": "view",
      "type": "function",
      "constant": true
    },
    {
      "inputs": [
        {
          "internalType": "address",
          "name": "userAddress",
          "type": "address"
        },
        {
          "internalType": "string",
          "name": "email",
          "type": "string"
        },
        {
          "internalType": "string",
          "name": "name",
          "type": "string"
        },
        {
          "internalType": "string",
          "name": "phone",
          "type": "string"
        },
        {
          "internalType": "string",
          "name": "addressDetails",
          "type": "string"
        },
        {
          "internalType": "string",
          "name": "profileImage",
          "type": "string"
        }
      ],
      "name": "createUser",
      "outputs": [],
      "stateMutability": "nonpayable",
      "type": "function"
    },
    {
      "inputs": [
        {
          "internalType": "address",
          "name": "userAddress",
          "type": "address"
        }
      ],
      "name": "getUser",
      "outputs": [
        {
          "internalType": "string",
          "name": "email",
          "type": "string"
        },
        {
          "internalType": "string",
          "name": "name",
          "type": "string"
        },
        {
          "internalType": "string",
          "name": "phone",
          "type": "string"
        },
        {
          "internalType": "string",
          "name": "addressDetails",
          "type": "string"
        },
        {
          "internalType": "string",
          "name": "profileImage",
          "type": "string"
        },
        {
          "internalType": "string",
          "name": "tier",
          "type": "string"
        },
        {
          "internalType": "uint256",
          "name": "totalPoints",
          "type": "uint256"
        },
        {
          "internalType": "uint256",
          "name": "availablePoints",
          "type": "uint256"
        }
      ],
      "stateMutability": "view",
      "type": "function",
      "constant": true
    },
    {
      "inputs": [
        {
          "internalType": "address",
          "name": "userAddress",
          "type": "address"
        },
        {
          "internalType": "uint256",
          "name": "points",
          "type": "uint256"
        },
        {
          "internalType": "bool",
          "name": "isAddition",
          "type": "bool"
        }
      ],
      "name": "updatePoints",
      "outputs": [],
      "stateMutability": "nonpayable",
      "type": "function"
    },
    {
      "inputs": [
        {
          "internalType": "address",
          "name": "userAddress",
          "type": "address"
        }
      ],
      "name": "deleteUser",
      "outputs": [],
      "stateMutability": "nonpayable",
      "type": "function"
    }
  ],
  "bytecode": "0x608060405234801561001057600080fd5b50336000806101000a81548173ffffffffffffffffffffffffffffffffffffffff021916908373ffffffffffffffffffffffffffffffffffffffff160217905550611b7b806100606000396000f3fe608060405234801561001057600080fd5b50600436106100575760003560e01c80635c60f2261461005c5780636f77926b146100785780638da5cb5b146100af578063a377d18f146100cd578063c2bb5e13146100e9575b600080fd5b6100766004803603810190610071919061138a565b610105565b005b610092600480360381019061008d919061138a565b61032e565b6040516100a6989796959493929190611717565b60405180910390f35b6100b76107f7565b6040516100c491906116da565b60405180910390f35b6100e760048036038101906100e291906113b3565b61081b565b005b61010360048036038101906100fe91906114b4565b610b2e565b005b60008054906101000a900473ffffffffffffffffffffffffffffffffffffffff1673ffffffffffffffffffffffffffffffffffffffff163373ffffffffffffffffffffffffffffffffffffffff1614610193576040517f08c379a000000000000000000000000000000000000000000000000000000000815260040161018a90611841565b60405180910390fd5b600160008273ffffffffffffffffffffffffffffffffffffffff1673ffffffffffffffffffffffffffffffffffffffff16815260200190815260200160002060080160009054906101000a900460ff16610222576040517f08c379a000000000000000000000000000000000000000000000000000000000815260040161021990611801565b60405180910390fd5b600160008273ffffffffffffffffffffffffffffffffffffffff1673ffffffffffffffffffffffffffffffffffffffff168152602001908152602001600020600080820160006102729190611200565b6001820160006102829190611200565b6002820160006102929190611200565b6003820160006102a29190611200565b6004820160006102b29190611200565b6005820160006102c29190611200565b600682016000905560078201600090556008820160006101000a81549060ff021916905550508073ffffffffffffffffffffffffffffffffffffffff167f4bc56f1321288dfb5b416cb3a7fd188723979f9e866c91d88eccf7fca039d03960405160405180910390a250565b606080606080606080600080600160008a73ffffffffffffffffffffffffffffffffffffffff1673ffffffffffffffffffffffffffffffffffffffff16815260200190815260200160002060080160009054906101000a900460ff166103c9576040517f08c379a00000000000000000000000000000000000000000000000000000000081526004016103c090611801565b60405180910390fd5b6000600160008b73ffffffffffffffffffffffffffffffffffffffff1673ffffffffffffffffffffffffffffffffffffffff1681526020019081526020016000206040518061012001604052908160008201805461042690611a30565b80601f016020809104026020016040519081016040528092919081815260200182805461045290611a30565b801561049f5780601f106104745761010080835404028352916020019161049f565b820191906000526020600020905b81548152906001019060200180831161048257829003601f168201915b505050505081526020016001820180546104b890611a30565b80601f01602080910402602001604051908101604052809291908181526020018280546104e490611a30565b80156105315780601f1061050657610100808354040283529160200191610531565b820191906000526020600020905b81548152906001019060200180831161051457829003601f168201915b5050505050815260200160028201805461054a90611a30565b80601f016020809104026020016040519081016040528092919081815260200182805461057690611a30565b80156105c35780601f10610598576101008083540402835291602001916105c3565b820191906000526020600020905b8154815290600101906020018083116105a657829003601f168201915b505050505081526020016003820180546105dc90611a30565b80601f016020809104026020016040519081016040528092919081815260200182805461060890611a30565b80156106555780601f1061062a57610100808354040283529160200191610655565b820191906000526020600020905b81548152906001019060200180831161063857829003601f168201915b5050505050815260200160048201805461066e90611a30565b80601f016020809104026020016040519081016040528092919081815260200182805461069a90611a30565b80156106e75780601f106106bc576101008083540402835291602001916106e7565b820191906000526020600020905b8154815290600101906020018083116106ca57829003601f168201915b5050505050815260200160058201805461070090611a30565b80601f016020809104026020016040519081016040528092919081815260200182805461072c90611a30565b80156107795780601f1061074e57610100808354040283529160200191610779565b820191906000526020600020905b81548152906001019060200180831161075c57829003601f168201915b5050505050815260200160068201548152602001600782015481526020016008820160009054906101000a900460ff1615151515815250509050806000015181602001518260400151836060015184608001518560a001518660c001518760e001519850985098509850985098509850985050919395975091939597565b60008054906101000a900473ffffffffffffffffffffffffffffffffffffffff1681565b60008054906101000a900473ffffffffffffffffffffffffffffffffffffffff1673ffffffffffffffffffffffffffffffffffffffff163373ffffffffffffffffffffffffffffffffffffffff16146108a9576040517f08c379a00000000000000000000000000000000000000000000000000000000081526004016108a090611841565b60405180910390fd5b600160008773ffffffffffffffffffffffffffffffffffffffff1673ffffffffffffffffffffffffffffffffffffffff16815260200190815260200160002060080160009054906101000a900460ff1615610939576040517f08c379a0000000000000000000000000000000000000000000000000000000008152600401610930906117e1565b60405180910390fd5b6040518061012001604052808681526020018581526020018481526020018381526020018281526020016040518060400160405280600681526020017f51756172747a00000000000000000000000000000000000000000000000000008152508152602001600081526020016000815260200160011515815250600160008873ffffffffffffffffffffffffffffffffffffffff1673ffffffffffffffffffffffffffffffffffffffff1681526020019081526020016000206000820151816000019080519060200190610a0e929190611240565b506020820151816001019080519060200190610a2b929190611240565b506040820151816002019080519060200190610a48929190611240565b506060820151816003019080519060200190610a65929190611240565b506080820151816004019080519060200190610a82929190611240565b5060a0820151816005019080519060200190610a9f929190611240565b5060c0820151816006015560e082015181600701556101008201518160080160006101000a81548160ff0219169083151502179055509050508573ffffffffffffffffffffffffffffffffffffffff167f9954bce02f72fbdef0fa668ac6f42e434b5829615dac2fb22448054d2359d4f685604051610b1e91906116f5565b60405180910390a2505050505050565b60008054906101000a900473ffffffffffffffffffffffffffffffffffffffff1673ffffffffffffffffffffffffffffffffffffffff163373ffffffffffffffffffffffffffffffffffffffff1614610bbc576040517f08c379a0000000000000000000000000000000000000000000000000000000008152600401610bb390611841565b60405180910390fd5b600160008473ffffffffffffffffffffffffffffffffffffffff1673ffffffffffffffffffffffffffffffffffffffff16815260200190815260200160002060080160009054906101000a900460ff16610c4b576040517f08c379a0000000000000000000000000000000000000000000000000000000008152600401610c4290611801565b60405180910390fd5b8015610d085781600160008573ffffffffffffffffffffffffffffffffffffffff1673ffffffffffffffffffffffffffffffffffffffff1681526020019081526020016000206006016000828254610ca3919061191c565b9250508190555081600160008573ffffffffffffffffffffffffffffffffffffffff1673ffffffffffffffffffffffffffffffffffffffff1681526020019081526020016000206007016000828254610cfc919061191c565b92505081905550610de7565b81600160008573ffffffffffffffffffffffffffffffffffffffff1673ffffffffffffffffffffffffffffffffffffffff168152602001908152602001600020600701541015610d8d576040517f08c379a0000000000000000000000000000000000000000000000000000000008152600401610d8490611821565b60405180910390fd5b81600160008573ffffffffffffffffffffffffffffffffffffffff1673ffffffffffffffffffffffffffffffffffffffff1681526020019081526020016000206007016000828254610ddf9190611972565b925050819055505b610df083610ec9565b8273ffffffffffffffffffffffffffffffffffffffff167feceb10b266995afd3009502df537b0421b7f635dd268f4b0a74b99a87be65213600160008673ffffffffffffffffffffffffffffffffffffffff1673ffffffffffffffffffffffffffffffffffffffff16815260200190815260200160002060060154600160008773ffffffffffffffffffffffffffffffffffffffff1673ffffffffffffffffffffffffffffffffffffffff16815260200190815260200160002060070154604051610ebc929190611861565b60405180910390a2505050565b6000600160008373ffffffffffffffffffffffffffffffffffffffff1673ffffffffffffffffffffffffffffffffffffffff1681526020019081526020016000206006015490506127108110610faa576040518060400160405280600781526020017f4469616d6f6e6400000000000000000000000000000000000000000000000000815250600160008473ffffffffffffffffffffffffffffffffffffffff1673ffffffffffffffffffffffffffffffffffffffff1681526020019081526020016000206005019080519060200190610fa4929190611240565b5061116d565b6113888110611044576040518060400160405280600881526020017f5361707068697265000000000000000000000000000000000000000000000000815250600160008473ffffffffffffffffffffffffffffffffffffffff1673ffffffffffffffffffffffffffffffffffffffff168152602001908152602001600020600501908051906020019061103e929190611240565b5061116c565b6103e881106110de576040518060400160405280600781526020017f456d6572616c6400000000000000000000000000000000000000000000000000815250600160008473ffffffffffffffffffffffffffffffffffffffff1673ffffffffffffffffffffffffffffffffffffffff16815260200190815260200160002060050190805190602001906110d8929190611240565b5061116b565b6040518060400160405280600681526020017f51756172747a0000000000000000000000000000000000000000000000000000815250600160008473ffffffffffffffffffffffffffffffffffffffff1673ffffffffffffffffffffffffffffffffffffffff1681526020019081526020016000206005019080519060200190611169929190611240565b505b5b5b8173ffffffffffffffffffffffffffffffffffffffff167f7c5463c5531ead7f0ba72ac58bed8430f619c4cfe506277c9d84245129f0df7a600160008573ffffffffffffffffffffffffffffffffffffffff1673ffffffffffffffffffffffffffffffffffffffff1681526020019081526020016000206005016040516111f491906117bf565b60405180910390a25050565b50805461120c90611a30565b6000825580601f1061121e575061123d565b601f01602090049060005260206000209081019061123c91906112c6565b5b50565b82805461124c90611a30565b90600052602060002090601f01602090048101928261126e57600085556112b5565b82601f1061128757805160ff19168380011785556112b5565b828001600101855582156112b5579182015b828111156112b4578251825591602001919060010190611299565b5b5090506112c291906112c6565b5090565b5b808211156112df5760008160009055506001016112c7565b5090565b60006112f66112f1846118bb565b61188a565b90508281526020810184848401111561130e57600080fd5b6113198482856119ee565b509392505050565b60008135905061133081611b00565b92915050565b60008135905061134581611b17565b92915050565b600082601f83011261135c57600080fd5b813561136c8482602086016112e3565b91505092915050565b60008135905061138481611b2e565b92915050565b60006020828403121561139c57600080fd5b60006113aa84828501611321565b91505092915050565b60008060008060008060c087890312156113cc57600080fd5b60006113da89828a01611321565b965050602087013567ffffffffffffffff8111156113f757600080fd5b61140389828a0161134b565b955050604087013567ffffffffffffffff81111561142057600080fd5b61142c89828a0161134b565b945050606087013567ffffffffffffffff81111561144957600080fd5b61145589828a0161134b565b935050608087013567ffffffffffffffff81111561147257600080fd5b61147e89828a0161134b565b92505060a087013567ffffffffffffffff81111561149b57600080fd5b6114a789828a0161134b565b9150509295509295509295565b6000806000606084860312156114c957600080fd5b60006114d786828701611321565b93505060206114e886828701611375565b92505060406114f986828701611336565b9150509250925092565b61150c816119a6565b82525050565b600061151d82611900565b611527818561190b565b93506115378185602086016119fd565b61154081611aef565b840191505092915050565b6000815461155881611a30565b611562818661190b565b9450600182166000811461157d576001811461158f576115c2565b60ff19831686526020860193506115c2565b611598856118eb565b60005b838110156115ba5781548189015260018201915060208101905061159b565b808801955050505b50505092915050565b60006115d860138361190b565b91507f5573657220616c726561647920657869737473000000000000000000000000006000830152602082019050919050565b600061161860138361190b565b91507f5573657220646f6573206e6f74206578697374000000000000000000000000006000830152602082019050919050565b600061165860138361190b565b91507f496e73756666696369656e7420706f696e7473000000000000000000000000006000830152602082019050919050565b6000611698600e8361190b565b91507f4e6f7420617574686f72697a65640000000000000000000000000000000000006000830152602082019050919050565b6116d4816119e4565b82525050565b60006020820190506116ef6000830184611503565b92915050565b6000602082019050818103600083015261170f8184611512565b905092915050565b6000610100820190508181036000830152611732818b611512565b90508181036020830152611746818a611512565b9050818103604083015261175a8189611512565b9050818103606083015261176e8188611512565b905081810360808301526117828187611512565b905081810360a08301526117968186611512565b90506117a560c08301856116cb565b6117b260e08301846116cb565b9998505050505050505050565b600060208201905081810360008301526117d9818461154b565b905092915050565b600060208201905081810360008301526117fa816115cb565b9050919050565b6000602082019050818103600083015261181a8161160b565b9050919050565b6000602082019050818103600083015261183a8161164b565b9050919050565b6000602082019050818103600083015261185a8161168b565b9050919050565b600060408201905061187660008301856116cb565b61188360208301846116cb565b9392505050565b6000604051905081810181811067ffffffffffffffff821117156118b1576118b0611ac0565b5b8060405250919050565b600067ffffffffffffffff8211156118d6576118d5611ac0565b5b601f19601f8301169050602081019050919050565b60008190508160005260206000209050919050565b600081519050919050565b600082825260208201905092915050565b6000611927826119e4565b9150611932836119e4565b9250827fffffffffffffffffffffffffffffffffffffffffffffffffffffffffffffffff0382111561196757611966611a62565b5b828201905092915050565b600061197d826119e4565b9150611988836119e4565b92508282101561199b5761199a611a62565b5b828203905092915050565b60006119b1826119c4565b9050919050565b60008115159050919050565b600073ffffffffffffffffffffffffffffffffffffffff82169050919050565b6000819050919050565b82818337600083830152505050565b60005b83811015611a1b578082015181840152602081019050611a00565b83811115611a2a576000848401525b50505050565b60006002820490506001821680611a4857607f821691505b60208210811415611a5c57611a5b611a91565b5b50919050565b7f4e487b7100000000000000000000000000000000000000000000000000000000600052601160045260246000fd5b7f4e487b7100000000000000000000000000000000000000000000000000000000600052602260045260246000fd5b7f4e487b7100000000000000000000000000000000000000000000000000000000600052604160045260246000fd5b6000601f19601f8301169050919050565b611b09816119a6565b8114611b1457600080fd5b50565b611b20816119b8565b8114611b2b57600080fd5b50565b611b37816119e4565b8114611b4257600080fd5b5056fea26469706673582212200a1fa7827e30df77252744cebeeb0686043d356192317f509e7e6885d2cd21a064736f6c63430008000033",
  "immutableReferences": {},
  "source": "// SPDX-License-Identifier: MIT\r\npragma solidity ^0.8.0;\r\n\r\ncontract PointlyUser {\r\n\r\n    // Owner of the contract (platform admin)\r\n    address public owner;\r\n\r\n    // User structure for storing user data\r\n    struct User {\r\n        string email;\r\n        string name;\r\n        string phone;\r\n        string addressDetails;  // Renamed to avoid keyword conflict\r\n        string profileImage;\r\n        string tier;\r\n        uint256 totalPoints;\r\n        uint256 availablePoints;\r\n        bool exists; // To check if a user exists\r\n    }\r\n\r\n    // Mapping of addresses to users\r\n    mapping(address => User) private users;\r\n\r\n    // Events for logging actions\r\n    event UserCreated(address indexed userAddress, string name);\r\n    event PointsUpdated(address indexed userAddress, uint256 newTotalPoints, uint256 newAvailablePoints);\r\n    event TierUpdated(address indexed userAddress, string newTier);\r\n    event UserDeleted(address indexed userAddress);\r\n\r\n    // Modifier for restricting access to owner\r\n    modifier onlyOwner() {\r\n        require(msg.sender == owner, \"Not authorized\");\r\n        _;\r\n    }\r\n\r\n    constructor() {\r\n        owner = msg.sender; // Assign contract deployer as owner\r\n    }\r\n\r\n    // Function to create a new user\r\n    function createUser(\r\n        address userAddress,\r\n        string memory email,\r\n        string memory name,\r\n        string memory phone,\r\n        string memory addressDetails,\r\n        string memory profileImage\r\n    ) public onlyOwner {\r\n        require(!users[userAddress].exists, \"User already exists\");\r\n        \r\n        users[userAddress] = User({\r\n            email: email,\r\n            name: name,\r\n            phone: phone,\r\n            addressDetails: addressDetails,\r\n            profileImage: profileImage,\r\n            tier: \"Quartz\",\r\n            totalPoints: 0,\r\n            availablePoints: 0,\r\n            exists: true\r\n        });\r\n\r\n        emit UserCreated(userAddress, name);\r\n    }\r\n\r\n    // Function to get user details\r\n    function getUser(address userAddress) \r\n        public \r\n        view \r\n        returns (\r\n            string memory email,\r\n            string memory name,\r\n            string memory phone,\r\n            string memory addressDetails,\r\n            string memory profileImage,\r\n            string memory tier,\r\n            uint256 totalPoints,\r\n            uint256 availablePoints\r\n        ) \r\n    {\r\n        require(users[userAddress].exists, \"User does not exist\");\r\n        User memory user = users[userAddress];\r\n\r\n        return (\r\n            user.email,\r\n            user.name,\r\n            user.phone,\r\n            user.addressDetails,\r\n            user.profileImage,\r\n            user.tier,\r\n            user.totalPoints,\r\n            user.availablePoints\r\n        );\r\n    }\r\n\r\n    // Function to update points\r\n    function updatePoints(address userAddress, uint256 points, bool isAddition) public onlyOwner {\r\n        require(users[userAddress].exists, \"User does not exist\");\r\n\r\n        if (isAddition) {\r\n            users[userAddress].totalPoints += points;\r\n            users[userAddress].availablePoints += points;\r\n        } else {\r\n            require(users[userAddress].availablePoints >= points, \"Insufficient points\");\r\n            users[userAddress].availablePoints -= points;\r\n        }\r\n\r\n        updateUserTier(userAddress);\r\n\r\n        emit PointsUpdated(\r\n            userAddress,\r\n            users[userAddress].totalPoints,\r\n            users[userAddress].availablePoints\r\n        );\r\n    }\r\n\r\n    // Internal function to update the user's tier\r\n    function updateUserTier(address userAddress) internal {\r\n        uint256 totalPoints = users[userAddress].totalPoints;\r\n\r\n        if (totalPoints >= 10000) {\r\n            users[userAddress].tier = \"Diamond\";\r\n        } else if (totalPoints >= 5000) {\r\n            users[userAddress].tier = \"Sapphire\";\r\n        } else if (totalPoints >= 1000) {\r\n            users[userAddress].tier = \"Emerald\";\r\n        } else {\r\n            users[userAddress].tier = \"Quartz\";\r\n        }\r\n\r\n        emit TierUpdated(userAddress, users[userAddress].tier);\r\n    }\r\n\r\n    // Function to delete a user\r\n    function deleteUser(address userAddress) public onlyOwner {\r\n        require(users[userAddress].exists, \"User does not exist\");\r\n\r\n        delete users[userAddress];\r\n        emit UserDeleted(userAddress);\r\n    }\r\n}\r\n",
  "sourcePath": "C:\\Users\\azriy\\Pointly-Blockchain\\contracts\\PointlyUser.sol",
  "compiler": {
    "name": "solc",
    "version": "0.8.0+commit.c7dfd78e.Emscripten.clang"
  },
  "schemaVersion": "3.4.16",
  "updatedAt": "2025-01-12T18:16:28.736Z",
  "networkType": "ethereum",
  "devdoc": {
    "kind": "dev",
    "methods": {},
    "version": 1
  },
  "userdoc": {
    "kind": "user",
    "methods": {},
    "version": 1
  }
}