{
	"src/services/PointlyUser.sol": {
		"PointlyUser": {
			"abi": [
				{
					"inputs": [],
					"stateMutability": "nonpayable",
					"type": "constructor"
				},
				{
					"anonymous": false,
					"inputs": [
						{
							"indexed": true,
							"internalType": "address",
							"name": "userAddress",
							"type": "address"
						},
						{
							"indexed": false,
							"internalType": "uint256",
							"name": "newTotalPoints",
							"type": "uint256"
						},
						{
							"indexed": false,
							"internalType": "uint256",
							"name": "newAvailablePoints",
							"type": "uint256"
						}
					],
					"name": "PointsUpdated",
					"type": "event"
				},
				{
					"anonymous": false,
					"inputs": [
						{
							"indexed": true,
							"internalType": "address",
							"name": "userAddress",
							"type": "address"
						},
						{
							"indexed": false,
							"internalType": "string",
							"name": "newTier",
							"type": "string"
						}
					],
					"name": "TierUpdated",
					"type": "event"
				},
				{
					"anonymous": false,
					"inputs": [
						{
							"indexed": true,
							"internalType": "address",
							"name": "userAddress",
							"type": "address"
						},
						{
							"indexed": false,
							"internalType": "string",
							"name": "name",
							"type": "string"
						}
					],
					"name": "UserCreated",
					"type": "event"
				},
				{
					"anonymous": false,
					"inputs": [
						{
							"indexed": true,
							"internalType": "address",
							"name": "userAddress",
							"type": "address"
						}
					],
					"name": "UserDeleted",
					"type": "event"
				},
				{
					"inputs": [
						{
							"internalType": "address",
							"name": "userAddress",
							"type": "address"
						},
						{
							"internalType": "string",
							"name": "email",
							"type": "string"
						},
						{
							"internalType": "string",
							"name": "name",
							"type": "string"
						},
						{
							"internalType": "string",
							"name": "phone",
							"type": "string"
						},
						{
							"internalType": "string",
							"name": "addressDetails",
							"type": "string"
						},
						{
							"internalType": "string",
							"name": "profileImage",
							"type": "string"
						}
					],
					"name": "createUser",
					"outputs": [],
					"stateMutability": "nonpayable",
					"type": "function"
				},
				{
					"inputs": [
						{
							"internalType": "address",
							"name": "userAddress",
							"type": "address"
						}
					],
					"name": "deleteUser",
					"outputs": [],
					"stateMutability": "nonpayable",
					"type": "function"
				},
				{
					"inputs": [
						{
							"internalType": "address",
							"name": "userAddress",
							"type": "address"
						}
					],
					"name": "getUser",
					"outputs": [
						{
							"internalType": "string",
							"name": "email",
							"type": "string"
						},
						{
							"internalType": "string",
							"name": "name",
							"type": "string"
						},
						{
							"internalType": "string",
							"name": "phone",
							"type": "string"
						},
						{
							"internalType": "string",
							"name": "addressDetails",
							"type": "string"
						},
						{
							"internalType": "string",
							"name": "profileImage",
							"type": "string"
						},
						{
							"internalType": "string",
							"name": "tier",
							"type": "string"
						},
						{
							"internalType": "uint256",
							"name": "totalPoints",
							"type": "uint256"
						},
						{
							"internalType": "uint256",
							"name": "availablePoints",
							"type": "uint256"
						}
					],
					"stateMutability": "view",
					"type": "function"
				},
				{
					"inputs": [],
					"name": "owner",
					"outputs": [
						{
							"internalType": "address",
							"name": "",
							"type": "address"
						}
					],
					"stateMutability": "view",
					"type": "function"
				},
				{
					"inputs": [
						{
							"internalType": "address",
							"name": "userAddress",
							"type": "address"
						},
						{
							"internalType": "uint256",
							"name": "points",
							"type": "uint256"
						},
						{
							"internalType": "bool",
							"name": "isAddition",
							"type": "bool"
						}
					],
					"name": "updatePoints",
					"outputs": [],
					"stateMutability": "nonpayable",
					"type": "function"
				}
			],
			"devdoc": {
				"kind": "dev",
				"methods": {},
				"version": 1
			},
			"evm": {
				"assembly": "    /* \"src/services/PointlyUser.sol\":60:4380  contract PointlyUser {... */\n  mstore(0x40, 0x80)\n    /* \"src/services/PointlyUser.sol\":1116:1204  constructor() {... */\n  callvalue\n  dup1\n  iszero\n  tag_1\n  jumpi\n  0x00\n  dup1\n  revert\ntag_1:\n  pop\n    /* \"src/services/PointlyUser.sol\":1149:1159  msg.sender */\n  caller\n    /* \"src/services/PointlyUser.sol\":1141:1146  owner */\n  0x00\n  dup1\n    /* \"src/services/PointlyUser.sol\":1141:1159  owner = msg.sender */\n  0x0100\n  exp\n  dup2\n  sload\n  dup2\n  0xffffffffffffffffffffffffffffffffffffffff\n  mul\n  not\n  and\n  swap1\n  dup4\n  0xffffffffffffffffffffffffffffffffffffffff\n  and\n  mul\n  or\n  swap1\n  sstore\n  pop\n    /* \"src/services/PointlyUser.sol\":60:4380  contract PointlyUser {... */\n  dataSize(sub_0)\n  dup1\n  dataOffset(sub_0)\n  0x00\n  codecopy\n  0x00\n  return\nstop\n\nsub_0: assembly {\n        /* \"src/services/PointlyUser.sol\":60:4380  contract PointlyUser {... */\n      mstore(0x40, 0x80)\n      callvalue\n      dup1\n      iszero\n      tag_1\n      jumpi\n      0x00\n      dup1\n      revert\n    tag_1:\n      pop\n      jumpi(tag_2, lt(calldatasize, 0x04))\n      shr(0xe0, calldataload(0x00))\n      dup1\n      0x5c60f226\n      eq\n      tag_3\n      jumpi\n      dup1\n      0x6f77926b\n      eq\n      tag_4\n      jumpi\n      dup1\n      0x8da5cb5b\n      eq\n      tag_5\n      jumpi\n      dup1\n      0xa377d18f\n      eq\n      tag_6\n      jumpi\n      dup1\n      0xc2bb5e13\n      eq\n      tag_7\n      jumpi\n    tag_2:\n      0x00\n      dup1\n      revert\n        /* \"src/services/PointlyUser.sol\":4165:4377  function deleteUser(address userAddress) public onlyOwner {... */\n    tag_3:\n      tag_8\n      0x04\n      dup1\n      calldatasize\n      sub\n      dup2\n      add\n      swap1\n      tag_9\n      swap2\n      swap1\n      tag_10\n      jump\t// in\n    tag_9:\n      tag_11\n      jump\t// in\n    tag_8:\n      stop\n        /* \"src/services/PointlyUser.sol\":2001:2782  function getUser(address userAddress) ... */\n    tag_4:\n      tag_12\n      0x04\n      dup1\n      calldatasize\n      sub\n      dup2\n      add\n      swap1\n      tag_13\n      swap2\n      swap1\n      tag_10\n      jump\t// in\n    tag_13:\n      tag_14\n      jump\t// in\n    tag_12:\n      mload(0x40)\n      tag_15\n      swap9\n      swap8\n      swap7\n      swap6\n      swap5\n      swap4\n      swap3\n      swap2\n      swap1\n      tag_16\n      jump\t// in\n    tag_15:\n      mload(0x40)\n      dup1\n      swap2\n      sub\n      swap1\n      return\n        /* \"src/services/PointlyUser.sol\":137:157  address public owner */\n    tag_5:\n      tag_17\n      tag_18\n      jump\t// in\n    tag_17:\n      mload(0x40)\n      tag_19\n      swap2\n      swap1\n      tag_20\n      jump\t// in\n    tag_19:\n      mload(0x40)\n      dup1\n      swap2\n      sub\n      swap1\n      return\n        /* \"src/services/PointlyUser.sol\":1250:1956  function createUser(... */\n    tag_6:\n      tag_21\n      0x04\n      dup1\n      calldatasize\n      sub\n      dup2\n      add\n      swap1\n      tag_22\n      swap2\n      swap1\n      tag_23\n      jump\t// in\n    tag_22:\n      tag_24\n      jump\t// in\n    tag_21:\n      stop\n        /* \"src/services/PointlyUser.sol\":2824:3517  function updatePoints(address userAddress, uint256 points, bool isAddition) public onlyOwner {... */\n    tag_7:\n      tag_25\n      0x04\n      dup1\n      calldatasize\n      sub\n      dup2\n      add\n      swap1\n      tag_26\n      swap2\n      swap1\n      tag_27\n      jump\t// in\n    tag_26:\n      tag_28\n      jump\t// in\n    tag_25:\n      stop\n        /* \"src/services/PointlyUser.sol\":4165:4377  function deleteUser(address userAddress) public onlyOwner {... */\n    tag_11:\n        /* \"src/services/PointlyUser.sol\":1064:1069  owner */\n      0x00\n      dup1\n      sload\n      swap1\n      0x0100\n      exp\n      swap1\n      div\n      0xffffffffffffffffffffffffffffffffffffffff\n      and\n        /* \"src/services/PointlyUser.sol\":1050:1069  msg.sender == owner */\n      0xffffffffffffffffffffffffffffffffffffffff\n      and\n        /* \"src/services/PointlyUser.sol\":1050:1060  msg.sender */\n      caller\n        /* \"src/services/PointlyUser.sol\":1050:1069  msg.sender == owner */\n      0xffffffffffffffffffffffffffffffffffffffff\n      and\n      eq\n        /* \"src/services/PointlyUser.sol\":1042:1088  require(msg.sender == owner, \"Not authorized\") */\n      tag_30\n      jumpi\n      mload(0x40)\n      0x08c379a000000000000000000000000000000000000000000000000000000000\n      dup2\n      mstore\n      0x04\n      add\n      tag_31\n      swap1\n      tag_32\n      jump\t// in\n    tag_31:\n      mload(0x40)\n      dup1\n      swap2\n      sub\n      swap1\n      revert\n    tag_30:\n        /* \"src/services/PointlyUser.sol\":4242:4247  users */\n      0x01\n        /* \"src/services/PointlyUser.sol\":4242:4260  users[userAddress] */\n      0x00\n        /* \"src/services/PointlyUser.sol\":4248:4259  userAddress */\n      dup3\n        /* \"src/services/PointlyUser.sol\":4242:4260  users[userAddress] */\n      0xffffffffffffffffffffffffffffffffffffffff\n      and\n      0xffffffffffffffffffffffffffffffffffffffff\n      and\n      dup2\n      mstore\n      0x20\n      add\n      swap1\n      dup2\n      mstore\n      0x20\n      add\n      0x00\n      keccak256\n        /* \"src/services/PointlyUser.sol\":4242:4267  users[userAddress].exists */\n      0x08\n      add\n      0x00\n      swap1\n      sload\n      swap1\n      0x0100\n      exp\n      swap1\n      div\n      0xff\n      and\n        /* \"src/services/PointlyUser.sol\":4234:4291  require(users[userAddress].exists, \"User does not exist\") */\n      tag_34\n      jumpi\n      mload(0x40)\n      0x08c379a000000000000000000000000000000000000000000000000000000000\n      dup2\n      mstore\n      0x04\n      add\n      tag_35\n      swap1\n      tag_36\n      jump\t// in\n    tag_35:\n      mload(0x40)\n      dup1\n      swap2\n      sub\n      swap1\n      revert\n    tag_34:\n        /* \"src/services/PointlyUser.sol\":4311:4316  users */\n      0x01\n        /* \"src/services/PointlyUser.sol\":4311:4329  users[userAddress] */\n      0x00\n        /* \"src/services/PointlyUser.sol\":4317:4328  userAddress */\n      dup3\n        /* \"src/services/PointlyUser.sol\":4311:4329  users[userAddress] */\n      0xffffffffffffffffffffffffffffffffffffffff\n      and\n      0xffffffffffffffffffffffffffffffffffffffff\n      and\n      dup2\n      mstore\n      0x20\n      add\n      swap1\n      dup2\n      mstore\n      0x20\n      add\n      0x00\n      keccak256\n      0x00\n        /* \"src/services/PointlyUser.sol\":4304:4329  delete users[userAddress] */\n      dup1\n      dup3\n      add\n      0x00\n      tag_37\n      swap2\n      swap1\n      tag_38\n      jump\t// in\n    tag_37:\n      0x01\n      dup3\n      add\n      0x00\n      tag_39\n      swap2\n      swap1\n      tag_38\n      jump\t// in\n    tag_39:\n      0x02\n      dup3\n      add\n      0x00\n      tag_40\n      swap2\n      swap1\n      tag_38\n      jump\t// in\n    tag_40:\n      0x03\n      dup3\n      add\n      0x00\n      tag_41\n      swap2\n      swap1\n      tag_38\n      jump\t// in\n    tag_41:\n      0x04\n      dup3\n      add\n      0x00\n      tag_42\n      swap2\n      swap1\n      tag_38\n      jump\t// in\n    tag_42:\n      0x05\n      dup3\n      add\n      0x00\n      tag_43\n      swap2\n      swap1\n      tag_38\n      jump\t// in\n    tag_43:\n      0x06\n      dup3\n      add\n      0x00\n      swap1\n      sstore\n      0x07\n      dup3\n      add\n      0x00\n      swap1\n      sstore\n      0x08\n      dup3\n      add\n      exp(0x0100, 0x00)\n      dup2\n      sload\n      swap1\n      0xff\n      mul\n      not\n      and\n      swap1\n      sstore\n      pop\n      pop\n        /* \"src/services/PointlyUser.sol\":4357:4368  userAddress */\n      dup1\n        /* \"src/services/PointlyUser.sol\":4345:4369  UserDeleted(userAddress) */\n      0xffffffffffffffffffffffffffffffffffffffff\n      and\n      0x4bc56f1321288dfb5b416cb3a7fd188723979f9e866c91d88eccf7fca039d039\n      mload(0x40)\n      mload(0x40)\n      dup1\n      swap2\n      sub\n      swap1\n      log2\n        /* \"src/services/PointlyUser.sol\":4165:4377  function deleteUser(address userAddress) public onlyOwner {... */\n      pop\n      jump\t// out\n        /* \"src/services/PointlyUser.sol\":2001:2782  function getUser(address userAddress) ... */\n    tag_14:\n        /* \"src/services/PointlyUser.sol\":2104:2123  string memory email */\n      0x60\n        /* \"src/services/PointlyUser.sol\":2138:2156  string memory name */\n      dup1\n        /* \"src/services/PointlyUser.sol\":2171:2190  string memory phone */\n      0x60\n        /* \"src/services/PointlyUser.sol\":2205:2233  string memory addressDetails */\n      dup1\n        /* \"src/services/PointlyUser.sol\":2248:2274  string memory profileImage */\n      0x60\n        /* \"src/services/PointlyUser.sol\":2289:2307  string memory tier */\n      dup1\n        /* \"src/services/PointlyUser.sol\":2322:2341  uint256 totalPoints */\n      0x00\n        /* \"src/services/PointlyUser.sol\":2356:2379  uint256 availablePoints */\n      dup1\n        /* \"src/services/PointlyUser.sol\":2416:2421  users */\n      0x01\n        /* \"src/services/PointlyUser.sol\":2416:2434  users[userAddress] */\n      0x00\n        /* \"src/services/PointlyUser.sol\":2422:2433  userAddress */\n      dup11\n        /* \"src/services/PointlyUser.sol\":2416:2434  users[userAddress] */\n      0xffffffffffffffffffffffffffffffffffffffff\n      and\n      0xffffffffffffffffffffffffffffffffffffffff\n      and\n      dup2\n      mstore\n      0x20\n      add\n      swap1\n      dup2\n      mstore\n      0x20\n      add\n      0x00\n      keccak256\n        /* \"src/services/PointlyUser.sol\":2416:2441  users[userAddress].exists */\n      0x08\n      add\n      0x00\n      swap1\n      sload\n      swap1\n      0x0100\n      exp\n      swap1\n      div\n      0xff\n      and\n        /* \"src/services/PointlyUser.sol\":2408:2465  require(users[userAddress].exists, \"User does not exist\") */\n      tag_45\n      jumpi\n      mload(0x40)\n      0x08c379a000000000000000000000000000000000000000000000000000000000\n      dup2\n      mstore\n      0x04\n      add\n      tag_46\n      swap1\n      tag_36\n      jump\t// in\n    tag_46:\n      mload(0x40)\n      dup1\n      swap2\n      sub\n      swap1\n      revert\n    tag_45:\n        /* \"src/services/PointlyUser.sol\":2476:2492  User memory user */\n      0x00\n        /* \"src/services/PointlyUser.sol\":2495:2500  users */\n      0x01\n        /* \"src/services/PointlyUser.sol\":2495:2513  users[userAddress] */\n      0x00\n        /* \"src/services/PointlyUser.sol\":2501:2512  userAddress */\n      dup12\n        /* \"src/services/PointlyUser.sol\":2495:2513  users[userAddress] */\n      0xffffffffffffffffffffffffffffffffffffffff\n      and\n      0xffffffffffffffffffffffffffffffffffffffff\n      and\n      dup2\n      mstore\n      0x20\n      add\n      swap1\n      dup2\n      mstore\n      0x20\n      add\n      0x00\n      keccak256\n        /* \"src/services/PointlyUser.sol\":2476:2513  User memory user = users[userAddress] */\n      mload(0x40)\n      dup1\n      0x0120\n      add\n      0x40\n      mstore\n      swap1\n      dup2\n      0x00\n      dup3\n      add\n      dup1\n      sload\n      tag_47\n      swap1\n      tag_48\n      jump\t// in\n    tag_47:\n      dup1\n      0x1f\n      add\n      0x20\n      dup1\n      swap2\n      div\n      mul\n      0x20\n      add\n      mload(0x40)\n      swap1\n      dup2\n      add\n      0x40\n      mstore\n      dup1\n      swap3\n      swap2\n      swap1\n      dup2\n      dup2\n      mstore\n      0x20\n      add\n      dup3\n      dup1\n      sload\n      tag_49\n      swap1\n      tag_48\n      jump\t// in\n    tag_49:\n      dup1\n      iszero\n      tag_50\n      jumpi\n      dup1\n      0x1f\n      lt\n      tag_51\n      jumpi\n      0x0100\n      dup1\n      dup4\n      sload\n      div\n      mul\n      dup4\n      mstore\n      swap2\n      0x20\n      add\n      swap2\n      jump(tag_50)\n    tag_51:\n      dup3\n      add\n      swap2\n      swap1\n      0x00\n      mstore\n      keccak256(0x00, 0x20)\n      swap1\n    tag_52:\n      dup2\n      sload\n      dup2\n      mstore\n      swap1\n      0x01\n      add\n      swap1\n      0x20\n      add\n      dup1\n      dup4\n      gt\n      tag_52\n      jumpi\n      dup3\n      swap1\n      sub\n      0x1f\n      and\n      dup3\n      add\n      swap2\n    tag_50:\n      pop\n      pop\n      pop\n      pop\n      pop\n      dup2\n      mstore\n      0x20\n      add\n      0x01\n      dup3\n      add\n      dup1\n      sload\n      tag_53\n      swap1\n      tag_48\n      jump\t// in\n    tag_53:\n      dup1\n      0x1f\n      add\n      0x20\n      dup1\n      swap2\n      div\n      mul\n      0x20\n      add\n      mload(0x40)\n      swap1\n      dup2\n      add\n      0x40\n      mstore\n      dup1\n      swap3\n      swap2\n      swap1\n      dup2\n      dup2\n      mstore\n      0x20\n      add\n      dup3\n      dup1\n      sload\n      tag_54\n      swap1\n      tag_48\n      jump\t// in\n    tag_54:\n      dup1\n      iszero\n      tag_55\n      jumpi\n      dup1\n      0x1f\n      lt\n      tag_56\n      jumpi\n      0x0100\n      dup1\n      dup4\n      sload\n      div\n      mul\n      dup4\n      mstore\n      swap2\n      0x20\n      add\n      swap2\n      jump(tag_55)\n    tag_56:\n      dup3\n      add\n      swap2\n      swap1\n      0x00\n      mstore\n      keccak256(0x00, 0x20)\n      swap1\n    tag_57:\n      dup2\n      sload\n      dup2\n      mstore\n      swap1\n      0x01\n      add\n      swap1\n      0x20\n      add\n      dup1\n      dup4\n      gt\n      tag_57\n      jumpi\n      dup3\n      swap1\n      sub\n      0x1f\n      and\n      dup3\n      add\n      swap2\n    tag_55:\n      pop\n      pop\n      pop\n      pop\n      pop\n      dup2\n      mstore\n      0x20\n      add\n      0x02\n      dup3\n      add\n      dup1\n      sload\n      tag_58\n      swap1\n      tag_48\n      jump\t// in\n    tag_58:\n      dup1\n      0x1f\n      add\n      0x20\n      dup1\n      swap2\n      div\n      mul\n      0x20\n      add\n      mload(0x40)\n      swap1\n      dup2\n      add\n      0x40\n      mstore\n      dup1\n      swap3\n      swap2\n      swap1\n      dup2\n      dup2\n      mstore\n      0x20\n      add\n      dup3\n      dup1\n      sload\n      tag_59\n      swap1\n      tag_48\n      jump\t// in\n    tag_59:\n      dup1\n      iszero\n      tag_60\n      jumpi\n      dup1\n      0x1f\n      lt\n      tag_61\n      jumpi\n      0x0100\n      dup1\n      dup4\n      sload\n      div\n      mul\n      dup4\n      mstore\n      swap2\n      0x20\n      add\n      swap2\n      jump(tag_60)\n    tag_61:\n      dup3\n      add\n      swap2\n      swap1\n      0x00\n      mstore\n      keccak256(0x00, 0x20)\n      swap1\n    tag_62:\n      dup2\n      sload\n      dup2\n      mstore\n      swap1\n      0x01\n      add\n      swap1\n      0x20\n      add\n      dup1\n      dup4\n      gt\n      tag_62\n      jumpi\n      dup3\n      swap1\n      sub\n      0x1f\n      and\n      dup3\n      add\n      swap2\n    tag_60:\n      pop\n      pop\n      pop\n      pop\n      pop\n      dup2\n      mstore\n      0x20\n      add\n      0x03\n      dup3\n      add\n      dup1\n      sload\n      tag_63\n      swap1\n      tag_48\n      jump\t// in\n    tag_63:\n      dup1\n      0x1f\n      add\n      0x20\n      dup1\n      swap2\n      div\n      mul\n      0x20\n      add\n      mload(0x40)\n      swap1\n      dup2\n      add\n      0x40\n      mstore\n      dup1\n      swap3\n      swap2\n      swap1\n      dup2\n      dup2\n      mstore\n      0x20\n      add\n      dup3\n      dup1\n      sload\n      tag_64\n      swap1\n      tag_48\n      jump\t// in\n    tag_64:\n      dup1\n      iszero\n      tag_65\n      jumpi\n      dup1\n      0x1f\n      lt\n      tag_66\n      jumpi\n      0x0100\n      dup1\n      dup4\n      sload\n      div\n      mul\n      dup4\n      mstore\n      swap2\n      0x20\n      add\n      swap2\n      jump(tag_65)\n    tag_66:\n      dup3\n      add\n      swap2\n      swap1\n      0x00\n      mstore\n      keccak256(0x00, 0x20)\n      swap1\n    tag_67:\n      dup2\n      sload\n      dup2\n      mstore\n      swap1\n      0x01\n      add\n      swap1\n      0x20\n      add\n      dup1\n      dup4\n      gt\n      tag_67\n      jumpi\n      dup3\n      swap1\n      sub\n      0x1f\n      and\n      dup3\n      add\n      swap2\n    tag_65:\n      pop\n      pop\n      pop\n      pop\n      pop\n      dup2\n      mstore\n      0x20\n      add\n      0x04\n      dup3\n      add\n      dup1\n      sload\n      tag_68\n      swap1\n      tag_48\n      jump\t// in\n    tag_68:\n      dup1\n      0x1f\n      add\n      0x20\n      dup1\n      swap2\n      div\n      mul\n      0x20\n      add\n      mload(0x40)\n      swap1\n      dup2\n      add\n      0x40\n      mstore\n      dup1\n      swap3\n      swap2\n      swap1\n      dup2\n      dup2\n      mstore\n      0x20\n      add\n      dup3\n      dup1\n      sload\n      tag_69\n      swap1\n      tag_48\n      jump\t// in\n    tag_69:\n      dup1\n      iszero\n      tag_70\n      jumpi\n      dup1\n      0x1f\n      lt\n      tag_71\n      jumpi\n      0x0100\n      dup1\n      dup4\n      sload\n      div\n      mul\n      dup4\n      mstore\n      swap2\n      0x20\n      add\n      swap2\n      jump(tag_70)\n    tag_71:\n      dup3\n      add\n      swap2\n      swap1\n      0x00\n      mstore\n      keccak256(0x00, 0x20)\n      swap1\n    tag_72:\n      dup2\n      sload\n      dup2\n      mstore\n      swap1\n      0x01\n      add\n      swap1\n      0x20\n      add\n      dup1\n      dup4\n      gt\n      tag_72\n      jumpi\n      dup3\n      swap1\n      sub\n      0x1f\n      and\n      dup3\n      add\n      swap2\n    tag_70:\n      pop\n      pop\n      pop\n      pop\n      pop\n      dup2\n      mstore\n      0x20\n      add\n      0x05\n      dup3\n      add\n      dup1\n      sload\n      tag_73\n      swap1\n      tag_48\n      jump\t// in\n    tag_73:\n      dup1\n      0x1f\n      add\n      0x20\n      dup1\n      swap2\n      div\n      mul\n      0x20\n      add\n      mload(0x40)\n      swap1\n      dup2\n      add\n      0x40\n      mstore\n      dup1\n      swap3\n      swap2\n      swap1\n      dup2\n      dup2\n      mstore\n      0x20\n      add\n      dup3\n      dup1\n      sload\n      tag_74\n      swap1\n      tag_48\n      jump\t// in\n    tag_74:\n      dup1\n      iszero\n      tag_75\n      jumpi\n      dup1\n      0x1f\n      lt\n      tag_76\n      jumpi\n      0x0100\n      dup1\n      dup4\n      sload\n      div\n      mul\n      dup4\n      mstore\n      swap2\n      0x20\n      add\n      swap2\n      jump(tag_75)\n    tag_76:\n      dup3\n      add\n      swap2\n      swap1\n      0x00\n      mstore\n      keccak256(0x00, 0x20)\n      swap1\n    tag_77:\n      dup2\n      sload\n      dup2\n      mstore\n      swap1\n      0x01\n      add\n      swap1\n      0x20\n      add\n      dup1\n      dup4\n      gt\n      tag_77\n      jumpi\n      dup3\n      swap1\n      sub\n      0x1f\n      and\n      dup3\n      add\n      swap2\n    tag_75:\n      pop\n      pop\n      pop\n      pop\n      pop\n      dup2\n      mstore\n      0x20\n      add\n      0x06\n      dup3\n      add\n      sload\n      dup2\n      mstore\n      0x20\n      add\n      0x07\n      dup3\n      add\n      sload\n      dup2\n      mstore\n      0x20\n      add\n      0x08\n      dup3\n      add\n      0x00\n      swap1\n      sload\n      swap1\n      0x0100\n      exp\n      swap1\n      div\n      0xff\n      and\n      iszero\n      iszero\n      iszero\n      iszero\n      dup2\n      mstore\n      pop\n      pop\n      swap1\n      pop\n        /* \"src/services/PointlyUser.sol\":2548:2552  user */\n      dup1\n        /* \"src/services/PointlyUser.sol\":2548:2558  user.email */\n      0x00\n      add\n      mload\n        /* \"src/services/PointlyUser.sol\":2573:2577  user */\n      dup2\n        /* \"src/services/PointlyUser.sol\":2573:2582  user.name */\n      0x20\n      add\n      mload\n        /* \"src/services/PointlyUser.sol\":2597:2601  user */\n      dup3\n        /* \"src/services/PointlyUser.sol\":2597:2607  user.phone */\n      0x40\n      add\n      mload\n        /* \"src/services/PointlyUser.sol\":2622:2626  user */\n      dup4\n        /* \"src/services/PointlyUser.sol\":2622:2641  user.addressDetails */\n      0x60\n      add\n      mload\n        /* \"src/services/PointlyUser.sol\":2656:2660  user */\n      dup5\n        /* \"src/services/PointlyUser.sol\":2656:2673  user.profileImage */\n      0x80\n      add\n      mload\n        /* \"src/services/PointlyUser.sol\":2688:2692  user */\n      dup6\n        /* \"src/services/PointlyUser.sol\":2688:2697  user.tier */\n      0xa0\n      add\n      mload\n        /* \"src/services/PointlyUser.sol\":2712:2716  user */\n      dup7\n        /* \"src/services/PointlyUser.sol\":2712:2728  user.totalPoints */\n      0xc0\n      add\n      mload\n        /* \"src/services/PointlyUser.sol\":2743:2747  user */\n      dup8\n        /* \"src/services/PointlyUser.sol\":2743:2763  user.availablePoints */\n      0xe0\n      add\n      mload\n        /* \"src/services/PointlyUser.sol\":2526:2774  return (... */\n      swap9\n      pop\n      swap9\n      pop\n      swap9\n      pop\n      swap9\n      pop\n      swap9\n      pop\n      swap9\n      pop\n      swap9\n      pop\n      swap9\n      pop\n      pop\n        /* \"src/services/PointlyUser.sol\":2001:2782  function getUser(address userAddress) ... */\n      swap2\n      swap4\n      swap6\n      swap8\n      pop\n      swap2\n      swap4\n      swap6\n      swap8\n      jump\t// out\n        /* \"src/services/PointlyUser.sol\":137:157  address public owner */\n    tag_18:\n      0x00\n      dup1\n      sload\n      swap1\n      0x0100\n      exp\n      swap1\n      div\n      0xffffffffffffffffffffffffffffffffffffffff\n      and\n      dup2\n      jump\t// out\n        /* \"src/services/PointlyUser.sol\":1250:1956  function createUser(... */\n    tag_24:\n        /* \"src/services/PointlyUser.sol\":1064:1069  owner */\n      0x00\n      dup1\n      sload\n      swap1\n      0x0100\n      exp\n      swap1\n      div\n      0xffffffffffffffffffffffffffffffffffffffff\n      and\n        /* \"src/services/PointlyUser.sol\":1050:1069  msg.sender == owner */\n      0xffffffffffffffffffffffffffffffffffffffff\n      and\n        /* \"src/services/PointlyUser.sol\":1050:1060  msg.sender */\n      caller\n        /* \"src/services/PointlyUser.sol\":1050:1069  msg.sender == owner */\n      0xffffffffffffffffffffffffffffffffffffffff\n      and\n      eq\n        /* \"src/services/PointlyUser.sol\":1042:1088  require(msg.sender == owner, \"Not authorized\") */\n      tag_79\n      jumpi\n      mload(0x40)\n      0x08c379a000000000000000000000000000000000000000000000000000000000\n      dup2\n      mstore\n      0x04\n      add\n      tag_80\n      swap1\n      tag_32\n      jump\t// in\n    tag_80:\n      mload(0x40)\n      dup1\n      swap2\n      sub\n      swap1\n      revert\n    tag_79:\n        /* \"src/services/PointlyUser.sol\":1509:1514  users */\n      0x01\n        /* \"src/services/PointlyUser.sol\":1509:1527  users[userAddress] */\n      0x00\n        /* \"src/services/PointlyUser.sol\":1515:1526  userAddress */\n      dup8\n        /* \"src/services/PointlyUser.sol\":1509:1527  users[userAddress] */\n      0xffffffffffffffffffffffffffffffffffffffff\n      and\n      0xffffffffffffffffffffffffffffffffffffffff\n      and\n      dup2\n      mstore\n      0x20\n      add\n      swap1\n      dup2\n      mstore\n      0x20\n      add\n      0x00\n      keccak256\n        /* \"src/services/PointlyUser.sol\":1509:1534  users[userAddress].exists */\n      0x08\n      add\n      0x00\n      swap1\n      sload\n      swap1\n      0x0100\n      exp\n      swap1\n      div\n      0xff\n      and\n        /* \"src/services/PointlyUser.sol\":1508:1534  !users[userAddress].exists */\n      iszero\n        /* \"src/services/PointlyUser.sol\":1500:1558  require(!users[userAddress].exists, \"User already exists\") */\n      tag_82\n      jumpi\n      mload(0x40)\n      0x08c379a000000000000000000000000000000000000000000000000000000000\n      dup2\n      mstore\n      0x04\n      add\n      tag_83\n      swap1\n      tag_84\n      jump\t// in\n    tag_83:\n      mload(0x40)\n      dup1\n      swap2\n      sub\n      swap1\n      revert\n    tag_82:\n        /* \"src/services/PointlyUser.sol\":1600:1900  User({... */\n      mload(0x40)\n      dup1\n      0x0120\n      add\n      0x40\n      mstore\n      dup1\n        /* \"src/services/PointlyUser.sol\":1627:1632  email */\n      dup7\n        /* \"src/services/PointlyUser.sol\":1600:1900  User({... */\n      dup2\n      mstore\n      0x20\n      add\n        /* \"src/services/PointlyUser.sol\":1653:1657  name */\n      dup6\n        /* \"src/services/PointlyUser.sol\":1600:1900  User({... */\n      dup2\n      mstore\n      0x20\n      add\n        /* \"src/services/PointlyUser.sol\":1679:1684  phone */\n      dup5\n        /* \"src/services/PointlyUser.sol\":1600:1900  User({... */\n      dup2\n      mstore\n      0x20\n      add\n        /* \"src/services/PointlyUser.sol\":1715:1729  addressDetails */\n      dup4\n        /* \"src/services/PointlyUser.sol\":1600:1900  User({... */\n      dup2\n      mstore\n      0x20\n      add\n        /* \"src/services/PointlyUser.sol\":1758:1770  profileImage */\n      dup3\n        /* \"src/services/PointlyUser.sol\":1600:1900  User({... */\n      dup2\n      mstore\n      0x20\n      add\n      mload(0x40)\n      dup1\n      0x40\n      add\n      0x40\n      mstore\n      dup1\n      0x06\n      dup2\n      mstore\n      0x20\n      add\n      0x51756172747a0000000000000000000000000000000000000000000000000000\n      dup2\n      mstore\n      pop\n      dup2\n      mstore\n      0x20\n      add\n        /* \"src/services/PointlyUser.sol\":1827:1828  0 */\n      0x00\n        /* \"src/services/PointlyUser.sol\":1600:1900  User({... */\n      dup2\n      mstore\n      0x20\n      add\n        /* \"src/services/PointlyUser.sol\":1860:1861  0 */\n      0x00\n        /* \"src/services/PointlyUser.sol\":1600:1900  User({... */\n      dup2\n      mstore\n      0x20\n      add\n        /* \"src/services/PointlyUser.sol\":1884:1888  true */\n      0x01\n        /* \"src/services/PointlyUser.sol\":1600:1900  User({... */\n      iszero\n      iszero\n      dup2\n      mstore\n      pop\n        /* \"src/services/PointlyUser.sol\":1579:1584  users */\n      0x01\n        /* \"src/services/PointlyUser.sol\":1579:1597  users[userAddress] */\n      0x00\n        /* \"src/services/PointlyUser.sol\":1585:1596  userAddress */\n      dup9\n        /* \"src/services/PointlyUser.sol\":1579:1597  users[userAddress] */\n      0xffffffffffffffffffffffffffffffffffffffff\n      and\n      0xffffffffffffffffffffffffffffffffffffffff\n      and\n      dup2\n      mstore\n      0x20\n      add\n      swap1\n      dup2\n      mstore\n      0x20\n      add\n      0x00\n      keccak256\n        /* \"src/services/PointlyUser.sol\":1579:1900  users[userAddress] = User({... */\n      0x00\n      dup3\n      add\n      mload\n      dup2\n      0x00\n      add\n      swap1\n      dup2\n      tag_85\n      swap2\n      swap1\n      tag_86\n      jump\t// in\n    tag_85:\n      pop\n      0x20\n      dup3\n      add\n      mload\n      dup2\n      0x01\n      add\n      swap1\n      dup2\n      tag_87\n      swap2\n      swap1\n      tag_86\n      jump\t// in\n    tag_87:\n      pop\n      0x40\n      dup3\n      add\n      mload\n      dup2\n      0x02\n      add\n      swap1\n      dup2\n      tag_88\n      swap2\n      swap1\n      tag_86\n      jump\t// in\n    tag_88:\n      pop\n      0x60\n      dup3\n      add\n      mload\n      dup2\n      0x03\n      add\n      swap1\n      dup2\n      tag_89\n      swap2\n      swap1\n      tag_86\n      jump\t// in\n    tag_89:\n      pop\n      0x80\n      dup3\n      add\n      mload\n      dup2\n      0x04\n      add\n      swap1\n      dup2\n      tag_90\n      swap2\n      swap1\n      tag_86\n      jump\t// in\n    tag_90:\n      pop\n      0xa0\n      dup3\n      add\n      mload\n      dup2\n      0x05\n      add\n      swap1\n      dup2\n      tag_91\n      swap2\n      swap1\n      tag_86\n      jump\t// in\n    tag_91:\n      pop\n      0xc0\n      dup3\n      add\n      mload\n      dup2\n      0x06\n      add\n      sstore\n      0xe0\n      dup3\n      add\n      mload\n      dup2\n      0x07\n      add\n      sstore\n      0x0100\n      dup3\n      add\n      mload\n      dup2\n      0x08\n      add\n      exp(0x0100, 0x00)\n      dup2\n      sload\n      dup2\n      0xff\n      mul\n      not\n      and\n      swap1\n      dup4\n      iszero\n      iszero\n      mul\n      or\n      swap1\n      sstore\n      pop\n      swap1\n      pop\n      pop\n        /* \"src/services/PointlyUser.sol\":1930:1941  userAddress */\n      dup6\n        /* \"src/services/PointlyUser.sol\":1918:1948  UserCreated(userAddress, name) */\n      0xffffffffffffffffffffffffffffffffffffffff\n      and\n      0x9954bce02f72fbdef0fa668ac6f42e434b5829615dac2fb22448054d2359d4f6\n        /* \"src/services/PointlyUser.sol\":1943:1947  name */\n      dup6\n        /* \"src/services/PointlyUser.sol\":1918:1948  UserCreated(userAddress, name) */\n      mload(0x40)\n      tag_92\n      swap2\n      swap1\n      tag_93\n      jump\t// in\n    tag_92:\n      mload(0x40)\n      dup1\n      swap2\n      sub\n      swap1\n      log2\n        /* \"src/services/PointlyUser.sol\":1250:1956  function createUser(... */\n      pop\n      pop\n      pop\n      pop\n      pop\n      pop\n      jump\t// out\n        /* \"src/services/PointlyUser.sol\":2824:3517  function updatePoints(address userAddress, uint256 points, bool isAddition) public onlyOwner {... */\n    tag_28:\n        /* \"src/services/PointlyUser.sol\":1064:1069  owner */\n      0x00\n      dup1\n      sload\n      swap1\n      0x0100\n      exp\n      swap1\n      div\n      0xffffffffffffffffffffffffffffffffffffffff\n      and\n        /* \"src/services/PointlyUser.sol\":1050:1069  msg.sender == owner */\n      0xffffffffffffffffffffffffffffffffffffffff\n      and\n        /* \"src/services/PointlyUser.sol\":1050:1060  msg.sender */\n      caller\n        /* \"src/services/PointlyUser.sol\":1050:1069  msg.sender == owner */\n      0xffffffffffffffffffffffffffffffffffffffff\n      and\n      eq\n        /* \"src/services/PointlyUser.sol\":1042:1088  require(msg.sender == owner, \"Not authorized\") */\n      tag_95\n      jumpi\n      mload(0x40)\n      0x08c379a000000000000000000000000000000000000000000000000000000000\n      dup2\n      mstore\n      0x04\n      add\n      tag_96\n      swap1\n      tag_32\n      jump\t// in\n    tag_96:\n      mload(0x40)\n      dup1\n      swap2\n      sub\n      swap1\n      revert\n    tag_95:\n        /* \"src/services/PointlyUser.sol\":2936:2941  users */\n      0x01\n        /* \"src/services/PointlyUser.sol\":2936:2954  users[userAddress] */\n      0x00\n        /* \"src/services/PointlyUser.sol\":2942:2953  userAddress */\n      dup5\n        /* \"src/services/PointlyUser.sol\":2936:2954  users[userAddress] */\n      0xffffffffffffffffffffffffffffffffffffffff\n      and\n      0xffffffffffffffffffffffffffffffffffffffff\n      and\n      dup2\n      mstore\n      0x20\n      add\n      swap1\n      dup2\n      mstore\n      0x20\n      add\n      0x00\n      keccak256\n        /* \"src/services/PointlyUser.sol\":2936:2961  users[userAddress].exists */\n      0x08\n      add\n      0x00\n      swap1\n      sload\n      swap1\n      0x0100\n      exp\n      swap1\n      div\n      0xff\n      and\n        /* \"src/services/PointlyUser.sol\":2928:2985  require(users[userAddress].exists, \"User does not exist\") */\n      tag_98\n      jumpi\n      mload(0x40)\n      0x08c379a000000000000000000000000000000000000000000000000000000000\n      dup2\n      mstore\n      0x04\n      add\n      tag_99\n      swap1\n      tag_36\n      jump\t// in\n    tag_99:\n      mload(0x40)\n      dup1\n      swap2\n      sub\n      swap1\n      revert\n    tag_98:\n        /* \"src/services/PointlyUser.sol\":3002:3012  isAddition */\n      dup1\n        /* \"src/services/PointlyUser.sol\":2998:3308  if (isAddition) {... */\n      iszero\n      tag_100\n      jumpi\n        /* \"src/services/PointlyUser.sol\":3063:3069  points */\n      dup2\n        /* \"src/services/PointlyUser.sol\":3029:3034  users */\n      0x01\n        /* \"src/services/PointlyUser.sol\":3029:3047  users[userAddress] */\n      0x00\n        /* \"src/services/PointlyUser.sol\":3035:3046  userAddress */\n      dup6\n        /* \"src/services/PointlyUser.sol\":3029:3047  users[userAddress] */\n      0xffffffffffffffffffffffffffffffffffffffff\n      and\n      0xffffffffffffffffffffffffffffffffffffffff\n      and\n      dup2\n      mstore\n      0x20\n      add\n      swap1\n      dup2\n      mstore\n      0x20\n      add\n      0x00\n      keccak256\n        /* \"src/services/PointlyUser.sol\":3029:3059  users[userAddress].totalPoints */\n      0x06\n      add\n      0x00\n        /* \"src/services/PointlyUser.sol\":3029:3069  users[userAddress].totalPoints += points */\n      dup3\n      dup3\n      sload\n      tag_101\n      swap2\n      swap1\n      tag_102\n      jump\t// in\n    tag_101:\n      swap3\n      pop\n      pop\n      dup2\n      swap1\n      sstore\n      pop\n        /* \"src/services/PointlyUser.sol\":3122:3128  points */\n      dup2\n        /* \"src/services/PointlyUser.sol\":3084:3089  users */\n      0x01\n        /* \"src/services/PointlyUser.sol\":3084:3102  users[userAddress] */\n      0x00\n        /* \"src/services/PointlyUser.sol\":3090:3101  userAddress */\n      dup6\n        /* \"src/services/PointlyUser.sol\":3084:3102  users[userAddress] */\n      0xffffffffffffffffffffffffffffffffffffffff\n      and\n      0xffffffffffffffffffffffffffffffffffffffff\n      and\n      dup2\n      mstore\n      0x20\n      add\n      swap1\n      dup2\n      mstore\n      0x20\n      add\n      0x00\n      keccak256\n        /* \"src/services/PointlyUser.sol\":3084:3118  users[userAddress].availablePoints */\n      0x07\n      add\n      0x00\n        /* \"src/services/PointlyUser.sol\":3084:3128  users[userAddress].availablePoints += points */\n      dup3\n      dup3\n      sload\n      tag_103\n      swap2\n      swap1\n      tag_102\n      jump\t// in\n    tag_103:\n      swap3\n      pop\n      pop\n      dup2\n      swap1\n      sstore\n      pop\n        /* \"src/services/PointlyUser.sol\":2998:3308  if (isAddition) {... */\n      jump(tag_104)\n    tag_100:\n        /* \"src/services/PointlyUser.sol\":3207:3213  points */\n      dup2\n        /* \"src/services/PointlyUser.sol\":3169:3174  users */\n      0x01\n        /* \"src/services/PointlyUser.sol\":3169:3187  users[userAddress] */\n      0x00\n        /* \"src/services/PointlyUser.sol\":3175:3186  userAddress */\n      dup6\n        /* \"src/services/PointlyUser.sol\":3169:3187  users[userAddress] */\n      0xffffffffffffffffffffffffffffffffffffffff\n      and\n      0xffffffffffffffffffffffffffffffffffffffff\n      and\n      dup2\n      mstore\n      0x20\n      add\n      swap1\n      dup2\n      mstore\n      0x20\n      add\n      0x00\n      keccak256\n        /* \"src/services/PointlyUser.sol\":3169:3203  users[userAddress].availablePoints */\n      0x07\n      add\n      sload\n        /* \"src/services/PointlyUser.sol\":3169:3213  users[userAddress].availablePoints >= points */\n      lt\n      iszero\n        /* \"src/services/PointlyUser.sol\":3161:3237  require(users[userAddress].availablePoints >= points, \"Insufficient points\") */\n      tag_105\n      jumpi\n      mload(0x40)\n      0x08c379a000000000000000000000000000000000000000000000000000000000\n      dup2\n      mstore\n      0x04\n      add\n      tag_106\n      swap1\n      tag_107\n      jump\t// in\n    tag_106:\n      mload(0x40)\n      dup1\n      swap2\n      sub\n      swap1\n      revert\n    tag_105:\n        /* \"src/services/PointlyUser.sol\":3290:3296  points */\n      dup2\n        /* \"src/services/PointlyUser.sol\":3252:3257  users */\n      0x01\n        /* \"src/services/PointlyUser.sol\":3252:3270  users[userAddress] */\n      0x00\n        /* \"src/services/PointlyUser.sol\":3258:3269  userAddress */\n      dup6\n        /* \"src/services/PointlyUser.sol\":3252:3270  users[userAddress] */\n      0xffffffffffffffffffffffffffffffffffffffff\n      and\n      0xffffffffffffffffffffffffffffffffffffffff\n      and\n      dup2\n      mstore\n      0x20\n      add\n      swap1\n      dup2\n      mstore\n      0x20\n      add\n      0x00\n      keccak256\n        /* \"src/services/PointlyUser.sol\":3252:3286  users[userAddress].availablePoints */\n      0x07\n      add\n      0x00\n        /* \"src/services/PointlyUser.sol\":3252:3296  users[userAddress].availablePoints -= points */\n      dup3\n      dup3\n      sload\n      tag_108\n      swap2\n      swap1\n      tag_109\n      jump\t// in\n    tag_108:\n      swap3\n      pop\n      pop\n      dup2\n      swap1\n      sstore\n      pop\n        /* \"src/services/PointlyUser.sol\":2998:3308  if (isAddition) {... */\n    tag_104:\n        /* \"src/services/PointlyUser.sol\":3320:3347  updateUserTier(userAddress) */\n      tag_110\n        /* \"src/services/PointlyUser.sol\":3335:3346  userAddress */\n      dup4\n        /* \"src/services/PointlyUser.sol\":3320:3334  updateUserTier */\n      tag_111\n        /* \"src/services/PointlyUser.sol\":3320:3347  updateUserTier(userAddress) */\n      jump\t// in\n    tag_110:\n        /* \"src/services/PointlyUser.sol\":3393:3404  userAddress */\n      dup3\n        /* \"src/services/PointlyUser.sol\":3365:3509  PointsUpdated(... */\n      0xffffffffffffffffffffffffffffffffffffffff\n      and\n      0xeceb10b266995afd3009502df537b0421b7f635dd268f4b0a74b99a87be65213\n        /* \"src/services/PointlyUser.sol\":3419:3424  users */\n      0x01\n        /* \"src/services/PointlyUser.sol\":3419:3437  users[userAddress] */\n      0x00\n        /* \"src/services/PointlyUser.sol\":3425:3436  userAddress */\n      dup7\n        /* \"src/services/PointlyUser.sol\":3419:3437  users[userAddress] */\n      0xffffffffffffffffffffffffffffffffffffffff\n      and\n      0xffffffffffffffffffffffffffffffffffffffff\n      and\n      dup2\n      mstore\n      0x20\n      add\n      swap1\n      dup2\n      mstore\n      0x20\n      add\n      0x00\n      keccak256\n        /* \"src/services/PointlyUser.sol\":3419:3449  users[userAddress].totalPoints */\n      0x06\n      add\n      sload\n        /* \"src/services/PointlyUser.sol\":3464:3469  users */\n      0x01\n        /* \"src/services/PointlyUser.sol\":3464:3482  users[userAddress] */\n      0x00\n        /* \"src/services/PointlyUser.sol\":3470:3481  userAddress */\n      dup8\n        /* \"src/services/PointlyUser.sol\":3464:3482  users[userAddress] */\n      0xffffffffffffffffffffffffffffffffffffffff\n      and\n      0xffffffffffffffffffffffffffffffffffffffff\n      and\n      dup2\n      mstore\n      0x20\n      add\n      swap1\n      dup2\n      mstore\n      0x20\n      add\n      0x00\n      keccak256\n        /* \"src/services/PointlyUser.sol\":3464:3498  users[userAddress].availablePoints */\n      0x07\n      add\n      sload\n        /* \"src/services/PointlyUser.sol\":3365:3509  PointsUpdated(... */\n      mload(0x40)\n      tag_112\n      swap3\n      swap2\n      swap1\n      tag_113\n      jump\t// in\n    tag_112:\n      mload(0x40)\n      dup1\n      swap2\n      sub\n      swap1\n      log2\n        /* \"src/services/PointlyUser.sol\":2824:3517  function updatePoints(address userAddress, uint256 points, bool isAddition) public onlyOwner {... */\n      pop\n      pop\n      pop\n      jump\t// out\n        /* \"src/services/PointlyUser.sol\":3577:4123  function updateUserTier(address userAddress) internal {... */\n    tag_111:\n        /* \"src/services/PointlyUser.sol\":3642:3661  uint256 totalPoints */\n      0x00\n        /* \"src/services/PointlyUser.sol\":3664:3669  users */\n      0x01\n        /* \"src/services/PointlyUser.sol\":3664:3682  users[userAddress] */\n      0x00\n        /* \"src/services/PointlyUser.sol\":3670:3681  userAddress */\n      dup4\n        /* \"src/services/PointlyUser.sol\":3664:3682  users[userAddress] */\n      0xffffffffffffffffffffffffffffffffffffffff\n      and\n      0xffffffffffffffffffffffffffffffffffffffff\n      and\n      dup2\n      mstore\n      0x20\n      add\n      swap1\n      dup2\n      mstore\n      0x20\n      add\n      0x00\n      keccak256\n        /* \"src/services/PointlyUser.sol\":3664:3694  users[userAddress].totalPoints */\n      0x06\n      add\n      sload\n        /* \"src/services/PointlyUser.sol\":3642:3694  uint256 totalPoints = users[userAddress].totalPoints */\n      swap1\n      pop\n        /* \"src/services/PointlyUser.sol\":3726:3731  10000 */\n      0x2710\n        /* \"src/services/PointlyUser.sol\":3711:3722  totalPoints */\n      dup2\n        /* \"src/services/PointlyUser.sol\":3711:3731  totalPoints >= 10000 */\n      lt\n        /* \"src/services/PointlyUser.sol\":3707:4049  if (totalPoints >= 10000) {... */\n      tag_115\n      jumpi\n        /* \"src/services/PointlyUser.sol\":3748:3783  users[userAddress].tier = \"Diamond\" */\n      mload(0x40)\n      dup1\n      0x40\n      add\n      0x40\n      mstore\n      dup1\n      0x07\n      dup2\n      mstore\n      0x20\n      add\n      0x4469616d6f6e6400000000000000000000000000000000000000000000000000\n      dup2\n      mstore\n      pop\n        /* \"src/services/PointlyUser.sol\":3748:3753  users */\n      0x01\n        /* \"src/services/PointlyUser.sol\":3748:3766  users[userAddress] */\n      0x00\n        /* \"src/services/PointlyUser.sol\":3754:3765  userAddress */\n      dup5\n        /* \"src/services/PointlyUser.sol\":3748:3766  users[userAddress] */\n      0xffffffffffffffffffffffffffffffffffffffff\n      and\n      0xffffffffffffffffffffffffffffffffffffffff\n      and\n      dup2\n      mstore\n      0x20\n      add\n      swap1\n      dup2\n      mstore\n      0x20\n      add\n      0x00\n      keccak256\n        /* \"src/services/PointlyUser.sol\":3748:3771  users[userAddress].tier */\n      0x05\n      add\n        /* \"src/services/PointlyUser.sol\":3748:3783  users[userAddress].tier = \"Diamond\" */\n      swap1\n      dup2\n      tag_116\n      swap2\n      swap1\n      tag_86\n      jump\t// in\n    tag_116:\n      pop\n        /* \"src/services/PointlyUser.sol\":3707:4049  if (totalPoints >= 10000) {... */\n      jump(tag_117)\n    tag_115:\n        /* \"src/services/PointlyUser.sol\":3820:3824  5000 */\n      0x1388\n        /* \"src/services/PointlyUser.sol\":3805:3816  totalPoints */\n      dup2\n        /* \"src/services/PointlyUser.sol\":3805:3824  totalPoints >= 5000 */\n      lt\n        /* \"src/services/PointlyUser.sol\":3801:4049  if (totalPoints >= 5000) {... */\n      tag_118\n      jumpi\n        /* \"src/services/PointlyUser.sol\":3841:3877  users[userAddress].tier = \"Sapphire\" */\n      mload(0x40)\n      dup1\n      0x40\n      add\n      0x40\n      mstore\n      dup1\n      0x08\n      dup2\n      mstore\n      0x20\n      add\n      0x5361707068697265000000000000000000000000000000000000000000000000\n      dup2\n      mstore\n      pop\n        /* \"src/services/PointlyUser.sol\":3841:3846  users */\n      0x01\n        /* \"src/services/PointlyUser.sol\":3841:3859  users[userAddress] */\n      0x00\n        /* \"src/services/PointlyUser.sol\":3847:3858  userAddress */\n      dup5\n        /* \"src/services/PointlyUser.sol\":3841:3859  users[userAddress] */\n      0xffffffffffffffffffffffffffffffffffffffff\n      and\n      0xffffffffffffffffffffffffffffffffffffffff\n      and\n      dup2\n      mstore\n      0x20\n      add\n      swap1\n      dup2\n      mstore\n      0x20\n      add\n      0x00\n      keccak256\n        /* \"src/services/PointlyUser.sol\":3841:3864  users[userAddress].tier */\n      0x05\n      add\n        /* \"src/services/PointlyUser.sol\":3841:3877  users[userAddress].tier = \"Sapphire\" */\n      swap1\n      dup2\n      tag_119\n      swap2\n      swap1\n      tag_86\n      jump\t// in\n    tag_119:\n      pop\n        /* \"src/services/PointlyUser.sol\":3801:4049  if (totalPoints >= 5000) {... */\n      jump(tag_120)\n    tag_118:\n        /* \"src/services/PointlyUser.sol\":3914:3918  1000 */\n      0x03e8\n        /* \"src/services/PointlyUser.sol\":3899:3910  totalPoints */\n      dup2\n        /* \"src/services/PointlyUser.sol\":3899:3918  totalPoints >= 1000 */\n      lt\n        /* \"src/services/PointlyUser.sol\":3895:4049  if (totalPoints >= 1000) {... */\n      tag_121\n      jumpi\n        /* \"src/services/PointlyUser.sol\":3935:3970  users[userAddress].tier = \"Emerald\" */\n      mload(0x40)\n      dup1\n      0x40\n      add\n      0x40\n      mstore\n      dup1\n      0x07\n      dup2\n      mstore\n      0x20\n      add\n      0x456d6572616c6400000000000000000000000000000000000000000000000000\n      dup2\n      mstore\n      pop\n        /* \"src/services/PointlyUser.sol\":3935:3940  users */\n      0x01\n        /* \"src/services/PointlyUser.sol\":3935:3953  users[userAddress] */\n      0x00\n        /* \"src/services/PointlyUser.sol\":3941:3952  userAddress */\n      dup5\n        /* \"src/services/PointlyUser.sol\":3935:3953  users[userAddress] */\n      0xffffffffffffffffffffffffffffffffffffffff\n      and\n      0xffffffffffffffffffffffffffffffffffffffff\n      and\n      dup2\n      mstore\n      0x20\n      add\n      swap1\n      dup2\n      mstore\n      0x20\n      add\n      0x00\n      keccak256\n        /* \"src/services/PointlyUser.sol\":3935:3958  users[userAddress].tier */\n      0x05\n      add\n        /* \"src/services/PointlyUser.sol\":3935:3970  users[userAddress].tier = \"Emerald\" */\n      swap1\n      dup2\n      tag_122\n      swap2\n      swap1\n      tag_86\n      jump\t// in\n    tag_122:\n      pop\n        /* \"src/services/PointlyUser.sol\":3895:4049  if (totalPoints >= 1000) {... */\n      jump(tag_123)\n    tag_121:\n        /* \"src/services/PointlyUser.sol\":4003:4037  users[userAddress].tier = \"Quartz\" */\n      mload(0x40)\n      dup1\n      0x40\n      add\n      0x40\n      mstore\n      dup1\n      0x06\n      dup2\n      mstore\n      0x20\n      add\n      0x51756172747a0000000000000000000000000000000000000000000000000000\n      dup2\n      mstore\n      pop\n        /* \"src/services/PointlyUser.sol\":4003:4008  users */\n      0x01\n        /* \"src/services/PointlyUser.sol\":4003:4021  users[userAddress] */\n      0x00\n        /* \"src/services/PointlyUser.sol\":4009:4020  userAddress */\n      dup5\n        /* \"src/services/PointlyUser.sol\":4003:4021  users[userAddress] */\n      0xffffffffffffffffffffffffffffffffffffffff\n      and\n      0xffffffffffffffffffffffffffffffffffffffff\n      and\n      dup2\n      mstore\n      0x20\n      add\n      swap1\n      dup2\n      mstore\n      0x20\n      add\n      0x00\n      keccak256\n        /* \"src/services/PointlyUser.sol\":4003:4026  users[userAddress].tier */\n      0x05\n      add\n        /* \"src/services/PointlyUser.sol\":4003:4037  users[userAddress].tier = \"Quartz\" */\n      swap1\n      dup2\n      tag_124\n      swap2\n      swap1\n      tag_86\n      jump\t// in\n    tag_124:\n      pop\n        /* \"src/services/PointlyUser.sol\":3895:4049  if (totalPoints >= 1000) {... */\n    tag_123:\n        /* \"src/services/PointlyUser.sol\":3801:4049  if (totalPoints >= 5000) {... */\n    tag_120:\n        /* \"src/services/PointlyUser.sol\":3707:4049  if (totalPoints >= 10000) {... */\n    tag_117:\n        /* \"src/services/PointlyUser.sol\":4078:4089  userAddress */\n      dup2\n        /* \"src/services/PointlyUser.sol\":4066:4115  TierUpdated(userAddress, users[userAddress].tier) */\n      0xffffffffffffffffffffffffffffffffffffffff\n      and\n      0x7c5463c5531ead7f0ba72ac58bed8430f619c4cfe506277c9d84245129f0df7a\n        /* \"src/services/PointlyUser.sol\":4091:4096  users */\n      0x01\n        /* \"src/services/PointlyUser.sol\":4091:4109  users[userAddress] */\n      0x00\n        /* \"src/services/PointlyUser.sol\":4097:4108  userAddress */\n      dup6\n        /* \"src/services/PointlyUser.sol\":4091:4109  users[userAddress] */\n      0xffffffffffffffffffffffffffffffffffffffff\n      and\n      0xffffffffffffffffffffffffffffffffffffffff\n      and\n      dup2\n      mstore\n      0x20\n      add\n      swap1\n      dup2\n      mstore\n      0x20\n      add\n      0x00\n      keccak256\n        /* \"src/services/PointlyUser.sol\":4091:4114  users[userAddress].tier */\n      0x05\n      add\n        /* \"src/services/PointlyUser.sol\":4066:4115  TierUpdated(userAddress, users[userAddress].tier) */\n      mload(0x40)\n      tag_125\n      swap2\n      swap1\n      tag_126\n      jump\t// in\n    tag_125:\n      mload(0x40)\n      dup1\n      swap2\n      sub\n      swap1\n      log2\n        /* \"src/services/PointlyUser.sol\":3631:4123  {... */\n      pop\n        /* \"src/services/PointlyUser.sol\":3577:4123  function updateUserTier(address userAddress) internal {... */\n      pop\n      jump\t// out\n    tag_38:\n      pop\n      dup1\n      sload\n      tag_127\n      swap1\n      tag_48\n      jump\t// in\n    tag_127:\n      0x00\n      dup3\n      sstore\n      dup1\n      0x1f\n      lt\n      tag_129\n      jumpi\n      pop\n      jump(tag_128)\n    tag_129:\n      0x1f\n      add\n      0x20\n      swap1\n      div\n      swap1\n      0x00\n      mstore\n      keccak256(0x00, 0x20)\n      swap1\n      dup2\n      add\n      swap1\n      tag_130\n      swap2\n      swap1\n      tag_131\n      jump\t// in\n    tag_130:\n    tag_128:\n      pop\n      jump\t// out\n    tag_131:\n    tag_132:\n      dup1\n      dup3\n      gt\n      iszero\n      tag_133\n      jumpi\n      0x00\n      dup2\n      0x00\n      swap1\n      sstore\n      pop\n      0x01\n      add\n      jump(tag_132)\n    tag_133:\n      pop\n      swap1\n      jump\t// out\n        /* \"#utility.yul\":7:82   */\n    tag_134:\n        /* \"#utility.yul\":40:46   */\n      0x00\n        /* \"#utility.yul\":73:75   */\n      0x40\n        /* \"#utility.yul\":67:76   */\n      mload\n        /* \"#utility.yul\":57:76   */\n      swap1\n      pop\n        /* \"#utility.yul\":7:82   */\n      swap1\n      jump\t// out\n        /* \"#utility.yul\":88:205   */\n    tag_135:\n        /* \"#utility.yul\":197:198   */\n      0x00\n        /* \"#utility.yul\":194:195   */\n      dup1\n        /* \"#utility.yul\":187:199   */\n      revert\n        /* \"#utility.yul\":211:328   */\n    tag_136:\n        /* \"#utility.yul\":320:321   */\n      0x00\n        /* \"#utility.yul\":317:318   */\n      dup1\n        /* \"#utility.yul\":310:322   */\n      revert\n        /* \"#utility.yul\":334:460   */\n    tag_137:\n        /* \"#utility.yul\":371:378   */\n      0x00\n        /* \"#utility.yul\":411:453   */\n      0xffffffffffffffffffffffffffffffffffffffff\n        /* \"#utility.yul\":404:409   */\n      dup3\n        /* \"#utility.yul\":400:454   */\n      and\n        /* \"#utility.yul\":389:454   */\n      swap1\n      pop\n        /* \"#utility.yul\":334:460   */\n      swap2\n      swap1\n      pop\n      jump\t// out\n        /* \"#utility.yul\":466:562   */\n    tag_138:\n        /* \"#utility.yul\":503:510   */\n      0x00\n        /* \"#utility.yul\":532:556   */\n      tag_195\n        /* \"#utility.yul\":550:555   */\n      dup3\n        /* \"#utility.yul\":532:556   */\n      tag_137\n      jump\t// in\n    tag_195:\n        /* \"#utility.yul\":521:556   */\n      swap1\n      pop\n        /* \"#utility.yul\":466:562   */\n      swap2\n      swap1\n      pop\n      jump\t// out\n        /* \"#utility.yul\":568:690   */\n    tag_139:\n        /* \"#utility.yul\":641:665   */\n      tag_197\n        /* \"#utility.yul\":659:664   */\n      dup2\n        /* \"#utility.yul\":641:665   */\n      tag_138\n      jump\t// in\n    tag_197:\n        /* \"#utility.yul\":634:639   */\n      dup2\n        /* \"#utility.yul\":631:666   */\n      eq\n        /* \"#utility.yul\":621:684   */\n      tag_198\n      jumpi\n        /* \"#utility.yul\":680:681   */\n      0x00\n        /* \"#utility.yul\":677:678   */\n      dup1\n        /* \"#utility.yul\":670:682   */\n      revert\n        /* \"#utility.yul\":621:684   */\n    tag_198:\n        /* \"#utility.yul\":568:690   */\n      pop\n      jump\t// out\n        /* \"#utility.yul\":696:835   */\n    tag_140:\n        /* \"#utility.yul\":742:747   */\n      0x00\n        /* \"#utility.yul\":780:786   */\n      dup2\n        /* \"#utility.yul\":767:787   */\n      calldataload\n        /* \"#utility.yul\":758:787   */\n      swap1\n      pop\n        /* \"#utility.yul\":796:829   */\n      tag_200\n        /* \"#utility.yul\":823:828   */\n      dup2\n        /* \"#utility.yul\":796:829   */\n      tag_139\n      jump\t// in\n    tag_200:\n        /* \"#utility.yul\":696:835   */\n      swap3\n      swap2\n      pop\n      pop\n      jump\t// out\n        /* \"#utility.yul\":841:1170   */\n    tag_10:\n        /* \"#utility.yul\":900:906   */\n      0x00\n        /* \"#utility.yul\":949:951   */\n      0x20\n        /* \"#utility.yul\":937:946   */\n      dup3\n        /* \"#utility.yul\":928:935   */\n      dup5\n        /* \"#utility.yul\":924:947   */\n      sub\n        /* \"#utility.yul\":920:952   */\n      slt\n        /* \"#utility.yul\":917:1036   */\n      iszero\n      tag_202\n      jumpi\n        /* \"#utility.yul\":955:1034   */\n      tag_203\n      tag_135\n      jump\t// in\n    tag_203:\n        /* \"#utility.yul\":917:1036   */\n    tag_202:\n        /* \"#utility.yul\":1075:1076   */\n      0x00\n        /* \"#utility.yul\":1100:1153   */\n      tag_204\n        /* \"#utility.yul\":1145:1152   */\n      dup5\n        /* \"#utility.yul\":1136:1142   */\n      dup3\n        /* \"#utility.yul\":1125:1134   */\n      dup6\n        /* \"#utility.yul\":1121:1143   */\n      add\n        /* \"#utility.yul\":1100:1153   */\n      tag_140\n      jump\t// in\n    tag_204:\n        /* \"#utility.yul\":1090:1153   */\n      swap2\n      pop\n        /* \"#utility.yul\":1046:1163   */\n      pop\n        /* \"#utility.yul\":841:1170   */\n      swap3\n      swap2\n      pop\n      pop\n      jump\t// out\n        /* \"#utility.yul\":1176:1275   */\n    tag_141:\n        /* \"#utility.yul\":1228:1234   */\n      0x00\n        /* \"#utility.yul\":1262:1267   */\n      dup2\n        /* \"#utility.yul\":1256:1268   */\n      mload\n        /* \"#utility.yul\":1246:1268   */\n      swap1\n      pop\n        /* \"#utility.yul\":1176:1275   */\n      swap2\n      swap1\n      pop\n      jump\t// out\n        /* \"#utility.yul\":1281:1450   */\n    tag_142:\n        /* \"#utility.yul\":1365:1376   */\n      0x00\n        /* \"#utility.yul\":1399:1405   */\n      dup3\n        /* \"#utility.yul\":1394:1397   */\n      dup3\n        /* \"#utility.yul\":1387:1406   */\n      mstore\n        /* \"#utility.yul\":1439:1443   */\n      0x20\n        /* \"#utility.yul\":1434:1437   */\n      dup3\n        /* \"#utility.yul\":1430:1444   */\n      add\n        /* \"#utility.yul\":1415:1444   */\n      swap1\n      pop\n        /* \"#utility.yul\":1281:1450   */\n      swap3\n      swap2\n      pop\n      pop\n      jump\t// out\n        /* \"#utility.yul\":1456:1595   */\n    tag_143:\n        /* \"#utility.yul\":1545:1551   */\n      dup3\n        /* \"#utility.yul\":1540:1543   */\n      dup2\n        /* \"#utility.yul\":1535:1538   */\n      dup4\n        /* \"#utility.yul\":1529:1552   */\n      mcopy\n        /* \"#utility.yul\":1586:1587   */\n      0x00\n        /* \"#utility.yul\":1577:1583   */\n      dup4\n        /* \"#utility.yul\":1572:1575   */\n      dup4\n        /* \"#utility.yul\":1568:1584   */\n      add\n        /* \"#utility.yul\":1561:1588   */\n      mstore\n        /* \"#utility.yul\":1456:1595   */\n      pop\n      pop\n      pop\n      jump\t// out\n        /* \"#utility.yul\":1601:1703   */\n    tag_144:\n        /* \"#utility.yul\":1642:1648   */\n      0x00\n        /* \"#utility.yul\":1693:1695   */\n      0x1f\n        /* \"#utility.yul\":1689:1696   */\n      not\n        /* \"#utility.yul\":1684:1686   */\n      0x1f\n        /* \"#utility.yul\":1677:1682   */\n      dup4\n        /* \"#utility.yul\":1673:1687   */\n      add\n        /* \"#utility.yul\":1669:1697   */\n      and\n        /* \"#utility.yul\":1659:1697   */\n      swap1\n      pop\n        /* \"#utility.yul\":1601:1703   */\n      swap2\n      swap1\n      pop\n      jump\t// out\n        /* \"#utility.yul\":1709:2086   */\n    tag_145:\n        /* \"#utility.yul\":1797:1800   */\n      0x00\n        /* \"#utility.yul\":1825:1864   */\n      tag_210\n        /* \"#utility.yul\":1858:1863   */\n      dup3\n        /* \"#utility.yul\":1825:1864   */\n      tag_141\n      jump\t// in\n    tag_210:\n        /* \"#utility.yul\":1880:1951   */\n      tag_211\n        /* \"#utility.yul\":1944:1950   */\n      dup2\n        /* \"#utility.yul\":1939:1942   */\n      dup6\n        /* \"#utility.yul\":1880:1951   */\n      tag_142\n      jump\t// in\n    tag_211:\n        /* \"#utility.yul\":1873:1951   */\n      swap4\n      pop\n        /* \"#utility.yul\":1960:2025   */\n      tag_212\n        /* \"#utility.yul\":2018:2024   */\n      dup2\n        /* \"#utility.yul\":2013:2016   */\n      dup6\n        /* \"#utility.yul\":2006:2010   */\n      0x20\n        /* \"#utility.yul\":1999:2004   */\n      dup7\n        /* \"#utility.yul\":1995:2011   */\n      add\n        /* \"#utility.yul\":1960:2025   */\n      tag_143\n      jump\t// in\n    tag_212:\n        /* \"#utility.yul\":2050:2079   */\n      tag_213\n        /* \"#utility.yul\":2072:2078   */\n      dup2\n        /* \"#utility.yul\":2050:2079   */\n      tag_144\n      jump\t// in\n    tag_213:\n        /* \"#utility.yul\":2045:2048   */\n      dup5\n        /* \"#utility.yul\":2041:2080   */\n      add\n        /* \"#utility.yul\":2034:2080   */\n      swap2\n      pop\n        /* \"#utility.yul\":1801:2086   */\n      pop\n        /* \"#utility.yul\":1709:2086   */\n      swap3\n      swap2\n      pop\n      pop\n      jump\t// out\n        /* \"#utility.yul\":2092:2169   */\n    tag_146:\n        /* \"#utility.yul\":2129:2136   */\n      0x00\n        /* \"#utility.yul\":2158:2163   */\n      dup2\n        /* \"#utility.yul\":2147:2163   */\n      swap1\n      pop\n        /* \"#utility.yul\":2092:2169   */\n      swap2\n      swap1\n      pop\n      jump\t// out\n        /* \"#utility.yul\":2175:2293   */\n    tag_147:\n        /* \"#utility.yul\":2262:2286   */\n      tag_216\n        /* \"#utility.yul\":2280:2285   */\n      dup2\n        /* \"#utility.yul\":2262:2286   */\n      tag_146\n      jump\t// in\n    tag_216:\n        /* \"#utility.yul\":2257:2260   */\n      dup3\n        /* \"#utility.yul\":2250:2287   */\n      mstore\n        /* \"#utility.yul\":2175:2293   */\n      pop\n      pop\n      jump\t// out\n        /* \"#utility.yul\":2299:3842   */\n    tag_16:\n        /* \"#utility.yul\":2708:2712   */\n      0x00\n        /* \"#utility.yul\":2746:2749   */\n      0x0100\n        /* \"#utility.yul\":2735:2744   */\n      dup3\n        /* \"#utility.yul\":2731:2750   */\n      add\n        /* \"#utility.yul\":2723:2750   */\n      swap1\n      pop\n        /* \"#utility.yul\":2796:2805   */\n      dup2\n        /* \"#utility.yul\":2790:2794   */\n      dup2\n        /* \"#utility.yul\":2786:2806   */\n      sub\n        /* \"#utility.yul\":2782:2783   */\n      0x00\n        /* \"#utility.yul\":2771:2780   */\n      dup4\n        /* \"#utility.yul\":2767:2784   */\n      add\n        /* \"#utility.yul\":2760:2807   */\n      mstore\n        /* \"#utility.yul\":2824:2902   */\n      tag_218\n        /* \"#utility.yul\":2897:2901   */\n      dup2\n        /* \"#utility.yul\":2888:2894   */\n      dup12\n        /* \"#utility.yul\":2824:2902   */\n      tag_145\n      jump\t// in\n    tag_218:\n        /* \"#utility.yul\":2816:2902   */\n      swap1\n      pop\n        /* \"#utility.yul\":2949:2958   */\n      dup2\n        /* \"#utility.yul\":2943:2947   */\n      dup2\n        /* \"#utility.yul\":2939:2959   */\n      sub\n        /* \"#utility.yul\":2934:2936   */\n      0x20\n        /* \"#utility.yul\":2923:2932   */\n      dup4\n        /* \"#utility.yul\":2919:2937   */\n      add\n        /* \"#utility.yul\":2912:2960   */\n      mstore\n        /* \"#utility.yul\":2977:3055   */\n      tag_219\n        /* \"#utility.yul\":3050:3054   */\n      dup2\n        /* \"#utility.yul\":3041:3047   */\n      dup11\n        /* \"#utility.yul\":2977:3055   */\n      tag_145\n      jump\t// in\n    tag_219:\n        /* \"#utility.yul\":2969:3055   */\n      swap1\n      pop\n        /* \"#utility.yul\":3102:3111   */\n      dup2\n        /* \"#utility.yul\":3096:3100   */\n      dup2\n        /* \"#utility.yul\":3092:3112   */\n      sub\n        /* \"#utility.yul\":3087:3089   */\n      0x40\n        /* \"#utility.yul\":3076:3085   */\n      dup4\n        /* \"#utility.yul\":3072:3090   */\n      add\n        /* \"#utility.yul\":3065:3113   */\n      mstore\n        /* \"#utility.yul\":3130:3208   */\n      tag_220\n        /* \"#utility.yul\":3203:3207   */\n      dup2\n        /* \"#utility.yul\":3194:3200   */\n      dup10\n        /* \"#utility.yul\":3130:3208   */\n      tag_145\n      jump\t// in\n    tag_220:\n        /* \"#utility.yul\":3122:3208   */\n      swap1\n      pop\n        /* \"#utility.yul\":3255:3264   */\n      dup2\n        /* \"#utility.yul\":3249:3253   */\n      dup2\n        /* \"#utility.yul\":3245:3265   */\n      sub\n        /* \"#utility.yul\":3240:3242   */\n      0x60\n        /* \"#utility.yul\":3229:3238   */\n      dup4\n        /* \"#utility.yul\":3225:3243   */\n      add\n        /* \"#utility.yul\":3218:3266   */\n      mstore\n        /* \"#utility.yul\":3283:3361   */\n      tag_221\n        /* \"#utility.yul\":3356:3360   */\n      dup2\n        /* \"#utility.yul\":3347:3353   */\n      dup9\n        /* \"#utility.yul\":3283:3361   */\n      tag_145\n      jump\t// in\n    tag_221:\n        /* \"#utility.yul\":3275:3361   */\n      swap1\n      pop\n        /* \"#utility.yul\":3409:3418   */\n      dup2\n        /* \"#utility.yul\":3403:3407   */\n      dup2\n        /* \"#utility.yul\":3399:3419   */\n      sub\n        /* \"#utility.yul\":3393:3396   */\n      0x80\n        /* \"#utility.yul\":3382:3391   */\n      dup4\n        /* \"#utility.yul\":3378:3397   */\n      add\n        /* \"#utility.yul\":3371:3420   */\n      mstore\n        /* \"#utility.yul\":3437:3515   */\n      tag_222\n        /* \"#utility.yul\":3510:3514   */\n      dup2\n        /* \"#utility.yul\":3501:3507   */\n      dup8\n        /* \"#utility.yul\":3437:3515   */\n      tag_145\n      jump\t// in\n    tag_222:\n        /* \"#utility.yul\":3429:3515   */\n      swap1\n      pop\n        /* \"#utility.yul\":3563:3572   */\n      dup2\n        /* \"#utility.yul\":3557:3561   */\n      dup2\n        /* \"#utility.yul\":3553:3573   */\n      sub\n        /* \"#utility.yul\":3547:3550   */\n      0xa0\n        /* \"#utility.yul\":3536:3545   */\n      dup4\n        /* \"#utility.yul\":3532:3551   */\n      add\n        /* \"#utility.yul\":3525:3574   */\n      mstore\n        /* \"#utility.yul\":3591:3669   */\n      tag_223\n        /* \"#utility.yul\":3664:3668   */\n      dup2\n        /* \"#utility.yul\":3655:3661   */\n      dup7\n        /* \"#utility.yul\":3591:3669   */\n      tag_145\n      jump\t// in\n    tag_223:\n        /* \"#utility.yul\":3583:3669   */\n      swap1\n      pop\n        /* \"#utility.yul\":3679:3752   */\n      tag_224\n        /* \"#utility.yul\":3747:3750   */\n      0xc0\n        /* \"#utility.yul\":3736:3745   */\n      dup4\n        /* \"#utility.yul\":3732:3751   */\n      add\n        /* \"#utility.yul\":3723:3729   */\n      dup6\n        /* \"#utility.yul\":3679:3752   */\n      tag_147\n      jump\t// in\n    tag_224:\n        /* \"#utility.yul\":3762:3835   */\n      tag_225\n        /* \"#utility.yul\":3830:3833   */\n      0xe0\n        /* \"#utility.yul\":3819:3828   */\n      dup4\n        /* \"#utility.yul\":3815:3834   */\n      add\n        /* \"#utility.yul\":3806:3812   */\n      dup5\n        /* \"#utility.yul\":3762:3835   */\n      tag_147\n      jump\t// in\n    tag_225:\n        /* \"#utility.yul\":2299:3842   */\n      swap10\n      swap9\n      pop\n      pop\n      pop\n      pop\n      pop\n      pop\n      pop\n      pop\n      pop\n      jump\t// out\n        /* \"#utility.yul\":3848:3966   */\n    tag_148:\n        /* \"#utility.yul\":3935:3959   */\n      tag_227\n        /* \"#utility.yul\":3953:3958   */\n      dup2\n        /* \"#utility.yul\":3935:3959   */\n      tag_138\n      jump\t// in\n    tag_227:\n        /* \"#utility.yul\":3930:3933   */\n      dup3\n        /* \"#utility.yul\":3923:3960   */\n      mstore\n        /* \"#utility.yul\":3848:3966   */\n      pop\n      pop\n      jump\t// out\n        /* \"#utility.yul\":3972:4194   */\n    tag_20:\n        /* \"#utility.yul\":4065:4069   */\n      0x00\n        /* \"#utility.yul\":4103:4105   */\n      0x20\n        /* \"#utility.yul\":4092:4101   */\n      dup3\n        /* \"#utility.yul\":4088:4106   */\n      add\n        /* \"#utility.yul\":4080:4106   */\n      swap1\n      pop\n        /* \"#utility.yul\":4116:4187   */\n      tag_229\n        /* \"#utility.yul\":4184:4185   */\n      0x00\n        /* \"#utility.yul\":4173:4182   */\n      dup4\n        /* \"#utility.yul\":4169:4186   */\n      add\n        /* \"#utility.yul\":4160:4166   */\n      dup5\n        /* \"#utility.yul\":4116:4187   */\n      tag_148\n      jump\t// in\n    tag_229:\n        /* \"#utility.yul\":3972:4194   */\n      swap3\n      swap2\n      pop\n      pop\n      jump\t// out\n        /* \"#utility.yul\":4200:4317   */\n    tag_149:\n        /* \"#utility.yul\":4309:4310   */\n      0x00\n        /* \"#utility.yul\":4306:4307   */\n      dup1\n        /* \"#utility.yul\":4299:4311   */\n      revert\n        /* \"#utility.yul\":4323:4440   */\n    tag_150:\n        /* \"#utility.yul\":4432:4433   */\n      0x00\n        /* \"#utility.yul\":4429:4430   */\n      dup1\n        /* \"#utility.yul\":4422:4434   */\n      revert\n        /* \"#utility.yul\":4446:4626   */\n    tag_151:\n        /* \"#utility.yul\":4494:4571   */\n      0x4e487b7100000000000000000000000000000000000000000000000000000000\n        /* \"#utility.yul\":4491:4492   */\n      0x00\n        /* \"#utility.yul\":4484:4572   */\n      mstore\n        /* \"#utility.yul\":4591:4595   */\n      0x41\n        /* \"#utility.yul\":4588:4589   */\n      0x04\n        /* \"#utility.yul\":4581:4596   */\n      mstore\n        /* \"#utility.yul\":4615:4619   */\n      0x24\n        /* \"#utility.yul\":4612:4613   */\n      0x00\n        /* \"#utility.yul\":4605:4620   */\n      revert\n        /* \"#utility.yul\":4632:4913   */\n    tag_152:\n        /* \"#utility.yul\":4715:4742   */\n      tag_234\n        /* \"#utility.yul\":4737:4741   */\n      dup3\n        /* \"#utility.yul\":4715:4742   */\n      tag_144\n      jump\t// in\n    tag_234:\n        /* \"#utility.yul\":4707:4713   */\n      dup2\n        /* \"#utility.yul\":4703:4743   */\n      add\n        /* \"#utility.yul\":4845:4851   */\n      dup2\n        /* \"#utility.yul\":4833:4843   */\n      dup2\n        /* \"#utility.yul\":4830:4852   */\n      lt\n        /* \"#utility.yul\":4809:4827   */\n      0xffffffffffffffff\n        /* \"#utility.yul\":4797:4807   */\n      dup3\n        /* \"#utility.yul\":4794:4828   */\n      gt\n        /* \"#utility.yul\":4791:4853   */\n      or\n        /* \"#utility.yul\":4788:4876   */\n      iszero\n      tag_235\n      jumpi\n        /* \"#utility.yul\":4856:4874   */\n      tag_236\n      tag_151\n      jump\t// in\n    tag_236:\n        /* \"#utility.yul\":4788:4876   */\n    tag_235:\n        /* \"#utility.yul\":4896:4906   */\n      dup1\n        /* \"#utility.yul\":4892:4894   */\n      0x40\n        /* \"#utility.yul\":4885:4907   */\n      mstore\n        /* \"#utility.yul\":4675:4913   */\n      pop\n        /* \"#utility.yul\":4632:4913   */\n      pop\n      pop\n      jump\t// out\n        /* \"#utility.yul\":4919:5048   */\n    tag_153:\n        /* \"#utility.yul\":4953:4959   */\n      0x00\n        /* \"#utility.yul\":4980:5000   */\n      tag_238\n      tag_134\n      jump\t// in\n    tag_238:\n        /* \"#utility.yul\":4970:5000   */\n      swap1\n      pop\n        /* \"#utility.yul\":5009:5042   */\n      tag_239\n        /* \"#utility.yul\":5037:5041   */\n      dup3\n        /* \"#utility.yul\":5029:5035   */\n      dup3\n        /* \"#utility.yul\":5009:5042   */\n      tag_152\n      jump\t// in\n    tag_239:\n        /* \"#utility.yul\":4919:5048   */\n      swap2\n      swap1\n      pop\n      jump\t// out\n        /* \"#utility.yul\":5054:5362   */\n    tag_154:\n        /* \"#utility.yul\":5116:5120   */\n      0x00\n        /* \"#utility.yul\":5206:5224   */\n      0xffffffffffffffff\n        /* \"#utility.yul\":5198:5204   */\n      dup3\n        /* \"#utility.yul\":5195:5225   */\n      gt\n        /* \"#utility.yul\":5192:5248   */\n      iszero\n      tag_241\n      jumpi\n        /* \"#utility.yul\":5228:5246   */\n      tag_242\n      tag_151\n      jump\t// in\n    tag_242:\n        /* \"#utility.yul\":5192:5248   */\n    tag_241:\n        /* \"#utility.yul\":5266:5295   */\n      tag_243\n        /* \"#utility.yul\":5288:5294   */\n      dup3\n        /* \"#utility.yul\":5266:5295   */\n      tag_144\n      jump\t// in\n    tag_243:\n        /* \"#utility.yul\":5258:5295   */\n      swap1\n      pop\n        /* \"#utility.yul\":5350:5354   */\n      0x20\n        /* \"#utility.yul\":5344:5348   */\n      dup2\n        /* \"#utility.yul\":5340:5355   */\n      add\n        /* \"#utility.yul\":5332:5355   */\n      swap1\n      pop\n        /* \"#utility.yul\":5054:5362   */\n      swap2\n      swap1\n      pop\n      jump\t// out\n        /* \"#utility.yul\":5368:5516   */\n    tag_155:\n        /* \"#utility.yul\":5466:5472   */\n      dup3\n        /* \"#utility.yul\":5461:5464   */\n      dup2\n        /* \"#utility.yul\":5456:5459   */\n      dup4\n        /* \"#utility.yul\":5443:5473   */\n      calldatacopy\n        /* \"#utility.yul\":5507:5508   */\n      0x00\n        /* \"#utility.yul\":5498:5504   */\n      dup4\n        /* \"#utility.yul\":5493:5496   */\n      dup4\n        /* \"#utility.yul\":5489:5505   */\n      add\n        /* \"#utility.yul\":5482:5509   */\n      mstore\n        /* \"#utility.yul\":5368:5516   */\n      pop\n      pop\n      pop\n      jump\t// out\n        /* \"#utility.yul\":5522:5947   */\n    tag_156:\n        /* \"#utility.yul\":5600:5605   */\n      0x00\n        /* \"#utility.yul\":5625:5691   */\n      tag_246\n        /* \"#utility.yul\":5641:5690   */\n      tag_247\n        /* \"#utility.yul\":5683:5689   */\n      dup5\n        /* \"#utility.yul\":5641:5690   */\n      tag_154\n      jump\t// in\n    tag_247:\n        /* \"#utility.yul\":5625:5691   */\n      tag_153\n      jump\t// in\n    tag_246:\n        /* \"#utility.yul\":5616:5691   */\n      swap1\n      pop\n        /* \"#utility.yul\":5714:5720   */\n      dup3\n        /* \"#utility.yul\":5707:5712   */\n      dup2\n        /* \"#utility.yul\":5700:5721   */\n      mstore\n        /* \"#utility.yul\":5752:5756   */\n      0x20\n        /* \"#utility.yul\":5745:5750   */\n      dup2\n        /* \"#utility.yul\":5741:5757   */\n      add\n        /* \"#utility.yul\":5790:5793   */\n      dup5\n        /* \"#utility.yul\":5781:5787   */\n      dup5\n        /* \"#utility.yul\":5776:5779   */\n      dup5\n        /* \"#utility.yul\":5772:5788   */\n      add\n        /* \"#utility.yul\":5769:5794   */\n      gt\n        /* \"#utility.yul\":5766:5878   */\n      iszero\n      tag_248\n      jumpi\n        /* \"#utility.yul\":5797:5876   */\n      tag_249\n      tag_150\n      jump\t// in\n    tag_249:\n        /* \"#utility.yul\":5766:5878   */\n    tag_248:\n        /* \"#utility.yul\":5887:5941   */\n      tag_250\n        /* \"#utility.yul\":5934:5940   */\n      dup5\n        /* \"#utility.yul\":5929:5932   */\n      dup3\n        /* \"#utility.yul\":5924:5927   */\n      dup6\n        /* \"#utility.yul\":5887:5941   */\n      tag_155\n      jump\t// in\n    tag_250:\n        /* \"#utility.yul\":5606:5947   */\n      pop\n        /* \"#utility.yul\":5522:5947   */\n      swap4\n      swap3\n      pop\n      pop\n      pop\n      jump\t// out\n        /* \"#utility.yul\":5967:6307   */\n    tag_157:\n        /* \"#utility.yul\":6023:6028   */\n      0x00\n        /* \"#utility.yul\":6072:6075   */\n      dup3\n        /* \"#utility.yul\":6065:6069   */\n      0x1f\n        /* \"#utility.yul\":6057:6063   */\n      dup4\n        /* \"#utility.yul\":6053:6070   */\n      add\n        /* \"#utility.yul\":6049:6076   */\n      slt\n        /* \"#utility.yul\":6039:6161   */\n      tag_252\n      jumpi\n        /* \"#utility.yul\":6080:6159   */\n      tag_253\n      tag_149\n      jump\t// in\n    tag_253:\n        /* \"#utility.yul\":6039:6161   */\n    tag_252:\n        /* \"#utility.yul\":6197:6203   */\n      dup2\n        /* \"#utility.yul\":6184:6204   */\n      calldataload\n        /* \"#utility.yul\":6222:6301   */\n      tag_254\n        /* \"#utility.yul\":6297:6300   */\n      dup5\n        /* \"#utility.yul\":6289:6295   */\n      dup3\n        /* \"#utility.yul\":6282:6286   */\n      0x20\n        /* \"#utility.yul\":6274:6280   */\n      dup7\n        /* \"#utility.yul\":6270:6287   */\n      add\n        /* \"#utility.yul\":6222:6301   */\n      tag_156\n      jump\t// in\n    tag_254:\n        /* \"#utility.yul\":6213:6301   */\n      swap2\n      pop\n        /* \"#utility.yul\":6029:6307   */\n      pop\n        /* \"#utility.yul\":5967:6307   */\n      swap3\n      swap2\n      pop\n      pop\n      jump\t// out\n        /* \"#utility.yul\":6313:8270   */\n    tag_23:\n        /* \"#utility.yul\":6467:6473   */\n      0x00\n        /* \"#utility.yul\":6475:6481   */\n      dup1\n        /* \"#utility.yul\":6483:6489   */\n      0x00\n        /* \"#utility.yul\":6491:6497   */\n      dup1\n        /* \"#utility.yul\":6499:6505   */\n      0x00\n        /* \"#utility.yul\":6507:6513   */\n      dup1\n        /* \"#utility.yul\":6556:6559   */\n      0xc0\n        /* \"#utility.yul\":6544:6553   */\n      dup8\n        /* \"#utility.yul\":6535:6542   */\n      dup10\n        /* \"#utility.yul\":6531:6554   */\n      sub\n        /* \"#utility.yul\":6527:6560   */\n      slt\n        /* \"#utility.yul\":6524:6644   */\n      iszero\n      tag_256\n      jumpi\n        /* \"#utility.yul\":6563:6642   */\n      tag_257\n      tag_135\n      jump\t// in\n    tag_257:\n        /* \"#utility.yul\":6524:6644   */\n    tag_256:\n        /* \"#utility.yul\":6683:6684   */\n      0x00\n        /* \"#utility.yul\":6708:6761   */\n      tag_258\n        /* \"#utility.yul\":6753:6760   */\n      dup10\n        /* \"#utility.yul\":6744:6750   */\n      dup3\n        /* \"#utility.yul\":6733:6742   */\n      dup11\n        /* \"#utility.yul\":6729:6751   */\n      add\n        /* \"#utility.yul\":6708:6761   */\n      tag_140\n      jump\t// in\n    tag_258:\n        /* \"#utility.yul\":6698:6761   */\n      swap7\n      pop\n        /* \"#utility.yul\":6654:6771   */\n      pop\n        /* \"#utility.yul\":6838:6840   */\n      0x20\n        /* \"#utility.yul\":6827:6836   */\n      dup8\n        /* \"#utility.yul\":6823:6841   */\n      add\n        /* \"#utility.yul\":6810:6842   */\n      calldataload\n        /* \"#utility.yul\":6869:6887   */\n      0xffffffffffffffff\n        /* \"#utility.yul\":6861:6867   */\n      dup2\n        /* \"#utility.yul\":6858:6888   */\n      gt\n        /* \"#utility.yul\":6855:6972   */\n      iszero\n      tag_259\n      jumpi\n        /* \"#utility.yul\":6891:6970   */\n      tag_260\n      tag_136\n      jump\t// in\n    tag_260:\n        /* \"#utility.yul\":6855:6972   */\n    tag_259:\n        /* \"#utility.yul\":6996:7059   */\n      tag_261\n        /* \"#utility.yul\":7051:7058   */\n      dup10\n        /* \"#utility.yul\":7042:7048   */\n      dup3\n        /* \"#utility.yul\":7031:7040   */\n      dup11\n        /* \"#utility.yul\":7027:7049   */\n      add\n        /* \"#utility.yul\":6996:7059   */\n      tag_157\n      jump\t// in\n    tag_261:\n        /* \"#utility.yul\":6986:7059   */\n      swap6\n      pop\n        /* \"#utility.yul\":6781:7069   */\n      pop\n        /* \"#utility.yul\":7136:7138   */\n      0x40\n        /* \"#utility.yul\":7125:7134   */\n      dup8\n        /* \"#utility.yul\":7121:7139   */\n      add\n        /* \"#utility.yul\":7108:7140   */\n      calldataload\n        /* \"#utility.yul\":7167:7185   */\n      0xffffffffffffffff\n        /* \"#utility.yul\":7159:7165   */\n      dup2\n        /* \"#utility.yul\":7156:7186   */\n      gt\n        /* \"#utility.yul\":7153:7270   */\n      iszero\n      tag_262\n      jumpi\n        /* \"#utility.yul\":7189:7268   */\n      tag_263\n      tag_136\n      jump\t// in\n    tag_263:\n        /* \"#utility.yul\":7153:7270   */\n    tag_262:\n        /* \"#utility.yul\":7294:7357   */\n      tag_264\n        /* \"#utility.yul\":7349:7356   */\n      dup10\n        /* \"#utility.yul\":7340:7346   */\n      dup3\n        /* \"#utility.yul\":7329:7338   */\n      dup11\n        /* \"#utility.yul\":7325:7347   */\n      add\n        /* \"#utility.yul\":7294:7357   */\n      tag_157\n      jump\t// in\n    tag_264:\n        /* \"#utility.yul\":7284:7357   */\n      swap5\n      pop\n        /* \"#utility.yul\":7079:7367   */\n      pop\n        /* \"#utility.yul\":7434:7436   */\n      0x60\n        /* \"#utility.yul\":7423:7432   */\n      dup8\n        /* \"#utility.yul\":7419:7437   */\n      add\n        /* \"#utility.yul\":7406:7438   */\n      calldataload\n        /* \"#utility.yul\":7465:7483   */\n      0xffffffffffffffff\n        /* \"#utility.yul\":7457:7463   */\n      dup2\n        /* \"#utility.yul\":7454:7484   */\n      gt\n        /* \"#utility.yul\":7451:7568   */\n      iszero\n      tag_265\n      jumpi\n        /* \"#utility.yul\":7487:7566   */\n      tag_266\n      tag_136\n      jump\t// in\n    tag_266:\n        /* \"#utility.yul\":7451:7568   */\n    tag_265:\n        /* \"#utility.yul\":7592:7655   */\n      tag_267\n        /* \"#utility.yul\":7647:7654   */\n      dup10\n        /* \"#utility.yul\":7638:7644   */\n      dup3\n        /* \"#utility.yul\":7627:7636   */\n      dup11\n        /* \"#utility.yul\":7623:7645   */\n      add\n        /* \"#utility.yul\":7592:7655   */\n      tag_157\n      jump\t// in\n    tag_267:\n        /* \"#utility.yul\":7582:7655   */\n      swap4\n      pop\n        /* \"#utility.yul\":7377:7665   */\n      pop\n        /* \"#utility.yul\":7732:7735   */\n      0x80\n        /* \"#utility.yul\":7721:7730   */\n      dup8\n        /* \"#utility.yul\":7717:7736   */\n      add\n        /* \"#utility.yul\":7704:7737   */\n      calldataload\n        /* \"#utility.yul\":7764:7782   */\n      0xffffffffffffffff\n        /* \"#utility.yul\":7756:7762   */\n      dup2\n        /* \"#utility.yul\":7753:7783   */\n      gt\n        /* \"#utility.yul\":7750:7867   */\n      iszero\n      tag_268\n      jumpi\n        /* \"#utility.yul\":7786:7865   */\n      tag_269\n      tag_136\n      jump\t// in\n    tag_269:\n        /* \"#utility.yul\":7750:7867   */\n    tag_268:\n        /* \"#utility.yul\":7891:7954   */\n      tag_270\n        /* \"#utility.yul\":7946:7953   */\n      dup10\n        /* \"#utility.yul\":7937:7943   */\n      dup3\n        /* \"#utility.yul\":7926:7935   */\n      dup11\n        /* \"#utility.yul\":7922:7944   */\n      add\n        /* \"#utility.yul\":7891:7954   */\n      tag_157\n      jump\t// in\n    tag_270:\n        /* \"#utility.yul\":7881:7954   */\n      swap3\n      pop\n        /* \"#utility.yul\":7675:7964   */\n      pop\n        /* \"#utility.yul\":8031:8034   */\n      0xa0\n        /* \"#utility.yul\":8020:8029   */\n      dup8\n        /* \"#utility.yul\":8016:8035   */\n      add\n        /* \"#utility.yul\":8003:8036   */\n      calldataload\n        /* \"#utility.yul\":8063:8081   */\n      0xffffffffffffffff\n        /* \"#utility.yul\":8055:8061   */\n      dup2\n        /* \"#utility.yul\":8052:8082   */\n      gt\n        /* \"#utility.yul\":8049:8166   */\n      iszero\n      tag_271\n      jumpi\n        /* \"#utility.yul\":8085:8164   */\n      tag_272\n      tag_136\n      jump\t// in\n    tag_272:\n        /* \"#utility.yul\":8049:8166   */\n    tag_271:\n        /* \"#utility.yul\":8190:8253   */\n      tag_273\n        /* \"#utility.yul\":8245:8252   */\n      dup10\n        /* \"#utility.yul\":8236:8242   */\n      dup3\n        /* \"#utility.yul\":8225:8234   */\n      dup11\n        /* \"#utility.yul\":8221:8243   */\n      add\n        /* \"#utility.yul\":8190:8253   */\n      tag_157\n      jump\t// in\n    tag_273:\n        /* \"#utility.yul\":8180:8253   */\n      swap2\n      pop\n        /* \"#utility.yul\":7974:8263   */\n      pop\n        /* \"#utility.yul\":6313:8270   */\n      swap3\n      swap6\n      pop\n      swap3\n      swap6\n      pop\n      swap3\n      swap6\n      jump\t// out\n        /* \"#utility.yul\":8276:8398   */\n    tag_158:\n        /* \"#utility.yul\":8349:8373   */\n      tag_275\n        /* \"#utility.yul\":8367:8372   */\n      dup2\n        /* \"#utility.yul\":8349:8373   */\n      tag_146\n      jump\t// in\n    tag_275:\n        /* \"#utility.yul\":8342:8347   */\n      dup2\n        /* \"#utility.yul\":8339:8374   */\n      eq\n        /* \"#utility.yul\":8329:8392   */\n      tag_276\n      jumpi\n        /* \"#utility.yul\":8388:8389   */\n      0x00\n        /* \"#utility.yul\":8385:8386   */\n      dup1\n        /* \"#utility.yul\":8378:8390   */\n      revert\n        /* \"#utility.yul\":8329:8392   */\n    tag_276:\n        /* \"#utility.yul\":8276:8398   */\n      pop\n      jump\t// out\n        /* \"#utility.yul\":8404:8543   */\n    tag_159:\n        /* \"#utility.yul\":8450:8455   */\n      0x00\n        /* \"#utility.yul\":8488:8494   */\n      dup2\n        /* \"#utility.yul\":8475:8495   */\n      calldataload\n        /* \"#utility.yul\":8466:8495   */\n      swap1\n      pop\n        /* \"#utility.yul\":8504:8537   */\n      tag_278\n        /* \"#utility.yul\":8531:8536   */\n      dup2\n        /* \"#utility.yul\":8504:8537   */\n      tag_158\n      jump\t// in\n    tag_278:\n        /* \"#utility.yul\":8404:8543   */\n      swap3\n      swap2\n      pop\n      pop\n      jump\t// out\n        /* \"#utility.yul\":8549:8639   */\n    tag_160:\n        /* \"#utility.yul\":8583:8590   */\n      0x00\n        /* \"#utility.yul\":8626:8631   */\n      dup2\n        /* \"#utility.yul\":8619:8632   */\n      iszero\n        /* \"#utility.yul\":8612:8633   */\n      iszero\n        /* \"#utility.yul\":8601:8633   */\n      swap1\n      pop\n        /* \"#utility.yul\":8549:8639   */\n      swap2\n      swap1\n      pop\n      jump\t// out\n        /* \"#utility.yul\":8645:8761   */\n    tag_161:\n        /* \"#utility.yul\":8715:8736   */\n      tag_281\n        /* \"#utility.yul\":8730:8735   */\n      dup2\n        /* \"#utility.yul\":8715:8736   */\n      tag_160\n      jump\t// in\n    tag_281:\n        /* \"#utility.yul\":8708:8713   */\n      dup2\n        /* \"#utility.yul\":8705:8737   */\n      eq\n        /* \"#utility.yul\":8695:8755   */\n      tag_282\n      jumpi\n        /* \"#utility.yul\":8751:8752   */\n      0x00\n        /* \"#utility.yul\":8748:8749   */\n      dup1\n        /* \"#utility.yul\":8741:8753   */\n      revert\n        /* \"#utility.yul\":8695:8755   */\n    tag_282:\n        /* \"#utility.yul\":8645:8761   */\n      pop\n      jump\t// out\n        /* \"#utility.yul\":8767:8900   */\n    tag_162:\n        /* \"#utility.yul\":8810:8815   */\n      0x00\n        /* \"#utility.yul\":8848:8854   */\n      dup2\n        /* \"#utility.yul\":8835:8855   */\n      calldataload\n        /* \"#utility.yul\":8826:8855   */\n      swap1\n      pop\n        /* \"#utility.yul\":8864:8894   */\n      tag_284\n        /* \"#utility.yul\":8888:8893   */\n      dup2\n        /* \"#utility.yul\":8864:8894   */\n      tag_161\n      jump\t// in\n    tag_284:\n        /* \"#utility.yul\":8767:8900   */\n      swap3\n      swap2\n      pop\n      pop\n      jump\t// out\n        /* \"#utility.yul\":8906:9519   */\n    tag_27:\n        /* \"#utility.yul\":8980:8986   */\n      0x00\n        /* \"#utility.yul\":8988:8994   */\n      dup1\n        /* \"#utility.yul\":8996:9002   */\n      0x00\n        /* \"#utility.yul\":9045:9047   */\n      0x60\n        /* \"#utility.yul\":9033:9042   */\n      dup5\n        /* \"#utility.yul\":9024:9031   */\n      dup7\n        /* \"#utility.yul\":9020:9043   */\n      sub\n        /* \"#utility.yul\":9016:9048   */\n      slt\n        /* \"#utility.yul\":9013:9132   */\n      iszero\n      tag_286\n      jumpi\n        /* \"#utility.yul\":9051:9130   */\n      tag_287\n      tag_135\n      jump\t// in\n    tag_287:\n        /* \"#utility.yul\":9013:9132   */\n    tag_286:\n        /* \"#utility.yul\":9171:9172   */\n      0x00\n        /* \"#utility.yul\":9196:9249   */\n      tag_288\n        /* \"#utility.yul\":9241:9248   */\n      dup7\n        /* \"#utility.yul\":9232:9238   */\n      dup3\n        /* \"#utility.yul\":9221:9230   */\n      dup8\n        /* \"#utility.yul\":9217:9239   */\n      add\n        /* \"#utility.yul\":9196:9249   */\n      tag_140\n      jump\t// in\n    tag_288:\n        /* \"#utility.yul\":9186:9249   */\n      swap4\n      pop\n        /* \"#utility.yul\":9142:9259   */\n      pop\n        /* \"#utility.yul\":9298:9300   */\n      0x20\n        /* \"#utility.yul\":9324:9377   */\n      tag_289\n        /* \"#utility.yul\":9369:9376   */\n      dup7\n        /* \"#utility.yul\":9360:9366   */\n      dup3\n        /* \"#utility.yul\":9349:9358   */\n      dup8\n        /* \"#utility.yul\":9345:9367   */\n      add\n        /* \"#utility.yul\":9324:9377   */\n      tag_159\n      jump\t// in\n    tag_289:\n        /* \"#utility.yul\":9314:9377   */\n      swap3\n      pop\n        /* \"#utility.yul\":9269:9387   */\n      pop\n        /* \"#utility.yul\":9426:9428   */\n      0x40\n        /* \"#utility.yul\":9452:9502   */\n      tag_290\n        /* \"#utility.yul\":9494:9501   */\n      dup7\n        /* \"#utility.yul\":9485:9491   */\n      dup3\n        /* \"#utility.yul\":9474:9483   */\n      dup8\n        /* \"#utility.yul\":9470:9492   */\n      add\n        /* \"#utility.yul\":9452:9502   */\n      tag_162\n      jump\t// in\n    tag_290:\n        /* \"#utility.yul\":9442:9502   */\n      swap2\n      pop\n        /* \"#utility.yul\":9397:9512   */\n      pop\n        /* \"#utility.yul\":8906:9519   */\n      swap3\n      pop\n      swap3\n      pop\n      swap3\n      jump\t// out\n        /* \"#utility.yul\":9525:9689   */\n    tag_163:\n        /* \"#utility.yul\":9665:9681   */\n      0x4e6f7420617574686f72697a6564000000000000000000000000000000000000\n        /* \"#utility.yul\":9661:9662   */\n      0x00\n        /* \"#utility.yul\":9653:9659   */\n      dup3\n        /* \"#utility.yul\":9649:9663   */\n      add\n        /* \"#utility.yul\":9642:9682   */\n      mstore\n        /* \"#utility.yul\":9525:9689   */\n      pop\n      jump\t// out\n        /* \"#utility.yul\":9695:10061   */\n    tag_164:\n        /* \"#utility.yul\":9837:9840   */\n      0x00\n        /* \"#utility.yul\":9858:9925   */\n      tag_293\n        /* \"#utility.yul\":9922:9924   */\n      0x0e\n        /* \"#utility.yul\":9917:9920   */\n      dup4\n        /* \"#utility.yul\":9858:9925   */\n      tag_142\n      jump\t// in\n    tag_293:\n        /* \"#utility.yul\":9851:9925   */\n      swap2\n      pop\n        /* \"#utility.yul\":9934:10027   */\n      tag_294\n        /* \"#utility.yul\":10023:10026   */\n      dup3\n        /* \"#utility.yul\":9934:10027   */\n      tag_163\n      jump\t// in\n    tag_294:\n        /* \"#utility.yul\":10052:10054   */\n      0x20\n        /* \"#utility.yul\":10047:10050   */\n      dup3\n        /* \"#utility.yul\":10043:10055   */\n      add\n        /* \"#utility.yul\":10036:10055   */\n      swap1\n      pop\n        /* \"#utility.yul\":9695:10061   */\n      swap2\n      swap1\n      pop\n      jump\t// out\n        /* \"#utility.yul\":10067:10486   */\n    tag_32:\n        /* \"#utility.yul\":10233:10237   */\n      0x00\n        /* \"#utility.yul\":10271:10273   */\n      0x20\n        /* \"#utility.yul\":10260:10269   */\n      dup3\n        /* \"#utility.yul\":10256:10274   */\n      add\n        /* \"#utility.yul\":10248:10274   */\n      swap1\n      pop\n        /* \"#utility.yul\":10320:10329   */\n      dup2\n        /* \"#utility.yul\":10314:10318   */\n      dup2\n        /* \"#utility.yul\":10310:10330   */\n      sub\n        /* \"#utility.yul\":10306:10307   */\n      0x00\n        /* \"#utility.yul\":10295:10304   */\n      dup4\n        /* \"#utility.yul\":10291:10308   */\n      add\n        /* \"#utility.yul\":10284:10331   */\n      mstore\n        /* \"#utility.yul\":10348:10479   */\n      tag_296\n        /* \"#utility.yul\":10474:10478   */\n      dup2\n        /* \"#utility.yul\":10348:10479   */\n      tag_164\n      jump\t// in\n    tag_296:\n        /* \"#utility.yul\":10340:10479   */\n      swap1\n      pop\n        /* \"#utility.yul\":10067:10486   */\n      swap2\n      swap1\n      pop\n      jump\t// out\n        /* \"#utility.yul\":10492:10661   */\n    tag_165:\n        /* \"#utility.yul\":10632:10653   */\n      0x5573657220646f6573206e6f7420657869737400000000000000000000000000\n        /* \"#utility.yul\":10628:10629   */\n      0x00\n        /* \"#utility.yul\":10620:10626   */\n      dup3\n        /* \"#utility.yul\":10616:10630   */\n      add\n        /* \"#utility.yul\":10609:10654   */\n      mstore\n        /* \"#utility.yul\":10492:10661   */\n      pop\n      jump\t// out\n        /* \"#utility.yul\":10667:11033   */\n    tag_166:\n        /* \"#utility.yul\":10809:10812   */\n      0x00\n        /* \"#utility.yul\":10830:10897   */\n      tag_299\n        /* \"#utility.yul\":10894:10896   */\n      0x13\n        /* \"#utility.yul\":10889:10892   */\n      dup4\n        /* \"#utility.yul\":10830:10897   */\n      tag_142\n      jump\t// in\n    tag_299:\n        /* \"#utility.yul\":10823:10897   */\n      swap2\n      pop\n        /* \"#utility.yul\":10906:10999   */\n      tag_300\n        /* \"#utility.yul\":10995:10998   */\n      dup3\n        /* \"#utility.yul\":10906:10999   */\n      tag_165\n      jump\t// in\n    tag_300:\n        /* \"#utility.yul\":11024:11026   */\n      0x20\n        /* \"#utility.yul\":11019:11022   */\n      dup3\n        /* \"#utility.yul\":11015:11027   */\n      add\n        /* \"#utility.yul\":11008:11027   */\n      swap1\n      pop\n        /* \"#utility.yul\":10667:11033   */\n      swap2\n      swap1\n      pop\n      jump\t// out\n        /* \"#utility.yul\":11039:11458   */\n    tag_36:\n        /* \"#utility.yul\":11205:11209   */\n      0x00\n        /* \"#utility.yul\":11243:11245   */\n      0x20\n        /* \"#utility.yul\":11232:11241   */\n      dup3\n        /* \"#utility.yul\":11228:11246   */\n      add\n        /* \"#utility.yul\":11220:11246   */\n      swap1\n      pop\n        /* \"#utility.yul\":11292:11301   */\n      dup2\n        /* \"#utility.yul\":11286:11290   */\n      dup2\n        /* \"#utility.yul\":11282:11302   */\n      sub\n        /* \"#utility.yul\":11278:11279   */\n      0x00\n        /* \"#utility.yul\":11267:11276   */\n      dup4\n        /* \"#utility.yul\":11263:11280   */\n      add\n        /* \"#utility.yul\":11256:11303   */\n      mstore\n        /* \"#utility.yul\":11320:11451   */\n      tag_302\n        /* \"#utility.yul\":11446:11450   */\n      dup2\n        /* \"#utility.yul\":11320:11451   */\n      tag_166\n      jump\t// in\n    tag_302:\n        /* \"#utility.yul\":11312:11451   */\n      swap1\n      pop\n        /* \"#utility.yul\":11039:11458   */\n      swap2\n      swap1\n      pop\n      jump\t// out\n        /* \"#utility.yul\":11464:11644   */\n    tag_167:\n        /* \"#utility.yul\":11512:11589   */\n      0x4e487b7100000000000000000000000000000000000000000000000000000000\n        /* \"#utility.yul\":11509:11510   */\n      0x00\n        /* \"#utility.yul\":11502:11590   */\n      mstore\n        /* \"#utility.yul\":11609:11613   */\n      0x22\n        /* \"#utility.yul\":11606:11607   */\n      0x04\n        /* \"#utility.yul\":11599:11614   */\n      mstore\n        /* \"#utility.yul\":11633:11637   */\n      0x24\n        /* \"#utility.yul\":11630:11631   */\n      0x00\n        /* \"#utility.yul\":11623:11638   */\n      revert\n        /* \"#utility.yul\":11650:11970   */\n    tag_48:\n        /* \"#utility.yul\":11694:11700   */\n      0x00\n        /* \"#utility.yul\":11731:11732   */\n      0x02\n        /* \"#utility.yul\":11725:11729   */\n      dup3\n        /* \"#utility.yul\":11721:11733   */\n      div\n        /* \"#utility.yul\":11711:11733   */\n      swap1\n      pop\n        /* \"#utility.yul\":11778:11779   */\n      0x01\n        /* \"#utility.yul\":11772:11776   */\n      dup3\n        /* \"#utility.yul\":11768:11780   */\n      and\n        /* \"#utility.yul\":11799:11817   */\n      dup1\n        /* \"#utility.yul\":11789:11870   */\n      tag_305\n      jumpi\n        /* \"#utility.yul\":11855:11859   */\n      0x7f\n        /* \"#utility.yul\":11847:11853   */\n      dup3\n        /* \"#utility.yul\":11843:11860   */\n      and\n        /* \"#utility.yul\":11833:11860   */\n      swap2\n      pop\n        /* \"#utility.yul\":11789:11870   */\n    tag_305:\n        /* \"#utility.yul\":11917:11919   */\n      0x20\n        /* \"#utility.yul\":11909:11915   */\n      dup3\n        /* \"#utility.yul\":11906:11920   */\n      lt\n        /* \"#utility.yul\":11886:11904   */\n      dup2\n        /* \"#utility.yul\":11883:11921   */\n      sub\n        /* \"#utility.yul\":11880:11964   */\n      tag_306\n      jumpi\n        /* \"#utility.yul\":11936:11954   */\n      tag_307\n      tag_167\n      jump\t// in\n    tag_307:\n        /* \"#utility.yul\":11880:11964   */\n    tag_306:\n        /* \"#utility.yul\":11701:11970   */\n      pop\n        /* \"#utility.yul\":11650:11970   */\n      swap2\n      swap1\n      pop\n      jump\t// out\n        /* \"#utility.yul\":11976:12145   */\n    tag_168:\n        /* \"#utility.yul\":12116:12137   */\n      0x5573657220616c72656164792065786973747300000000000000000000000000\n        /* \"#utility.yul\":12112:12113   */\n      0x00\n        /* \"#utility.yul\":12104:12110   */\n      dup3\n        /* \"#utility.yul\":12100:12114   */\n      add\n        /* \"#utility.yul\":12093:12138   */\n      mstore\n        /* \"#utility.yul\":11976:12145   */\n      pop\n      jump\t// out\n        /* \"#utility.yul\":12151:12517   */\n    tag_169:\n        /* \"#utility.yul\":12293:12296   */\n      0x00\n        /* \"#utility.yul\":12314:12381   */\n      tag_310\n        /* \"#utility.yul\":12378:12380   */\n      0x13\n        /* \"#utility.yul\":12373:12376   */\n      dup4\n        /* \"#utility.yul\":12314:12381   */\n      tag_142\n      jump\t// in\n    tag_310:\n        /* \"#utility.yul\":12307:12381   */\n      swap2\n      pop\n        /* \"#utility.yul\":12390:12483   */\n      tag_311\n        /* \"#utility.yul\":12479:12482   */\n      dup3\n        /* \"#utility.yul\":12390:12483   */\n      tag_168\n      jump\t// in\n    tag_311:\n        /* \"#utility.yul\":12508:12510   */\n      0x20\n        /* \"#utility.yul\":12503:12506   */\n      dup3\n        /* \"#utility.yul\":12499:12511   */\n      add\n        /* \"#utility.yul\":12492:12511   */\n      swap1\n      pop\n        /* \"#utility.yul\":12151:12517   */\n      swap2\n      swap1\n      pop\n      jump\t// out\n        /* \"#utility.yul\":12523:12942   */\n    tag_84:\n        /* \"#utility.yul\":12689:12693   */\n      0x00\n        /* \"#utility.yul\":12727:12729   */\n      0x20\n        /* \"#utility.yul\":12716:12725   */\n      dup3\n        /* \"#utility.yul\":12712:12730   */\n      add\n        /* \"#utility.yul\":12704:12730   */\n      swap1\n      pop\n        /* \"#utility.yul\":12776:12785   */\n      dup2\n        /* \"#utility.yul\":12770:12774   */\n      dup2\n        /* \"#utility.yul\":12766:12786   */\n      sub\n        /* \"#utility.yul\":12762:12763   */\n      0x00\n        /* \"#utility.yul\":12751:12760   */\n      dup4\n        /* \"#utility.yul\":12747:12764   */\n      add\n        /* \"#utility.yul\":12740:12787   */\n      mstore\n        /* \"#utility.yul\":12804:12935   */\n      tag_313\n        /* \"#utility.yul\":12930:12934   */\n      dup2\n        /* \"#utility.yul\":12804:12935   */\n      tag_169\n      jump\t// in\n    tag_313:\n        /* \"#utility.yul\":12796:12935   */\n      swap1\n      pop\n        /* \"#utility.yul\":12523:12942   */\n      swap2\n      swap1\n      pop\n      jump\t// out\n        /* \"#utility.yul\":12948:13089   */\n    tag_170:\n        /* \"#utility.yul\":12997:13001   */\n      0x00\n        /* \"#utility.yul\":13020:13023   */\n      dup2\n        /* \"#utility.yul\":13012:13023   */\n      swap1\n      pop\n        /* \"#utility.yul\":13043:13046   */\n      dup2\n        /* \"#utility.yul\":13040:13041   */\n      0x00\n        /* \"#utility.yul\":13033:13047   */\n      mstore\n        /* \"#utility.yul\":13077:13081   */\n      0x20\n        /* \"#utility.yul\":13074:13075   */\n      0x00\n        /* \"#utility.yul\":13064:13082   */\n      keccak256\n        /* \"#utility.yul\":13056:13082   */\n      swap1\n      pop\n        /* \"#utility.yul\":12948:13089   */\n      swap2\n      swap1\n      pop\n      jump\t// out\n        /* \"#utility.yul\":13095:13188   */\n    tag_171:\n        /* \"#utility.yul\":13132:13138   */\n      0x00\n        /* \"#utility.yul\":13179:13181   */\n      0x20\n        /* \"#utility.yul\":13174:13176   */\n      0x1f\n        /* \"#utility.yul\":13167:13172   */\n      dup4\n        /* \"#utility.yul\":13163:13177   */\n      add\n        /* \"#utility.yul\":13159:13182   */\n      div\n        /* \"#utility.yul\":13149:13182   */\n      swap1\n      pop\n        /* \"#utility.yul\":13095:13188   */\n      swap2\n      swap1\n      pop\n      jump\t// out\n        /* \"#utility.yul\":13194:13301   */\n    tag_172:\n        /* \"#utility.yul\":13238:13246   */\n      0x00\n        /* \"#utility.yul\":13288:13293   */\n      dup3\n        /* \"#utility.yul\":13282:13286   */\n      dup3\n        /* \"#utility.yul\":13278:13294   */\n      shl\n        /* \"#utility.yul\":13257:13294   */\n      swap1\n      pop\n        /* \"#utility.yul\":13194:13301   */\n      swap3\n      swap2\n      pop\n      pop\n      jump\t// out\n        /* \"#utility.yul\":13307:13700   */\n    tag_173:\n        /* \"#utility.yul\":13376:13382   */\n      0x00\n        /* \"#utility.yul\":13426:13427   */\n      0x08\n        /* \"#utility.yul\":13414:13424   */\n      dup4\n        /* \"#utility.yul\":13410:13428   */\n      mul\n        /* \"#utility.yul\":13449:13546   */\n      tag_318\n        /* \"#utility.yul\":13479:13545   */\n      0xffffffffffffffffffffffffffffffffffffffffffffffffffffffffffffffff\n        /* \"#utility.yul\":13468:13477   */\n      dup3\n        /* \"#utility.yul\":13449:13546   */\n      tag_172\n      jump\t// in\n    tag_318:\n        /* \"#utility.yul\":13567:13606   */\n      tag_319\n        /* \"#utility.yul\":13597:13605   */\n      dup7\n        /* \"#utility.yul\":13586:13595   */\n      dup4\n        /* \"#utility.yul\":13567:13606   */\n      tag_172\n      jump\t// in\n    tag_319:\n        /* \"#utility.yul\":13555:13606   */\n      swap6\n      pop\n        /* \"#utility.yul\":13639:13643   */\n      dup1\n        /* \"#utility.yul\":13635:13644   */\n      not\n        /* \"#utility.yul\":13628:13633   */\n      dup5\n        /* \"#utility.yul\":13624:13645   */\n      and\n        /* \"#utility.yul\":13615:13645   */\n      swap4\n      pop\n        /* \"#utility.yul\":13688:13692   */\n      dup1\n        /* \"#utility.yul\":13678:13686   */\n      dup7\n        /* \"#utility.yul\":13674:13693   */\n      and\n        /* \"#utility.yul\":13667:13672   */\n      dup5\n        /* \"#utility.yul\":13664:13694   */\n      or\n        /* \"#utility.yul\":13654:13694   */\n      swap3\n      pop\n        /* \"#utility.yul\":13383:13700   */\n      pop\n      pop\n        /* \"#utility.yul\":13307:13700   */\n      swap4\n      swap3\n      pop\n      pop\n      pop\n      jump\t// out\n        /* \"#utility.yul\":13706:13766   */\n    tag_174:\n        /* \"#utility.yul\":13734:13737   */\n      0x00\n        /* \"#utility.yul\":13755:13760   */\n      dup2\n        /* \"#utility.yul\":13748:13760   */\n      swap1\n      pop\n        /* \"#utility.yul\":13706:13766   */\n      swap2\n      swap1\n      pop\n      jump\t// out\n        /* \"#utility.yul\":13772:13914   */\n    tag_175:\n        /* \"#utility.yul\":13822:13831   */\n      0x00\n        /* \"#utility.yul\":13855:13908   */\n      tag_322\n        /* \"#utility.yul\":13873:13907   */\n      tag_323\n        /* \"#utility.yul\":13882:13906   */\n      tag_324\n        /* \"#utility.yul\":13900:13905   */\n      dup5\n        /* \"#utility.yul\":13882:13906   */\n      tag_146\n      jump\t// in\n    tag_324:\n        /* \"#utility.yul\":13873:13907   */\n      tag_174\n      jump\t// in\n    tag_323:\n        /* \"#utility.yul\":13855:13908   */\n      tag_146\n      jump\t// in\n    tag_322:\n        /* \"#utility.yul\":13842:13908   */\n      swap1\n      pop\n        /* \"#utility.yul\":13772:13914   */\n      swap2\n      swap1\n      pop\n      jump\t// out\n        /* \"#utility.yul\":13920:13995   */\n    tag_176:\n        /* \"#utility.yul\":13963:13966   */\n      0x00\n        /* \"#utility.yul\":13984:13989   */\n      dup2\n        /* \"#utility.yul\":13977:13989   */\n      swap1\n      pop\n        /* \"#utility.yul\":13920:13995   */\n      swap2\n      swap1\n      pop\n      jump\t// out\n        /* \"#utility.yul\":14001:14270   */\n    tag_177:\n        /* \"#utility.yul\":14111:14150   */\n      tag_327\n        /* \"#utility.yul\":14142:14149   */\n      dup4\n        /* \"#utility.yul\":14111:14150   */\n      tag_175\n      jump\t// in\n    tag_327:\n        /* \"#utility.yul\":14172:14263   */\n      tag_328\n        /* \"#utility.yul\":14221:14262   */\n      tag_329\n        /* \"#utility.yul\":14245:14261   */\n      dup3\n        /* \"#utility.yul\":14221:14262   */\n      tag_176\n      jump\t// in\n    tag_329:\n        /* \"#utility.yul\":14213:14219   */\n      dup5\n        /* \"#utility.yul\":14206:14210   */\n      dup5\n        /* \"#utility.yul\":14200:14211   */\n      sload\n        /* \"#utility.yul\":14172:14263   */\n      tag_173\n      jump\t// in\n    tag_328:\n        /* \"#utility.yul\":14166:14170   */\n      dup3\n        /* \"#utility.yul\":14159:14264   */\n      sstore\n        /* \"#utility.yul\":14077:14270   */\n      pop\n        /* \"#utility.yul\":14001:14270   */\n      pop\n      pop\n      pop\n      jump\t// out\n        /* \"#utility.yul\":14276:14349   */\n    tag_178:\n        /* \"#utility.yul\":14321:14324   */\n      0x00\n        /* \"#utility.yul\":14276:14349   */\n      swap1\n      jump\t// out\n        /* \"#utility.yul\":14355:14544   */\n    tag_179:\n        /* \"#utility.yul\":14432:14464   */\n      tag_332\n      tag_178\n      jump\t// in\n    tag_332:\n        /* \"#utility.yul\":14473:14538   */\n      tag_333\n        /* \"#utility.yul\":14531:14537   */\n      dup2\n        /* \"#utility.yul\":14523:14529   */\n      dup5\n        /* \"#utility.yul\":14517:14521   */\n      dup5\n        /* \"#utility.yul\":14473:14538   */\n      tag_177\n      jump\t// in\n    tag_333:\n        /* \"#utility.yul\":14408:14544   */\n      pop\n        /* \"#utility.yul\":14355:14544   */\n      pop\n      pop\n      jump\t// out\n        /* \"#utility.yul\":14550:14736   */\n    tag_180:\n        /* \"#utility.yul\":14610:14730   */\n    tag_335:\n        /* \"#utility.yul\":14627:14630   */\n      dup2\n        /* \"#utility.yul\":14620:14625   */\n      dup2\n        /* \"#utility.yul\":14617:14631   */\n      lt\n        /* \"#utility.yul\":14610:14730   */\n      iszero\n      tag_337\n      jumpi\n        /* \"#utility.yul\":14681:14720   */\n      tag_338\n        /* \"#utility.yul\":14718:14719   */\n      0x00\n        /* \"#utility.yul\":14711:14716   */\n      dup3\n        /* \"#utility.yul\":14681:14720   */\n      tag_179\n      jump\t// in\n    tag_338:\n        /* \"#utility.yul\":14654:14655   */\n      0x01\n        /* \"#utility.yul\":14647:14652   */\n      dup2\n        /* \"#utility.yul\":14643:14656   */\n      add\n        /* \"#utility.yul\":14634:14656   */\n      swap1\n      pop\n        /* \"#utility.yul\":14610:14730   */\n      jump(tag_335)\n    tag_337:\n        /* \"#utility.yul\":14550:14736   */\n      pop\n      pop\n      jump\t// out\n        /* \"#utility.yul\":14742:15285   */\n    tag_181:\n        /* \"#utility.yul\":14843:14845   */\n      0x1f\n        /* \"#utility.yul\":14838:14841   */\n      dup3\n        /* \"#utility.yul\":14835:14846   */\n      gt\n        /* \"#utility.yul\":14832:15278   */\n      iszero\n      tag_340\n      jumpi\n        /* \"#utility.yul\":14877:14915   */\n      tag_341\n        /* \"#utility.yul\":14909:14914   */\n      dup2\n        /* \"#utility.yul\":14877:14915   */\n      tag_170\n      jump\t// in\n    tag_341:\n        /* \"#utility.yul\":14961:14990   */\n      tag_342\n        /* \"#utility.yul\":14979:14989   */\n      dup5\n        /* \"#utility.yul\":14961:14990   */\n      tag_171\n      jump\t// in\n    tag_342:\n        /* \"#utility.yul\":14951:14959   */\n      dup2\n        /* \"#utility.yul\":14947:14991   */\n      add\n        /* \"#utility.yul\":15144:15146   */\n      0x20\n        /* \"#utility.yul\":15132:15142   */\n      dup6\n        /* \"#utility.yul\":15129:15147   */\n      lt\n        /* \"#utility.yul\":15126:15175   */\n      iszero\n      tag_343\n      jumpi\n        /* \"#utility.yul\":15165:15173   */\n      dup2\n        /* \"#utility.yul\":15150:15173   */\n      swap1\n      pop\n        /* \"#utility.yul\":15126:15175   */\n    tag_343:\n        /* \"#utility.yul\":15188:15268   */\n      tag_344\n        /* \"#utility.yul\":15244:15266   */\n      tag_345\n        /* \"#utility.yul\":15262:15265   */\n      dup6\n        /* \"#utility.yul\":15244:15266   */\n      tag_171\n      jump\t// in\n    tag_345:\n        /* \"#utility.yul\":15234:15242   */\n      dup4\n        /* \"#utility.yul\":15230:15267   */\n      add\n        /* \"#utility.yul\":15217:15228   */\n      dup3\n        /* \"#utility.yul\":15188:15268   */\n      tag_180\n      jump\t// in\n    tag_344:\n        /* \"#utility.yul\":14847:15278   */\n      pop\n      pop\n        /* \"#utility.yul\":14832:15278   */\n    tag_340:\n        /* \"#utility.yul\":14742:15285   */\n      pop\n      pop\n      pop\n      jump\t// out\n        /* \"#utility.yul\":15291:15408   */\n    tag_182:\n        /* \"#utility.yul\":15345:15353   */\n      0x00\n        /* \"#utility.yul\":15395:15400   */\n      dup3\n        /* \"#utility.yul\":15389:15393   */\n      dup3\n        /* \"#utility.yul\":15385:15401   */\n      shr\n        /* \"#utility.yul\":15364:15401   */\n      swap1\n      pop\n        /* \"#utility.yul\":15291:15408   */\n      swap3\n      swap2\n      pop\n      pop\n      jump\t// out\n        /* \"#utility.yul\":15414:15583   */\n    tag_183:\n        /* \"#utility.yul\":15458:15464   */\n      0x00\n        /* \"#utility.yul\":15491:15542   */\n      tag_348\n        /* \"#utility.yul\":15539:15540   */\n      0x00\n        /* \"#utility.yul\":15535:15541   */\n      not\n        /* \"#utility.yul\":15527:15532   */\n      dup5\n        /* \"#utility.yul\":15524:15525   */\n      0x08\n        /* \"#utility.yul\":15520:15533   */\n      mul\n        /* \"#utility.yul\":15491:15542   */\n      tag_182\n      jump\t// in\n    tag_348:\n        /* \"#utility.yul\":15487:15543   */\n      not\n        /* \"#utility.yul\":15572:15576   */\n      dup1\n        /* \"#utility.yul\":15566:15570   */\n      dup4\n        /* \"#utility.yul\":15562:15577   */\n      and\n        /* \"#utility.yul\":15552:15577   */\n      swap2\n      pop\n        /* \"#utility.yul\":15465:15583   */\n      pop\n        /* \"#utility.yul\":15414:15583   */\n      swap3\n      swap2\n      pop\n      pop\n      jump\t// out\n        /* \"#utility.yul\":15588:15883   */\n    tag_184:\n        /* \"#utility.yul\":15664:15668   */\n      0x00\n        /* \"#utility.yul\":15810:15839   */\n      tag_350\n        /* \"#utility.yul\":15835:15838   */\n      dup4\n        /* \"#utility.yul\":15829:15833   */\n      dup4\n        /* \"#utility.yul\":15810:15839   */\n      tag_183\n      jump\t// in\n    tag_350:\n        /* \"#utility.yul\":15802:15839   */\n      swap2\n      pop\n        /* \"#utility.yul\":15872:15875   */\n      dup3\n        /* \"#utility.yul\":15869:15870   */\n      0x02\n        /* \"#utility.yul\":15865:15876   */\n      mul\n        /* \"#utility.yul\":15859:15863   */\n      dup3\n        /* \"#utility.yul\":15856:15877   */\n      or\n        /* \"#utility.yul\":15848:15877   */\n      swap1\n      pop\n        /* \"#utility.yul\":15588:15883   */\n      swap3\n      swap2\n      pop\n      pop\n      jump\t// out\n        /* \"#utility.yul\":15888:17283   */\n    tag_86:\n        /* \"#utility.yul\":16005:16042   */\n      tag_352\n        /* \"#utility.yul\":16038:16041   */\n      dup3\n        /* \"#utility.yul\":16005:16042   */\n      tag_141\n      jump\t// in\n    tag_352:\n        /* \"#utility.yul\":16107:16125   */\n      0xffffffffffffffff\n        /* \"#utility.yul\":16099:16105   */\n      dup2\n        /* \"#utility.yul\":16096:16126   */\n      gt\n        /* \"#utility.yul\":16093:16149   */\n      iszero\n      tag_353\n      jumpi\n        /* \"#utility.yul\":16129:16147   */\n      tag_354\n      tag_151\n      jump\t// in\n    tag_354:\n        /* \"#utility.yul\":16093:16149   */\n    tag_353:\n        /* \"#utility.yul\":16173:16211   */\n      tag_355\n        /* \"#utility.yul\":16205:16209   */\n      dup3\n        /* \"#utility.yul\":16199:16210   */\n      sload\n        /* \"#utility.yul\":16173:16211   */\n      tag_48\n      jump\t// in\n    tag_355:\n        /* \"#utility.yul\":16258:16325   */\n      tag_356\n        /* \"#utility.yul\":16318:16324   */\n      dup3\n        /* \"#utility.yul\":16310:16316   */\n      dup3\n        /* \"#utility.yul\":16304:16308   */\n      dup6\n        /* \"#utility.yul\":16258:16325   */\n      tag_181\n      jump\t// in\n    tag_356:\n        /* \"#utility.yul\":16352:16353   */\n      0x00\n        /* \"#utility.yul\":16376:16380   */\n      0x20\n        /* \"#utility.yul\":16363:16380   */\n      swap1\n      pop\n        /* \"#utility.yul\":16408:16410   */\n      0x1f\n        /* \"#utility.yul\":16400:16406   */\n      dup4\n        /* \"#utility.yul\":16397:16411   */\n      gt\n        /* \"#utility.yul\":16425:16426   */\n      0x01\n        /* \"#utility.yul\":16420:17038   */\n      dup2\n      eq\n      tag_358\n      jumpi\n        /* \"#utility.yul\":17082:17083   */\n      0x00\n        /* \"#utility.yul\":17099:17105   */\n      dup5\n        /* \"#utility.yul\":17096:17173   */\n      iszero\n      tag_359\n      jumpi\n        /* \"#utility.yul\":17148:17157   */\n      dup3\n        /* \"#utility.yul\":17143:17146   */\n      dup8\n        /* \"#utility.yul\":17139:17158   */\n      add\n        /* \"#utility.yul\":17133:17159   */\n      mload\n        /* \"#utility.yul\":17124:17159   */\n      swap1\n      pop\n        /* \"#utility.yul\":17096:17173   */\n    tag_359:\n        /* \"#utility.yul\":17199:17266   */\n      tag_360\n        /* \"#utility.yul\":17259:17265   */\n      dup6\n        /* \"#utility.yul\":17252:17257   */\n      dup3\n        /* \"#utility.yul\":17199:17266   */\n      tag_184\n      jump\t// in\n    tag_360:\n        /* \"#utility.yul\":17193:17197   */\n      dup7\n        /* \"#utility.yul\":17186:17267   */\n      sstore\n        /* \"#utility.yul\":17055:17277   */\n      pop\n        /* \"#utility.yul\":16390:17277   */\n      jump(tag_357)\n        /* \"#utility.yul\":16420:17038   */\n    tag_358:\n        /* \"#utility.yul\":16472:16476   */\n      0x1f\n        /* \"#utility.yul\":16468:16477   */\n      not\n        /* \"#utility.yul\":16460:16466   */\n      dup5\n        /* \"#utility.yul\":16456:16478   */\n      and\n        /* \"#utility.yul\":16506:16543   */\n      tag_361\n        /* \"#utility.yul\":16538:16542   */\n      dup7\n        /* \"#utility.yul\":16506:16543   */\n      tag_170\n      jump\t// in\n    tag_361:\n        /* \"#utility.yul\":16565:16566   */\n      0x00\n        /* \"#utility.yul\":16579:16787   */\n    tag_362:\n        /* \"#utility.yul\":16593:16600   */\n      dup3\n        /* \"#utility.yul\":16590:16591   */\n      dup2\n        /* \"#utility.yul\":16587:16601   */\n      lt\n        /* \"#utility.yul\":16579:16787   */\n      iszero\n      tag_364\n      jumpi\n        /* \"#utility.yul\":16672:16681   */\n      dup5\n        /* \"#utility.yul\":16667:16670   */\n      dup10\n        /* \"#utility.yul\":16663:16682   */\n      add\n        /* \"#utility.yul\":16657:16683   */\n      mload\n        /* \"#utility.yul\":16649:16655   */\n      dup3\n        /* \"#utility.yul\":16642:16684   */\n      sstore\n        /* \"#utility.yul\":16723:16724   */\n      0x01\n        /* \"#utility.yul\":16715:16721   */\n      dup3\n        /* \"#utility.yul\":16711:16725   */\n      add\n        /* \"#utility.yul\":16701:16725   */\n      swap2\n      pop\n        /* \"#utility.yul\":16770:16772   */\n      0x20\n        /* \"#utility.yul\":16759:16768   */\n      dup6\n        /* \"#utility.yul\":16755:16773   */\n      add\n        /* \"#utility.yul\":16742:16773   */\n      swap5\n      pop\n        /* \"#utility.yul\":16616:16620   */\n      0x20\n        /* \"#utility.yul\":16613:16614   */\n      dup2\n        /* \"#utility.yul\":16609:16621   */\n      add\n        /* \"#utility.yul\":16604:16621   */\n      swap1\n      pop\n        /* \"#utility.yul\":16579:16787   */\n      jump(tag_362)\n    tag_364:\n        /* \"#utility.yul\":16815:16821   */\n      dup7\n        /* \"#utility.yul\":16806:16813   */\n      dup4\n        /* \"#utility.yul\":16803:16822   */\n      lt\n        /* \"#utility.yul\":16800:16979   */\n      iszero\n      tag_365\n      jumpi\n        /* \"#utility.yul\":16873:16882   */\n      dup5\n        /* \"#utility.yul\":16868:16871   */\n      dup10\n        /* \"#utility.yul\":16864:16883   */\n      add\n        /* \"#utility.yul\":16858:16884   */\n      mload\n        /* \"#utility.yul\":16916:16964   */\n      tag_366\n        /* \"#utility.yul\":16958:16962   */\n      0x1f\n        /* \"#utility.yul\":16950:16956   */\n      dup10\n        /* \"#utility.yul\":16946:16963   */\n      and\n        /* \"#utility.yul\":16935:16944   */\n      dup3\n        /* \"#utility.yul\":16916:16964   */\n      tag_183\n      jump\t// in\n    tag_366:\n        /* \"#utility.yul\":16908:16914   */\n      dup4\n        /* \"#utility.yul\":16901:16965   */\n      sstore\n        /* \"#utility.yul\":16823:16979   */\n      pop\n        /* \"#utility.yul\":16800:16979   */\n    tag_365:\n        /* \"#utility.yul\":17025:17026   */\n      0x01\n        /* \"#utility.yul\":17021:17022   */\n      0x02\n        /* \"#utility.yul\":17013:17019   */\n      dup9\n        /* \"#utility.yul\":17009:17023   */\n      mul\n        /* \"#utility.yul\":17005:17027   */\n      add\n        /* \"#utility.yul\":16999:17003   */\n      dup9\n        /* \"#utility.yul\":16992:17028   */\n      sstore\n        /* \"#utility.yul\":16427:17038   */\n      pop\n      pop\n      pop\n        /* \"#utility.yul\":16390:17277   */\n    tag_357:\n      pop\n        /* \"#utility.yul\":15980:17283   */\n      pop\n      pop\n      pop\n        /* \"#utility.yul\":15888:17283   */\n      pop\n      pop\n      jump\t// out\n        /* \"#utility.yul\":17289:17602   */\n    tag_93:\n        /* \"#utility.yul\":17402:17406   */\n      0x00\n        /* \"#utility.yul\":17440:17442   */\n      0x20\n        /* \"#utility.yul\":17429:17438   */\n      dup3\n        /* \"#utility.yul\":17425:17443   */\n      add\n        /* \"#utility.yul\":17417:17443   */\n      swap1\n      pop\n        /* \"#utility.yul\":17489:17498   */\n      dup2\n        /* \"#utility.yul\":17483:17487   */\n      dup2\n        /* \"#utility.yul\":17479:17499   */\n      sub\n        /* \"#utility.yul\":17475:17476   */\n      0x00\n        /* \"#utility.yul\":17464:17473   */\n      dup4\n        /* \"#utility.yul\":17460:17477   */\n      add\n        /* \"#utility.yul\":17453:17500   */\n      mstore\n        /* \"#utility.yul\":17517:17595   */\n      tag_368\n        /* \"#utility.yul\":17590:17594   */\n      dup2\n        /* \"#utility.yul\":17581:17587   */\n      dup5\n        /* \"#utility.yul\":17517:17595   */\n      tag_145\n      jump\t// in\n    tag_368:\n        /* \"#utility.yul\":17509:17595   */\n      swap1\n      pop\n        /* \"#utility.yul\":17289:17602   */\n      swap3\n      swap2\n      pop\n      pop\n      jump\t// out\n        /* \"#utility.yul\":17608:17788   */\n    tag_185:\n        /* \"#utility.yul\":17656:17733   */\n      0x4e487b7100000000000000000000000000000000000000000000000000000000\n        /* \"#utility.yul\":17653:17654   */\n      0x00\n        /* \"#utility.yul\":17646:17734   */\n      mstore\n        /* \"#utility.yul\":17753:17757   */\n      0x11\n        /* \"#utility.yul\":17750:17751   */\n      0x04\n        /* \"#utility.yul\":17743:17758   */\n      mstore\n        /* \"#utility.yul\":17777:17781   */\n      0x24\n        /* \"#utility.yul\":17774:17775   */\n      0x00\n        /* \"#utility.yul\":17767:17782   */\n      revert\n        /* \"#utility.yul\":17794:17985   */\n    tag_102:\n        /* \"#utility.yul\":17834:17837   */\n      0x00\n        /* \"#utility.yul\":17853:17873   */\n      tag_371\n        /* \"#utility.yul\":17871:17872   */\n      dup3\n        /* \"#utility.yul\":17853:17873   */\n      tag_146\n      jump\t// in\n    tag_371:\n        /* \"#utility.yul\":17848:17873   */\n      swap2\n      pop\n        /* \"#utility.yul\":17887:17907   */\n      tag_372\n        /* \"#utility.yul\":17905:17906   */\n      dup4\n        /* \"#utility.yul\":17887:17907   */\n      tag_146\n      jump\t// in\n    tag_372:\n        /* \"#utility.yul\":17882:17907   */\n      swap3\n      pop\n        /* \"#utility.yul\":17930:17931   */\n      dup3\n        /* \"#utility.yul\":17927:17928   */\n      dup3\n        /* \"#utility.yul\":17923:17932   */\n      add\n        /* \"#utility.yul\":17916:17932   */\n      swap1\n      pop\n        /* \"#utility.yul\":17951:17954   */\n      dup1\n        /* \"#utility.yul\":17948:17949   */\n      dup3\n        /* \"#utility.yul\":17945:17955   */\n      gt\n        /* \"#utility.yul\":17942:17978   */\n      iszero\n      tag_373\n      jumpi\n        /* \"#utility.yul\":17958:17976   */\n      tag_374\n      tag_185\n      jump\t// in\n    tag_374:\n        /* \"#utility.yul\":17942:17978   */\n    tag_373:\n        /* \"#utility.yul\":17794:17985   */\n      swap3\n      swap2\n      pop\n      pop\n      jump\t// out\n        /* \"#utility.yul\":17991:18160   */\n    tag_186:\n        /* \"#utility.yul\":18131:18152   */\n      0x496e73756666696369656e7420706f696e747300000000000000000000000000\n        /* \"#utility.yul\":18127:18128   */\n      0x00\n        /* \"#utility.yul\":18119:18125   */\n      dup3\n        /* \"#utility.yul\":18115:18129   */\n      add\n        /* \"#utility.yul\":18108:18153   */\n      mstore\n        /* \"#utility.yul\":17991:18160   */\n      pop\n      jump\t// out\n        /* \"#utility.yul\":18166:18532   */\n    tag_187:\n        /* \"#utility.yul\":18308:18311   */\n      0x00\n        /* \"#utility.yul\":18329:18396   */\n      tag_377\n        /* \"#utility.yul\":18393:18395   */\n      0x13\n        /* \"#utility.yul\":18388:18391   */\n      dup4\n        /* \"#utility.yul\":18329:18396   */\n      tag_142\n      jump\t// in\n    tag_377:\n        /* \"#utility.yul\":18322:18396   */\n      swap2\n      pop\n        /* \"#utility.yul\":18405:18498   */\n      tag_378\n        /* \"#utility.yul\":18494:18497   */\n      dup3\n        /* \"#utility.yul\":18405:18498   */\n      tag_186\n      jump\t// in\n    tag_378:\n        /* \"#utility.yul\":18523:18525   */\n      0x20\n        /* \"#utility.yul\":18518:18521   */\n      dup3\n        /* \"#utility.yul\":18514:18526   */\n      add\n        /* \"#utility.yul\":18507:18526   */\n      swap1\n      pop\n        /* \"#utility.yul\":18166:18532   */\n      swap2\n      swap1\n      pop\n      jump\t// out\n        /* \"#utility.yul\":18538:18957   */\n    tag_107:\n        /* \"#utility.yul\":18704:18708   */\n      0x00\n        /* \"#utility.yul\":18742:18744   */\n      0x20\n        /* \"#utility.yul\":18731:18740   */\n      dup3\n        /* \"#utility.yul\":18727:18745   */\n      add\n        /* \"#utility.yul\":18719:18745   */\n      swap1\n      pop\n        /* \"#utility.yul\":18791:18800   */\n      dup2\n        /* \"#utility.yul\":18785:18789   */\n      dup2\n        /* \"#utility.yul\":18781:18801   */\n      sub\n        /* \"#utility.yul\":18777:18778   */\n      0x00\n        /* \"#utility.yul\":18766:18775   */\n      dup4\n        /* \"#utility.yul\":18762:18779   */\n      add\n        /* \"#utility.yul\":18755:18802   */\n      mstore\n        /* \"#utility.yul\":18819:18950   */\n      tag_380\n        /* \"#utility.yul\":18945:18949   */\n      dup2\n        /* \"#utility.yul\":18819:18950   */\n      tag_187\n      jump\t// in\n    tag_380:\n        /* \"#utility.yul\":18811:18950   */\n      swap1\n      pop\n        /* \"#utility.yul\":18538:18957   */\n      swap2\n      swap1\n      pop\n      jump\t// out\n        /* \"#utility.yul\":18963:19157   */\n    tag_109:\n        /* \"#utility.yul\":19003:19007   */\n      0x00\n        /* \"#utility.yul\":19023:19043   */\n      tag_382\n        /* \"#utility.yul\":19041:19042   */\n      dup3\n        /* \"#utility.yul\":19023:19043   */\n      tag_146\n      jump\t// in\n    tag_382:\n        /* \"#utility.yul\":19018:19043   */\n      swap2\n      pop\n        /* \"#utility.yul\":19057:19077   */\n      tag_383\n        /* \"#utility.yul\":19075:19076   */\n      dup4\n        /* \"#utility.yul\":19057:19077   */\n      tag_146\n      jump\t// in\n    tag_383:\n        /* \"#utility.yul\":19052:19077   */\n      swap3\n      pop\n        /* \"#utility.yul\":19101:19102   */\n      dup3\n        /* \"#utility.yul\":19098:19099   */\n      dup3\n        /* \"#utility.yul\":19094:19103   */\n      sub\n        /* \"#utility.yul\":19086:19103   */\n      swap1\n      pop\n        /* \"#utility.yul\":19125:19126   */\n      dup2\n        /* \"#utility.yul\":19119:19123   */\n      dup2\n        /* \"#utility.yul\":19116:19127   */\n      gt\n        /* \"#utility.yul\":19113:19150   */\n      iszero\n      tag_384\n      jumpi\n        /* \"#utility.yul\":19130:19148   */\n      tag_385\n      tag_185\n      jump\t// in\n    tag_385:\n        /* \"#utility.yul\":19113:19150   */\n    tag_384:\n        /* \"#utility.yul\":18963:19157   */\n      swap3\n      swap2\n      pop\n      pop\n      jump\t// out\n        /* \"#utility.yul\":19163:19495   */\n    tag_113:\n        /* \"#utility.yul\":19284:19288   */\n      0x00\n        /* \"#utility.yul\":19322:19324   */\n      0x40\n        /* \"#utility.yul\":19311:19320   */\n      dup3\n        /* \"#utility.yul\":19307:19325   */\n      add\n        /* \"#utility.yul\":19299:19325   */\n      swap1\n      pop\n        /* \"#utility.yul\":19335:19406   */\n      tag_387\n        /* \"#utility.yul\":19403:19404   */\n      0x00\n        /* \"#utility.yul\":19392:19401   */\n      dup4\n        /* \"#utility.yul\":19388:19405   */\n      add\n        /* \"#utility.yul\":19379:19385   */\n      dup6\n        /* \"#utility.yul\":19335:19406   */\n      tag_147\n      jump\t// in\n    tag_387:\n        /* \"#utility.yul\":19416:19488   */\n      tag_388\n        /* \"#utility.yul\":19484:19486   */\n      0x20\n        /* \"#utility.yul\":19473:19482   */\n      dup4\n        /* \"#utility.yul\":19469:19487   */\n      add\n        /* \"#utility.yul\":19460:19466   */\n      dup5\n        /* \"#utility.yul\":19416:19488   */\n      tag_147\n      jump\t// in\n    tag_388:\n        /* \"#utility.yul\":19163:19495   */\n      swap4\n      swap3\n      pop\n      pop\n      pop\n      jump\t// out\n        /* \"#utility.yul\":19525:20356   */\n    tag_188:\n        /* \"#utility.yul\":19610:19613   */\n      0x00\n        /* \"#utility.yul\":19647:19652   */\n      dup2\n        /* \"#utility.yul\":19641:19653   */\n      sload\n        /* \"#utility.yul\":19676:19712   */\n      tag_390\n        /* \"#utility.yul\":19702:19711   */\n      dup2\n        /* \"#utility.yul\":19676:19712   */\n      tag_48\n      jump\t// in\n    tag_390:\n        /* \"#utility.yul\":19728:19799   */\n      tag_391\n        /* \"#utility.yul\":19792:19798   */\n      dup2\n        /* \"#utility.yul\":19787:19790   */\n      dup7\n        /* \"#utility.yul\":19728:19799   */\n      tag_142\n      jump\t// in\n    tag_391:\n        /* \"#utility.yul\":19721:19799   */\n      swap5\n      pop\n        /* \"#utility.yul\":19830:19831   */\n      0x01\n        /* \"#utility.yul\":19819:19828   */\n      dup3\n        /* \"#utility.yul\":19815:19832   */\n      and\n        /* \"#utility.yul\":19846:19847   */\n      0x00\n        /* \"#utility.yul\":19841:20005   */\n      dup2\n      eq\n      tag_393\n      jumpi\n        /* \"#utility.yul\":20019:20020   */\n      0x01\n        /* \"#utility.yul\":20014:20350   */\n      dup2\n      eq\n      tag_394\n      jumpi\n        /* \"#utility.yul\":19808:20350   */\n      jump(tag_392)\n        /* \"#utility.yul\":19841:20005   */\n    tag_393:\n        /* \"#utility.yul\":19925:19929   */\n      0xff\n        /* \"#utility.yul\":19921:19930   */\n      not\n        /* \"#utility.yul\":19910:19919   */\n      dup4\n        /* \"#utility.yul\":19906:19931   */\n      and\n        /* \"#utility.yul\":19901:19904   */\n      dup7\n        /* \"#utility.yul\":19894:19932   */\n      mstore\n        /* \"#utility.yul\":19985:19991   */\n      dup2\n        /* \"#utility.yul\":19978:19992   */\n      iszero\n        /* \"#utility.yul\":19971:19993   */\n      iszero\n        /* \"#utility.yul\":19965:19969   */\n      0x20\n        /* \"#utility.yul\":19961:19994   */\n      mul\n        /* \"#utility.yul\":19956:19959   */\n      dup7\n        /* \"#utility.yul\":19952:19995   */\n      add\n        /* \"#utility.yul\":19945:19995   */\n      swap4\n      pop\n        /* \"#utility.yul\":19841:20005   */\n      jump(tag_392)\n        /* \"#utility.yul\":20014:20350   */\n    tag_394:\n        /* \"#utility.yul\":20081:20119   */\n      tag_395\n        /* \"#utility.yul\":20113:20118   */\n      dup6\n        /* \"#utility.yul\":20081:20119   */\n      tag_170\n      jump\t// in\n    tag_395:\n        /* \"#utility.yul\":20141:20142   */\n      0x00\n        /* \"#utility.yul\":20155:20309   */\n    tag_396:\n        /* \"#utility.yul\":20169:20175   */\n      dup4\n        /* \"#utility.yul\":20166:20167   */\n      dup2\n        /* \"#utility.yul\":20163:20176   */\n      lt\n        /* \"#utility.yul\":20155:20309   */\n      iszero\n      tag_398\n      jumpi\n        /* \"#utility.yul\":20243:20250   */\n      dup2\n        /* \"#utility.yul\":20237:20251   */\n      sload\n        /* \"#utility.yul\":20233:20234   */\n      dup2\n        /* \"#utility.yul\":20228:20231   */\n      dup10\n        /* \"#utility.yul\":20224:20235   */\n      add\n        /* \"#utility.yul\":20217:20252   */\n      mstore\n        /* \"#utility.yul\":20293:20294   */\n      0x01\n        /* \"#utility.yul\":20284:20291   */\n      dup3\n        /* \"#utility.yul\":20280:20295   */\n      add\n        /* \"#utility.yul\":20269:20295   */\n      swap2\n      pop\n        /* \"#utility.yul\":20191:20195   */\n      0x20\n        /* \"#utility.yul\":20188:20189   */\n      dup2\n        /* \"#utility.yul\":20184:20196   */\n      add\n        /* \"#utility.yul\":20179:20196   */\n      swap1\n      pop\n        /* \"#utility.yul\":20155:20309   */\n      jump(tag_396)\n    tag_398:\n        /* \"#utility.yul\":20338:20339   */\n      dup1\n        /* \"#utility.yul\":20333:20336   */\n      dup9\n        /* \"#utility.yul\":20329:20340   */\n      add\n        /* \"#utility.yul\":20322:20340   */\n      swap6\n      pop\n        /* \"#utility.yul\":20021:20350   */\n      pop\n      pop\n        /* \"#utility.yul\":19808:20350   */\n    tag_392:\n      pop\n        /* \"#utility.yul\":19614:20356   */\n      pop\n      pop\n        /* \"#utility.yul\":19525:20356   */\n      swap3\n      swap2\n      pop\n      pop\n      jump\t// out\n        /* \"#utility.yul\":20362:20669   */\n    tag_126:\n        /* \"#utility.yul\":20472:20476   */\n      0x00\n        /* \"#utility.yul\":20510:20512   */\n      0x20\n        /* \"#utility.yul\":20499:20508   */\n      dup3\n        /* \"#utility.yul\":20495:20513   */\n      add\n        /* \"#utility.yul\":20487:20513   */\n      swap1\n      pop\n        /* \"#utility.yul\":20559:20568   */\n      dup2\n        /* \"#utility.yul\":20553:20557   */\n      dup2\n        /* \"#utility.yul\":20549:20569   */\n      sub\n        /* \"#utility.yul\":20545:20546   */\n      0x00\n        /* \"#utility.yul\":20534:20543   */\n      dup4\n        /* \"#utility.yul\":20530:20547   */\n      add\n        /* \"#utility.yul\":20523:20570   */\n      mstore\n        /* \"#utility.yul\":20587:20662   */\n      tag_400\n        /* \"#utility.yul\":20657:20661   */\n      dup2\n        /* \"#utility.yul\":20648:20654   */\n      dup5\n        /* \"#utility.yul\":20587:20662   */\n      tag_188\n      jump\t// in\n    tag_400:\n        /* \"#utility.yul\":20579:20662   */\n      swap1\n      pop\n        /* \"#utility.yul\":20362:20669   */\n      swap3\n      swap2\n      pop\n      pop\n      jump\t// out\n\n    auxdata: 0xa264697066735822122024ccc5fa65283bbc3bb40a59d1eb3dcee0ee69bd64009df0480f4ae48ac570b164736f6c634300081a0033\n}\n",
				"bytecode": {
					"linkReferences": {},
					"object": "6080604052348015600e575f80fd5b50335f806101000a81548173ffffffffffffffffffffffffffffffffffffffff021916908373ffffffffffffffffffffffffffffffffffffffff160217905550611cb38061005b5f395ff3fe608060405234801561000f575f80fd5b5060043610610055575f3560e01c80635c60f226146100595780636f77926b146100755780638da5cb5b146100ac578063a377d18f146100ca578063c2bb5e13146100e6575b5f80fd5b610073600480360381019061006e9190611228565b610102565b005b61008f600480360381019061008a9190611228565b61031b565b6040516100a39897969594939291906112db565b60405180910390f35b6100b46107ce565b6040516100c19190611390565b60405180910390f35b6100e460048036038101906100df91906114d5565b6107f1565b005b61010060048036038101906100fb9190611649565b610acf565b005b5f8054906101000a900473ffffffffffffffffffffffffffffffffffffffff1673ffffffffffffffffffffffffffffffffffffffff163373ffffffffffffffffffffffffffffffffffffffff161461018f576040517f08c379a0000000000000000000000000000000000000000000000000000000008152600401610186906116e3565b60405180910390fd5b60015f8273ffffffffffffffffffffffffffffffffffffffff1673ffffffffffffffffffffffffffffffffffffffff1681526020019081526020015f206008015f9054906101000a900460ff1661021b576040517f08c379a00000000000000000000000000000000000000000000000000000000081526004016102129061174b565b60405180910390fd5b60015f8273ffffffffffffffffffffffffffffffffffffffff1673ffffffffffffffffffffffffffffffffffffffff1681526020019081526020015f205f8082015f6102679190611165565b600182015f6102769190611165565b600282015f6102859190611165565b600382015f6102949190611165565b600482015f6102a39190611165565b600582015f6102b29190611165565b600682015f9055600782015f9055600882015f6101000a81549060ff021916905550508073ffffffffffffffffffffffffffffffffffffffff167f4bc56f1321288dfb5b416cb3a7fd188723979f9e866c91d88eccf7fca039d03960405160405180910390a250565b6060806060806060805f8060015f8a73ffffffffffffffffffffffffffffffffffffffff1673ffffffffffffffffffffffffffffffffffffffff1681526020019081526020015f206008015f9054906101000a900460ff166103b2576040517f08c379a00000000000000000000000000000000000000000000000000000000081526004016103a99061174b565b60405180910390fd5b5f60015f8b73ffffffffffffffffffffffffffffffffffffffff1673ffffffffffffffffffffffffffffffffffffffff1681526020019081526020015f20604051806101200160405290815f8201805461040b90611796565b80601f016020809104026020016040519081016040528092919081815260200182805461043790611796565b80156104825780601f1061045957610100808354040283529160200191610482565b820191905f5260205f20905b81548152906001019060200180831161046557829003601f168201915b5050505050815260200160018201805461049b90611796565b80601f01602080910402602001604051908101604052809291908181526020018280546104c790611796565b80156105125780601f106104e957610100808354040283529160200191610512565b820191905f5260205f20905b8154815290600101906020018083116104f557829003601f168201915b5050505050815260200160028201805461052b90611796565b80601f016020809104026020016040519081016040528092919081815260200182805461055790611796565b80156105a25780601f10610579576101008083540402835291602001916105a2565b820191905f5260205f20905b81548152906001019060200180831161058557829003601f168201915b505050505081526020016003820180546105bb90611796565b80601f01602080910402602001604051908101604052809291908181526020018280546105e790611796565b80156106325780601f1061060957610100808354040283529160200191610632565b820191905f5260205f20905b81548152906001019060200180831161061557829003601f168201915b5050505050815260200160048201805461064b90611796565b80601f016020809104026020016040519081016040528092919081815260200182805461067790611796565b80156106c25780601f10610699576101008083540402835291602001916106c2565b820191905f5260205f20905b8154815290600101906020018083116106a557829003601f168201915b505050505081526020016005820180546106db90611796565b80601f016020809104026020016040519081016040528092919081815260200182805461070790611796565b80156107525780601f1061072957610100808354040283529160200191610752565b820191905f5260205f20905b81548152906001019060200180831161073557829003601f168201915b505050505081526020016006820154815260200160078201548152602001600882015f9054906101000a900460ff1615151515815250509050805f015181602001518260400151836060015184608001518560a001518660c001518760e001519850985098509850985098509850985050919395975091939597565b5f8054906101000a900473ffffffffffffffffffffffffffffffffffffffff1681565b5f8054906101000a900473ffffffffffffffffffffffffffffffffffffffff1673ffffffffffffffffffffffffffffffffffffffff163373ffffffffffffffffffffffffffffffffffffffff161461087e576040517f08c379a0000000000000000000000000000000000000000000000000000000008152600401610875906116e3565b60405180910390fd5b60015f8773ffffffffffffffffffffffffffffffffffffffff1673ffffffffffffffffffffffffffffffffffffffff1681526020019081526020015f206008015f9054906101000a900460ff161561090b576040517f08c379a000000000000000000000000000000000000000000000000000000000815260040161090290611810565b60405180910390fd5b6040518061012001604052808681526020018581526020018481526020018381526020018281526020016040518060400160405280600681526020017f51756172747a000000000000000000000000000000000000000000000000000081525081526020015f81526020015f81526020016001151581525060015f8873ffffffffffffffffffffffffffffffffffffffff1673ffffffffffffffffffffffffffffffffffffffff1681526020019081526020015f205f820151815f0190816109d391906119cb565b5060208201518160010190816109e991906119cb565b5060408201518160020190816109ff91906119cb565b506060820151816003019081610a1591906119cb565b506080820151816004019081610a2b91906119cb565b5060a0820151816005019081610a4191906119cb565b5060c0820151816006015560e08201518160070155610100820151816008015f6101000a81548160ff0219169083151502179055509050508573ffffffffffffffffffffffffffffffffffffffff167f9954bce02f72fbdef0fa668ac6f42e434b5829615dac2fb22448054d2359d4f685604051610abf9190611a9a565b60405180910390a2505050505050565b5f8054906101000a900473ffffffffffffffffffffffffffffffffffffffff1673ffffffffffffffffffffffffffffffffffffffff163373ffffffffffffffffffffffffffffffffffffffff1614610b5c576040517f08c379a0000000000000000000000000000000000000000000000000000000008152600401610b53906116e3565b60405180910390fd5b60015f8473ffffffffffffffffffffffffffffffffffffffff1673ffffffffffffffffffffffffffffffffffffffff1681526020019081526020015f206008015f9054906101000a900460ff16610be8576040517f08c379a0000000000000000000000000000000000000000000000000000000008152600401610bdf9061174b565b60405180910390fd5b8015610c9f578160015f8573ffffffffffffffffffffffffffffffffffffffff1673ffffffffffffffffffffffffffffffffffffffff1681526020019081526020015f206006015f828254610c3d9190611ae7565b925050819055508160015f8573ffffffffffffffffffffffffffffffffffffffff1673ffffffffffffffffffffffffffffffffffffffff1681526020019081526020015f206007015f828254610c939190611ae7565b92505081905550610d79565b8160015f8573ffffffffffffffffffffffffffffffffffffffff1673ffffffffffffffffffffffffffffffffffffffff1681526020019081526020015f20600701541015610d22576040517f08c379a0000000000000000000000000000000000000000000000000000000008152600401610d1990611b64565b60405180910390fd5b8160015f8573ffffffffffffffffffffffffffffffffffffffff1673ffffffffffffffffffffffffffffffffffffffff1681526020019081526020015f206007015f828254610d719190611b82565b925050819055505b610d8283610e57565b8273ffffffffffffffffffffffffffffffffffffffff167feceb10b266995afd3009502df537b0421b7f635dd268f4b0a74b99a87be6521360015f8673ffffffffffffffffffffffffffffffffffffffff1673ffffffffffffffffffffffffffffffffffffffff1681526020019081526020015f206006015460015f8773ffffffffffffffffffffffffffffffffffffffff1673ffffffffffffffffffffffffffffffffffffffff1681526020019081526020015f2060070154604051610e4a929190611bb5565b60405180910390a2505050565b5f60015f8373ffffffffffffffffffffffffffffffffffffffff1673ffffffffffffffffffffffffffffffffffffffff1681526020019081526020015f206006015490506127108110610f2c576040518060400160405280600781526020017f4469616d6f6e640000000000000000000000000000000000000000000000000081525060015f8473ffffffffffffffffffffffffffffffffffffffff1673ffffffffffffffffffffffffffffffffffffffff1681526020019081526020015f206005019081610f2691906119cb565b506110d4565b6113888110610fbd576040518060400160405280600881526020017f536170706869726500000000000000000000000000000000000000000000000081525060015f8473ffffffffffffffffffffffffffffffffffffffff1673ffffffffffffffffffffffffffffffffffffffff1681526020019081526020015f206005019081610fb791906119cb565b506110d3565b6103e8811061104e576040518060400160405280600781526020017f456d6572616c640000000000000000000000000000000000000000000000000081525060015f8473ffffffffffffffffffffffffffffffffffffffff1673ffffffffffffffffffffffffffffffffffffffff1681526020019081526020015f20600501908161104891906119cb565b506110d2565b6040518060400160405280600681526020017f51756172747a000000000000000000000000000000000000000000000000000081525060015f8473ffffffffffffffffffffffffffffffffffffffff1673ffffffffffffffffffffffffffffffffffffffff1681526020019081526020015f2060050190816110d091906119cb565b505b5b5b8173ffffffffffffffffffffffffffffffffffffffff167f7c5463c5531ead7f0ba72ac58bed8430f619c4cfe506277c9d84245129f0df7a60015f8573ffffffffffffffffffffffffffffffffffffffff1673ffffffffffffffffffffffffffffffffffffffff1681526020019081526020015f206005016040516111599190611c5d565b60405180910390a25050565b50805461117190611796565b5f825580601f10611182575061119f565b601f0160209004905f5260205f209081019061119e91906111a2565b5b50565b5b808211156111b9575f815f9055506001016111a3565b5090565b5f604051905090565b5f80fd5b5f80fd5b5f73ffffffffffffffffffffffffffffffffffffffff82169050919050565b5f6111f7826111ce565b9050919050565b611207816111ed565b8114611211575f80fd5b50565b5f81359050611222816111fe565b92915050565b5f6020828403121561123d5761123c6111c6565b5b5f61124a84828501611214565b91505092915050565b5f81519050919050565b5f82825260208201905092915050565b8281835e5f83830152505050565b5f601f19601f8301169050919050565b5f61129582611253565b61129f818561125d565b93506112af81856020860161126d565b6112b88161127b565b840191505092915050565b5f819050919050565b6112d5816112c3565b82525050565b5f610100820190508181035f8301526112f4818b61128b565b90508181036020830152611308818a61128b565b9050818103604083015261131c818961128b565b90508181036060830152611330818861128b565b90508181036080830152611344818761128b565b905081810360a0830152611358818661128b565b905061136760c08301856112cc565b61137460e08301846112cc565b9998505050505050505050565b61138a816111ed565b82525050565b5f6020820190506113a35f830184611381565b92915050565b5f80fd5b5f80fd5b7f4e487b71000000000000000000000000000000000000000000000000000000005f52604160045260245ffd5b6113e78261127b565b810181811067ffffffffffffffff82111715611406576114056113b1565b5b80604052505050565b5f6114186111bd565b905061142482826113de565b919050565b5f67ffffffffffffffff821115611443576114426113b1565b5b61144c8261127b565b9050602081019050919050565b828183375f83830152505050565b5f61147961147484611429565b61140f565b905082815260208101848484011115611495576114946113ad565b5b6114a0848285611459565b509392505050565b5f82601f8301126114bc576114bb6113a9565b5b81356114cc848260208601611467565b91505092915050565b5f805f805f8060c087890312156114ef576114ee6111c6565b5b5f6114fc89828a01611214565b965050602087013567ffffffffffffffff81111561151d5761151c6111ca565b5b61152989828a016114a8565b955050604087013567ffffffffffffffff81111561154a576115496111ca565b5b61155689828a016114a8565b945050606087013567ffffffffffffffff811115611577576115766111ca565b5b61158389828a016114a8565b935050608087013567ffffffffffffffff8111156115a4576115a36111ca565b5b6115b089828a016114a8565b92505060a087013567ffffffffffffffff8111156115d1576115d06111ca565b5b6115dd89828a016114a8565b9150509295509295509295565b6115f3816112c3565b81146115fd575f80fd5b50565b5f8135905061160e816115ea565b92915050565b5f8115159050919050565b61162881611614565b8114611632575f80fd5b50565b5f813590506116438161161f565b92915050565b5f805f606084860312156116605761165f6111c6565b5b5f61166d86828701611214565b935050602061167e86828701611600565b925050604061168f86828701611635565b9150509250925092565b7f4e6f7420617574686f72697a65640000000000000000000000000000000000005f82015250565b5f6116cd600e8361125d565b91506116d882611699565b602082019050919050565b5f6020820190508181035f8301526116fa816116c1565b9050919050565b7f5573657220646f6573206e6f74206578697374000000000000000000000000005f82015250565b5f61173560138361125d565b915061174082611701565b602082019050919050565b5f6020820190508181035f83015261176281611729565b9050919050565b7f4e487b71000000000000000000000000000000000000000000000000000000005f52602260045260245ffd5b5f60028204905060018216806117ad57607f821691505b6020821081036117c0576117bf611769565b5b50919050565b7f5573657220616c726561647920657869737473000000000000000000000000005f82015250565b5f6117fa60138361125d565b9150611805826117c6565b602082019050919050565b5f6020820190508181035f830152611827816117ee565b9050919050565b5f819050815f5260205f209050919050565b5f6020601f8301049050919050565b5f82821b905092915050565b5f6008830261188a7fffffffffffffffffffffffffffffffffffffffffffffffffffffffffffffffff8261184f565b611894868361184f565b95508019841693508086168417925050509392505050565b5f819050919050565b5f6118cf6118ca6118c5846112c3565b6118ac565b6112c3565b9050919050565b5f819050919050565b6118e8836118b5565b6118fc6118f4826118d6565b84845461185b565b825550505050565b5f90565b611910611904565b61191b8184846118df565b505050565b5b8181101561193e576119335f82611908565b600181019050611921565b5050565b601f821115611983576119548161182e565b61195d84611840565b8101602085101561196c578190505b61198061197885611840565b830182611920565b50505b505050565b5f82821c905092915050565b5f6119a35f1984600802611988565b1980831691505092915050565b5f6119bb8383611994565b9150826002028217905092915050565b6119d482611253565b67ffffffffffffffff8111156119ed576119ec6113b1565b5b6119f78254611796565b611a02828285611942565b5f60209050601f831160018114611a33575f8415611a21578287015190505b611a2b85826119b0565b865550611a92565b601f198416611a418661182e565b5f5b82811015611a6857848901518255600182019150602085019450602081019050611a43565b86831015611a855784890151611a81601f891682611994565b8355505b6001600288020188555050505b505050505050565b5f6020820190508181035f830152611ab2818461128b565b905092915050565b7f4e487b71000000000000000000000000000000000000000000000000000000005f52601160045260245ffd5b5f611af1826112c3565b9150611afc836112c3565b9250828201905080821115611b1457611b13611aba565b5b92915050565b7f496e73756666696369656e7420706f696e7473000000000000000000000000005f82015250565b5f611b4e60138361125d565b9150611b5982611b1a565b602082019050919050565b5f6020820190508181035f830152611b7b81611b42565b9050919050565b5f611b8c826112c3565b9150611b97836112c3565b9250828203905081811115611baf57611bae611aba565b5b92915050565b5f604082019050611bc85f8301856112cc565b611bd560208301846112cc565b9392505050565b5f8154611be881611796565b611bf2818661125d565b9450600182165f8114611c0c5760018114611c2257611c54565b60ff198316865281151560200286019350611c54565b611c2b8561182e565b5f5b83811015611c4c57815481890152600182019150602081019050611c2d565b808801955050505b50505092915050565b5f6020820190508181035f830152611c758184611bdc565b90509291505056fea264697066735822122024ccc5fa65283bbc3bb40a59d1eb3dcee0ee69bd64009df0480f4ae48ac570b164736f6c634300081a0033",
					"opcodes": "PUSH1 0x80 PUSH1 0x40 MSTORE CALLVALUE DUP1 ISZERO PUSH1 0xE JUMPI PUSH0 DUP1 REVERT JUMPDEST POP CALLER PUSH0 DUP1 PUSH2 0x100 EXP DUP2 SLOAD DUP2 PUSH20 0xFFFFFFFFFFFFFFFFFFFFFFFFFFFFFFFFFFFFFFFF MUL NOT AND SWAP1 DUP4 PUSH20 0xFFFFFFFFFFFFFFFFFFFFFFFFFFFFFFFFFFFFFFFF AND MUL OR SWAP1 SSTORE POP PUSH2 0x1CB3 DUP1 PUSH2 0x5B PUSH0 CODECOPY PUSH0 RETURN INVALID PUSH1 0x80 PUSH1 0x40 MSTORE CALLVALUE DUP1 ISZERO PUSH2 0xF JUMPI PUSH0 DUP1 REVERT JUMPDEST POP PUSH1 0x4 CALLDATASIZE LT PUSH2 0x55 JUMPI PUSH0 CALLDATALOAD PUSH1 0xE0 SHR DUP1 PUSH4 0x5C60F226 EQ PUSH2 0x59 JUMPI DUP1 PUSH4 0x6F77926B EQ PUSH2 0x75 JUMPI DUP1 PUSH4 0x8DA5CB5B EQ PUSH2 0xAC JUMPI DUP1 PUSH4 0xA377D18F EQ PUSH2 0xCA JUMPI DUP1 PUSH4 0xC2BB5E13 EQ PUSH2 0xE6 JUMPI JUMPDEST PUSH0 DUP1 REVERT JUMPDEST PUSH2 0x73 PUSH1 0x4 DUP1 CALLDATASIZE SUB DUP2 ADD SWAP1 PUSH2 0x6E SWAP2 SWAP1 PUSH2 0x1228 JUMP JUMPDEST PUSH2 0x102 JUMP JUMPDEST STOP JUMPDEST PUSH2 0x8F PUSH1 0x4 DUP1 CALLDATASIZE SUB DUP2 ADD SWAP1 PUSH2 0x8A SWAP2 SWAP1 PUSH2 0x1228 JUMP JUMPDEST PUSH2 0x31B JUMP JUMPDEST PUSH1 0x40 MLOAD PUSH2 0xA3 SWAP9 SWAP8 SWAP7 SWAP6 SWAP5 SWAP4 SWAP3 SWAP2 SWAP1 PUSH2 0x12DB JUMP JUMPDEST PUSH1 0x40 MLOAD DUP1 SWAP2 SUB SWAP1 RETURN JUMPDEST PUSH2 0xB4 PUSH2 0x7CE JUMP JUMPDEST PUSH1 0x40 MLOAD PUSH2 0xC1 SWAP2 SWAP1 PUSH2 0x1390 JUMP JUMPDEST PUSH1 0x40 MLOAD DUP1 SWAP2 SUB SWAP1 RETURN JUMPDEST PUSH2 0xE4 PUSH1 0x4 DUP1 CALLDATASIZE SUB DUP2 ADD SWAP1 PUSH2 0xDF SWAP2 SWAP1 PUSH2 0x14D5 JUMP JUMPDEST PUSH2 0x7F1 JUMP JUMPDEST STOP JUMPDEST PUSH2 0x100 PUSH1 0x4 DUP1 CALLDATASIZE SUB DUP2 ADD SWAP1 PUSH2 0xFB SWAP2 SWAP1 PUSH2 0x1649 JUMP JUMPDEST PUSH2 0xACF JUMP JUMPDEST STOP JUMPDEST PUSH0 DUP1 SLOAD SWAP1 PUSH2 0x100 EXP SWAP1 DIV PUSH20 0xFFFFFFFFFFFFFFFFFFFFFFFFFFFFFFFFFFFFFFFF AND PUSH20 0xFFFFFFFFFFFFFFFFFFFFFFFFFFFFFFFFFFFFFFFF AND CALLER PUSH20 0xFFFFFFFFFFFFFFFFFFFFFFFFFFFFFFFFFFFFFFFF AND EQ PUSH2 0x18F JUMPI PUSH1 0x40 MLOAD PUSH32 0x8C379A000000000000000000000000000000000000000000000000000000000 DUP2 MSTORE PUSH1 0x4 ADD PUSH2 0x186 SWAP1 PUSH2 0x16E3 JUMP JUMPDEST PUSH1 0x40 MLOAD DUP1 SWAP2 SUB SWAP1 REVERT JUMPDEST PUSH1 0x1 PUSH0 DUP3 PUSH20 0xFFFFFFFFFFFFFFFFFFFFFFFFFFFFFFFFFFFFFFFF AND PUSH20 0xFFFFFFFFFFFFFFFFFFFFFFFFFFFFFFFFFFFFFFFF AND DUP2 MSTORE PUSH1 0x20 ADD SWAP1 DUP2 MSTORE PUSH1 0x20 ADD PUSH0 KECCAK256 PUSH1 0x8 ADD PUSH0 SWAP1 SLOAD SWAP1 PUSH2 0x100 EXP SWAP1 DIV PUSH1 0xFF AND PUSH2 0x21B JUMPI PUSH1 0x40 MLOAD PUSH32 0x8C379A000000000000000000000000000000000000000000000000000000000 DUP2 MSTORE PUSH1 0x4 ADD PUSH2 0x212 SWAP1 PUSH2 0x174B JUMP JUMPDEST PUSH1 0x40 MLOAD DUP1 SWAP2 SUB SWAP1 REVERT JUMPDEST PUSH1 0x1 PUSH0 DUP3 PUSH20 0xFFFFFFFFFFFFFFFFFFFFFFFFFFFFFFFFFFFFFFFF AND PUSH20 0xFFFFFFFFFFFFFFFFFFFFFFFFFFFFFFFFFFFFFFFF AND DUP2 MSTORE PUSH1 0x20 ADD SWAP1 DUP2 MSTORE PUSH1 0x20 ADD PUSH0 KECCAK256 PUSH0 DUP1 DUP3 ADD PUSH0 PUSH2 0x267 SWAP2 SWAP1 PUSH2 0x1165 JUMP JUMPDEST PUSH1 0x1 DUP3 ADD PUSH0 PUSH2 0x276 SWAP2 SWAP1 PUSH2 0x1165 JUMP JUMPDEST PUSH1 0x2 DUP3 ADD PUSH0 PUSH2 0x285 SWAP2 SWAP1 PUSH2 0x1165 JUMP JUMPDEST PUSH1 0x3 DUP3 ADD PUSH0 PUSH2 0x294 SWAP2 SWAP1 PUSH2 0x1165 JUMP JUMPDEST PUSH1 0x4 DUP3 ADD PUSH0 PUSH2 0x2A3 SWAP2 SWAP1 PUSH2 0x1165 JUMP JUMPDEST PUSH1 0x5 DUP3 ADD PUSH0 PUSH2 0x2B2 SWAP2 SWAP1 PUSH2 0x1165 JUMP JUMPDEST PUSH1 0x6 DUP3 ADD PUSH0 SWAP1 SSTORE PUSH1 0x7 DUP3 ADD PUSH0 SWAP1 SSTORE PUSH1 0x8 DUP3 ADD PUSH0 PUSH2 0x100 EXP DUP2 SLOAD SWAP1 PUSH1 0xFF MUL NOT AND SWAP1 SSTORE POP POP DUP1 PUSH20 0xFFFFFFFFFFFFFFFFFFFFFFFFFFFFFFFFFFFFFFFF AND PUSH32 0x4BC56F1321288DFB5B416CB3A7FD188723979F9E866C91D88ECCF7FCA039D039 PUSH1 0x40 MLOAD PUSH1 0x40 MLOAD DUP1 SWAP2 SUB SWAP1 LOG2 POP JUMP JUMPDEST PUSH1 0x60 DUP1 PUSH1 0x60 DUP1 PUSH1 0x60 DUP1 PUSH0 DUP1 PUSH1 0x1 PUSH0 DUP11 PUSH20 0xFFFFFFFFFFFFFFFFFFFFFFFFFFFFFFFFFFFFFFFF AND PUSH20 0xFFFFFFFFFFFFFFFFFFFFFFFFFFFFFFFFFFFFFFFF AND DUP2 MSTORE PUSH1 0x20 ADD SWAP1 DUP2 MSTORE PUSH1 0x20 ADD PUSH0 KECCAK256 PUSH1 0x8 ADD PUSH0 SWAP1 SLOAD SWAP1 PUSH2 0x100 EXP SWAP1 DIV PUSH1 0xFF AND PUSH2 0x3B2 JUMPI PUSH1 0x40 MLOAD PUSH32 0x8C379A000000000000000000000000000000000000000000000000000000000 DUP2 MSTORE PUSH1 0x4 ADD PUSH2 0x3A9 SWAP1 PUSH2 0x174B JUMP JUMPDEST PUSH1 0x40 MLOAD DUP1 SWAP2 SUB SWAP1 REVERT JUMPDEST PUSH0 PUSH1 0x1 PUSH0 DUP12 PUSH20 0xFFFFFFFFFFFFFFFFFFFFFFFFFFFFFFFFFFFFFFFF AND PUSH20 0xFFFFFFFFFFFFFFFFFFFFFFFFFFFFFFFFFFFFFFFF AND DUP2 MSTORE PUSH1 0x20 ADD SWAP1 DUP2 MSTORE PUSH1 0x20 ADD PUSH0 KECCAK256 PUSH1 0x40 MLOAD DUP1 PUSH2 0x120 ADD PUSH1 0x40 MSTORE SWAP1 DUP2 PUSH0 DUP3 ADD DUP1 SLOAD PUSH2 0x40B SWAP1 PUSH2 0x1796 JUMP JUMPDEST DUP1 PUSH1 0x1F ADD PUSH1 0x20 DUP1 SWAP2 DIV MUL PUSH1 0x20 ADD PUSH1 0x40 MLOAD SWAP1 DUP2 ADD PUSH1 0x40 MSTORE DUP1 SWAP3 SWAP2 SWAP1 DUP2 DUP2 MSTORE PUSH1 0x20 ADD DUP3 DUP1 SLOAD PUSH2 0x437 SWAP1 PUSH2 0x1796 JUMP JUMPDEST DUP1 ISZERO PUSH2 0x482 JUMPI DUP1 PUSH1 0x1F LT PUSH2 0x459 JUMPI PUSH2 0x100 DUP1 DUP4 SLOAD DIV MUL DUP4 MSTORE SWAP2 PUSH1 0x20 ADD SWAP2 PUSH2 0x482 JUMP JUMPDEST DUP3 ADD SWAP2 SWAP1 PUSH0 MSTORE PUSH1 0x20 PUSH0 KECCAK256 SWAP1 JUMPDEST DUP2 SLOAD DUP2 MSTORE SWAP1 PUSH1 0x1 ADD SWAP1 PUSH1 0x20 ADD DUP1 DUP4 GT PUSH2 0x465 JUMPI DUP3 SWAP1 SUB PUSH1 0x1F AND DUP3 ADD SWAP2 JUMPDEST POP POP POP POP POP DUP2 MSTORE PUSH1 0x20 ADD PUSH1 0x1 DUP3 ADD DUP1 SLOAD PUSH2 0x49B SWAP1 PUSH2 0x1796 JUMP JUMPDEST DUP1 PUSH1 0x1F ADD PUSH1 0x20 DUP1 SWAP2 DIV MUL PUSH1 0x20 ADD PUSH1 0x40 MLOAD SWAP1 DUP2 ADD PUSH1 0x40 MSTORE DUP1 SWAP3 SWAP2 SWAP1 DUP2 DUP2 MSTORE PUSH1 0x20 ADD DUP3 DUP1 SLOAD PUSH2 0x4C7 SWAP1 PUSH2 0x1796 JUMP JUMPDEST DUP1 ISZERO PUSH2 0x512 JUMPI DUP1 PUSH1 0x1F LT PUSH2 0x4E9 JUMPI PUSH2 0x100 DUP1 DUP4 SLOAD DIV MUL DUP4 MSTORE SWAP2 PUSH1 0x20 ADD SWAP2 PUSH2 0x512 JUMP JUMPDEST DUP3 ADD SWAP2 SWAP1 PUSH0 MSTORE PUSH1 0x20 PUSH0 KECCAK256 SWAP1 JUMPDEST DUP2 SLOAD DUP2 MSTORE SWAP1 PUSH1 0x1 ADD SWAP1 PUSH1 0x20 ADD DUP1 DUP4 GT PUSH2 0x4F5 JUMPI DUP3 SWAP1 SUB PUSH1 0x1F AND DUP3 ADD SWAP2 JUMPDEST POP POP POP POP POP DUP2 MSTORE PUSH1 0x20 ADD PUSH1 0x2 DUP3 ADD DUP1 SLOAD PUSH2 0x52B SWAP1 PUSH2 0x1796 JUMP JUMPDEST DUP1 PUSH1 0x1F ADD PUSH1 0x20 DUP1 SWAP2 DIV MUL PUSH1 0x20 ADD PUSH1 0x40 MLOAD SWAP1 DUP2 ADD PUSH1 0x40 MSTORE DUP1 SWAP3 SWAP2 SWAP1 DUP2 DUP2 MSTORE PUSH1 0x20 ADD DUP3 DUP1 SLOAD PUSH2 0x557 SWAP1 PUSH2 0x1796 JUMP JUMPDEST DUP1 ISZERO PUSH2 0x5A2 JUMPI DUP1 PUSH1 0x1F LT PUSH2 0x579 JUMPI PUSH2 0x100 DUP1 DUP4 SLOAD DIV MUL DUP4 MSTORE SWAP2 PUSH1 0x20 ADD SWAP2 PUSH2 0x5A2 JUMP JUMPDEST DUP3 ADD SWAP2 SWAP1 PUSH0 MSTORE PUSH1 0x20 PUSH0 KECCAK256 SWAP1 JUMPDEST DUP2 SLOAD DUP2 MSTORE SWAP1 PUSH1 0x1 ADD SWAP1 PUSH1 0x20 ADD DUP1 DUP4 GT PUSH2 0x585 JUMPI DUP3 SWAP1 SUB PUSH1 0x1F AND DUP3 ADD SWAP2 JUMPDEST POP POP POP POP POP DUP2 MSTORE PUSH1 0x20 ADD PUSH1 0x3 DUP3 ADD DUP1 SLOAD PUSH2 0x5BB SWAP1 PUSH2 0x1796 JUMP JUMPDEST DUP1 PUSH1 0x1F ADD PUSH1 0x20 DUP1 SWAP2 DIV MUL PUSH1 0x20 ADD PUSH1 0x40 MLOAD SWAP1 DUP2 ADD PUSH1 0x40 MSTORE DUP1 SWAP3 SWAP2 SWAP1 DUP2 DUP2 MSTORE PUSH1 0x20 ADD DUP3 DUP1 SLOAD PUSH2 0x5E7 SWAP1 PUSH2 0x1796 JUMP JUMPDEST DUP1 ISZERO PUSH2 0x632 JUMPI DUP1 PUSH1 0x1F LT PUSH2 0x609 JUMPI PUSH2 0x100 DUP1 DUP4 SLOAD DIV MUL DUP4 MSTORE SWAP2 PUSH1 0x20 ADD SWAP2 PUSH2 0x632 JUMP JUMPDEST DUP3 ADD SWAP2 SWAP1 PUSH0 MSTORE PUSH1 0x20 PUSH0 KECCAK256 SWAP1 JUMPDEST DUP2 SLOAD DUP2 MSTORE SWAP1 PUSH1 0x1 ADD SWAP1 PUSH1 0x20 ADD DUP1 DUP4 GT PUSH2 0x615 JUMPI DUP3 SWAP1 SUB PUSH1 0x1F AND DUP3 ADD SWAP2 JUMPDEST POP POP POP POP POP DUP2 MSTORE PUSH1 0x20 ADD PUSH1 0x4 DUP3 ADD DUP1 SLOAD PUSH2 0x64B SWAP1 PUSH2 0x1796 JUMP JUMPDEST DUP1 PUSH1 0x1F ADD PUSH1 0x20 DUP1 SWAP2 DIV MUL PUSH1 0x20 ADD PUSH1 0x40 MLOAD SWAP1 DUP2 ADD PUSH1 0x40 MSTORE DUP1 SWAP3 SWAP2 SWAP1 DUP2 DUP2 MSTORE PUSH1 0x20 ADD DUP3 DUP1 SLOAD PUSH2 0x677 SWAP1 PUSH2 0x1796 JUMP JUMPDEST DUP1 ISZERO PUSH2 0x6C2 JUMPI DUP1 PUSH1 0x1F LT PUSH2 0x699 JUMPI PUSH2 0x100 DUP1 DUP4 SLOAD DIV MUL DUP4 MSTORE SWAP2 PUSH1 0x20 ADD SWAP2 PUSH2 0x6C2 JUMP JUMPDEST DUP3 ADD SWAP2 SWAP1 PUSH0 MSTORE PUSH1 0x20 PUSH0 KECCAK256 SWAP1 JUMPDEST DUP2 SLOAD DUP2 MSTORE SWAP1 PUSH1 0x1 ADD SWAP1 PUSH1 0x20 ADD DUP1 DUP4 GT PUSH2 0x6A5 JUMPI DUP3 SWAP1 SUB PUSH1 0x1F AND DUP3 ADD SWAP2 JUMPDEST POP POP POP POP POP DUP2 MSTORE PUSH1 0x20 ADD PUSH1 0x5 DUP3 ADD DUP1 SLOAD PUSH2 0x6DB SWAP1 PUSH2 0x1796 JUMP JUMPDEST DUP1 PUSH1 0x1F ADD PUSH1 0x20 DUP1 SWAP2 DIV MUL PUSH1 0x20 ADD PUSH1 0x40 MLOAD SWAP1 DUP2 ADD PUSH1 0x40 MSTORE DUP1 SWAP3 SWAP2 SWAP1 DUP2 DUP2 MSTORE PUSH1 0x20 ADD DUP3 DUP1 SLOAD PUSH2 0x707 SWAP1 PUSH2 0x1796 JUMP JUMPDEST DUP1 ISZERO PUSH2 0x752 JUMPI DUP1 PUSH1 0x1F LT PUSH2 0x729 JUMPI PUSH2 0x100 DUP1 DUP4 SLOAD DIV MUL DUP4 MSTORE SWAP2 PUSH1 0x20 ADD SWAP2 PUSH2 0x752 JUMP JUMPDEST DUP3 ADD SWAP2 SWAP1 PUSH0 MSTORE PUSH1 0x20 PUSH0 KECCAK256 SWAP1 JUMPDEST DUP2 SLOAD DUP2 MSTORE SWAP1 PUSH1 0x1 ADD SWAP1 PUSH1 0x20 ADD DUP1 DUP4 GT PUSH2 0x735 JUMPI DUP3 SWAP1 SUB PUSH1 0x1F AND DUP3 ADD SWAP2 JUMPDEST POP POP POP POP POP DUP2 MSTORE PUSH1 0x20 ADD PUSH1 0x6 DUP3 ADD SLOAD DUP2 MSTORE PUSH1 0x20 ADD PUSH1 0x7 DUP3 ADD SLOAD DUP2 MSTORE PUSH1 0x20 ADD PUSH1 0x8 DUP3 ADD PUSH0 SWAP1 SLOAD SWAP1 PUSH2 0x100 EXP SWAP1 DIV PUSH1 0xFF AND ISZERO ISZERO ISZERO ISZERO DUP2 MSTORE POP POP SWAP1 POP DUP1 PUSH0 ADD MLOAD DUP2 PUSH1 0x20 ADD MLOAD DUP3 PUSH1 0x40 ADD MLOAD DUP4 PUSH1 0x60 ADD MLOAD DUP5 PUSH1 0x80 ADD MLOAD DUP6 PUSH1 0xA0 ADD MLOAD DUP7 PUSH1 0xC0 ADD MLOAD DUP8 PUSH1 0xE0 ADD MLOAD SWAP9 POP SWAP9 POP SWAP9 POP SWAP9 POP SWAP9 POP SWAP9 POP SWAP9 POP SWAP9 POP POP SWAP2 SWAP4 SWAP6 SWAP8 POP SWAP2 SWAP4 SWAP6 SWAP8 JUMP JUMPDEST PUSH0 DUP1 SLOAD SWAP1 PUSH2 0x100 EXP SWAP1 DIV PUSH20 0xFFFFFFFFFFFFFFFFFFFFFFFFFFFFFFFFFFFFFFFF AND DUP2 JUMP JUMPDEST PUSH0 DUP1 SLOAD SWAP1 PUSH2 0x100 EXP SWAP1 DIV PUSH20 0xFFFFFFFFFFFFFFFFFFFFFFFFFFFFFFFFFFFFFFFF AND PUSH20 0xFFFFFFFFFFFFFFFFFFFFFFFFFFFFFFFFFFFFFFFF AND CALLER PUSH20 0xFFFFFFFFFFFFFFFFFFFFFFFFFFFFFFFFFFFFFFFF AND EQ PUSH2 0x87E JUMPI PUSH1 0x40 MLOAD PUSH32 0x8C379A000000000000000000000000000000000000000000000000000000000 DUP2 MSTORE PUSH1 0x4 ADD PUSH2 0x875 SWAP1 PUSH2 0x16E3 JUMP JUMPDEST PUSH1 0x40 MLOAD DUP1 SWAP2 SUB SWAP1 REVERT JUMPDEST PUSH1 0x1 PUSH0 DUP8 PUSH20 0xFFFFFFFFFFFFFFFFFFFFFFFFFFFFFFFFFFFFFFFF AND PUSH20 0xFFFFFFFFFFFFFFFFFFFFFFFFFFFFFFFFFFFFFFFF AND DUP2 MSTORE PUSH1 0x20 ADD SWAP1 DUP2 MSTORE PUSH1 0x20 ADD PUSH0 KECCAK256 PUSH1 0x8 ADD PUSH0 SWAP1 SLOAD SWAP1 PUSH2 0x100 EXP SWAP1 DIV PUSH1 0xFF AND ISZERO PUSH2 0x90B JUMPI PUSH1 0x40 MLOAD PUSH32 0x8C379A000000000000000000000000000000000000000000000000000000000 DUP2 MSTORE PUSH1 0x4 ADD PUSH2 0x902 SWAP1 PUSH2 0x1810 JUMP JUMPDEST PUSH1 0x40 MLOAD DUP1 SWAP2 SUB SWAP1 REVERT JUMPDEST PUSH1 0x40 MLOAD DUP1 PUSH2 0x120 ADD PUSH1 0x40 MSTORE DUP1 DUP7 DUP2 MSTORE PUSH1 0x20 ADD DUP6 DUP2 MSTORE PUSH1 0x20 ADD DUP5 DUP2 MSTORE PUSH1 0x20 ADD DUP4 DUP2 MSTORE PUSH1 0x20 ADD DUP3 DUP2 MSTORE PUSH1 0x20 ADD PUSH1 0x40 MLOAD DUP1 PUSH1 0x40 ADD PUSH1 0x40 MSTORE DUP1 PUSH1 0x6 DUP2 MSTORE PUSH1 0x20 ADD PUSH32 0x51756172747A0000000000000000000000000000000000000000000000000000 DUP2 MSTORE POP DUP2 MSTORE PUSH1 0x20 ADD PUSH0 DUP2 MSTORE PUSH1 0x20 ADD PUSH0 DUP2 MSTORE PUSH1 0x20 ADD PUSH1 0x1 ISZERO ISZERO DUP2 MSTORE POP PUSH1 0x1 PUSH0 DUP9 PUSH20 0xFFFFFFFFFFFFFFFFFFFFFFFFFFFFFFFFFFFFFFFF AND PUSH20 0xFFFFFFFFFFFFFFFFFFFFFFFFFFFFFFFFFFFFFFFF AND DUP2 MSTORE PUSH1 0x20 ADD SWAP1 DUP2 MSTORE PUSH1 0x20 ADD PUSH0 KECCAK256 PUSH0 DUP3 ADD MLOAD DUP2 PUSH0 ADD SWAP1 DUP2 PUSH2 0x9D3 SWAP2 SWAP1 PUSH2 0x19CB JUMP JUMPDEST POP PUSH1 0x20 DUP3 ADD MLOAD DUP2 PUSH1 0x1 ADD SWAP1 DUP2 PUSH2 0x9E9 SWAP2 SWAP1 PUSH2 0x19CB JUMP JUMPDEST POP PUSH1 0x40 DUP3 ADD MLOAD DUP2 PUSH1 0x2 ADD SWAP1 DUP2 PUSH2 0x9FF SWAP2 SWAP1 PUSH2 0x19CB JUMP JUMPDEST POP PUSH1 0x60 DUP3 ADD MLOAD DUP2 PUSH1 0x3 ADD SWAP1 DUP2 PUSH2 0xA15 SWAP2 SWAP1 PUSH2 0x19CB JUMP JUMPDEST POP PUSH1 0x80 DUP3 ADD MLOAD DUP2 PUSH1 0x4 ADD SWAP1 DUP2 PUSH2 0xA2B SWAP2 SWAP1 PUSH2 0x19CB JUMP JUMPDEST POP PUSH1 0xA0 DUP3 ADD MLOAD DUP2 PUSH1 0x5 ADD SWAP1 DUP2 PUSH2 0xA41 SWAP2 SWAP1 PUSH2 0x19CB JUMP JUMPDEST POP PUSH1 0xC0 DUP3 ADD MLOAD DUP2 PUSH1 0x6 ADD SSTORE PUSH1 0xE0 DUP3 ADD MLOAD DUP2 PUSH1 0x7 ADD SSTORE PUSH2 0x100 DUP3 ADD MLOAD DUP2 PUSH1 0x8 ADD PUSH0 PUSH2 0x100 EXP DUP2 SLOAD DUP2 PUSH1 0xFF MUL NOT AND SWAP1 DUP4 ISZERO ISZERO MUL OR SWAP1 SSTORE POP SWAP1 POP POP DUP6 PUSH20 0xFFFFFFFFFFFFFFFFFFFFFFFFFFFFFFFFFFFFFFFF AND PUSH32 0x9954BCE02F72FBDEF0FA668AC6F42E434B5829615DAC2FB22448054D2359D4F6 DUP6 PUSH1 0x40 MLOAD PUSH2 0xABF SWAP2 SWAP1 PUSH2 0x1A9A JUMP JUMPDEST PUSH1 0x40 MLOAD DUP1 SWAP2 SUB SWAP1 LOG2 POP POP POP POP POP POP JUMP JUMPDEST PUSH0 DUP1 SLOAD SWAP1 PUSH2 0x100 EXP SWAP1 DIV PUSH20 0xFFFFFFFFFFFFFFFFFFFFFFFFFFFFFFFFFFFFFFFF AND PUSH20 0xFFFFFFFFFFFFFFFFFFFFFFFFFFFFFFFFFFFFFFFF AND CALLER PUSH20 0xFFFFFFFFFFFFFFFFFFFFFFFFFFFFFFFFFFFFFFFF AND EQ PUSH2 0xB5C JUMPI PUSH1 0x40 MLOAD PUSH32 0x8C379A000000000000000000000000000000000000000000000000000000000 DUP2 MSTORE PUSH1 0x4 ADD PUSH2 0xB53 SWAP1 PUSH2 0x16E3 JUMP JUMPDEST PUSH1 0x40 MLOAD DUP1 SWAP2 SUB SWAP1 REVERT JUMPDEST PUSH1 0x1 PUSH0 DUP5 PUSH20 0xFFFFFFFFFFFFFFFFFFFFFFFFFFFFFFFFFFFFFFFF AND PUSH20 0xFFFFFFFFFFFFFFFFFFFFFFFFFFFFFFFFFFFFFFFF AND DUP2 MSTORE PUSH1 0x20 ADD SWAP1 DUP2 MSTORE PUSH1 0x20 ADD PUSH0 KECCAK256 PUSH1 0x8 ADD PUSH0 SWAP1 SLOAD SWAP1 PUSH2 0x100 EXP SWAP1 DIV PUSH1 0xFF AND PUSH2 0xBE8 JUMPI PUSH1 0x40 MLOAD PUSH32 0x8C379A000000000000000000000000000000000000000000000000000000000 DUP2 MSTORE PUSH1 0x4 ADD PUSH2 0xBDF SWAP1 PUSH2 0x174B JUMP JUMPDEST PUSH1 0x40 MLOAD DUP1 SWAP2 SUB SWAP1 REVERT JUMPDEST DUP1 ISZERO PUSH2 0xC9F JUMPI DUP2 PUSH1 0x1 PUSH0 DUP6 PUSH20 0xFFFFFFFFFFFFFFFFFFFFFFFFFFFFFFFFFFFFFFFF AND PUSH20 0xFFFFFFFFFFFFFFFFFFFFFFFFFFFFFFFFFFFFFFFF AND DUP2 MSTORE PUSH1 0x20 ADD SWAP1 DUP2 MSTORE PUSH1 0x20 ADD PUSH0 KECCAK256 PUSH1 0x6 ADD PUSH0 DUP3 DUP3 SLOAD PUSH2 0xC3D SWAP2 SWAP1 PUSH2 0x1AE7 JUMP JUMPDEST SWAP3 POP POP DUP2 SWAP1 SSTORE POP DUP2 PUSH1 0x1 PUSH0 DUP6 PUSH20 0xFFFFFFFFFFFFFFFFFFFFFFFFFFFFFFFFFFFFFFFF AND PUSH20 0xFFFFFFFFFFFFFFFFFFFFFFFFFFFFFFFFFFFFFFFF AND DUP2 MSTORE PUSH1 0x20 ADD SWAP1 DUP2 MSTORE PUSH1 0x20 ADD PUSH0 KECCAK256 PUSH1 0x7 ADD PUSH0 DUP3 DUP3 SLOAD PUSH2 0xC93 SWAP2 SWAP1 PUSH2 0x1AE7 JUMP JUMPDEST SWAP3 POP POP DUP2 SWAP1 SSTORE POP PUSH2 0xD79 JUMP JUMPDEST DUP2 PUSH1 0x1 PUSH0 DUP6 PUSH20 0xFFFFFFFFFFFFFFFFFFFFFFFFFFFFFFFFFFFFFFFF AND PUSH20 0xFFFFFFFFFFFFFFFFFFFFFFFFFFFFFFFFFFFFFFFF AND DUP2 MSTORE PUSH1 0x20 ADD SWAP1 DUP2 MSTORE PUSH1 0x20 ADD PUSH0 KECCAK256 PUSH1 0x7 ADD SLOAD LT ISZERO PUSH2 0xD22 JUMPI PUSH1 0x40 MLOAD PUSH32 0x8C379A000000000000000000000000000000000000000000000000000000000 DUP2 MSTORE PUSH1 0x4 ADD PUSH2 0xD19 SWAP1 PUSH2 0x1B64 JUMP JUMPDEST PUSH1 0x40 MLOAD DUP1 SWAP2 SUB SWAP1 REVERT JUMPDEST DUP2 PUSH1 0x1 PUSH0 DUP6 PUSH20 0xFFFFFFFFFFFFFFFFFFFFFFFFFFFFFFFFFFFFFFFF AND PUSH20 0xFFFFFFFFFFFFFFFFFFFFFFFFFFFFFFFFFFFFFFFF AND DUP2 MSTORE PUSH1 0x20 ADD SWAP1 DUP2 MSTORE PUSH1 0x20 ADD PUSH0 KECCAK256 PUSH1 0x7 ADD PUSH0 DUP3 DUP3 SLOAD PUSH2 0xD71 SWAP2 SWAP1 PUSH2 0x1B82 JUMP JUMPDEST SWAP3 POP POP DUP2 SWAP1 SSTORE POP JUMPDEST PUSH2 0xD82 DUP4 PUSH2 0xE57 JUMP JUMPDEST DUP3 PUSH20 0xFFFFFFFFFFFFFFFFFFFFFFFFFFFFFFFFFFFFFFFF AND PUSH32 0xECEB10B266995AFD3009502DF537B0421B7F635DD268F4B0A74B99A87BE65213 PUSH1 0x1 PUSH0 DUP7 PUSH20 0xFFFFFFFFFFFFFFFFFFFFFFFFFFFFFFFFFFFFFFFF AND PUSH20 0xFFFFFFFFFFFFFFFFFFFFFFFFFFFFFFFFFFFFFFFF AND DUP2 MSTORE PUSH1 0x20 ADD SWAP1 DUP2 MSTORE PUSH1 0x20 ADD PUSH0 KECCAK256 PUSH1 0x6 ADD SLOAD PUSH1 0x1 PUSH0 DUP8 PUSH20 0xFFFFFFFFFFFFFFFFFFFFFFFFFFFFFFFFFFFFFFFF AND PUSH20 0xFFFFFFFFFFFFFFFFFFFFFFFFFFFFFFFFFFFFFFFF AND DUP2 MSTORE PUSH1 0x20 ADD SWAP1 DUP2 MSTORE PUSH1 0x20 ADD PUSH0 KECCAK256 PUSH1 0x7 ADD SLOAD PUSH1 0x40 MLOAD PUSH2 0xE4A SWAP3 SWAP2 SWAP1 PUSH2 0x1BB5 JUMP JUMPDEST PUSH1 0x40 MLOAD DUP1 SWAP2 SUB SWAP1 LOG2 POP POP POP JUMP JUMPDEST PUSH0 PUSH1 0x1 PUSH0 DUP4 PUSH20 0xFFFFFFFFFFFFFFFFFFFFFFFFFFFFFFFFFFFFFFFF AND PUSH20 0xFFFFFFFFFFFFFFFFFFFFFFFFFFFFFFFFFFFFFFFF AND DUP2 MSTORE PUSH1 0x20 ADD SWAP1 DUP2 MSTORE PUSH1 0x20 ADD PUSH0 KECCAK256 PUSH1 0x6 ADD SLOAD SWAP1 POP PUSH2 0x2710 DUP2 LT PUSH2 0xF2C JUMPI PUSH1 0x40 MLOAD DUP1 PUSH1 0x40 ADD PUSH1 0x40 MSTORE DUP1 PUSH1 0x7 DUP2 MSTORE PUSH1 0x20 ADD PUSH32 0x4469616D6F6E6400000000000000000000000000000000000000000000000000 DUP2 MSTORE POP PUSH1 0x1 PUSH0 DUP5 PUSH20 0xFFFFFFFFFFFFFFFFFFFFFFFFFFFFFFFFFFFFFFFF AND PUSH20 0xFFFFFFFFFFFFFFFFFFFFFFFFFFFFFFFFFFFFFFFF AND DUP2 MSTORE PUSH1 0x20 ADD SWAP1 DUP2 MSTORE PUSH1 0x20 ADD PUSH0 KECCAK256 PUSH1 0x5 ADD SWAP1 DUP2 PUSH2 0xF26 SWAP2 SWAP1 PUSH2 0x19CB JUMP JUMPDEST POP PUSH2 0x10D4 JUMP JUMPDEST PUSH2 0x1388 DUP2 LT PUSH2 0xFBD JUMPI PUSH1 0x40 MLOAD DUP1 PUSH1 0x40 ADD PUSH1 0x40 MSTORE DUP1 PUSH1 0x8 DUP2 MSTORE PUSH1 0x20 ADD PUSH32 0x5361707068697265000000000000000000000000000000000000000000000000 DUP2 MSTORE POP PUSH1 0x1 PUSH0 DUP5 PUSH20 0xFFFFFFFFFFFFFFFFFFFFFFFFFFFFFFFFFFFFFFFF AND PUSH20 0xFFFFFFFFFFFFFFFFFFFFFFFFFFFFFFFFFFFFFFFF AND DUP2 MSTORE PUSH1 0x20 ADD SWAP1 DUP2 MSTORE PUSH1 0x20 ADD PUSH0 KECCAK256 PUSH1 0x5 ADD SWAP1 DUP2 PUSH2 0xFB7 SWAP2 SWAP1 PUSH2 0x19CB JUMP JUMPDEST POP PUSH2 0x10D3 JUMP JUMPDEST PUSH2 0x3E8 DUP2 LT PUSH2 0x104E JUMPI PUSH1 0x40 MLOAD DUP1 PUSH1 0x40 ADD PUSH1 0x40 MSTORE DUP1 PUSH1 0x7 DUP2 MSTORE PUSH1 0x20 ADD PUSH32 0x456D6572616C6400000000000000000000000000000000000000000000000000 DUP2 MSTORE POP PUSH1 0x1 PUSH0 DUP5 PUSH20 0xFFFFFFFFFFFFFFFFFFFFFFFFFFFFFFFFFFFFFFFF AND PUSH20 0xFFFFFFFFFFFFFFFFFFFFFFFFFFFFFFFFFFFFFFFF AND DUP2 MSTORE PUSH1 0x20 ADD SWAP1 DUP2 MSTORE PUSH1 0x20 ADD PUSH0 KECCAK256 PUSH1 0x5 ADD SWAP1 DUP2 PUSH2 0x1048 SWAP2 SWAP1 PUSH2 0x19CB JUMP JUMPDEST POP PUSH2 0x10D2 JUMP JUMPDEST PUSH1 0x40 MLOAD DUP1 PUSH1 0x40 ADD PUSH1 0x40 MSTORE DUP1 PUSH1 0x6 DUP2 MSTORE PUSH1 0x20 ADD PUSH32 0x51756172747A0000000000000000000000000000000000000000000000000000 DUP2 MSTORE POP PUSH1 0x1 PUSH0 DUP5 PUSH20 0xFFFFFFFFFFFFFFFFFFFFFFFFFFFFFFFFFFFFFFFF AND PUSH20 0xFFFFFFFFFFFFFFFFFFFFFFFFFFFFFFFFFFFFFFFF AND DUP2 MSTORE PUSH1 0x20 ADD SWAP1 DUP2 MSTORE PUSH1 0x20 ADD PUSH0 KECCAK256 PUSH1 0x5 ADD SWAP1 DUP2 PUSH2 0x10D0 SWAP2 SWAP1 PUSH2 0x19CB JUMP JUMPDEST POP JUMPDEST JUMPDEST JUMPDEST DUP2 PUSH20 0xFFFFFFFFFFFFFFFFFFFFFFFFFFFFFFFFFFFFFFFF AND PUSH32 0x7C5463C5531EAD7F0BA72AC58BED8430F619C4CFE506277C9D84245129F0DF7A PUSH1 0x1 PUSH0 DUP6 PUSH20 0xFFFFFFFFFFFFFFFFFFFFFFFFFFFFFFFFFFFFFFFF AND PUSH20 0xFFFFFFFFFFFFFFFFFFFFFFFFFFFFFFFFFFFFFFFF AND DUP2 MSTORE PUSH1 0x20 ADD SWAP1 DUP2 MSTORE PUSH1 0x20 ADD PUSH0 KECCAK256 PUSH1 0x5 ADD PUSH1 0x40 MLOAD PUSH2 0x1159 SWAP2 SWAP1 PUSH2 0x1C5D JUMP JUMPDEST PUSH1 0x40 MLOAD DUP1 SWAP2 SUB SWAP1 LOG2 POP POP JUMP JUMPDEST POP DUP1 SLOAD PUSH2 0x1171 SWAP1 PUSH2 0x1796 JUMP JUMPDEST PUSH0 DUP3 SSTORE DUP1 PUSH1 0x1F LT PUSH2 0x1182 JUMPI POP PUSH2 0x119F JUMP JUMPDEST PUSH1 0x1F ADD PUSH1 0x20 SWAP1 DIV SWAP1 PUSH0 MSTORE PUSH1 0x20 PUSH0 KECCAK256 SWAP1 DUP2 ADD SWAP1 PUSH2 0x119E SWAP2 SWAP1 PUSH2 0x11A2 JUMP JUMPDEST JUMPDEST POP JUMP JUMPDEST JUMPDEST DUP1 DUP3 GT ISZERO PUSH2 0x11B9 JUMPI PUSH0 DUP2 PUSH0 SWAP1 SSTORE POP PUSH1 0x1 ADD PUSH2 0x11A3 JUMP JUMPDEST POP SWAP1 JUMP JUMPDEST PUSH0 PUSH1 0x40 MLOAD SWAP1 POP SWAP1 JUMP JUMPDEST PUSH0 DUP1 REVERT JUMPDEST PUSH0 DUP1 REVERT JUMPDEST PUSH0 PUSH20 0xFFFFFFFFFFFFFFFFFFFFFFFFFFFFFFFFFFFFFFFF DUP3 AND SWAP1 POP SWAP2 SWAP1 POP JUMP JUMPDEST PUSH0 PUSH2 0x11F7 DUP3 PUSH2 0x11CE JUMP JUMPDEST SWAP1 POP SWAP2 SWAP1 POP JUMP JUMPDEST PUSH2 0x1207 DUP2 PUSH2 0x11ED JUMP JUMPDEST DUP2 EQ PUSH2 0x1211 JUMPI PUSH0 DUP1 REVERT JUMPDEST POP JUMP JUMPDEST PUSH0 DUP2 CALLDATALOAD SWAP1 POP PUSH2 0x1222 DUP2 PUSH2 0x11FE JUMP JUMPDEST SWAP3 SWAP2 POP POP JUMP JUMPDEST PUSH0 PUSH1 0x20 DUP3 DUP5 SUB SLT ISZERO PUSH2 0x123D JUMPI PUSH2 0x123C PUSH2 0x11C6 JUMP JUMPDEST JUMPDEST PUSH0 PUSH2 0x124A DUP5 DUP3 DUP6 ADD PUSH2 0x1214 JUMP JUMPDEST SWAP2 POP POP SWAP3 SWAP2 POP POP JUMP JUMPDEST PUSH0 DUP2 MLOAD SWAP1 POP SWAP2 SWAP1 POP JUMP JUMPDEST PUSH0 DUP3 DUP3 MSTORE PUSH1 0x20 DUP3 ADD SWAP1 POP SWAP3 SWAP2 POP POP JUMP JUMPDEST DUP3 DUP2 DUP4 MCOPY PUSH0 DUP4 DUP4 ADD MSTORE POP POP POP JUMP JUMPDEST PUSH0 PUSH1 0x1F NOT PUSH1 0x1F DUP4 ADD AND SWAP1 POP SWAP2 SWAP1 POP JUMP JUMPDEST PUSH0 PUSH2 0x1295 DUP3 PUSH2 0x1253 JUMP JUMPDEST PUSH2 0x129F DUP2 DUP6 PUSH2 0x125D JUMP JUMPDEST SWAP4 POP PUSH2 0x12AF DUP2 DUP6 PUSH1 0x20 DUP7 ADD PUSH2 0x126D JUMP JUMPDEST PUSH2 0x12B8 DUP2 PUSH2 0x127B JUMP JUMPDEST DUP5 ADD SWAP2 POP POP SWAP3 SWAP2 POP POP JUMP JUMPDEST PUSH0 DUP2 SWAP1 POP SWAP2 SWAP1 POP JUMP JUMPDEST PUSH2 0x12D5 DUP2 PUSH2 0x12C3 JUMP JUMPDEST DUP3 MSTORE POP POP JUMP JUMPDEST PUSH0 PUSH2 0x100 DUP3 ADD SWAP1 POP DUP2 DUP2 SUB PUSH0 DUP4 ADD MSTORE PUSH2 0x12F4 DUP2 DUP12 PUSH2 0x128B JUMP JUMPDEST SWAP1 POP DUP2 DUP2 SUB PUSH1 0x20 DUP4 ADD MSTORE PUSH2 0x1308 DUP2 DUP11 PUSH2 0x128B JUMP JUMPDEST SWAP1 POP DUP2 DUP2 SUB PUSH1 0x40 DUP4 ADD MSTORE PUSH2 0x131C DUP2 DUP10 PUSH2 0x128B JUMP JUMPDEST SWAP1 POP DUP2 DUP2 SUB PUSH1 0x60 DUP4 ADD MSTORE PUSH2 0x1330 DUP2 DUP9 PUSH2 0x128B JUMP JUMPDEST SWAP1 POP DUP2 DUP2 SUB PUSH1 0x80 DUP4 ADD MSTORE PUSH2 0x1344 DUP2 DUP8 PUSH2 0x128B JUMP JUMPDEST SWAP1 POP DUP2 DUP2 SUB PUSH1 0xA0 DUP4 ADD MSTORE PUSH2 0x1358 DUP2 DUP7 PUSH2 0x128B JUMP JUMPDEST SWAP1 POP PUSH2 0x1367 PUSH1 0xC0 DUP4 ADD DUP6 PUSH2 0x12CC JUMP JUMPDEST PUSH2 0x1374 PUSH1 0xE0 DUP4 ADD DUP5 PUSH2 0x12CC JUMP JUMPDEST SWAP10 SWAP9 POP POP POP POP POP POP POP POP POP JUMP JUMPDEST PUSH2 0x138A DUP2 PUSH2 0x11ED JUMP JUMPDEST DUP3 MSTORE POP POP JUMP JUMPDEST PUSH0 PUSH1 0x20 DUP3 ADD SWAP1 POP PUSH2 0x13A3 PUSH0 DUP4 ADD DUP5 PUSH2 0x1381 JUMP JUMPDEST SWAP3 SWAP2 POP POP JUMP JUMPDEST PUSH0 DUP1 REVERT JUMPDEST PUSH0 DUP1 REVERT JUMPDEST PUSH32 0x4E487B7100000000000000000000000000000000000000000000000000000000 PUSH0 MSTORE PUSH1 0x41 PUSH1 0x4 MSTORE PUSH1 0x24 PUSH0 REVERT JUMPDEST PUSH2 0x13E7 DUP3 PUSH2 0x127B JUMP JUMPDEST DUP2 ADD DUP2 DUP2 LT PUSH8 0xFFFFFFFFFFFFFFFF DUP3 GT OR ISZERO PUSH2 0x1406 JUMPI PUSH2 0x1405 PUSH2 0x13B1 JUMP JUMPDEST JUMPDEST DUP1 PUSH1 0x40 MSTORE POP POP POP JUMP JUMPDEST PUSH0 PUSH2 0x1418 PUSH2 0x11BD JUMP JUMPDEST SWAP1 POP PUSH2 0x1424 DUP3 DUP3 PUSH2 0x13DE JUMP JUMPDEST SWAP2 SWAP1 POP JUMP JUMPDEST PUSH0 PUSH8 0xFFFFFFFFFFFFFFFF DUP3 GT ISZERO PUSH2 0x1443 JUMPI PUSH2 0x1442 PUSH2 0x13B1 JUMP JUMPDEST JUMPDEST PUSH2 0x144C DUP3 PUSH2 0x127B JUMP JUMPDEST SWAP1 POP PUSH1 0x20 DUP2 ADD SWAP1 POP SWAP2 SWAP1 POP JUMP JUMPDEST DUP3 DUP2 DUP4 CALLDATACOPY PUSH0 DUP4 DUP4 ADD MSTORE POP POP POP JUMP JUMPDEST PUSH0 PUSH2 0x1479 PUSH2 0x1474 DUP5 PUSH2 0x1429 JUMP JUMPDEST PUSH2 0x140F JUMP JUMPDEST SWAP1 POP DUP3 DUP2 MSTORE PUSH1 0x20 DUP2 ADD DUP5 DUP5 DUP5 ADD GT ISZERO PUSH2 0x1495 JUMPI PUSH2 0x1494 PUSH2 0x13AD JUMP JUMPDEST JUMPDEST PUSH2 0x14A0 DUP5 DUP3 DUP6 PUSH2 0x1459 JUMP JUMPDEST POP SWAP4 SWAP3 POP POP POP JUMP JUMPDEST PUSH0 DUP3 PUSH1 0x1F DUP4 ADD SLT PUSH2 0x14BC JUMPI PUSH2 0x14BB PUSH2 0x13A9 JUMP JUMPDEST JUMPDEST DUP2 CALLDATALOAD PUSH2 0x14CC DUP5 DUP3 PUSH1 0x20 DUP7 ADD PUSH2 0x1467 JUMP JUMPDEST SWAP2 POP POP SWAP3 SWAP2 POP POP JUMP JUMPDEST PUSH0 DUP1 PUSH0 DUP1 PUSH0 DUP1 PUSH1 0xC0 DUP8 DUP10 SUB SLT ISZERO PUSH2 0x14EF JUMPI PUSH2 0x14EE PUSH2 0x11C6 JUMP JUMPDEST JUMPDEST PUSH0 PUSH2 0x14FC DUP10 DUP3 DUP11 ADD PUSH2 0x1214 JUMP JUMPDEST SWAP7 POP POP PUSH1 0x20 DUP8 ADD CALLDATALOAD PUSH8 0xFFFFFFFFFFFFFFFF DUP2 GT ISZERO PUSH2 0x151D JUMPI PUSH2 0x151C PUSH2 0x11CA JUMP JUMPDEST JUMPDEST PUSH2 0x1529 DUP10 DUP3 DUP11 ADD PUSH2 0x14A8 JUMP JUMPDEST SWAP6 POP POP PUSH1 0x40 DUP8 ADD CALLDATALOAD PUSH8 0xFFFFFFFFFFFFFFFF DUP2 GT ISZERO PUSH2 0x154A JUMPI PUSH2 0x1549 PUSH2 0x11CA JUMP JUMPDEST JUMPDEST PUSH2 0x1556 DUP10 DUP3 DUP11 ADD PUSH2 0x14A8 JUMP JUMPDEST SWAP5 POP POP PUSH1 0x60 DUP8 ADD CALLDATALOAD PUSH8 0xFFFFFFFFFFFFFFFF DUP2 GT ISZERO PUSH2 0x1577 JUMPI PUSH2 0x1576 PUSH2 0x11CA JUMP JUMPDEST JUMPDEST PUSH2 0x1583 DUP10 DUP3 DUP11 ADD PUSH2 0x14A8 JUMP JUMPDEST SWAP4 POP POP PUSH1 0x80 DUP8 ADD CALLDATALOAD PUSH8 0xFFFFFFFFFFFFFFFF DUP2 GT ISZERO PUSH2 0x15A4 JUMPI PUSH2 0x15A3 PUSH2 0x11CA JUMP JUMPDEST JUMPDEST PUSH2 0x15B0 DUP10 DUP3 DUP11 ADD PUSH2 0x14A8 JUMP JUMPDEST SWAP3 POP POP PUSH1 0xA0 DUP8 ADD CALLDATALOAD PUSH8 0xFFFFFFFFFFFFFFFF DUP2 GT ISZERO PUSH2 0x15D1 JUMPI PUSH2 0x15D0 PUSH2 0x11CA JUMP JUMPDEST JUMPDEST PUSH2 0x15DD DUP10 DUP3 DUP11 ADD PUSH2 0x14A8 JUMP JUMPDEST SWAP2 POP POP SWAP3 SWAP6 POP SWAP3 SWAP6 POP SWAP3 SWAP6 JUMP JUMPDEST PUSH2 0x15F3 DUP2 PUSH2 0x12C3 JUMP JUMPDEST DUP2 EQ PUSH2 0x15FD JUMPI PUSH0 DUP1 REVERT JUMPDEST POP JUMP JUMPDEST PUSH0 DUP2 CALLDATALOAD SWAP1 POP PUSH2 0x160E DUP2 PUSH2 0x15EA JUMP JUMPDEST SWAP3 SWAP2 POP POP JUMP JUMPDEST PUSH0 DUP2 ISZERO ISZERO SWAP1 POP SWAP2 SWAP1 POP JUMP JUMPDEST PUSH2 0x1628 DUP2 PUSH2 0x1614 JUMP JUMPDEST DUP2 EQ PUSH2 0x1632 JUMPI PUSH0 DUP1 REVERT JUMPDEST POP JUMP JUMPDEST PUSH0 DUP2 CALLDATALOAD SWAP1 POP PUSH2 0x1643 DUP2 PUSH2 0x161F JUMP JUMPDEST SWAP3 SWAP2 POP POP JUMP JUMPDEST PUSH0 DUP1 PUSH0 PUSH1 0x60 DUP5 DUP7 SUB SLT ISZERO PUSH2 0x1660 JUMPI PUSH2 0x165F PUSH2 0x11C6 JUMP JUMPDEST JUMPDEST PUSH0 PUSH2 0x166D DUP7 DUP3 DUP8 ADD PUSH2 0x1214 JUMP JUMPDEST SWAP4 POP POP PUSH1 0x20 PUSH2 0x167E DUP7 DUP3 DUP8 ADD PUSH2 0x1600 JUMP JUMPDEST SWAP3 POP POP PUSH1 0x40 PUSH2 0x168F DUP7 DUP3 DUP8 ADD PUSH2 0x1635 JUMP JUMPDEST SWAP2 POP POP SWAP3 POP SWAP3 POP SWAP3 JUMP JUMPDEST PUSH32 0x4E6F7420617574686F72697A6564000000000000000000000000000000000000 PUSH0 DUP3 ADD MSTORE POP JUMP JUMPDEST PUSH0 PUSH2 0x16CD PUSH1 0xE DUP4 PUSH2 0x125D JUMP JUMPDEST SWAP2 POP PUSH2 0x16D8 DUP3 PUSH2 0x1699 JUMP JUMPDEST PUSH1 0x20 DUP3 ADD SWAP1 POP SWAP2 SWAP1 POP JUMP JUMPDEST PUSH0 PUSH1 0x20 DUP3 ADD SWAP1 POP DUP2 DUP2 SUB PUSH0 DUP4 ADD MSTORE PUSH2 0x16FA DUP2 PUSH2 0x16C1 JUMP JUMPDEST SWAP1 POP SWAP2 SWAP1 POP JUMP JUMPDEST PUSH32 0x5573657220646F6573206E6F7420657869737400000000000000000000000000 PUSH0 DUP3 ADD MSTORE POP JUMP JUMPDEST PUSH0 PUSH2 0x1735 PUSH1 0x13 DUP4 PUSH2 0x125D JUMP JUMPDEST SWAP2 POP PUSH2 0x1740 DUP3 PUSH2 0x1701 JUMP JUMPDEST PUSH1 0x20 DUP3 ADD SWAP1 POP SWAP2 SWAP1 POP JUMP JUMPDEST PUSH0 PUSH1 0x20 DUP3 ADD SWAP1 POP DUP2 DUP2 SUB PUSH0 DUP4 ADD MSTORE PUSH2 0x1762 DUP2 PUSH2 0x1729 JUMP JUMPDEST SWAP1 POP SWAP2 SWAP1 POP JUMP JUMPDEST PUSH32 0x4E487B7100000000000000000000000000000000000000000000000000000000 PUSH0 MSTORE PUSH1 0x22 PUSH1 0x4 MSTORE PUSH1 0x24 PUSH0 REVERT JUMPDEST PUSH0 PUSH1 0x2 DUP3 DIV SWAP1 POP PUSH1 0x1 DUP3 AND DUP1 PUSH2 0x17AD JUMPI PUSH1 0x7F DUP3 AND SWAP2 POP JUMPDEST PUSH1 0x20 DUP3 LT DUP2 SUB PUSH2 0x17C0 JUMPI PUSH2 0x17BF PUSH2 0x1769 JUMP JUMPDEST JUMPDEST POP SWAP2 SWAP1 POP JUMP JUMPDEST PUSH32 0x5573657220616C72656164792065786973747300000000000000000000000000 PUSH0 DUP3 ADD MSTORE POP JUMP JUMPDEST PUSH0 PUSH2 0x17FA PUSH1 0x13 DUP4 PUSH2 0x125D JUMP JUMPDEST SWAP2 POP PUSH2 0x1805 DUP3 PUSH2 0x17C6 JUMP JUMPDEST PUSH1 0x20 DUP3 ADD SWAP1 POP SWAP2 SWAP1 POP JUMP JUMPDEST PUSH0 PUSH1 0x20 DUP3 ADD SWAP1 POP DUP2 DUP2 SUB PUSH0 DUP4 ADD MSTORE PUSH2 0x1827 DUP2 PUSH2 0x17EE JUMP JUMPDEST SWAP1 POP SWAP2 SWAP1 POP JUMP JUMPDEST PUSH0 DUP2 SWAP1 POP DUP2 PUSH0 MSTORE PUSH1 0x20 PUSH0 KECCAK256 SWAP1 POP SWAP2 SWAP1 POP JUMP JUMPDEST PUSH0 PUSH1 0x20 PUSH1 0x1F DUP4 ADD DIV SWAP1 POP SWAP2 SWAP1 POP JUMP JUMPDEST PUSH0 DUP3 DUP3 SHL SWAP1 POP SWAP3 SWAP2 POP POP JUMP JUMPDEST PUSH0 PUSH1 0x8 DUP4 MUL PUSH2 0x188A PUSH32 0xFFFFFFFFFFFFFFFFFFFFFFFFFFFFFFFFFFFFFFFFFFFFFFFFFFFFFFFFFFFFFFFF DUP3 PUSH2 0x184F JUMP JUMPDEST PUSH2 0x1894 DUP7 DUP4 PUSH2 0x184F JUMP JUMPDEST SWAP6 POP DUP1 NOT DUP5 AND SWAP4 POP DUP1 DUP7 AND DUP5 OR SWAP3 POP POP POP SWAP4 SWAP3 POP POP POP JUMP JUMPDEST PUSH0 DUP2 SWAP1 POP SWAP2 SWAP1 POP JUMP JUMPDEST PUSH0 PUSH2 0x18CF PUSH2 0x18CA PUSH2 0x18C5 DUP5 PUSH2 0x12C3 JUMP JUMPDEST PUSH2 0x18AC JUMP JUMPDEST PUSH2 0x12C3 JUMP JUMPDEST SWAP1 POP SWAP2 SWAP1 POP JUMP JUMPDEST PUSH0 DUP2 SWAP1 POP SWAP2 SWAP1 POP JUMP JUMPDEST PUSH2 0x18E8 DUP4 PUSH2 0x18B5 JUMP JUMPDEST PUSH2 0x18FC PUSH2 0x18F4 DUP3 PUSH2 0x18D6 JUMP JUMPDEST DUP5 DUP5 SLOAD PUSH2 0x185B JUMP JUMPDEST DUP3 SSTORE POP POP POP POP JUMP JUMPDEST PUSH0 SWAP1 JUMP JUMPDEST PUSH2 0x1910 PUSH2 0x1904 JUMP JUMPDEST PUSH2 0x191B DUP2 DUP5 DUP5 PUSH2 0x18DF JUMP JUMPDEST POP POP POP JUMP JUMPDEST JUMPDEST DUP2 DUP2 LT ISZERO PUSH2 0x193E JUMPI PUSH2 0x1933 PUSH0 DUP3 PUSH2 0x1908 JUMP JUMPDEST PUSH1 0x1 DUP2 ADD SWAP1 POP PUSH2 0x1921 JUMP JUMPDEST POP POP JUMP JUMPDEST PUSH1 0x1F DUP3 GT ISZERO PUSH2 0x1983 JUMPI PUSH2 0x1954 DUP2 PUSH2 0x182E JUMP JUMPDEST PUSH2 0x195D DUP5 PUSH2 0x1840 JUMP JUMPDEST DUP2 ADD PUSH1 0x20 DUP6 LT ISZERO PUSH2 0x196C JUMPI DUP2 SWAP1 POP JUMPDEST PUSH2 0x1980 PUSH2 0x1978 DUP6 PUSH2 0x1840 JUMP JUMPDEST DUP4 ADD DUP3 PUSH2 0x1920 JUMP JUMPDEST POP POP JUMPDEST POP POP POP JUMP JUMPDEST PUSH0 DUP3 DUP3 SHR SWAP1 POP SWAP3 SWAP2 POP POP JUMP JUMPDEST PUSH0 PUSH2 0x19A3 PUSH0 NOT DUP5 PUSH1 0x8 MUL PUSH2 0x1988 JUMP JUMPDEST NOT DUP1 DUP4 AND SWAP2 POP POP SWAP3 SWAP2 POP POP JUMP JUMPDEST PUSH0 PUSH2 0x19BB DUP4 DUP4 PUSH2 0x1994 JUMP JUMPDEST SWAP2 POP DUP3 PUSH1 0x2 MUL DUP3 OR SWAP1 POP SWAP3 SWAP2 POP POP JUMP JUMPDEST PUSH2 0x19D4 DUP3 PUSH2 0x1253 JUMP JUMPDEST PUSH8 0xFFFFFFFFFFFFFFFF DUP2 GT ISZERO PUSH2 0x19ED JUMPI PUSH2 0x19EC PUSH2 0x13B1 JUMP JUMPDEST JUMPDEST PUSH2 0x19F7 DUP3 SLOAD PUSH2 0x1796 JUMP JUMPDEST PUSH2 0x1A02 DUP3 DUP3 DUP6 PUSH2 0x1942 JUMP JUMPDEST PUSH0 PUSH1 0x20 SWAP1 POP PUSH1 0x1F DUP4 GT PUSH1 0x1 DUP2 EQ PUSH2 0x1A33 JUMPI PUSH0 DUP5 ISZERO PUSH2 0x1A21 JUMPI DUP3 DUP8 ADD MLOAD SWAP1 POP JUMPDEST PUSH2 0x1A2B DUP6 DUP3 PUSH2 0x19B0 JUMP JUMPDEST DUP7 SSTORE POP PUSH2 0x1A92 JUMP JUMPDEST PUSH1 0x1F NOT DUP5 AND PUSH2 0x1A41 DUP7 PUSH2 0x182E JUMP JUMPDEST PUSH0 JUMPDEST DUP3 DUP2 LT ISZERO PUSH2 0x1A68 JUMPI DUP5 DUP10 ADD MLOAD DUP3 SSTORE PUSH1 0x1 DUP3 ADD SWAP2 POP PUSH1 0x20 DUP6 ADD SWAP5 POP PUSH1 0x20 DUP2 ADD SWAP1 POP PUSH2 0x1A43 JUMP JUMPDEST DUP7 DUP4 LT ISZERO PUSH2 0x1A85 JUMPI DUP5 DUP10 ADD MLOAD PUSH2 0x1A81 PUSH1 0x1F DUP10 AND DUP3 PUSH2 0x1994 JUMP JUMPDEST DUP4 SSTORE POP JUMPDEST PUSH1 0x1 PUSH1 0x2 DUP9 MUL ADD DUP9 SSTORE POP POP POP JUMPDEST POP POP POP POP POP POP JUMP JUMPDEST PUSH0 PUSH1 0x20 DUP3 ADD SWAP1 POP DUP2 DUP2 SUB PUSH0 DUP4 ADD MSTORE PUSH2 0x1AB2 DUP2 DUP5 PUSH2 0x128B JUMP JUMPDEST SWAP1 POP SWAP3 SWAP2 POP POP JUMP JUMPDEST PUSH32 0x4E487B7100000000000000000000000000000000000000000000000000000000 PUSH0 MSTORE PUSH1 0x11 PUSH1 0x4 MSTORE PUSH1 0x24 PUSH0 REVERT JUMPDEST PUSH0 PUSH2 0x1AF1 DUP3 PUSH2 0x12C3 JUMP JUMPDEST SWAP2 POP PUSH2 0x1AFC DUP4 PUSH2 0x12C3 JUMP JUMPDEST SWAP3 POP DUP3 DUP3 ADD SWAP1 POP DUP1 DUP3 GT ISZERO PUSH2 0x1B14 JUMPI PUSH2 0x1B13 PUSH2 0x1ABA JUMP JUMPDEST JUMPDEST SWAP3 SWAP2 POP POP JUMP JUMPDEST PUSH32 0x496E73756666696369656E7420706F696E747300000000000000000000000000 PUSH0 DUP3 ADD MSTORE POP JUMP JUMPDEST PUSH0 PUSH2 0x1B4E PUSH1 0x13 DUP4 PUSH2 0x125D JUMP JUMPDEST SWAP2 POP PUSH2 0x1B59 DUP3 PUSH2 0x1B1A JUMP JUMPDEST PUSH1 0x20 DUP3 ADD SWAP1 POP SWAP2 SWAP1 POP JUMP JUMPDEST PUSH0 PUSH1 0x20 DUP3 ADD SWAP1 POP DUP2 DUP2 SUB PUSH0 DUP4 ADD MSTORE PUSH2 0x1B7B DUP2 PUSH2 0x1B42 JUMP JUMPDEST SWAP1 POP SWAP2 SWAP1 POP JUMP JUMPDEST PUSH0 PUSH2 0x1B8C DUP3 PUSH2 0x12C3 JUMP JUMPDEST SWAP2 POP PUSH2 0x1B97 DUP4 PUSH2 0x12C3 JUMP JUMPDEST SWAP3 POP DUP3 DUP3 SUB SWAP1 POP DUP2 DUP2 GT ISZERO PUSH2 0x1BAF JUMPI PUSH2 0x1BAE PUSH2 0x1ABA JUMP JUMPDEST JUMPDEST SWAP3 SWAP2 POP POP JUMP JUMPDEST PUSH0 PUSH1 0x40 DUP3 ADD SWAP1 POP PUSH2 0x1BC8 PUSH0 DUP4 ADD DUP6 PUSH2 0x12CC JUMP JUMPDEST PUSH2 0x1BD5 PUSH1 0x20 DUP4 ADD DUP5 PUSH2 0x12CC JUMP JUMPDEST SWAP4 SWAP3 POP POP POP JUMP JUMPDEST PUSH0 DUP2 SLOAD PUSH2 0x1BE8 DUP2 PUSH2 0x1796 JUMP JUMPDEST PUSH2 0x1BF2 DUP2 DUP7 PUSH2 0x125D JUMP JUMPDEST SWAP5 POP PUSH1 0x1 DUP3 AND PUSH0 DUP2 EQ PUSH2 0x1C0C JUMPI PUSH1 0x1 DUP2 EQ PUSH2 0x1C22 JUMPI PUSH2 0x1C54 JUMP JUMPDEST PUSH1 0xFF NOT DUP4 AND DUP7 MSTORE DUP2 ISZERO ISZERO PUSH1 0x20 MUL DUP7 ADD SWAP4 POP PUSH2 0x1C54 JUMP JUMPDEST PUSH2 0x1C2B DUP6 PUSH2 0x182E JUMP JUMPDEST PUSH0 JUMPDEST DUP4 DUP2 LT ISZERO PUSH2 0x1C4C JUMPI DUP2 SLOAD DUP2 DUP10 ADD MSTORE PUSH1 0x1 DUP3 ADD SWAP2 POP PUSH1 0x20 DUP2 ADD SWAP1 POP PUSH2 0x1C2D JUMP JUMPDEST DUP1 DUP9 ADD SWAP6 POP POP POP JUMPDEST POP POP POP SWAP3 SWAP2 POP POP JUMP JUMPDEST PUSH0 PUSH1 0x20 DUP3 ADD SWAP1 POP DUP2 DUP2 SUB PUSH0 DUP4 ADD MSTORE PUSH2 0x1C75 DUP2 DUP5 PUSH2 0x1BDC JUMP JUMPDEST SWAP1 POP SWAP3 SWAP2 POP POP JUMP INVALID LOG2 PUSH5 0x6970667358 0x22 SLT KECCAK256 0x24 0xCC 0xC5 STATICCALL PUSH6 0x283BBC3BB40A MSIZE 0xD1 0xEB RETURNDATASIZE 0xCE 0xE0 0xEE PUSH10 0xBD64009DF0480F4AE48A 0xC5 PUSH17 0xB164736F6C634300081A00330000000000 "
				},
				"gasEstimates": {
					"creation": {
						"codeDepositCost": "1469400",
						"executionCost": "25797",
						"totalCost": "1495197"
					},
					"external": {
						"createUser(address,string,string,string,string,string)": "infinite",
						"deleteUser(address)": "infinite",
						"getUser(address)": "infinite",
						"owner()": "2527",
						"updatePoints(address,uint256,bool)": "infinite"
					},
					"internal": {
						"updateUserTier(address)": "infinite"
					}
				},
				"methodIdentifiers": {
					"createUser(address,string,string,string,string,string)": "a377d18f",
					"deleteUser(address)": "5c60f226",
					"getUser(address)": "6f77926b",
					"owner()": "8da5cb5b",
					"updatePoints(address,uint256,bool)": "c2bb5e13"
				}
			},
			"storageLayout": {
				"storage": [
					{
						"astId": 3,
						"contract": "src/services/PointlyUser.sol:PointlyUser",
						"label": "owner",
						"offset": 0,
						"slot": "0",
						"type": "t_address"
					},
					{
						"astId": 27,
						"contract": "src/services/PointlyUser.sol:PointlyUser",
						"label": "users",
						"offset": 0,
						"slot": "1",
						"type": "t_mapping(t_address,t_struct(User)22_storage)"
					}
				],
				"types": {
					"t_address": {
						"encoding": "inplace",
						"label": "address",
						"numberOfBytes": "20"
					},
					"t_bool": {
						"encoding": "inplace",
						"label": "bool",
						"numberOfBytes": "1"
					},
					"t_mapping(t_address,t_struct(User)22_storage)": {
						"encoding": "mapping",
						"key": "t_address",
						"label": "mapping(address => struct PointlyUser.User)",
						"numberOfBytes": "32",
						"value": "t_struct(User)22_storage"
					},
					"t_string_storage": {
						"encoding": "bytes",
						"label": "string",
						"numberOfBytes": "32"
					},
					"t_struct(User)22_storage": {
						"encoding": "inplace",
						"label": "struct PointlyUser.User",
						"members": [
							{
								"astId": 5,
								"contract": "src/services/PointlyUser.sol:PointlyUser",
								"label": "email",
								"offset": 0,
								"slot": "0",
								"type": "t_string_storage"
							},
							{
								"astId": 7,
								"contract": "src/services/PointlyUser.sol:PointlyUser",
								"label": "name",
								"offset": 0,
								"slot": "1",
								"type": "t_string_storage"
							},
							{
								"astId": 9,
								"contract": "src/services/PointlyUser.sol:PointlyUser",
								"label": "phone",
								"offset": 0,
								"slot": "2",
								"type": "t_string_storage"
							},
							{
								"astId": 11,
								"contract": "src/services/PointlyUser.sol:PointlyUser",
								"label": "addressDetails",
								"offset": 0,
								"slot": "3",
								"type": "t_string_storage"
							},
							{
								"astId": 13,
								"contract": "src/services/PointlyUser.sol:PointlyUser",
								"label": "profileImage",
								"offset": 0,
								"slot": "4",
								"type": "t_string_storage"
							},
							{
								"astId": 15,
								"contract": "src/services/PointlyUser.sol:PointlyUser",
								"label": "tier",
								"offset": 0,
								"slot": "5",
								"type": "t_string_storage"
							},
							{
								"astId": 17,
								"contract": "src/services/PointlyUser.sol:PointlyUser",
								"label": "totalPoints",
								"offset": 0,
								"slot": "6",
								"type": "t_uint256"
							},
							{
								"astId": 19,
								"contract": "src/services/PointlyUser.sol:PointlyUser",
								"label": "availablePoints",
								"offset": 0,
								"slot": "7",
								"type": "t_uint256"
							},
							{
								"astId": 21,
								"contract": "src/services/PointlyUser.sol:PointlyUser",
								"label": "exists",
								"offset": 0,
								"slot": "8",
								"type": "t_bool"
							}
						],
						"numberOfBytes": "288"
					},
					"t_uint256": {
						"encoding": "inplace",
						"label": "uint256",
						"numberOfBytes": "32"
					}
				}
			},
			"userdoc": {
				"kind": "user",
				"methods": {},
				"version": 1
			}
		}
	}
}