{
  "contractName": "PointlyVendor",
  "abi": [
    {
      "inputs": [],
      "stateMutability": "nonpayable",
      "type": "constructor"
    },
    {
      "anonymous": false,
      "inputs": [
        {
          "indexed": true,
          "internalType": "address",
          "name": "vendorAddress",
          "type": "address"
        }
      ],
      "name": "VendorDeleted",
      "type": "event"
    },
    {
      "anonymous": false,
      "inputs": [
        {
          "indexed": true,
          "internalType": "address",
          "name": "vendorAddress",
          "type": "address"
        },
        {
          "indexed": false,
          "internalType": "uint256",
          "name": "totalRedemptions",
          "type": "uint256"
        },
        {
          "indexed": false,
          "internalType": "uint256",
          "name": "activePromotions",
          "type": "uint256"
        },
        {
          "indexed": false,
          "internalType": "uint256",
          "name": "revenueGenerated",
          "type": "uint256"
        },
        {
          "indexed": false,
          "internalType": "uint256",
          "name": "upcomingPromotions",
          "type": "uint256"
        }
      ],
      "name": "VendorMetricsUpdated",
      "type": "event"
    },
    {
      "anonymous": false,
      "inputs": [
        {
          "indexed": true,
          "internalType": "address",
          "name": "vendorAddress",
          "type": "address"
        }
      ],
      "name": "VendorRegistered",
      "type": "event"
    },
    {
      "inputs": [],
      "name": "owner",
      "outputs": [
        {
          "internalType": "address",
          "name": "",
          "type": "address"
        }
      ],
      "stateMutability": "view",
      "type": "function",
      "constant": true
    },
    {
      "inputs": [],
      "name": "createVendor",
      "outputs": [],
      "stateMutability": "nonpayable",
      "type": "function"
    },
    {
      "inputs": [
        {
          "internalType": "address",
          "name": "vendorAddress",
          "type": "address"
        }
      ],
      "name": "getVendor",
      "outputs": [
        {
          "internalType": "uint256",
          "name": "totalRedemptions",
          "type": "uint256"
        },
        {
          "internalType": "uint256",
          "name": "activePromotions",
          "type": "uint256"
        },
        {
          "internalType": "uint256",
          "name": "revenueGenerated",
          "type": "uint256"
        },
        {
          "internalType": "uint256",
          "name": "upcomingPromotions",
          "type": "uint256"
        },
        {
          "internalType": "bool",
          "name": "exists",
          "type": "bool"
        }
      ],
      "stateMutability": "view",
      "type": "function",
      "constant": true
    },
    {
      "inputs": [
        {
          "internalType": "address",
          "name": "vendorAddress",
          "type": "address"
        },
        {
          "internalType": "uint256",
          "name": "redemptions",
          "type": "uint256"
        },
        {
          "internalType": "uint256",
          "name": "promotionsActive",
          "type": "uint256"
        },
        {
          "internalType": "uint256",
          "name": "revenue",
          "type": "uint256"
        },
        {
          "internalType": "uint256",
          "name": "promotionsUpcoming",
          "type": "uint256"
        }
      ],
      "name": "updateMetrics",
      "outputs": [],
      "stateMutability": "nonpayable",
      "type": "function"
    },
    {
      "inputs": [],
      "name": "deleteVendor",
      "outputs": [],
      "stateMutability": "nonpayable",
      "type": "function"
    }
  ],
  "bytecode": "0x608060405234801561001057600080fd5b50336000806101000a81548173ffffffffffffffffffffffffffffffffffffffff021916908373ffffffffffffffffffffffffffffffffffffffff160217905550610a66806100606000396000f3fe608060405234801561001057600080fd5b50600436106100575760003560e01c80630bc0f7d31461005c578063596d0e7f146100905780638da5cb5b1461009a578063b1d9623e146100b8578063e41f6e5f146100c2575b600080fd5b610076600480360381019061007191906106e4565b6100de565b6040516100879594939291906108d1565b60405180910390f35b610098610235565b005b6100a26103c2565b6040516100af9190610831565b60405180910390f35b6100c06103e6565b005b6100dc60048036038101906100d7919061070d565b610532565b005b600080600080600085600160008273ffffffffffffffffffffffffffffffffffffffff1673ffffffffffffffffffffffffffffffffffffffff16815260200190815260200160002060040160009054906101000a900460ff16610176576040517f08c379a000000000000000000000000000000000000000000000000000000000815260040161016d9061086c565b60405180910390fd5b6000600160008973ffffffffffffffffffffffffffffffffffffffff1673ffffffffffffffffffffffffffffffffffffffff1681526020019081526020016000206040518060a0016040529081600082015481526020016001820154815260200160028201548152602001600382015481526020016004820160009054906101000a900460ff16151515158152505090508060000151816020015182604001518360600151846080015196509650965096509650505091939590929450565b600160003373ffffffffffffffffffffffffffffffffffffffff1673ffffffffffffffffffffffffffffffffffffffff16815260200190815260200160002060040160009054906101000a900460ff16156102c5576040517f08c379a00000000000000000000000000000000000000000000000000000000081526004016102bc9061084c565b60405180910390fd5b6040518060a001604052806000815260200160008152602001600081526020016000815260200160011515815250600160003373ffffffffffffffffffffffffffffffffffffffff1673ffffffffffffffffffffffffffffffffffffffff1681526020019081526020016000206000820151816000015560208201518160010155604082015181600201556060820151816003015560808201518160040160006101000a81548160ff0219169083151502179055509050503373ffffffffffffffffffffffffffffffffffffffff167f6b151c6084a25b1831f4322980152980cbe16e87815c95af76a1ef3b1255ec4860405160405180910390a2565b60008054906101000a900473ffffffffffffffffffffffffffffffffffffffff1681565b33600160008273ffffffffffffffffffffffffffffffffffffffff1673ffffffffffffffffffffffffffffffffffffffff16815260200190815260200160002060040160009054906101000a900460ff16610476576040517f08c379a000000000000000000000000000000000000000000000000000000000815260040161046d9061086c565b60405180910390fd5b600160003373ffffffffffffffffffffffffffffffffffffffff1673ffffffffffffffffffffffffffffffffffffffff1681526020019081526020016000206000808201600090556001820160009055600282016000905560038201600090556004820160006101000a81549060ff021916905550503373ffffffffffffffffffffffffffffffffffffffff167f8e1ba5b5d6368527b17f562115dc224926c2d54dbac11baff342d96caa5b428f60405160405180910390a250565b84600160008273ffffffffffffffffffffffffffffffffffffffff1673ffffffffffffffffffffffffffffffffffffffff16815260200190815260200160002060040160009054906101000a900460ff166105c2576040517f08c379a00000000000000000000000000000000000000000000000000000000081526004016105b99061086c565b60405180910390fd5b6000600160008873ffffffffffffffffffffffffffffffffffffffff1673ffffffffffffffffffffffffffffffffffffffff1681526020019081526020016000209050858160000160008282546106199190610935565b925050819055508481600101819055508381600201600082825461063d9190610935565b925050819055508281600301819055508673ffffffffffffffffffffffffffffffffffffffff167faf9edbc36240c0b05a318c659eeeac69017c16ed9b98c1b1d96b478e9233d17182600001548360010154846002015485600301546040516106a9949392919061088c565b60405180910390a250505050505050565b6000813590506106c981610a02565b92915050565b6000813590506106de81610a19565b92915050565b6000602082840312156106f657600080fd5b6000610704848285016106ba565b91505092915050565b600080600080600060a0868803121561072557600080fd5b6000610733888289016106ba565b9550506020610744888289016106cf565b9450506040610755888289016106cf565b9350506060610766888289016106cf565b9250506080610777888289016106cf565b9150509295509295909350565b61078d8161098b565b82525050565b61079c8161099d565b82525050565b60006107af601983610924565b91507f56656e646f7220616c72656164792072656769737465726564000000000000006000830152602082019050919050565b60006107ef601583610924565b91507f56656e646f7220646f6573206e6f7420657869737400000000000000000000006000830152602082019050919050565b61082b816109c9565b82525050565b60006020820190506108466000830184610784565b92915050565b60006020820190508181036000830152610865816107a2565b9050919050565b60006020820190508181036000830152610885816107e2565b9050919050565b60006080820190506108a16000830187610822565b6108ae6020830186610822565b6108bb6040830185610822565b6108c86060830184610822565b95945050505050565b600060a0820190506108e66000830188610822565b6108f36020830187610822565b6109006040830186610822565b61090d6060830185610822565b61091a6080830184610793565b9695505050505050565b600082825260208201905092915050565b6000610940826109c9565b915061094b836109c9565b9250827fffffffffffffffffffffffffffffffffffffffffffffffffffffffffffffffff038211156109805761097f6109d3565b5b828201905092915050565b6000610996826109a9565b9050919050565b60008115159050919050565b600073ffffffffffffffffffffffffffffffffffffffff82169050919050565b6000819050919050565b7f4e487b7100000000000000000000000000000000000000000000000000000000600052601160045260246000fd5b610a0b8161098b565b8114610a1657600080fd5b50565b610a22816109c9565b8114610a2d57600080fd5b5056fea26469706673582212203c542f5b0418ebbc10946171d804caa84f6eb48fb7abda6cafc5cf444dbd68be64736f6c63430008000033",
  "immutableReferences": {},
  "source": "// SPDX-License-Identifier: MIT\r\npragma solidity ^0.8.0;\r\n\r\ncontract PointlyVendor {\r\n    // Owner of the contract (platform admin)\r\n    address public owner;\r\n\r\n    // Vendor structure for storing vendor metrics\r\n    struct Vendor {\r\n        uint256 totalRedemptions;\r\n        uint256 activePromotions;\r\n        uint256 revenueGenerated;\r\n        uint256 upcomingPromotions;\r\n        bool exists; // To check if a vendor exists\r\n    }\r\n\r\n    // Mapping of addresses to vendors\r\n    mapping(address => Vendor) private vendors;\r\n\r\n    // Events for logging actions\r\n    event VendorRegistered(address indexed vendorAddress);\r\n    event VendorMetricsUpdated(\r\n        address indexed vendorAddress,\r\n        uint256 totalRedemptions,\r\n        uint256 activePromotions,\r\n        uint256 revenueGenerated,\r\n        uint256 upcomingPromotions\r\n    );\r\n    event VendorDeleted(address indexed vendorAddress);\r\n\r\n    // Constructor to initialize the contract owner\r\n    constructor() {\r\n        owner = msg.sender; // Assign contract deployer as owner\r\n    }\r\n\r\n    // Modifier to check if the vendor exists\r\n    modifier vendorExists(address vendorAddress) {\r\n        require(vendors[vendorAddress].exists, \"Vendor does not exist\");\r\n        _;\r\n    }\r\n\r\n    // Function to register a new vendor\r\n    function createVendor() public {\r\n        require(!vendors[msg.sender].exists, \"Vendor already registered\");\r\n\r\n        vendors[msg.sender] = Vendor({\r\n            totalRedemptions: 0,\r\n            activePromotions: 0,\r\n            revenueGenerated: 0,\r\n            upcomingPromotions: 0,\r\n            exists: true\r\n        });\r\n\r\n        emit VendorRegistered(msg.sender);\r\n    }\r\n\r\n    // Function to get vendor metrics\r\n    function getVendor(address vendorAddress)\r\n        public\r\n        view\r\n        vendorExists(vendorAddress)\r\n        returns (\r\n            uint256 totalRedemptions,\r\n            uint256 activePromotions,\r\n            uint256 revenueGenerated,\r\n            uint256 upcomingPromotions,\r\n            bool exists\r\n        )\r\n    {\r\n        Vendor memory vendor = vendors[vendorAddress];\r\n        return (\r\n            vendor.totalRedemptions,\r\n            vendor.activePromotions,\r\n            vendor.revenueGenerated,\r\n            vendor.upcomingPromotions,\r\n            vendor.exists\r\n        );\r\n    }\r\n\r\n    // Function to update vendor metrics\r\n    function updateMetrics(\r\n        address vendorAddress,\r\n        uint256 redemptions,\r\n        uint256 promotionsActive,\r\n        uint256 revenue,\r\n        uint256 promotionsUpcoming\r\n    ) public vendorExists(vendorAddress) {\r\n        Vendor storage vendor = vendors[vendorAddress];\r\n\r\n        vendor.totalRedemptions += redemptions;\r\n        vendor.activePromotions = promotionsActive;\r\n        vendor.revenueGenerated += revenue;\r\n        vendor.upcomingPromotions = promotionsUpcoming;\r\n\r\n        emit VendorMetricsUpdated(\r\n            vendorAddress,\r\n            vendor.totalRedemptions,\r\n            vendor.activePromotions,\r\n            vendor.revenueGenerated,\r\n            vendor.upcomingPromotions\r\n        );\r\n    }\r\n\r\n    // Function to delete a vendor\r\n    function deleteVendor() public vendorExists(msg.sender) {\r\n        delete vendors[msg.sender];\r\n        emit VendorDeleted(msg.sender);\r\n    }\r\n}\r\n",
  "sourcePath": "C:\\Users\\azriy\\Pointly-Blockchain\\contracts\\PointlyVendor.sol",
  "compiler": {
    "name": "solc",
    "version": "0.8.0+commit.c7dfd78e.Emscripten.clang"
  },
  "schemaVersion": "3.4.16",
  "updatedAt": "2025-01-20T05:39:58.078Z",
  "networkType": "ethereum",
  "devdoc": {
    "kind": "dev",
    "methods": {},
    "version": 1
  },
  "userdoc": {
    "kind": "user",
    "methods": {},
    "version": 1
  }
}