{
  "contractName": "PointlyUser",
  "abi": [
    {
      "inputs": [],
      "stateMutability": "nonpayable",
      "type": "constructor"
    },
    {
      "anonymous": false,
      "inputs": [
        {
          "indexed": true,
          "internalType": "address",
          "name": "userAddress",
          "type": "address"
        },
        {
          "indexed": false,
          "internalType": "uint256",
          "name": "newTotalPoints",
          "type": "uint256"
        },
        {
          "indexed": false,
          "internalType": "uint256",
          "name": "newAvailablePoints",
          "type": "uint256"
        }
      ],
      "name": "PointsUpdated",
      "type": "event"
    },
    {
      "anonymous": false,
      "inputs": [
        {
          "indexed": true,
          "internalType": "address",
          "name": "userAddress",
          "type": "address"
        },
        {
          "indexed": false,
          "internalType": "string",
          "name": "newRole",
          "type": "string"
        }
      ],
      "name": "RoleUpdated",
      "type": "event"
    },
    {
      "anonymous": false,
      "inputs": [
        {
          "indexed": true,
          "internalType": "address",
          "name": "userAddress",
          "type": "address"
        },
        {
          "indexed": false,
          "internalType": "string",
          "name": "newTier",
          "type": "string"
        }
      ],
      "name": "TierUpdated",
      "type": "event"
    },
    {
      "anonymous": false,
      "inputs": [
        {
          "indexed": true,
          "internalType": "address",
          "name": "userAddress",
          "type": "address"
        },
        {
          "indexed": false,
          "internalType": "string",
          "name": "name",
          "type": "string"
        },
        {
          "indexed": false,
          "internalType": "string",
          "name": "role",
          "type": "string"
        }
      ],
      "name": "UserCreated",
      "type": "event"
    },
    {
      "anonymous": false,
      "inputs": [
        {
          "indexed": true,
          "internalType": "address",
          "name": "userAddress",
          "type": "address"
        }
      ],
      "name": "UserDeleted",
      "type": "event"
    },
    {
      "inputs": [],
      "name": "owner",
      "outputs": [
        {
          "internalType": "address",
          "name": "",
          "type": "address"
        }
      ],
      "stateMutability": "view",
      "type": "function",
      "constant": true
    },
    {
      "inputs": [
        {
          "internalType": "string",
          "name": "email",
          "type": "string"
        },
        {
          "internalType": "string",
          "name": "name",
          "type": "string"
        },
        {
          "internalType": "string",
          "name": "phone",
          "type": "string"
        },
        {
          "internalType": "string",
          "name": "addressDetails",
          "type": "string"
        },
        {
          "internalType": "string",
          "name": "profileImage",
          "type": "string"
        },
        {
          "internalType": "string",
          "name": "role",
          "type": "string"
        }
      ],
      "name": "createUser",
      "outputs": [],
      "stateMutability": "nonpayable",
      "type": "function"
    },
    {
      "inputs": [
        {
          "internalType": "address",
          "name": "userAddress",
          "type": "address"
        }
      ],
      "name": "getUser",
      "outputs": [
        {
          "internalType": "string",
          "name": "email",
          "type": "string"
        },
        {
          "internalType": "string",
          "name": "name",
          "type": "string"
        },
        {
          "internalType": "string",
          "name": "phone",
          "type": "string"
        },
        {
          "internalType": "string",
          "name": "addressDetails",
          "type": "string"
        },
        {
          "internalType": "string",
          "name": "profileImage",
          "type": "string"
        },
        {
          "internalType": "string",
          "name": "tier",
          "type": "string"
        },
        {
          "internalType": "uint256",
          "name": "totalPoints",
          "type": "uint256"
        },
        {
          "internalType": "uint256",
          "name": "availablePoints",
          "type": "uint256"
        },
        {
          "internalType": "string",
          "name": "role",
          "type": "string"
        },
        {
          "internalType": "bool",
          "name": "exists",
          "type": "bool"
        }
      ],
      "stateMutability": "view",
      "type": "function",
      "constant": true
    },
    {
      "inputs": [
        {
          "internalType": "address",
          "name": "userAddress",
          "type": "address"
        },
        {
          "internalType": "uint256",
          "name": "points",
          "type": "uint256"
        },
        {
          "internalType": "bool",
          "name": "isAddition",
          "type": "bool"
        }
      ],
      "name": "updatePoints",
      "outputs": [],
      "stateMutability": "nonpayable",
      "type": "function"
    },
    {
      "inputs": [
        {
          "internalType": "address",
          "name": "userAddress",
          "type": "address"
        },
        {
          "internalType": "string",
          "name": "newRole",
          "type": "string"
        }
      ],
      "name": "updateRole",
      "outputs": [],
      "stateMutability": "nonpayable",
      "type": "function"
    },
    {
      "inputs": [],
      "name": "deleteUser",
      "outputs": [],
      "stateMutability": "nonpayable",
      "type": "function"
    }
  ],
  "bytecode": "0x608060405234801561001057600080fd5b50336000806101000a81548173ffffffffffffffffffffffffffffffffffffffff021916908373ffffffffffffffffffffffffffffffffffffffff160217905550611c74806100606000396000f3fe608060405234801561001057600080fd5b50600436106100625760003560e01c806301dadb2b14610067578063026ff05e146100835780636f77926b1461008d578063775c6f40146100c65780638da5cb5b146100e2578063c2bb5e1314610100575b600080fd5b610081600480360381019061007c91906114d8565b61011c565b005b61008b6103c7565b005b6100a760048036038101906100a2919061140c565b610571565b6040516100bd9a9998979695949392919061180b565b60405180910390f35b6100e060048036038101906100db9190611435565b610ae2565b005b6100ea610c1a565b6040516100f79190611797565b60405180910390f35b61011a60048036038101906101159190611489565b610c3e565b005b600160003373ffffffffffffffffffffffffffffffffffffffff1673ffffffffffffffffffffffffffffffffffffffff16815260200190815260200160002060090160009054906101000a900460ff16156101ac576040517f08c379a00000000000000000000000000000000000000000000000000000000081526004016101a3906118fa565b60405180910390fd5b6040518061014001604052808781526020018681526020018581526020018481526020018381526020016040518060400160405280600681526020017f51756172747a00000000000000000000000000000000000000000000000000008152508152602001600081526020016000815260200182815260200160011515815250600160003373ffffffffffffffffffffffffffffffffffffffff1673ffffffffffffffffffffffffffffffffffffffff1681526020019081526020016000206000820151816000019080519060200190610287929190611282565b5060208201518160010190805190602001906102a4929190611282565b5060408201518160020190805190602001906102c1929190611282565b5060608201518160030190805190602001906102de929190611282565b5060808201518160040190805190602001906102fb929190611282565b5060a0820151816005019080519060200190610318929190611282565b5060c0820151816006015560e0820151816007015561010082015181600801908051906020019061034a929190611282565b506101208201518160090160006101000a81548160ff0219169083151502179055509050503373ffffffffffffffffffffffffffffffffffffffff167fa2e1d286e25c6fce64acccdfd7a54d53cce2f617ddff648ab1dbb3458ccdd95b86836040516103b79291906117d4565b60405180910390a2505050505050565b600160003373ffffffffffffffffffffffffffffffffffffffff1673ffffffffffffffffffffffffffffffffffffffff16815260200190815260200160002060090160009054906101000a900460ff16610456576040517f08c379a000000000000000000000000000000000000000000000000000000000815260040161044d9061191a565b60405180910390fd5b600160003373ffffffffffffffffffffffffffffffffffffffff1673ffffffffffffffffffffffffffffffffffffffff168152602001908152602001600020600080820160006104a69190611308565b6001820160006104b69190611308565b6002820160006104c69190611308565b6003820160006104d69190611308565b6004820160006104e69190611308565b6005820160006104f69190611308565b600682016000905560078201600090556008820160006105169190611308565b6009820160006101000a81549060ff021916905550503373ffffffffffffffffffffffffffffffffffffffff167f4bc56f1321288dfb5b416cb3a7fd188723979f9e866c91d88eccf7fca039d03960405160405180910390a2565b60608060608060608060008060606000600160008c73ffffffffffffffffffffffffffffffffffffffff1673ffffffffffffffffffffffffffffffffffffffff16815260200190815260200160002060090160009054906101000a900460ff16610610576040517f08c379a00000000000000000000000000000000000000000000000000000000081526004016106079061191a565b60405180910390fd5b6000600160008d73ffffffffffffffffffffffffffffffffffffffff1673ffffffffffffffffffffffffffffffffffffffff1681526020019081526020016000206040518061014001604052908160008201805461066d90611b29565b80601f016020809104026020016040519081016040528092919081815260200182805461069990611b29565b80156106e65780601f106106bb576101008083540402835291602001916106e6565b820191906000526020600020905b8154815290600101906020018083116106c957829003601f168201915b505050505081526020016001820180546106ff90611b29565b80601f016020809104026020016040519081016040528092919081815260200182805461072b90611b29565b80156107785780601f1061074d57610100808354040283529160200191610778565b820191906000526020600020905b81548152906001019060200180831161075b57829003601f168201915b5050505050815260200160028201805461079190611b29565b80601f01602080910402602001604051908101604052809291908181526020018280546107bd90611b29565b801561080a5780601f106107df5761010080835404028352916020019161080a565b820191906000526020600020905b8154815290600101906020018083116107ed57829003601f168201915b5050505050815260200160038201805461082390611b29565b80601f016020809104026020016040519081016040528092919081815260200182805461084f90611b29565b801561089c5780601f106108715761010080835404028352916020019161089c565b820191906000526020600020905b81548152906001019060200180831161087f57829003601f168201915b505050505081526020016004820180546108b590611b29565b80601f01602080910402602001604051908101604052809291908181526020018280546108e190611b29565b801561092e5780601f106109035761010080835404028352916020019161092e565b820191906000526020600020905b81548152906001019060200180831161091157829003601f168201915b5050505050815260200160058201805461094790611b29565b80601f016020809104026020016040519081016040528092919081815260200182805461097390611b29565b80156109c05780601f10610995576101008083540402835291602001916109c0565b820191906000526020600020905b8154815290600101906020018083116109a357829003601f168201915b5050505050815260200160068201548152602001600782015481526020016008820180546109ed90611b29565b80601f0160208091040260200160405190810160405280929190818152602001828054610a1990611b29565b8015610a665780601f10610a3b57610100808354040283529160200191610a66565b820191906000526020600020905b815481529060010190602001808311610a4957829003601f168201915b505050505081526020016009820160009054906101000a900460ff1615151515815250509050806000015181602001518260400151836060015184608001518560a001518660c001518760e001518861010001518961012001519a509a509a509a509a509a509a509a509a509a50509193959799509193959799565b600160008373ffffffffffffffffffffffffffffffffffffffff1673ffffffffffffffffffffffffffffffffffffffff16815260200190815260200160002060090160009054906101000a900460ff16610b71576040517f08c379a0000000000000000000000000000000000000000000000000000000008152600401610b689061191a565b60405180910390fd5b80600160008473ffffffffffffffffffffffffffffffffffffffff1673ffffffffffffffffffffffffffffffffffffffff1681526020019081526020016000206008019080519060200190610bc7929190611282565b508173ffffffffffffffffffffffffffffffffffffffff167ffb0733d4c642f8b394fd66828f8d04912a7d6b0d230aa38922e35f7810e1b0ec82604051610c0e91906117b2565b60405180910390a25050565b60008054906101000a900473ffffffffffffffffffffffffffffffffffffffff1681565b600160008473ffffffffffffffffffffffffffffffffffffffff1673ffffffffffffffffffffffffffffffffffffffff16815260200190815260200160002060090160009054906101000a900460ff16610ccd576040517f08c379a0000000000000000000000000000000000000000000000000000000008152600401610cc49061191a565b60405180910390fd5b8015610d8a5781600160008573ffffffffffffffffffffffffffffffffffffffff1673ffffffffffffffffffffffffffffffffffffffff1681526020019081526020016000206006016000828254610d259190611a15565b9250508190555081600160008573ffffffffffffffffffffffffffffffffffffffff1673ffffffffffffffffffffffffffffffffffffffff1681526020019081526020016000206007016000828254610d7e9190611a15565b92505081905550610e69565b81600160008573ffffffffffffffffffffffffffffffffffffffff1673ffffffffffffffffffffffffffffffffffffffff168152602001908152602001600020600701541015610e0f576040517f08c379a0000000000000000000000000000000000000000000000000000000008152600401610e069061193a565b60405180910390fd5b81600160008573ffffffffffffffffffffffffffffffffffffffff1673ffffffffffffffffffffffffffffffffffffffff1681526020019081526020016000206007016000828254610e619190611a6b565b925050819055505b610e7283610f4b565b8273ffffffffffffffffffffffffffffffffffffffff167feceb10b266995afd3009502df537b0421b7f635dd268f4b0a74b99a87be65213600160008673ffffffffffffffffffffffffffffffffffffffff1673ffffffffffffffffffffffffffffffffffffffff16815260200190815260200160002060060154600160008773ffffffffffffffffffffffffffffffffffffffff1673ffffffffffffffffffffffffffffffffffffffff16815260200190815260200160002060070154604051610f3e92919061195a565b60405180910390a2505050565b6000600160008373ffffffffffffffffffffffffffffffffffffffff1673ffffffffffffffffffffffffffffffffffffffff168152602001908152602001600020600601549050612710811061102c576040518060400160405280600781526020017f4469616d6f6e6400000000000000000000000000000000000000000000000000815250600160008473ffffffffffffffffffffffffffffffffffffffff1673ffffffffffffffffffffffffffffffffffffffff1681526020019081526020016000206005019080519060200190611026929190611282565b506111ef565b61138881106110c6576040518060400160405280600881526020017f5361707068697265000000000000000000000000000000000000000000000000815250600160008473ffffffffffffffffffffffffffffffffffffffff1673ffffffffffffffffffffffffffffffffffffffff16815260200190815260200160002060050190805190602001906110c0929190611282565b506111ee565b6103e88110611160576040518060400160405280600781526020017f456d6572616c6400000000000000000000000000000000000000000000000000815250600160008473ffffffffffffffffffffffffffffffffffffffff1673ffffffffffffffffffffffffffffffffffffffff168152602001908152602001600020600501908051906020019061115a929190611282565b506111ed565b6040518060400160405280600681526020017f51756172747a0000000000000000000000000000000000000000000000000000815250600160008473ffffffffffffffffffffffffffffffffffffffff1673ffffffffffffffffffffffffffffffffffffffff16815260200190815260200160002060050190805190602001906111eb929190611282565b505b5b5b8173ffffffffffffffffffffffffffffffffffffffff167f7c5463c5531ead7f0ba72ac58bed8430f619c4cfe506277c9d84245129f0df7a600160008573ffffffffffffffffffffffffffffffffffffffff1673ffffffffffffffffffffffffffffffffffffffff16815260200190815260200160002060050160405161127691906118d8565b60405180910390a25050565b82805461128e90611b29565b90600052602060002090601f0160209004810192826112b057600085556112f7565b82601f106112c957805160ff19168380011785556112f7565b828001600101855582156112f7579182015b828111156112f65782518255916020019190600101906112db565b5b5090506113049190611348565b5090565b50805461131490611b29565b6000825580601f106113265750611345565b601f0160209004906000526020600020908101906113449190611348565b5b50565b5b80821115611361576000816000905550600101611349565b5090565b6000611378611373846119b4565b611983565b90508281526020810184848401111561139057600080fd5b61139b848285611ae7565b509392505050565b6000813590506113b281611bf9565b92915050565b6000813590506113c781611c10565b92915050565b600082601f8301126113de57600080fd5b81356113ee848260208601611365565b91505092915050565b60008135905061140681611c27565b92915050565b60006020828403121561141e57600080fd5b600061142c848285016113a3565b91505092915050565b6000806040838503121561144857600080fd5b6000611456858286016113a3565b925050602083013567ffffffffffffffff81111561147357600080fd5b61147f858286016113cd565b9150509250929050565b60008060006060848603121561149e57600080fd5b60006114ac868287016113a3565b93505060206114bd868287016113f7565b92505060406114ce868287016113b8565b9150509250925092565b60008060008060008060c087890312156114f157600080fd5b600087013567ffffffffffffffff81111561150b57600080fd5b61151789828a016113cd565b965050602087013567ffffffffffffffff81111561153457600080fd5b61154089828a016113cd565b955050604087013567ffffffffffffffff81111561155d57600080fd5b61156989828a016113cd565b945050606087013567ffffffffffffffff81111561158657600080fd5b61159289828a016113cd565b935050608087013567ffffffffffffffff8111156115af57600080fd5b6115bb89828a016113cd565b92505060a087013567ffffffffffffffff8111156115d857600080fd5b6115e489828a016113cd565b9150509295509295509295565b6115fa81611a9f565b82525050565b61160981611ab1565b82525050565b600061161a826119f9565b6116248185611a04565b9350611634818560208601611af6565b61163d81611be8565b840191505092915050565b6000815461165581611b29565b61165f8186611a04565b9450600182166000811461167a576001811461168c576116bf565b60ff19831686526020860193506116bf565b611695856119e4565b60005b838110156116b757815481890152600182019150602081019050611698565b808801955050505b50505092915050565b60006116d5601383611a04565b91507f5573657220616c726561647920657869737473000000000000000000000000006000830152602082019050919050565b6000611715601383611a04565b91507f5573657220646f6573206e6f74206578697374000000000000000000000000006000830152602082019050919050565b6000611755601383611a04565b91507f496e73756666696369656e7420706f696e7473000000000000000000000000006000830152602082019050919050565b61179181611add565b82525050565b60006020820190506117ac60008301846115f1565b92915050565b600060208201905081810360008301526117cc818461160f565b905092915050565b600060408201905081810360008301526117ee818561160f565b90508181036020830152611802818461160f565b90509392505050565b6000610140820190508181036000830152611826818d61160f565b9050818103602083015261183a818c61160f565b9050818103604083015261184e818b61160f565b90508181036060830152611862818a61160f565b90508181036080830152611876818961160f565b905081810360a083015261188a818861160f565b905061189960c0830187611788565b6118a660e0830186611788565b8181036101008301526118b9818561160f565b90506118c9610120830184611600565b9b9a5050505050505050505050565b600060208201905081810360008301526118f28184611648565b905092915050565b60006020820190508181036000830152611913816116c8565b9050919050565b6000602082019050818103600083015261193381611708565b9050919050565b6000602082019050818103600083015261195381611748565b9050919050565b600060408201905061196f6000830185611788565b61197c6020830184611788565b9392505050565b6000604051905081810181811067ffffffffffffffff821117156119aa576119a9611bb9565b5b8060405250919050565b600067ffffffffffffffff8211156119cf576119ce611bb9565b5b601f19601f8301169050602081019050919050565b60008190508160005260206000209050919050565b600081519050919050565b600082825260208201905092915050565b6000611a2082611add565b9150611a2b83611add565b9250827fffffffffffffffffffffffffffffffffffffffffffffffffffffffffffffffff03821115611a6057611a5f611b5b565b5b828201905092915050565b6000611a7682611add565b9150611a8183611add565b925082821015611a9457611a93611b5b565b5b828203905092915050565b6000611aaa82611abd565b9050919050565b60008115159050919050565b600073ffffffffffffffffffffffffffffffffffffffff82169050919050565b6000819050919050565b82818337600083830152505050565b60005b83811015611b14578082015181840152602081019050611af9565b83811115611b23576000848401525b50505050565b60006002820490506001821680611b4157607f821691505b60208210811415611b5557611b54611b8a565b5b50919050565b7f4e487b7100000000000000000000000000000000000000000000000000000000600052601160045260246000fd5b7f4e487b7100000000000000000000000000000000000000000000000000000000600052602260045260246000fd5b7f4e487b7100000000000000000000000000000000000000000000000000000000600052604160045260246000fd5b6000601f19601f8301169050919050565b611c0281611a9f565b8114611c0d57600080fd5b50565b611c1981611ab1565b8114611c2457600080fd5b50565b611c3081611add565b8114611c3b57600080fd5b5056fea26469706673582212203989fa61fb28361012238d9a72e3e00f4dcd90e77994d92861f8eeab84823ddd64736f6c63430008000033",
  "immutableReferences": {},
  "source": "// SPDX-License-Identifier: MIT\r\npragma solidity ^0.8.0;\r\n\r\ncontract PointlyUser {\r\n    // Owner of the contract (platform admin)\r\n    address public owner;\r\n\r\n    // User structure for storing user data\r\n    struct User {\r\n        string email;\r\n        string name;\r\n        string phone;\r\n        string addressDetails; // Renamed to avoid keyword conflict\r\n        string profileImage;\r\n        string tier;\r\n        uint256 totalPoints;\r\n        uint256 availablePoints;\r\n        string role; // New field for the user's role\r\n        bool exists; // To check if a user exists\r\n    }\r\n\r\n    // Mapping of addresses to users\r\n    mapping(address => User) private users;\r\n\r\n    // Events for logging actions\r\n    event UserCreated(address indexed userAddress, string name, string role);\r\n    event PointsUpdated(address indexed userAddress, uint256 newTotalPoints, uint256 newAvailablePoints);\r\n    event TierUpdated(address indexed userAddress, string newTier);\r\n    event UserDeleted(address indexed userAddress);\r\n    event RoleUpdated(address indexed userAddress, string newRole);\r\n\r\n    // Constructor to initialize the contract owner\r\n    constructor() {\r\n        owner = msg.sender; // Assign contract deployer as owner\r\n    }\r\n\r\n    // Function to create a new user\r\n    function createUser(\r\n        string memory email,\r\n        string memory name,\r\n        string memory phone,\r\n        string memory addressDetails,\r\n        string memory profileImage,\r\n        string memory role // Role added when creating user\r\n    ) public {\r\n        require(!users[msg.sender].exists, \"User already exists\");\r\n\r\n        users[msg.sender] = User({\r\n            email: email,\r\n            name: name,\r\n            phone: phone,\r\n            addressDetails: addressDetails,\r\n            profileImage: profileImage,\r\n            tier: \"Quartz\",\r\n            totalPoints: 0,\r\n            availablePoints: 0,\r\n            role: role,  // Assign the role to the user\r\n            exists: true\r\n        });\r\n\r\n        emit UserCreated(msg.sender, name, role);\r\n    }\r\n\r\n    // Function to get user details\r\n    function getUser(address userAddress) \r\n    public \r\n    view \r\n    returns (\r\n        string memory email,\r\n        string memory name,\r\n        string memory phone,\r\n        string memory addressDetails,\r\n        string memory profileImage,\r\n        string memory tier,\r\n        uint256 totalPoints,\r\n        uint256 availablePoints,\r\n        string memory role,  // Include role in the return values\r\n        bool exists\r\n    ) \r\n    {\r\n        require(users[userAddress].exists, \"User does not exist\");\r\n        User memory user = users[userAddress];\r\n\r\n        return (\r\n            user.email,\r\n            user.name,\r\n            user.phone,\r\n            user.addressDetails,\r\n            user.profileImage,\r\n            user.tier,\r\n            user.totalPoints,\r\n            user.availablePoints,\r\n            user.role,  // Return the role of the user\r\n            user.exists\r\n        );\r\n    }\r\n\r\n    // Function to update points\r\n    function updatePoints(address userAddress, uint256 points, bool isAddition) public {\r\n        require(users[userAddress].exists, \"User does not exist\");\r\n\r\n        if (isAddition) {\r\n            users[userAddress].totalPoints += points;\r\n            users[userAddress].availablePoints += points;\r\n        } else {\r\n            require(users[userAddress].availablePoints >= points, \"Insufficient points\");\r\n            users[userAddress].availablePoints -= points;\r\n        }\r\n\r\n        updateUserTier(userAddress);\r\n\r\n        emit PointsUpdated(\r\n            userAddress,\r\n            users[userAddress].totalPoints,\r\n            users[userAddress].availablePoints\r\n        );\r\n    }\r\n\r\n    // Internal function to update the user's tier\r\n    function updateUserTier(address userAddress) internal {\r\n        uint256 totalPoints = users[userAddress].totalPoints;\r\n\r\n        if (totalPoints >= 10000) {\r\n            users[userAddress].tier = \"Diamond\";\r\n        } else if (totalPoints >= 5000) {\r\n            users[userAddress].tier = \"Sapphire\";\r\n        } else if (totalPoints >= 1000) {\r\n            users[userAddress].tier = \"Emerald\";\r\n        } else {\r\n            users[userAddress].tier = \"Quartz\";\r\n        }\r\n\r\n        emit TierUpdated(userAddress, users[userAddress].tier);\r\n    }\r\n\r\n    // Function to update user role\r\n    function updateRole(address userAddress, string memory newRole) public {\r\n        require(users[userAddress].exists, \"User does not exist\");\r\n\r\n        users[userAddress].role = newRole;\r\n        emit RoleUpdated(userAddress, newRole);\r\n    }\r\n\r\n    // Function to delete a user\r\n    function deleteUser() public {\r\n        require(users[msg.sender].exists, \"User does not exist\");\r\n\r\n        delete users[msg.sender];\r\n        emit UserDeleted(msg.sender);\r\n    }\r\n}\r\n",
  "sourcePath": "C:\\Users\\azriy\\Pointly-Blockchain\\contracts\\PointlyUser.sol",
  "compiler": {
    "name": "solc",
    "version": "0.8.0+commit.c7dfd78e.Emscripten.clang"
  },
  "schemaVersion": "3.4.16",
  "updatedAt": "2025-01-19T07:58:08.737Z",
  "networkType": "ethereum",
  "devdoc": {
    "kind": "dev",
    "methods": {},
    "version": 1
  },
  "userdoc": {
    "kind": "user",
    "methods": {},
    "version": 1
  }
}