{
  "contractName": "PointlyUser",
  "abi": [
    {
      "inputs": [],
      "stateMutability": "nonpayable",
      "type": "constructor"
    },
    {
      "anonymous": false,
      "inputs": [
        {
          "indexed": true,
          "internalType": "address",
          "name": "userAddress",
          "type": "address"
        },
        {
          "indexed": false,
          "internalType": "uint256",
          "name": "newTotalPoints",
          "type": "uint256"
        },
        {
          "indexed": false,
          "internalType": "uint256",
          "name": "newAvailablePoints",
          "type": "uint256"
        }
      ],
      "name": "PointsUpdated",
      "type": "event"
    },
    {
      "anonymous": false,
      "inputs": [
        {
          "indexed": true,
          "internalType": "address",
          "name": "userAddress",
          "type": "address"
        },
        {
          "indexed": false,
          "internalType": "string",
          "name": "newRole",
          "type": "string"
        }
      ],
      "name": "RoleUpdated",
      "type": "event"
    },
    {
      "anonymous": false,
      "inputs": [
        {
          "indexed": true,
          "internalType": "address",
          "name": "userAddress",
          "type": "address"
        },
        {
          "indexed": false,
          "internalType": "string",
          "name": "newTier",
          "type": "string"
        }
      ],
      "name": "TierUpdated",
      "type": "event"
    },
    {
      "anonymous": false,
      "inputs": [
        {
          "indexed": true,
          "internalType": "address",
          "name": "userAddress",
          "type": "address"
        },
        {
          "indexed": false,
          "internalType": "string",
          "name": "name",
          "type": "string"
        },
        {
          "indexed": false,
          "internalType": "string",
          "name": "role",
          "type": "string"
        }
      ],
      "name": "UserCreated",
      "type": "event"
    },
    {
      "anonymous": false,
      "inputs": [
        {
          "indexed": true,
          "internalType": "address",
          "name": "userAddress",
          "type": "address"
        }
      ],
      "name": "UserDeleted",
      "type": "event"
    },
    {
      "anonymous": false,
      "inputs": [
        {
          "indexed": true,
          "internalType": "address",
          "name": "userAddress",
          "type": "address"
        }
      ],
      "name": "UserUpdated",
      "type": "event"
    },
    {
      "inputs": [],
      "name": "owner",
      "outputs": [
        {
          "internalType": "address",
          "name": "",
          "type": "address"
        }
      ],
      "stateMutability": "view",
      "type": "function",
      "constant": true
    },
    {
      "inputs": [
        {
          "internalType": "string",
          "name": "email",
          "type": "string"
        },
        {
          "internalType": "string",
          "name": "name",
          "type": "string"
        },
        {
          "internalType": "string",
          "name": "phone",
          "type": "string"
        },
        {
          "internalType": "string",
          "name": "addressDetails",
          "type": "string"
        },
        {
          "internalType": "string",
          "name": "profileImage",
          "type": "string"
        },
        {
          "internalType": "string",
          "name": "role",
          "type": "string"
        }
      ],
      "name": "createUser",
      "outputs": [],
      "stateMutability": "nonpayable",
      "type": "function"
    },
    {
      "inputs": [
        {
          "internalType": "address",
          "name": "userAddress",
          "type": "address"
        }
      ],
      "name": "getUser",
      "outputs": [
        {
          "internalType": "string",
          "name": "email",
          "type": "string"
        },
        {
          "internalType": "string",
          "name": "name",
          "type": "string"
        },
        {
          "internalType": "string",
          "name": "phone",
          "type": "string"
        },
        {
          "internalType": "string",
          "name": "addressDetails",
          "type": "string"
        },
        {
          "internalType": "string",
          "name": "profileImage",
          "type": "string"
        },
        {
          "internalType": "string",
          "name": "tier",
          "type": "string"
        },
        {
          "internalType": "uint256",
          "name": "totalPoints",
          "type": "uint256"
        },
        {
          "internalType": "uint256",
          "name": "availablePoints",
          "type": "uint256"
        },
        {
          "internalType": "string",
          "name": "role",
          "type": "string"
        },
        {
          "internalType": "bool",
          "name": "exists",
          "type": "bool"
        }
      ],
      "stateMutability": "view",
      "type": "function",
      "constant": true
    },
    {
      "inputs": [
        {
          "internalType": "address",
          "name": "userAddress",
          "type": "address"
        },
        {
          "internalType": "uint256",
          "name": "points",
          "type": "uint256"
        },
        {
          "internalType": "bool",
          "name": "isAddition",
          "type": "bool"
        }
      ],
      "name": "updatePoints",
      "outputs": [],
      "stateMutability": "nonpayable",
      "type": "function"
    },
    {
      "inputs": [
        {
          "internalType": "address",
          "name": "userAddress",
          "type": "address"
        },
        {
          "internalType": "string",
          "name": "newRole",
          "type": "string"
        }
      ],
      "name": "updateRole",
      "outputs": [],
      "stateMutability": "nonpayable",
      "type": "function"
    },
    {
      "inputs": [
        {
          "internalType": "string",
          "name": "name",
          "type": "string"
        },
        {
          "internalType": "string",
          "name": "email",
          "type": "string"
        },
        {
          "internalType": "string",
          "name": "phone",
          "type": "string"
        },
        {
          "internalType": "string",
          "name": "addressDetails",
          "type": "string"
        },
        {
          "internalType": "string",
          "name": "profileImage",
          "type": "string"
        },
        {
          "internalType": "string",
          "name": "role",
          "type": "string"
        }
      ],
      "name": "updateUser",
      "outputs": [],
      "stateMutability": "nonpayable",
      "type": "function"
    },
    {
      "inputs": [],
      "name": "deleteUser",
      "outputs": [],
      "stateMutability": "nonpayable",
      "type": "function"
    }
  ],
  "bytecode": "0x608060405234801561001057600080fd5b50336000806101000a81548173ffffffffffffffffffffffffffffffffffffffff021916908373ffffffffffffffffffffffffffffffffffffffff160217905550611f8f806100606000396000f3fe608060405234801561001057600080fd5b506004361061007d5760003560e01c80636f77926b1161005b5780636f77926b146100c4578063775c6f40146100fd5780638da5cb5b14610119578063c2bb5e13146101375761007d565b806301dadb2b14610082578063026ff05e1461009e57806315f5744a146100a8575b600080fd5b61009c600480360381019061009791906117f3565b610153565b005b6100a66103fe565b005b6100c260048036038101906100bd91906117f3565b6105a8565b005b6100de60048036038101906100d99190611727565b61088c565b6040516100f49a99989796959493929190611b26565b60405180910390f35b61011760048036038101906101129190611750565b610dfd565b005b610121610f35565b60405161012e9190611ab2565b60405180910390f35b610151600480360381019061014c91906117a4565b610f59565b005b600160003373ffffffffffffffffffffffffffffffffffffffff1673ffffffffffffffffffffffffffffffffffffffff16815260200190815260200160002060090160009054906101000a900460ff16156101e3576040517f08c379a00000000000000000000000000000000000000000000000000000000081526004016101da90611c15565b60405180910390fd5b6040518061014001604052808781526020018681526020018581526020018481526020018381526020016040518060400160405280600681526020017f51756172747a00000000000000000000000000000000000000000000000000008152508152602001600081526020016000815260200182815260200160011515815250600160003373ffffffffffffffffffffffffffffffffffffffff1673ffffffffffffffffffffffffffffffffffffffff16815260200190815260200160002060008201518160000190805190602001906102be92919061159d565b5060208201518160010190805190602001906102db92919061159d565b5060408201518160020190805190602001906102f892919061159d565b50606082015181600301908051906020019061031592919061159d565b50608082015181600401908051906020019061033292919061159d565b5060a082015181600501908051906020019061034f92919061159d565b5060c0820151816006015560e0820151816007015561010082015181600801908051906020019061038192919061159d565b506101208201518160090160006101000a81548160ff0219169083151502179055509050503373ffffffffffffffffffffffffffffffffffffffff167fa2e1d286e25c6fce64acccdfd7a54d53cce2f617ddff648ab1dbb3458ccdd95b86836040516103ee929190611aef565b60405180910390a2505050505050565b600160003373ffffffffffffffffffffffffffffffffffffffff1673ffffffffffffffffffffffffffffffffffffffff16815260200190815260200160002060090160009054906101000a900460ff1661048d576040517f08c379a000000000000000000000000000000000000000000000000000000000815260040161048490611c35565b60405180910390fd5b600160003373ffffffffffffffffffffffffffffffffffffffff1673ffffffffffffffffffffffffffffffffffffffff168152602001908152602001600020600080820160006104dd9190611623565b6001820160006104ed9190611623565b6002820160006104fd9190611623565b60038201600061050d9190611623565b60048201600061051d9190611623565b60058201600061052d9190611623565b6006820160009055600782016000905560088201600061054d9190611623565b6009820160006101000a81549060ff021916905550503373ffffffffffffffffffffffffffffffffffffffff167f4bc56f1321288dfb5b416cb3a7fd188723979f9e866c91d88eccf7fca039d03960405160405180910390a2565b600160003373ffffffffffffffffffffffffffffffffffffffff1673ffffffffffffffffffffffffffffffffffffffff16815260200190815260200160002060090160009054906101000a900460ff16610637576040517f08c379a000000000000000000000000000000000000000000000000000000000815260040161062e90611c35565b60405180910390fd5b85600160003373ffffffffffffffffffffffffffffffffffffffff1673ffffffffffffffffffffffffffffffffffffffff168152602001908152602001600020600101908051906020019061068d92919061159d565b5084600160003373ffffffffffffffffffffffffffffffffffffffff1673ffffffffffffffffffffffffffffffffffffffff16815260200190815260200160002060000190805190602001906106e492919061159d565b5083600160003373ffffffffffffffffffffffffffffffffffffffff1673ffffffffffffffffffffffffffffffffffffffff168152602001908152602001600020600201908051906020019061073b92919061159d565b5082600160003373ffffffffffffffffffffffffffffffffffffffff1673ffffffffffffffffffffffffffffffffffffffff168152602001908152602001600020600301908051906020019061079292919061159d565b5081600160003373ffffffffffffffffffffffffffffffffffffffff1673ffffffffffffffffffffffffffffffffffffffff16815260200190815260200160002060040190805190602001906107e992919061159d565b5080600160003373ffffffffffffffffffffffffffffffffffffffff1673ffffffffffffffffffffffffffffffffffffffff168152602001908152602001600020600801908051906020019061084092919061159d565b503373ffffffffffffffffffffffffffffffffffffffff167f0163b5f10e25c839f35e6f2b201b31e88e17f49e6956232de5d2e6bbae3b78b860405160405180910390a2505050505050565b60608060608060608060008060606000600160008c73ffffffffffffffffffffffffffffffffffffffff1673ffffffffffffffffffffffffffffffffffffffff16815260200190815260200160002060090160009054906101000a900460ff1661092b576040517f08c379a000000000000000000000000000000000000000000000000000000000815260040161092290611c35565b60405180910390fd5b6000600160008d73ffffffffffffffffffffffffffffffffffffffff1673ffffffffffffffffffffffffffffffffffffffff1681526020019081526020016000206040518061014001604052908160008201805461098890611e44565b80601f01602080910402602001604051908101604052809291908181526020018280546109b490611e44565b8015610a015780601f106109d657610100808354040283529160200191610a01565b820191906000526020600020905b8154815290600101906020018083116109e457829003601f168201915b50505050508152602001600182018054610a1a90611e44565b80601f0160208091040260200160405190810160405280929190818152602001828054610a4690611e44565b8015610a935780601f10610a6857610100808354040283529160200191610a93565b820191906000526020600020905b815481529060010190602001808311610a7657829003601f168201915b50505050508152602001600282018054610aac90611e44565b80601f0160208091040260200160405190810160405280929190818152602001828054610ad890611e44565b8015610b255780601f10610afa57610100808354040283529160200191610b25565b820191906000526020600020905b815481529060010190602001808311610b0857829003601f168201915b50505050508152602001600382018054610b3e90611e44565b80601f0160208091040260200160405190810160405280929190818152602001828054610b6a90611e44565b8015610bb75780601f10610b8c57610100808354040283529160200191610bb7565b820191906000526020600020905b815481529060010190602001808311610b9a57829003601f168201915b50505050508152602001600482018054610bd090611e44565b80601f0160208091040260200160405190810160405280929190818152602001828054610bfc90611e44565b8015610c495780601f10610c1e57610100808354040283529160200191610c49565b820191906000526020600020905b815481529060010190602001808311610c2c57829003601f168201915b50505050508152602001600582018054610c6290611e44565b80601f0160208091040260200160405190810160405280929190818152602001828054610c8e90611e44565b8015610cdb5780601f10610cb057610100808354040283529160200191610cdb565b820191906000526020600020905b815481529060010190602001808311610cbe57829003601f168201915b505050505081526020016006820154815260200160078201548152602001600882018054610d0890611e44565b80601f0160208091040260200160405190810160405280929190818152602001828054610d3490611e44565b8015610d815780601f10610d5657610100808354040283529160200191610d81565b820191906000526020600020905b815481529060010190602001808311610d6457829003601f168201915b505050505081526020016009820160009054906101000a900460ff1615151515815250509050806000015181602001518260400151836060015184608001518560a001518660c001518760e001518861010001518961012001519a509a509a509a509a509a509a509a509a509a50509193959799509193959799565b600160008373ffffffffffffffffffffffffffffffffffffffff1673ffffffffffffffffffffffffffffffffffffffff16815260200190815260200160002060090160009054906101000a900460ff16610e8c576040517f08c379a0000000000000000000000000000000000000000000000000000000008152600401610e8390611c35565b60405180910390fd5b80600160008473ffffffffffffffffffffffffffffffffffffffff1673ffffffffffffffffffffffffffffffffffffffff1681526020019081526020016000206008019080519060200190610ee292919061159d565b508173ffffffffffffffffffffffffffffffffffffffff167ffb0733d4c642f8b394fd66828f8d04912a7d6b0d230aa38922e35f7810e1b0ec82604051610f299190611acd565b60405180910390a25050565b60008054906101000a900473ffffffffffffffffffffffffffffffffffffffff1681565b600160008473ffffffffffffffffffffffffffffffffffffffff1673ffffffffffffffffffffffffffffffffffffffff16815260200190815260200160002060090160009054906101000a900460ff16610fe8576040517f08c379a0000000000000000000000000000000000000000000000000000000008152600401610fdf90611c35565b60405180910390fd5b80156110a55781600160008573ffffffffffffffffffffffffffffffffffffffff1673ffffffffffffffffffffffffffffffffffffffff16815260200190815260200160002060060160008282546110409190611d30565b9250508190555081600160008573ffffffffffffffffffffffffffffffffffffffff1673ffffffffffffffffffffffffffffffffffffffff16815260200190815260200160002060070160008282546110999190611d30565b92505081905550611184565b81600160008573ffffffffffffffffffffffffffffffffffffffff1673ffffffffffffffffffffffffffffffffffffffff16815260200190815260200160002060070154101561112a576040517f08c379a000000000000000000000000000000000000000000000000000000000815260040161112190611c55565b60405180910390fd5b81600160008573ffffffffffffffffffffffffffffffffffffffff1673ffffffffffffffffffffffffffffffffffffffff168152602001908152602001600020600701600082825461117c9190611d86565b925050819055505b61118d83611266565b8273ffffffffffffffffffffffffffffffffffffffff167feceb10b266995afd3009502df537b0421b7f635dd268f4b0a74b99a87be65213600160008673ffffffffffffffffffffffffffffffffffffffff1673ffffffffffffffffffffffffffffffffffffffff16815260200190815260200160002060060154600160008773ffffffffffffffffffffffffffffffffffffffff1673ffffffffffffffffffffffffffffffffffffffff16815260200190815260200160002060070154604051611259929190611c75565b60405180910390a2505050565b6000600160008373ffffffffffffffffffffffffffffffffffffffff1673ffffffffffffffffffffffffffffffffffffffff1681526020019081526020016000206006015490506127108110611347576040518060400160405280600781526020017f4469616d6f6e6400000000000000000000000000000000000000000000000000815250600160008473ffffffffffffffffffffffffffffffffffffffff1673ffffffffffffffffffffffffffffffffffffffff168152602001908152602001600020600501908051906020019061134192919061159d565b5061150a565b61138881106113e1576040518060400160405280600881526020017f5361707068697265000000000000000000000000000000000000000000000000815250600160008473ffffffffffffffffffffffffffffffffffffffff1673ffffffffffffffffffffffffffffffffffffffff16815260200190815260200160002060050190805190602001906113db92919061159d565b50611509565b6103e8811061147b576040518060400160405280600781526020017f456d6572616c6400000000000000000000000000000000000000000000000000815250600160008473ffffffffffffffffffffffffffffffffffffffff1673ffffffffffffffffffffffffffffffffffffffff168152602001908152602001600020600501908051906020019061147592919061159d565b50611508565b6040518060400160405280600681526020017f51756172747a0000000000000000000000000000000000000000000000000000815250600160008473ffffffffffffffffffffffffffffffffffffffff1673ffffffffffffffffffffffffffffffffffffffff168152602001908152602001600020600501908051906020019061150692919061159d565b505b5b5b8173ffffffffffffffffffffffffffffffffffffffff167f7c5463c5531ead7f0ba72ac58bed8430f619c4cfe506277c9d84245129f0df7a600160008573ffffffffffffffffffffffffffffffffffffffff1673ffffffffffffffffffffffffffffffffffffffff1681526020019081526020016000206005016040516115919190611bf3565b60405180910390a25050565b8280546115a990611e44565b90600052602060002090601f0160209004810192826115cb5760008555611612565b82601f106115e457805160ff1916838001178555611612565b82800160010185558215611612579182015b828111156116115782518255916020019190600101906115f6565b5b50905061161f9190611663565b5090565b50805461162f90611e44565b6000825580601f106116415750611660565b601f01602090049060005260206000209081019061165f9190611663565b5b50565b5b8082111561167c576000816000905550600101611664565b5090565b600061169361168e84611ccf565b611c9e565b9050828152602081018484840111156116ab57600080fd5b6116b6848285611e02565b509392505050565b6000813590506116cd81611f14565b92915050565b6000813590506116e281611f2b565b92915050565b600082601f8301126116f957600080fd5b8135611709848260208601611680565b91505092915050565b60008135905061172181611f42565b92915050565b60006020828403121561173957600080fd5b6000611747848285016116be565b91505092915050565b6000806040838503121561176357600080fd5b6000611771858286016116be565b925050602083013567ffffffffffffffff81111561178e57600080fd5b61179a858286016116e8565b9150509250929050565b6000806000606084860312156117b957600080fd5b60006117c7868287016116be565b93505060206117d886828701611712565b92505060406117e9868287016116d3565b9150509250925092565b60008060008060008060c0878903121561180c57600080fd5b600087013567ffffffffffffffff81111561182657600080fd5b61183289828a016116e8565b965050602087013567ffffffffffffffff81111561184f57600080fd5b61185b89828a016116e8565b955050604087013567ffffffffffffffff81111561187857600080fd5b61188489828a016116e8565b945050606087013567ffffffffffffffff8111156118a157600080fd5b6118ad89828a016116e8565b935050608087013567ffffffffffffffff8111156118ca57600080fd5b6118d689828a016116e8565b92505060a087013567ffffffffffffffff8111156118f357600080fd5b6118ff89828a016116e8565b9150509295509295509295565b61191581611dba565b82525050565b61192481611dcc565b82525050565b600061193582611d14565b61193f8185611d1f565b935061194f818560208601611e11565b61195881611f03565b840191505092915050565b6000815461197081611e44565b61197a8186611d1f565b9450600182166000811461199557600181146119a7576119da565b60ff19831686526020860193506119da565b6119b085611cff565b60005b838110156119d2578154818901526001820191506020810190506119b3565b808801955050505b50505092915050565b60006119f0601383611d1f565b91507f5573657220616c726561647920657869737473000000000000000000000000006000830152602082019050919050565b6000611a30601383611d1f565b91507f5573657220646f6573206e6f74206578697374000000000000000000000000006000830152602082019050919050565b6000611a70601383611d1f565b91507f496e73756666696369656e7420706f696e7473000000000000000000000000006000830152602082019050919050565b611aac81611df8565b82525050565b6000602082019050611ac7600083018461190c565b92915050565b60006020820190508181036000830152611ae7818461192a565b905092915050565b60006040820190508181036000830152611b09818561192a565b90508181036020830152611b1d818461192a565b90509392505050565b6000610140820190508181036000830152611b41818d61192a565b90508181036020830152611b55818c61192a565b90508181036040830152611b69818b61192a565b90508181036060830152611b7d818a61192a565b90508181036080830152611b91818961192a565b905081810360a0830152611ba5818861192a565b9050611bb460c0830187611aa3565b611bc160e0830186611aa3565b818103610100830152611bd4818561192a565b9050611be461012083018461191b565b9b9a5050505050505050505050565b60006020820190508181036000830152611c0d8184611963565b905092915050565b60006020820190508181036000830152611c2e816119e3565b9050919050565b60006020820190508181036000830152611c4e81611a23565b9050919050565b60006020820190508181036000830152611c6e81611a63565b9050919050565b6000604082019050611c8a6000830185611aa3565b611c976020830184611aa3565b9392505050565b6000604051905081810181811067ffffffffffffffff82111715611cc557611cc4611ed4565b5b8060405250919050565b600067ffffffffffffffff821115611cea57611ce9611ed4565b5b601f19601f8301169050602081019050919050565b60008190508160005260206000209050919050565b600081519050919050565b600082825260208201905092915050565b6000611d3b82611df8565b9150611d4683611df8565b9250827fffffffffffffffffffffffffffffffffffffffffffffffffffffffffffffffff03821115611d7b57611d7a611e76565b5b828201905092915050565b6000611d9182611df8565b9150611d9c83611df8565b925082821015611daf57611dae611e76565b5b828203905092915050565b6000611dc582611dd8565b9050919050565b60008115159050919050565b600073ffffffffffffffffffffffffffffffffffffffff82169050919050565b6000819050919050565b82818337600083830152505050565b60005b83811015611e2f578082015181840152602081019050611e14565b83811115611e3e576000848401525b50505050565b60006002820490506001821680611e5c57607f821691505b60208210811415611e7057611e6f611ea5565b5b50919050565b7f4e487b7100000000000000000000000000000000000000000000000000000000600052601160045260246000fd5b7f4e487b7100000000000000000000000000000000000000000000000000000000600052602260045260246000fd5b7f4e487b7100000000000000000000000000000000000000000000000000000000600052604160045260246000fd5b6000601f19601f8301169050919050565b611f1d81611dba565b8114611f2857600080fd5b50565b611f3481611dcc565b8114611f3f57600080fd5b50565b611f4b81611df8565b8114611f5657600080fd5b5056fea26469706673582212200b6172e508b52653b568dccc884c9c23207f19d9705fb54505df0f773fa163b364736f6c63430008000033",
  "immutableReferences": {},
  "source": "// SPDX-License-Identifier: MIT\r\npragma solidity ^0.8.0;\r\n\r\ncontract PointlyUser {\r\n    // Owner of the contract (platform admin)\r\n    address public owner;\r\n\r\n    // User structure for storing user data\r\n    struct User {\r\n        string email;\r\n        string name;\r\n        string phone;\r\n        string addressDetails; // Renamed to avoid keyword conflict\r\n        string profileImage;\r\n        string tier;\r\n        uint256 totalPoints;\r\n        uint256 availablePoints;\r\n        string role; // New field for the user's role\r\n        bool exists; // To check if a user exists\r\n    }\r\n\r\n    // Mapping of addresses to users\r\n    mapping(address => User) private users;\r\n\r\n    // Events for logging actions\r\n    event UserCreated(address indexed userAddress, string name, string role);\r\n    event PointsUpdated(address indexed userAddress, uint256 newTotalPoints, uint256 newAvailablePoints);\r\n    event TierUpdated(address indexed userAddress, string newTier);\r\n    event UserDeleted(address indexed userAddress);\r\n    event RoleUpdated(address indexed userAddress, string newRole);\r\n    event UserUpdated(address indexed userAddress);  // Event for user update\r\n\r\n    // Constructor to initialize the contract owner\r\n    constructor() {\r\n        owner = msg.sender; // Assign contract deployer as owner\r\n    }\r\n\r\n    // Function to create a new user\r\n    function createUser(\r\n        string memory email,\r\n        string memory name,\r\n        string memory phone,\r\n        string memory addressDetails,\r\n        string memory profileImage,\r\n        string memory role // Role added when creating user\r\n    ) public {\r\n        require(!users[msg.sender].exists, \"User already exists\");\r\n\r\n        users[msg.sender] = User({\r\n            email: email,\r\n            name: name,\r\n            phone: phone,\r\n            addressDetails: addressDetails,\r\n            profileImage: profileImage,\r\n            tier: \"Quartz\",\r\n            totalPoints: 0,\r\n            availablePoints: 0,\r\n            role: role,  // Assign the role to the user\r\n            exists: true\r\n        });\r\n\r\n        emit UserCreated(msg.sender, name, role);\r\n    }\r\n\r\n    // Function to get user details\r\n    function getUser(address userAddress) \r\n    public \r\n    view \r\n    returns (\r\n        string memory email,\r\n        string memory name,\r\n        string memory phone,\r\n        string memory addressDetails,\r\n        string memory profileImage,\r\n        string memory tier,\r\n        uint256 totalPoints,\r\n        uint256 availablePoints,\r\n        string memory role,  // Include role in the return values\r\n        bool exists\r\n    ) \r\n    {\r\n        require(users[userAddress].exists, \"User does not exist\");\r\n        User memory user = users[userAddress];\r\n\r\n        return (\r\n            user.email,\r\n            user.name,\r\n            user.phone,\r\n            user.addressDetails,\r\n            user.profileImage,\r\n            user.tier,\r\n            user.totalPoints,\r\n            user.availablePoints,\r\n            user.role,  // Return the role of the user\r\n            user.exists\r\n        );\r\n    }\r\n\r\n    // Function to update points\r\n    function updatePoints(address userAddress, uint256 points, bool isAddition) public {\r\n        require(users[userAddress].exists, \"User does not exist\");\r\n\r\n        if (isAddition) {\r\n            users[userAddress].totalPoints += points;\r\n            users[userAddress].availablePoints += points;\r\n        } else {\r\n            require(users[userAddress].availablePoints >= points, \"Insufficient points\");\r\n            users[userAddress].availablePoints -= points;\r\n        }\r\n\r\n        updateUserTier(userAddress);\r\n\r\n        emit PointsUpdated(\r\n            userAddress,\r\n            users[userAddress].totalPoints,\r\n            users[userAddress].availablePoints\r\n        );\r\n    }\r\n\r\n    // Internal function to update the user's tier\r\n    function updateUserTier(address userAddress) internal {\r\n        uint256 totalPoints = users[userAddress].totalPoints;\r\n\r\n        if (totalPoints >= 10000) {\r\n            users[userAddress].tier = \"Diamond\";\r\n        } else if (totalPoints >= 5000) {\r\n            users[userAddress].tier = \"Sapphire\";\r\n        } else if (totalPoints >= 1000) {\r\n            users[userAddress].tier = \"Emerald\";\r\n        } else {\r\n            users[userAddress].tier = \"Quartz\";\r\n        }\r\n\r\n        emit TierUpdated(userAddress, users[userAddress].tier);\r\n    }\r\n\r\n    // Function to update user role\r\n    function updateRole(address userAddress, string memory newRole) public {\r\n        require(users[userAddress].exists, \"User does not exist\");\r\n\r\n        users[userAddress].role = newRole;\r\n        emit RoleUpdated(userAddress, newRole);\r\n    }\r\n\r\n    // New function to update user details\r\n    function updateUser(\r\n        string memory name,\r\n        string memory email,\r\n        string memory phone,\r\n        string memory addressDetails,\r\n        string memory profileImage,\r\n        string memory role\r\n    ) public {\r\n        require(users[msg.sender].exists, \"User does not exist\");\r\n\r\n        // Update the user's data\r\n        users[msg.sender].name = name;\r\n        users[msg.sender].email = email;\r\n        users[msg.sender].phone = phone;\r\n        users[msg.sender].addressDetails = addressDetails;\r\n        users[msg.sender].profileImage = profileImage;\r\n        users[msg.sender].role = role;\r\n\r\n        // Emit the update event\r\n        emit UserUpdated(msg.sender);\r\n    }\r\n\r\n    // Function to delete a user\r\n    function deleteUser() public {\r\n        require(users[msg.sender].exists, \"User does not exist\");\r\n\r\n        delete users[msg.sender];\r\n        emit UserDeleted(msg.sender);\r\n    }\r\n}\r\n",
  "sourcePath": "C:\\Users\\azriy\\Pointly-Blockchain\\contracts\\PointlyUser.sol",
  "compiler": {
    "name": "solc",
    "version": "0.8.0+commit.c7dfd78e.Emscripten.clang"
  },
  "schemaVersion": "3.4.16",
  "updatedAt": "2025-01-19T15:57:29.939Z",
  "networkType": "ethereum",
  "devdoc": {
    "kind": "dev",
    "methods": {},
    "version": 1
  },
  "userdoc": {
    "kind": "user",
    "methods": {},
    "version": 1
  }
}