{
  "contractName": "PointlyUser",
  "abi": [
    {
      "inputs": [],
      "stateMutability": "nonpayable",
      "type": "constructor"
    },
    {
      "anonymous": false,
      "inputs": [
        {
          "indexed": true,
          "internalType": "address",
          "name": "userAddress",
          "type": "address"
        },
        {
          "indexed": false,
          "internalType": "uint256",
          "name": "newTotalPoints",
          "type": "uint256"
        },
        {
          "indexed": false,
          "internalType": "uint256",
          "name": "newAvailablePoints",
          "type": "uint256"
        }
      ],
      "name": "PointsUpdated",
      "type": "event"
    },
    {
      "anonymous": false,
      "inputs": [
        {
          "indexed": true,
          "internalType": "address",
          "name": "userAddress",
          "type": "address"
        },
        {
          "indexed": false,
          "internalType": "string",
          "name": "newRole",
          "type": "string"
        }
      ],
      "name": "RoleUpdated",
      "type": "event"
    },
    {
      "anonymous": false,
      "inputs": [
        {
          "indexed": true,
          "internalType": "address",
          "name": "userAddress",
          "type": "address"
        },
        {
          "indexed": false,
          "internalType": "string",
          "name": "newTier",
          "type": "string"
        }
      ],
      "name": "TierUpdated",
      "type": "event"
    },
    {
      "anonymous": false,
      "inputs": [
        {
          "indexed": true,
          "internalType": "address",
          "name": "userAddress",
          "type": "address"
        },
        {
          "indexed": false,
          "internalType": "string",
          "name": "name",
          "type": "string"
        },
        {
          "indexed": false,
          "internalType": "string",
          "name": "role",
          "type": "string"
        }
      ],
      "name": "UserCreated",
      "type": "event"
    },
    {
      "anonymous": false,
      "inputs": [
        {
          "indexed": true,
          "internalType": "address",
          "name": "userAddress",
          "type": "address"
        }
      ],
      "name": "UserDeleted",
      "type": "event"
    },
    {
      "anonymous": false,
      "inputs": [
        {
          "indexed": true,
          "internalType": "address",
          "name": "userAddress",
          "type": "address"
        }
      ],
      "name": "UserUpdated",
      "type": "event"
    },
    {
      "inputs": [],
      "name": "owner",
      "outputs": [
        {
          "internalType": "address",
          "name": "",
          "type": "address"
        }
      ],
      "stateMutability": "view",
      "type": "function",
      "constant": true
    },
    {
      "inputs": [
        {
          "internalType": "string",
          "name": "email",
          "type": "string"
        },
        {
          "internalType": "string",
          "name": "name",
          "type": "string"
        },
        {
          "internalType": "string",
          "name": "phone",
          "type": "string"
        },
        {
          "internalType": "string",
          "name": "addressDetails",
          "type": "string"
        },
        {
          "internalType": "string",
          "name": "profileImage",
          "type": "string"
        },
        {
          "internalType": "string",
          "name": "role",
          "type": "string"
        }
      ],
      "name": "createUser",
      "outputs": [],
      "stateMutability": "nonpayable",
      "type": "function"
    },
    {
      "inputs": [
        {
          "internalType": "address",
          "name": "userAddress",
          "type": "address"
        }
      ],
      "name": "getUser",
      "outputs": [
        {
          "internalType": "string",
          "name": "email",
          "type": "string"
        },
        {
          "internalType": "string",
          "name": "name",
          "type": "string"
        },
        {
          "internalType": "string",
          "name": "phone",
          "type": "string"
        },
        {
          "internalType": "string",
          "name": "addressDetails",
          "type": "string"
        },
        {
          "internalType": "string",
          "name": "profileImage",
          "type": "string"
        },
        {
          "internalType": "string",
          "name": "tier",
          "type": "string"
        },
        {
          "internalType": "uint256",
          "name": "totalPoints",
          "type": "uint256"
        },
        {
          "internalType": "uint256",
          "name": "availablePoints",
          "type": "uint256"
        },
        {
          "internalType": "string",
          "name": "role",
          "type": "string"
        },
        {
          "internalType": "bool",
          "name": "exists",
          "type": "bool"
        }
      ],
      "stateMutability": "view",
      "type": "function",
      "constant": true
    },
    {
      "inputs": [
        {
          "internalType": "address",
          "name": "userAddress",
          "type": "address"
        },
        {
          "internalType": "uint256",
          "name": "points",
          "type": "uint256"
        },
        {
          "internalType": "bool",
          "name": "isAddition",
          "type": "bool"
        }
      ],
      "name": "updatePoints",
      "outputs": [],
      "stateMutability": "nonpayable",
      "type": "function"
    },
    {
      "inputs": [
        {
          "internalType": "address",
          "name": "userAddress",
          "type": "address"
        },
        {
          "internalType": "string",
          "name": "newRole",
          "type": "string"
        }
      ],
      "name": "updateRole",
      "outputs": [],
      "stateMutability": "nonpayable",
      "type": "function"
    },
    {
      "inputs": [
        {
          "internalType": "string",
          "name": "name",
          "type": "string"
        },
        {
          "internalType": "string",
          "name": "email",
          "type": "string"
        },
        {
          "internalType": "string",
          "name": "phone",
          "type": "string"
        },
        {
          "internalType": "string",
          "name": "addressDetails",
          "type": "string"
        },
        {
          "internalType": "string",
          "name": "profileImage",
          "type": "string"
        }
      ],
      "name": "updateUser",
      "outputs": [],
      "stateMutability": "nonpayable",
      "type": "function"
    },
    {
      "inputs": [],
      "name": "deleteUser",
      "outputs": [],
      "stateMutability": "nonpayable",
      "type": "function"
    }
  ],
  "bytecode": "0x608060405234801561001057600080fd5b50336000806101000a81548173ffffffffffffffffffffffffffffffffffffffff021916908373ffffffffffffffffffffffffffffffffffffffff160217905550612026806100606000396000f3fe608060405234801561001057600080fd5b506004361061007d5760003560e01c8063775c6f401161005b578063775c6f40146100e15780638da5cb5b146100fd578063bfcecc511461011b578063c2bb5e13146101375761007d565b806301dadb2b14610082578063026ff05e1461009e5780636f77926b146100a8575b600080fd5b61009c6004803603810190610097919061188a565b610153565b005b6100a66103fe565b005b6100c260048036038101906100bd91906116cf565b6105a8565b6040516100d89a99989796959493929190611bbd565b60405180910390f35b6100fb60048036038101906100f691906116f8565b610b19565b005b610105610c51565b6040516101129190611b49565b60405180910390f35b6101356004803603810190610130919061179b565b610c75565b005b610151600480360381019061014c919061174c565b610f01565b005b600160003373ffffffffffffffffffffffffffffffffffffffff1673ffffffffffffffffffffffffffffffffffffffff16815260200190815260200160002060090160009054906101000a900460ff16156101e3576040517f08c379a00000000000000000000000000000000000000000000000000000000081526004016101da90611cac565b60405180910390fd5b6040518061014001604052808781526020018681526020018581526020018481526020018381526020016040518060400160405280600681526020017f51756172747a00000000000000000000000000000000000000000000000000008152508152602001600081526020016000815260200182815260200160011515815250600160003373ffffffffffffffffffffffffffffffffffffffff1673ffffffffffffffffffffffffffffffffffffffff16815260200190815260200160002060008201518160000190805190602001906102be929190611545565b5060208201518160010190805190602001906102db929190611545565b5060408201518160020190805190602001906102f8929190611545565b506060820151816003019080519060200190610315929190611545565b506080820151816004019080519060200190610332929190611545565b5060a082015181600501908051906020019061034f929190611545565b5060c0820151816006015560e08201518160070155610100820151816008019080519060200190610381929190611545565b506101208201518160090160006101000a81548160ff0219169083151502179055509050503373ffffffffffffffffffffffffffffffffffffffff167fa2e1d286e25c6fce64acccdfd7a54d53cce2f617ddff648ab1dbb3458ccdd95b86836040516103ee929190611b86565b60405180910390a2505050505050565b600160003373ffffffffffffffffffffffffffffffffffffffff1673ffffffffffffffffffffffffffffffffffffffff16815260200190815260200160002060090160009054906101000a900460ff1661048d576040517f08c379a000000000000000000000000000000000000000000000000000000000815260040161048490611ccc565b60405180910390fd5b600160003373ffffffffffffffffffffffffffffffffffffffff1673ffffffffffffffffffffffffffffffffffffffff168152602001908152602001600020600080820160006104dd91906115cb565b6001820160006104ed91906115cb565b6002820160006104fd91906115cb565b60038201600061050d91906115cb565b60048201600061051d91906115cb565b60058201600061052d91906115cb565b6006820160009055600782016000905560088201600061054d91906115cb565b6009820160006101000a81549060ff021916905550503373ffffffffffffffffffffffffffffffffffffffff167f4bc56f1321288dfb5b416cb3a7fd188723979f9e866c91d88eccf7fca039d03960405160405180910390a2565b60608060608060608060008060606000600160008c73ffffffffffffffffffffffffffffffffffffffff1673ffffffffffffffffffffffffffffffffffffffff16815260200190815260200160002060090160009054906101000a900460ff16610647576040517f08c379a000000000000000000000000000000000000000000000000000000000815260040161063e90611ccc565b60405180910390fd5b6000600160008d73ffffffffffffffffffffffffffffffffffffffff1673ffffffffffffffffffffffffffffffffffffffff168152602001908152602001600020604051806101400160405290816000820180546106a490611edb565b80601f01602080910402602001604051908101604052809291908181526020018280546106d090611edb565b801561071d5780601f106106f25761010080835404028352916020019161071d565b820191906000526020600020905b81548152906001019060200180831161070057829003601f168201915b5050505050815260200160018201805461073690611edb565b80601f016020809104026020016040519081016040528092919081815260200182805461076290611edb565b80156107af5780601f10610784576101008083540402835291602001916107af565b820191906000526020600020905b81548152906001019060200180831161079257829003601f168201915b505050505081526020016002820180546107c890611edb565b80601f01602080910402602001604051908101604052809291908181526020018280546107f490611edb565b80156108415780601f1061081657610100808354040283529160200191610841565b820191906000526020600020905b81548152906001019060200180831161082457829003601f168201915b5050505050815260200160038201805461085a90611edb565b80601f016020809104026020016040519081016040528092919081815260200182805461088690611edb565b80156108d35780601f106108a8576101008083540402835291602001916108d3565b820191906000526020600020905b8154815290600101906020018083116108b657829003601f168201915b505050505081526020016004820180546108ec90611edb565b80601f016020809104026020016040519081016040528092919081815260200182805461091890611edb565b80156109655780601f1061093a57610100808354040283529160200191610965565b820191906000526020600020905b81548152906001019060200180831161094857829003601f168201915b5050505050815260200160058201805461097e90611edb565b80601f01602080910402602001604051908101604052809291908181526020018280546109aa90611edb565b80156109f75780601f106109cc576101008083540402835291602001916109f7565b820191906000526020600020905b8154815290600101906020018083116109da57829003601f168201915b505050505081526020016006820154815260200160078201548152602001600882018054610a2490611edb565b80601f0160208091040260200160405190810160405280929190818152602001828054610a5090611edb565b8015610a9d5780601f10610a7257610100808354040283529160200191610a9d565b820191906000526020600020905b815481529060010190602001808311610a8057829003601f168201915b505050505081526020016009820160009054906101000a900460ff1615151515815250509050806000015181602001518260400151836060015184608001518560a001518660c001518760e001518861010001518961012001519a509a509a509a509a509a509a509a509a509a50509193959799509193959799565b600160008373ffffffffffffffffffffffffffffffffffffffff1673ffffffffffffffffffffffffffffffffffffffff16815260200190815260200160002060090160009054906101000a900460ff16610ba8576040517f08c379a0000000000000000000000000000000000000000000000000000000008152600401610b9f90611ccc565b60405180910390fd5b80600160008473ffffffffffffffffffffffffffffffffffffffff1673ffffffffffffffffffffffffffffffffffffffff1681526020019081526020016000206008019080519060200190610bfe929190611545565b508173ffffffffffffffffffffffffffffffffffffffff167ffb0733d4c642f8b394fd66828f8d04912a7d6b0d230aa38922e35f7810e1b0ec82604051610c459190611b64565b60405180910390a25050565b60008054906101000a900473ffffffffffffffffffffffffffffffffffffffff1681565b600160003373ffffffffffffffffffffffffffffffffffffffff1673ffffffffffffffffffffffffffffffffffffffff16815260200190815260200160002060090160009054906101000a900460ff16610d04576040517f08c379a0000000000000000000000000000000000000000000000000000000008152600401610cfb90611ccc565b60405180910390fd5b84600160003373ffffffffffffffffffffffffffffffffffffffff1673ffffffffffffffffffffffffffffffffffffffff1681526020019081526020016000206001019080519060200190610d5a929190611545565b5083600160003373ffffffffffffffffffffffffffffffffffffffff1673ffffffffffffffffffffffffffffffffffffffff1681526020019081526020016000206000019080519060200190610db1929190611545565b5082600160003373ffffffffffffffffffffffffffffffffffffffff1673ffffffffffffffffffffffffffffffffffffffff1681526020019081526020016000206002019080519060200190610e08929190611545565b5081600160003373ffffffffffffffffffffffffffffffffffffffff1673ffffffffffffffffffffffffffffffffffffffff1681526020019081526020016000206003019080519060200190610e5f929190611545565b5080600160003373ffffffffffffffffffffffffffffffffffffffff1673ffffffffffffffffffffffffffffffffffffffff1681526020019081526020016000206004019080519060200190610eb6929190611545565b503373ffffffffffffffffffffffffffffffffffffffff167f0163b5f10e25c839f35e6f2b201b31e88e17f49e6956232de5d2e6bbae3b78b860405160405180910390a25050505050565b600160008473ffffffffffffffffffffffffffffffffffffffff1673ffffffffffffffffffffffffffffffffffffffff16815260200190815260200160002060090160009054906101000a900460ff16610f90576040517f08c379a0000000000000000000000000000000000000000000000000000000008152600401610f8790611ccc565b60405180910390fd5b801561104d5781600160008573ffffffffffffffffffffffffffffffffffffffff1673ffffffffffffffffffffffffffffffffffffffff1681526020019081526020016000206006016000828254610fe89190611dc7565b9250508190555081600160008573ffffffffffffffffffffffffffffffffffffffff1673ffffffffffffffffffffffffffffffffffffffff16815260200190815260200160002060070160008282546110419190611dc7565b9250508190555061112c565b81600160008573ffffffffffffffffffffffffffffffffffffffff1673ffffffffffffffffffffffffffffffffffffffff1681526020019081526020016000206007015410156110d2576040517f08c379a00000000000000000000000000000000000000000000000000000000081526004016110c990611cec565b60405180910390fd5b81600160008573ffffffffffffffffffffffffffffffffffffffff1673ffffffffffffffffffffffffffffffffffffffff16815260200190815260200160002060070160008282546111249190611e1d565b925050819055505b6111358361120e565b8273ffffffffffffffffffffffffffffffffffffffff167feceb10b266995afd3009502df537b0421b7f635dd268f4b0a74b99a87be65213600160008673ffffffffffffffffffffffffffffffffffffffff1673ffffffffffffffffffffffffffffffffffffffff16815260200190815260200160002060060154600160008773ffffffffffffffffffffffffffffffffffffffff1673ffffffffffffffffffffffffffffffffffffffff16815260200190815260200160002060070154604051611201929190611d0c565b60405180910390a2505050565b6000600160008373ffffffffffffffffffffffffffffffffffffffff1673ffffffffffffffffffffffffffffffffffffffff16815260200190815260200160002060060154905061271081106112ef576040518060400160405280600781526020017f4469616d6f6e6400000000000000000000000000000000000000000000000000815250600160008473ffffffffffffffffffffffffffffffffffffffff1673ffffffffffffffffffffffffffffffffffffffff16815260200190815260200160002060050190805190602001906112e9929190611545565b506114b2565b6113888110611389576040518060400160405280600881526020017f5361707068697265000000000000000000000000000000000000000000000000815250600160008473ffffffffffffffffffffffffffffffffffffffff1673ffffffffffffffffffffffffffffffffffffffff1681526020019081526020016000206005019080519060200190611383929190611545565b506114b1565b6103e88110611423576040518060400160405280600781526020017f456d6572616c6400000000000000000000000000000000000000000000000000815250600160008473ffffffffffffffffffffffffffffffffffffffff1673ffffffffffffffffffffffffffffffffffffffff168152602001908152602001600020600501908051906020019061141d929190611545565b506114b0565b6040518060400160405280600681526020017f51756172747a0000000000000000000000000000000000000000000000000000815250600160008473ffffffffffffffffffffffffffffffffffffffff1673ffffffffffffffffffffffffffffffffffffffff16815260200190815260200160002060050190805190602001906114ae929190611545565b505b5b5b8173ffffffffffffffffffffffffffffffffffffffff167f7c5463c5531ead7f0ba72ac58bed8430f619c4cfe506277c9d84245129f0df7a600160008573ffffffffffffffffffffffffffffffffffffffff1673ffffffffffffffffffffffffffffffffffffffff1681526020019081526020016000206005016040516115399190611c8a565b60405180910390a25050565b82805461155190611edb565b90600052602060002090601f01602090048101928261157357600085556115ba565b82601f1061158c57805160ff19168380011785556115ba565b828001600101855582156115ba579182015b828111156115b957825182559160200191906001019061159e565b5b5090506115c7919061160b565b5090565b5080546115d790611edb565b6000825580601f106115e95750611608565b601f016020900490600052602060002090810190611607919061160b565b5b50565b5b8082111561162457600081600090555060010161160c565b5090565b600061163b61163684611d66565b611d35565b90508281526020810184848401111561165357600080fd5b61165e848285611e99565b509392505050565b60008135905061167581611fab565b92915050565b60008135905061168a81611fc2565b92915050565b600082601f8301126116a157600080fd5b81356116b1848260208601611628565b91505092915050565b6000813590506116c981611fd9565b92915050565b6000602082840312156116e157600080fd5b60006116ef84828501611666565b91505092915050565b6000806040838503121561170b57600080fd5b600061171985828601611666565b925050602083013567ffffffffffffffff81111561173657600080fd5b61174285828601611690565b9150509250929050565b60008060006060848603121561176157600080fd5b600061176f86828701611666565b9350506020611780868287016116ba565b92505060406117918682870161167b565b9150509250925092565b600080600080600060a086880312156117b357600080fd5b600086013567ffffffffffffffff8111156117cd57600080fd5b6117d988828901611690565b955050602086013567ffffffffffffffff8111156117f657600080fd5b61180288828901611690565b945050604086013567ffffffffffffffff81111561181f57600080fd5b61182b88828901611690565b935050606086013567ffffffffffffffff81111561184857600080fd5b61185488828901611690565b925050608086013567ffffffffffffffff81111561187157600080fd5b61187d88828901611690565b9150509295509295909350565b60008060008060008060c087890312156118a357600080fd5b600087013567ffffffffffffffff8111156118bd57600080fd5b6118c989828a01611690565b965050602087013567ffffffffffffffff8111156118e657600080fd5b6118f289828a01611690565b955050604087013567ffffffffffffffff81111561190f57600080fd5b61191b89828a01611690565b945050606087013567ffffffffffffffff81111561193857600080fd5b61194489828a01611690565b935050608087013567ffffffffffffffff81111561196157600080fd5b61196d89828a01611690565b92505060a087013567ffffffffffffffff81111561198a57600080fd5b61199689828a01611690565b9150509295509295509295565b6119ac81611e51565b82525050565b6119bb81611e63565b82525050565b60006119cc82611dab565b6119d68185611db6565b93506119e6818560208601611ea8565b6119ef81611f9a565b840191505092915050565b60008154611a0781611edb565b611a118186611db6565b94506001821660008114611a2c5760018114611a3e57611a71565b60ff1983168652602086019350611a71565b611a4785611d96565b60005b83811015611a6957815481890152600182019150602081019050611a4a565b808801955050505b50505092915050565b6000611a87601383611db6565b91507f5573657220616c726561647920657869737473000000000000000000000000006000830152602082019050919050565b6000611ac7601383611db6565b91507f5573657220646f6573206e6f74206578697374000000000000000000000000006000830152602082019050919050565b6000611b07601383611db6565b91507f496e73756666696369656e7420706f696e7473000000000000000000000000006000830152602082019050919050565b611b4381611e8f565b82525050565b6000602082019050611b5e60008301846119a3565b92915050565b60006020820190508181036000830152611b7e81846119c1565b905092915050565b60006040820190508181036000830152611ba081856119c1565b90508181036020830152611bb481846119c1565b90509392505050565b6000610140820190508181036000830152611bd8818d6119c1565b90508181036020830152611bec818c6119c1565b90508181036040830152611c00818b6119c1565b90508181036060830152611c14818a6119c1565b90508181036080830152611c2881896119c1565b905081810360a0830152611c3c81886119c1565b9050611c4b60c0830187611b3a565b611c5860e0830186611b3a565b818103610100830152611c6b81856119c1565b9050611c7b6101208301846119b2565b9b9a5050505050505050505050565b60006020820190508181036000830152611ca481846119fa565b905092915050565b60006020820190508181036000830152611cc581611a7a565b9050919050565b60006020820190508181036000830152611ce581611aba565b9050919050565b60006020820190508181036000830152611d0581611afa565b9050919050565b6000604082019050611d216000830185611b3a565b611d2e6020830184611b3a565b9392505050565b6000604051905081810181811067ffffffffffffffff82111715611d5c57611d5b611f6b565b5b8060405250919050565b600067ffffffffffffffff821115611d8157611d80611f6b565b5b601f19601f8301169050602081019050919050565b60008190508160005260206000209050919050565b600081519050919050565b600082825260208201905092915050565b6000611dd282611e8f565b9150611ddd83611e8f565b9250827fffffffffffffffffffffffffffffffffffffffffffffffffffffffffffffffff03821115611e1257611e11611f0d565b5b828201905092915050565b6000611e2882611e8f565b9150611e3383611e8f565b925082821015611e4657611e45611f0d565b5b828203905092915050565b6000611e5c82611e6f565b9050919050565b60008115159050919050565b600073ffffffffffffffffffffffffffffffffffffffff82169050919050565b6000819050919050565b82818337600083830152505050565b60005b83811015611ec6578082015181840152602081019050611eab565b83811115611ed5576000848401525b50505050565b60006002820490506001821680611ef357607f821691505b60208210811415611f0757611f06611f3c565b5b50919050565b7f4e487b7100000000000000000000000000000000000000000000000000000000600052601160045260246000fd5b7f4e487b7100000000000000000000000000000000000000000000000000000000600052602260045260246000fd5b7f4e487b7100000000000000000000000000000000000000000000000000000000600052604160045260246000fd5b6000601f19601f8301169050919050565b611fb481611e51565b8114611fbf57600080fd5b50565b611fcb81611e63565b8114611fd657600080fd5b50565b611fe281611e8f565b8114611fed57600080fd5b5056fea2646970667358221220c1380827c462d2e049bd8e550c24031a64cb418c920b32210654c10ceeb00e4164736f6c63430008000033",
  "immutableReferences": {},
  "source": "// SPDX-License-Identifier: MIT\r\npragma solidity ^0.8.0;\r\n\r\ncontract PointlyUser {\r\n    // Owner of the contract (platform admin)\r\n    address public owner;\r\n\r\n    // User structure for storing user data\r\n    struct User {\r\n        string email;\r\n        string name;\r\n        string phone;\r\n        string addressDetails; // Renamed to avoid keyword conflict\r\n        string profileImage;\r\n        string tier;\r\n        uint256 totalPoints;\r\n        uint256 availablePoints;\r\n        string role; // New field for the user's role\r\n        bool exists; // To check if a user exists\r\n    }\r\n\r\n    // Mapping of addresses to users\r\n    mapping(address => User) private users;\r\n\r\n    // Events for logging actions\r\n    event UserCreated(address indexed userAddress, string name, string role);\r\n    event PointsUpdated(address indexed userAddress, uint256 newTotalPoints, uint256 newAvailablePoints);\r\n    event TierUpdated(address indexed userAddress, string newTier);\r\n    event UserDeleted(address indexed userAddress);\r\n    event RoleUpdated(address indexed userAddress, string newRole);\r\n    event UserUpdated(address indexed userAddress);  // Event for user update\r\n\r\n    // Constructor to initialize the contract owner\r\n    constructor() {\r\n        owner = msg.sender; // Assign contract deployer as owner\r\n    }\r\n\r\n    // Function to create a new user\r\n    function createUser(\r\n        string memory email,\r\n        string memory name,\r\n        string memory phone,\r\n        string memory addressDetails,\r\n        string memory profileImage,\r\n        string memory role // Role added when creating user\r\n    ) public {\r\n        require(!users[msg.sender].exists, \"User already exists\");\r\n\r\n        users[msg.sender] = User({\r\n            email: email,\r\n            name: name,\r\n            phone: phone,\r\n            addressDetails: addressDetails,\r\n            profileImage: profileImage,\r\n            tier: \"Quartz\",\r\n            totalPoints: 0,\r\n            availablePoints: 0,\r\n            role: role,  // Assign the role to the user\r\n            exists: true\r\n        });\r\n\r\n        emit UserCreated(msg.sender, name, role);\r\n    }\r\n\r\n    // Function to get user details\r\n    function getUser(address userAddress) \r\n    public \r\n    view \r\n    returns (\r\n        string memory email,\r\n        string memory name,\r\n        string memory phone,\r\n        string memory addressDetails,\r\n        string memory profileImage,\r\n        string memory tier,\r\n        uint256 totalPoints,\r\n        uint256 availablePoints,\r\n        string memory role,  // Include role in the return values\r\n        bool exists\r\n    ) \r\n    {\r\n        require(users[userAddress].exists, \"User does not exist\");\r\n        User memory user = users[userAddress];\r\n\r\n        return (\r\n            user.email,\r\n            user.name,\r\n            user.phone,\r\n            user.addressDetails,\r\n            user.profileImage,\r\n            user.tier,\r\n            user.totalPoints,\r\n            user.availablePoints,\r\n            user.role,  // Return the role of the user\r\n            user.exists\r\n        );\r\n    }\r\n\r\n    // Function to update points\r\n    function updatePoints(address userAddress, uint256 points, bool isAddition) public {\r\n        require(users[userAddress].exists, \"User does not exist\");\r\n\r\n        if (isAddition) {\r\n            users[userAddress].totalPoints += points;\r\n            users[userAddress].availablePoints += points;\r\n        } else {\r\n            require(users[userAddress].availablePoints >= points, \"Insufficient points\");\r\n            users[userAddress].availablePoints -= points;\r\n        }\r\n\r\n        updateUserTier(userAddress);\r\n\r\n        emit PointsUpdated(\r\n            userAddress,\r\n            users[userAddress].totalPoints,\r\n            users[userAddress].availablePoints\r\n        );\r\n    }\r\n\r\n    // Internal function to update the user's tier\r\n    function updateUserTier(address userAddress) internal {\r\n        uint256 totalPoints = users[userAddress].totalPoints;\r\n\r\n        if (totalPoints >= 10000) {\r\n            users[userAddress].tier = \"Diamond\";\r\n        } else if (totalPoints >= 5000) {\r\n            users[userAddress].tier = \"Sapphire\";\r\n        } else if (totalPoints >= 1000) {\r\n            users[userAddress].tier = \"Emerald\";\r\n        } else {\r\n            users[userAddress].tier = \"Quartz\";\r\n        }\r\n\r\n        emit TierUpdated(userAddress, users[userAddress].tier);\r\n    }\r\n\r\n    // Function to update user role\r\n    function updateRole(address userAddress, string memory newRole) public {\r\n        require(users[userAddress].exists, \"User does not exist\");\r\n\r\n        users[userAddress].role = newRole;\r\n        emit RoleUpdated(userAddress, newRole);\r\n    }\r\n\r\n    // New function to update user details\r\n    function updateUser(\r\n        string memory name,\r\n        string memory email,\r\n        string memory phone,\r\n        string memory addressDetails,\r\n        string memory profileImage\r\n    ) public {\r\n        require(users[msg.sender].exists, \"User does not exist\");\r\n\r\n        // Update the user's data\r\n        users[msg.sender].name = name;\r\n        users[msg.sender].email = email;\r\n        users[msg.sender].phone = phone;\r\n        users[msg.sender].addressDetails = addressDetails;\r\n        users[msg.sender].profileImage = profileImage;\r\n\r\n        // Emit the update event\r\n        emit UserUpdated(msg.sender);\r\n    }\r\n\r\n    // Function to delete a user\r\n    function deleteUser() public {\r\n        require(users[msg.sender].exists, \"User does not exist\");\r\n\r\n        delete users[msg.sender];\r\n        emit UserDeleted(msg.sender);\r\n    }\r\n}\r\n",
  "sourcePath": "C:\\Users\\user\\Documents\\MMU\\Pointly-Blockchain\\contracts\\PointlyUser.sol",
  "compiler": {
    "name": "solc",
    "version": "0.8.0+commit.c7dfd78e.Emscripten.clang"
  },
  "schemaVersion": "3.4.16",
  "updatedAt": "2025-01-20T08:45:48.590Z",
  "networkType": "ethereum",
  "devdoc": {
    "kind": "dev",
    "methods": {},
    "version": 1
  },
  "userdoc": {
    "kind": "user",
    "methods": {},
    "version": 1
  }
}