{
  "contractName": "Rewards",
  "abi": [
    {
      "inputs": [
        {
          "internalType": "address",
          "name": "_pointlyUserContract",
          "type": "address"
        }
      ],
      "stateMutability": "nonpayable",
      "type": "constructor"
    },
    {
      "anonymous": false,
      "inputs": [
        {
          "indexed": true,
          "internalType": "address",
          "name": "user",
          "type": "address"
        },
        {
          "indexed": false,
          "internalType": "uint256",
          "name": "points",
          "type": "uint256"
        }
      ],
      "name": "PointsAdded",
      "type": "event"
    },
    {
      "anonymous": false,
      "inputs": [
        {
          "indexed": false,
          "internalType": "uint256",
          "name": "rewardId",
          "type": "uint256"
        },
        {
          "indexed": false,
          "internalType": "string",
          "name": "name",
          "type": "string"
        },
        {
          "indexed": false,
          "internalType": "uint256",
          "name": "cost",
          "type": "uint256"
        }
      ],
      "name": "RewardAdded",
      "type": "event"
    },
    {
      "anonymous": false,
      "inputs": [
        {
          "indexed": false,
          "internalType": "uint256",
          "name": "rewardId",
          "type": "uint256"
        }
      ],
      "name": "RewardDeactivated",
      "type": "event"
    },
    {
      "anonymous": false,
      "inputs": [
        {
          "indexed": false,
          "internalType": "uint256",
          "name": "rewardId",
          "type": "uint256"
        },
        {
          "indexed": false,
          "internalType": "string",
          "name": "name",
          "type": "string"
        },
        {
          "indexed": false,
          "internalType": "uint256",
          "name": "cost",
          "type": "uint256"
        }
      ],
      "name": "RewardEdited",
      "type": "event"
    },
    {
      "anonymous": false,
      "inputs": [
        {
          "indexed": true,
          "internalType": "address",
          "name": "user",
          "type": "address"
        },
        {
          "indexed": false,
          "internalType": "uint256",
          "name": "rewardId",
          "type": "uint256"
        }
      ],
      "name": "RewardRedeemed",
      "type": "event"
    },
    {
      "inputs": [],
      "name": "owner",
      "outputs": [
        {
          "internalType": "address",
          "name": "",
          "type": "address"
        }
      ],
      "stateMutability": "view",
      "type": "function",
      "constant": true
    },
    {
      "inputs": [],
      "name": "pointlyUserContract",
      "outputs": [
        {
          "internalType": "address",
          "name": "",
          "type": "address"
        }
      ],
      "stateMutability": "view",
      "type": "function",
      "constant": true
    },
    {
      "inputs": [],
      "name": "rewardCounter",
      "outputs": [
        {
          "internalType": "uint256",
          "name": "",
          "type": "uint256"
        }
      ],
      "stateMutability": "view",
      "type": "function",
      "constant": true
    },
    {
      "inputs": [
        {
          "internalType": "address",
          "name": "",
          "type": "address"
        },
        {
          "internalType": "uint256",
          "name": "",
          "type": "uint256"
        }
      ],
      "name": "rewardRedeemed",
      "outputs": [
        {
          "internalType": "bool",
          "name": "",
          "type": "bool"
        }
      ],
      "stateMutability": "view",
      "type": "function",
      "constant": true
    },
    {
      "inputs": [
        {
          "internalType": "uint256",
          "name": "",
          "type": "uint256"
        }
      ],
      "name": "rewards",
      "outputs": [
        {
          "internalType": "uint256",
          "name": "id",
          "type": "uint256"
        },
        {
          "internalType": "string",
          "name": "name",
          "type": "string"
        },
        {
          "internalType": "string",
          "name": "description",
          "type": "string"
        },
        {
          "internalType": "uint256",
          "name": "cost",
          "type": "uint256"
        },
        {
          "internalType": "string",
          "name": "img",
          "type": "string"
        },
        {
          "internalType": "uint256",
          "name": "expiration",
          "type": "uint256"
        },
        {
          "internalType": "bool",
          "name": "isActive",
          "type": "bool"
        }
      ],
      "stateMutability": "view",
      "type": "function",
      "constant": true
    },
    {
      "inputs": [
        {
          "internalType": "address",
          "name": "",
          "type": "address"
        }
      ],
      "name": "userPoints",
      "outputs": [
        {
          "internalType": "uint256",
          "name": "",
          "type": "uint256"
        }
      ],
      "stateMutability": "view",
      "type": "function",
      "constant": true
    },
    {
      "inputs": [
        {
          "internalType": "string",
          "name": "name",
          "type": "string"
        },
        {
          "internalType": "string",
          "name": "description",
          "type": "string"
        },
        {
          "internalType": "uint256",
          "name": "cost",
          "type": "uint256"
        },
        {
          "internalType": "string",
          "name": "img",
          "type": "string"
        },
        {
          "internalType": "uint256",
          "name": "expiration",
          "type": "uint256"
        },
        {
          "internalType": "string[]",
          "name": "terms",
          "type": "string[]"
        }
      ],
      "name": "addReward",
      "outputs": [],
      "stateMutability": "nonpayable",
      "type": "function"
    },
    {
      "inputs": [
        {
          "internalType": "uint256",
          "name": "rewardId",
          "type": "uint256"
        },
        {
          "internalType": "string",
          "name": "name",
          "type": "string"
        },
        {
          "internalType": "string",
          "name": "description",
          "type": "string"
        },
        {
          "internalType": "uint256",
          "name": "cost",
          "type": "uint256"
        },
        {
          "internalType": "string",
          "name": "img",
          "type": "string"
        },
        {
          "internalType": "uint256",
          "name": "expiration",
          "type": "uint256"
        },
        {
          "internalType": "string[]",
          "name": "terms",
          "type": "string[]"
        }
      ],
      "name": "editReward",
      "outputs": [],
      "stateMutability": "nonpayable",
      "type": "function"
    },
    {
      "inputs": [
        {
          "internalType": "uint256",
          "name": "rewardId",
          "type": "uint256"
        }
      ],
      "name": "deactivateReward",
      "outputs": [],
      "stateMutability": "nonpayable",
      "type": "function"
    },
    {
      "inputs": [],
      "name": "getAllRewards",
      "outputs": [
        {
          "components": [
            {
              "internalType": "uint256",
              "name": "id",
              "type": "uint256"
            },
            {
              "internalType": "string",
              "name": "name",
              "type": "string"
            },
            {
              "internalType": "string",
              "name": "description",
              "type": "string"
            },
            {
              "internalType": "uint256",
              "name": "cost",
              "type": "uint256"
            },
            {
              "internalType": "string",
              "name": "img",
              "type": "string"
            },
            {
              "internalType": "uint256",
              "name": "expiration",
              "type": "uint256"
            },
            {
              "internalType": "string[]",
              "name": "terms",
              "type": "string[]"
            },
            {
              "internalType": "bool",
              "name": "isActive",
              "type": "bool"
            }
          ],
          "internalType": "struct Rewards.Reward[]",
          "name": "",
          "type": "tuple[]"
        }
      ],
      "stateMutability": "view",
      "type": "function",
      "constant": true
    },
    {
      "inputs": [
        {
          "internalType": "uint256",
          "name": "rewardId",
          "type": "uint256"
        }
      ],
      "name": "redeemReward",
      "outputs": [],
      "stateMutability": "nonpayable",
      "type": "function"
    },
    {
      "inputs": [
        {
          "internalType": "uint256",
          "name": "rewardId",
          "type": "uint256"
        }
      ],
      "name": "getRewardDetails",
      "outputs": [
        {
          "components": [
            {
              "internalType": "uint256",
              "name": "id",
              "type": "uint256"
            },
            {
              "internalType": "string",
              "name": "name",
              "type": "string"
            },
            {
              "internalType": "string",
              "name": "description",
              "type": "string"
            },
            {
              "internalType": "uint256",
              "name": "cost",
              "type": "uint256"
            },
            {
              "internalType": "string",
              "name": "img",
              "type": "string"
            },
            {
              "internalType": "uint256",
              "name": "expiration",
              "type": "uint256"
            },
            {
              "internalType": "string[]",
              "name": "terms",
              "type": "string[]"
            },
            {
              "internalType": "bool",
              "name": "isActive",
              "type": "bool"
            }
          ],
          "internalType": "struct Rewards.Reward",
          "name": "",
          "type": "tuple"
        }
      ],
      "stateMutability": "view",
      "type": "function",
      "constant": true
    },
    {
      "inputs": [
        {
          "internalType": "address",
          "name": "user",
          "type": "address"
        }
      ],
      "name": "checkRedeemedRewards",
      "outputs": [
        {
          "internalType": "uint256[]",
          "name": "",
          "type": "uint256[]"
        }
      ],
      "stateMutability": "view",
      "type": "function",
      "constant": true
    },
    {
      "inputs": [
        {
          "internalType": "address",
          "name": "user",
          "type": "address"
        }
      ],
      "name": "getUserRole",
      "outputs": [
        {
          "internalType": "string",
          "name": "",
          "type": "string"
        }
      ],
      "stateMutability": "view",
      "type": "function",
      "constant": true
    }
  ],
  "bytecode": "0x60806040523480156200001157600080fd5b5060405162002d5338038062002d538339818101604052810190620000379190620000d6565b336000806101000a81548173ffffffffffffffffffffffffffffffffffffffff021916908373ffffffffffffffffffffffffffffffffffffffff16021790555080600160006101000a81548173ffffffffffffffffffffffffffffffffffffffff021916908373ffffffffffffffffffffffffffffffffffffffff1602179055505062000150565b600081519050620000d08162000136565b92915050565b600060208284031215620000e957600080fd5b6000620000f984828501620000bf565b91505092915050565b60006200010f8262000116565b9050919050565b600073ffffffffffffffffffffffffffffffffffffffff82169050919050565b620001418162000102565b81146200014d57600080fd5b50565b612bf380620001606000396000f3fe608060405234801561001057600080fd5b50600436106100cf5760003560e01c80638698fec61161008c578063eabdc5b411610066578063eabdc5b414610226578063eba9280914610242578063f301af421461025e578063f50ddbc714610294576100cf565b80638698fec6146101a85780638da5cb5b146101d85780639c6a90d8146101f6576100cf565b806327820851146100d45780633c1f84da1461010457806345b35f56146101345780634a064f841461015257806351a71b1714610170578063583ab4451461018c575b600080fd5b6100ee60048036038101906100e99190611ba6565b6102c4565b6040516100fb9190612650565b60405180910390f35b61011e60048036038101906101199190611bcf565b61038c565b60405161012b9190612635565b60405180910390f35b61013c6103bb565b60405161014991906125f1565b60405180910390f35b61015a610829565b60405161016791906125d6565b60405180910390f35b61018a60048036038101906101859190611e77565b61084f565b005b6101a660048036038101906101a19190611d8e565b610b66565b005b6101c260048036038101906101bd9190611e77565b610d60565b6040516101cf9190612732565b60405180910390f35b6101e06110b9565b6040516101ed91906125d6565b60405180910390f35b610210600480360381019061020b9190611ba6565b6110dd565b60405161021d9190612613565b60405180910390f35b610240600480360381019061023b9190611e77565b6112d1565b005b61025c60048036038101906102579190611ea0565b611431565b005b61027860048036038101906102739190611e77565b61164e565b60405161028b979695949392919061276f565b60405180910390f35b6102ae60048036038101906102a99190611ba6565b611835565b6040516102bb9190612754565b60405180910390f35b60606000600160009054906101000a900473ffffffffffffffffffffffffffffffffffffffff1673ffffffffffffffffffffffffffffffffffffffff16636f77926b846040518263ffffffff1660e01b815260040161032391906125d6565b60006040518083038186803b15801561033b57600080fd5b505afa15801561034f573d6000803e3d6000fd5b505050506040513d6000823e3d601f19601f820116820180604052508101906103789190611c0b565b509850505050505050505080915050919050565b60056020528160005260406000206020528060005260406000206000915091509054906101000a900460ff1681565b6060600080600190505b6002548111610419576003600082815260200190815260200160002060070160009054906101000a900460ff161561040657818061040290612a91565b9250505b808061041190612a91565b9150506103c5565b5060008167ffffffffffffffff81111561045c577f4e487b7100000000000000000000000000000000000000000000000000000000600052604160045260246000fd5b60405190808252806020026020018201604052801561049557816020015b61048261184d565b81526020019060019003908161047a5790505b509050600080600190505b600254811161081f576003600082815260200190815260200160002060070160009054906101000a900460ff161561080c5760036000828152602001908152602001600020604051806101000160405290816000820154815260200160018201805461050b90612a5f565b80601f016020809104026020016040519081016040528092919081815260200182805461053790612a5f565b80156105845780601f1061055957610100808354040283529160200191610584565b820191906000526020600020905b81548152906001019060200180831161056757829003601f168201915b5050505050815260200160028201805461059d90612a5f565b80601f01602080910402602001604051908101604052809291908181526020018280546105c990612a5f565b80156106165780601f106105eb57610100808354040283529160200191610616565b820191906000526020600020905b8154815290600101906020018083116105f957829003601f168201915b505050505081526020016003820154815260200160048201805461063990612a5f565b80601f016020809104026020016040519081016040528092919081815260200182805461066590612a5f565b80156106b25780601f10610687576101008083540402835291602001916106b2565b820191906000526020600020905b81548152906001019060200180831161069557829003601f168201915b505050505081526020016005820154815260200160068201805480602002602001604051908101604052809291908181526020016000905b8282101561079657838290600052602060002001805461070990612a5f565b80601f016020809104026020016040519081016040528092919081815260200182805461073590612a5f565b80156107825780601f1061075757610100808354040283529160200191610782565b820191906000526020600020905b81548152906001019060200180831161076557829003601f168201915b5050505050815260200190600101906106ea565b5050505081526020016007820160009054906101000a900460ff1615151515815250508383815181106107f2577f4e487b7100000000000000000000000000000000000000000000000000000000600052603260045260246000fd5b6020026020010181905250818061080890612a91565b9250505b808061081790612a91565b9150506104a0565b5081935050505090565b600160009054906101000a900473ffffffffffffffffffffffffffffffffffffffff1681565b6003600082815260200190815260200160002060070160009054906101000a900460ff166108b2576040517f08c379a00000000000000000000000000000000000000000000000000000000081526004016108a990612692565b60405180910390fd5b6003600082815260200190815260200160002060050154421061090a576040517f08c379a000000000000000000000000000000000000000000000000000000000815260040161090190612672565b60405180910390fd5b600560003373ffffffffffffffffffffffffffffffffffffffff1673ffffffffffffffffffffffffffffffffffffffff168152602001908152602001600020600082815260200190815260200160002060009054906101000a900460ff16156109a8576040517f08c379a000000000000000000000000000000000000000000000000000000000815260040161099f906126d2565b60405180910390fd5b6003600082815260200190815260200160002060030154600460003373ffffffffffffffffffffffffffffffffffffffff1673ffffffffffffffffffffffffffffffffffffffff168152602001908152602001600020541015610a40576040517f08c379a0000000000000000000000000000000000000000000000000000000008152600401610a37906126b2565b60405180910390fd5b6003600082815260200190815260200160002060030154600460003373ffffffffffffffffffffffffffffffffffffffff1673ffffffffffffffffffffffffffffffffffffffff1681526020019081526020016000206000828254610aa591906129a1565b925050819055506001600560003373ffffffffffffffffffffffffffffffffffffffff1673ffffffffffffffffffffffffffffffffffffffff168152602001908152602001600020600083815260200190815260200160002060006101000a81548160ff0219169083151502179055503373ffffffffffffffffffffffffffffffffffffffff167f9eac3fe9056119387c5d3c787803d1d83956985560f6780c569bb99870760e3682604051610b5b9190612754565b60405180910390a250565b604051602001610b75906125c1565b60405160208183030381529060405280519060200120610b94336102c4565b604051602001610ba491906125aa565b6040516020818303038152906040528051906020012014610bfa576040517f08c379a0000000000000000000000000000000000000000000000000000000008152600401610bf1906126f2565b60405180910390fd5b60026000815480929190610c0d90612a91565b9190505550604051806101000160405280600254815260200187815260200186815260200185815260200184815260200183815260200182815260200160011515815250600360006002548152602001908152602001600020600082015181600001556020820151816001019080519060200190610c8c929190611894565b506040820151816002019080519060200190610ca9929190611894565b50606082015181600301556080820151816004019080519060200190610cd0929190611894565b5060a0820151816005015560c0820151816006019080519060200190610cf792919061191a565b5060e08201518160070160006101000a81548160ff0219169083151502179055509050507f37c72785eab64b1da5fbd974ad0d1cabd3165254886ab44bb84dbb855c98db596002548786604051610d50939291906127f3565b60405180910390a1505050505050565b610d6861184d565b6003600083815260200190815260200160002060070160009054906101000a900460ff16610dcb576040517f08c379a0000000000000000000000000000000000000000000000000000000008152600401610dc290612692565b60405180910390fd5b600360008381526020019081526020016000206040518061010001604052908160008201548152602001600182018054610e0490612a5f565b80601f0160208091040260200160405190810160405280929190818152602001828054610e3090612a5f565b8015610e7d5780601f10610e5257610100808354040283529160200191610e7d565b820191906000526020600020905b815481529060010190602001808311610e6057829003601f168201915b50505050508152602001600282018054610e9690612a5f565b80601f0160208091040260200160405190810160405280929190818152602001828054610ec290612a5f565b8015610f0f5780601f10610ee457610100808354040283529160200191610f0f565b820191906000526020600020905b815481529060010190602001808311610ef257829003601f168201915b5050505050815260200160038201548152602001600482018054610f3290612a5f565b80601f0160208091040260200160405190810160405280929190818152602001828054610f5e90612a5f565b8015610fab5780601f10610f8057610100808354040283529160200191610fab565b820191906000526020600020905b815481529060010190602001808311610f8e57829003601f168201915b505050505081526020016005820154815260200160068201805480602002602001604051908101604052809291908181526020016000905b8282101561108f57838290600052602060002001805461100290612a5f565b80601f016020809104026020016040519081016040528092919081815260200182805461102e90612a5f565b801561107b5780601f106110505761010080835404028352916020019161107b565b820191906000526020600020905b81548152906001019060200180831161105e57829003601f168201915b505050505081526020019060010190610fe3565b5050505081526020016007820160009054906101000a900460ff1615151515815250509050919050565b60008054906101000a900473ffffffffffffffffffffffffffffffffffffffff1681565b6060600080600190505b600254811161117557600560008573ffffffffffffffffffffffffffffffffffffffff1673ffffffffffffffffffffffffffffffffffffffff168152602001908152602001600020600082815260200190815260200160002060009054906101000a900460ff161561116257818061115e90612a91565b9250505b808061116d90612a91565b9150506110e7565b5060008167ffffffffffffffff8111156111b8577f4e487b7100000000000000000000000000000000000000000000000000000000600052604160045260246000fd5b6040519080825280602002602001820160405280156111e65781602001602082028036833780820191505090505b509050600080600190505b60025481116112c557600560008773ffffffffffffffffffffffffffffffffffffffff1673ffffffffffffffffffffffffffffffffffffffff168152602001908152602001600020600082815260200190815260200160002060009054906101000a900460ff16156112b25780838381518110611297577f4e487b7100000000000000000000000000000000000000000000000000000000600052603260045260246000fd5b60200260200101818152505081806112ae90612a91565b9250505b80806112bd90612a91565b9150506111f1565b50819350505050919050565b6040516020016112e0906125c1565b604051602081830303815290604052805190602001206112ff336102c4565b60405160200161130f91906125aa565b6040516020818303038152906040528051906020012014611365576040517f08c379a000000000000000000000000000000000000000000000000000000000815260040161135c906126f2565b60405180910390fd5b6003600082815260200190815260200160002060070160009054906101000a900460ff166113c8576040517f08c379a00000000000000000000000000000000000000000000000000000000081526004016113bf90612712565b60405180910390fd5b60006003600083815260200190815260200160002060070160006101000a81548160ff0219169083151502179055507f385eed96ca33f0da03d900751711ff4392adf11be79222f4aa99f92e71a1da4f816040516114269190612754565b60405180910390a150565b604051602001611440906125c1565b6040516020818303038152906040528051906020012061145f336102c4565b60405160200161146f91906125aa565b60405160208183030381529060405280519060200120146114c5576040517f08c379a00000000000000000000000000000000000000000000000000000000081526004016114bc906126f2565b60405180910390fd5b6003600088815260200190815260200160002060070160009054906101000a900460ff16611528576040517f08c379a000000000000000000000000000000000000000000000000000000000815260040161151f90612692565b60405180910390fd5b85600360008981526020019081526020016000206001019080519060200190611552929190611894565b508460036000898152602001908152602001600020600201908051906020019061157d929190611894565b50836003600089815260200190815260200160002060030181905550826003600089815260200190815260200160002060040190805190602001906115c3929190611894565b508160036000898152602001908152602001600020600501819055508060036000898152602001908152602001600020600601908051906020019061160992919061191a565b507f7aa6f8f4815205e7cecf9a9ed4eb318e3a398d8559bc2cc374bf1725d233442587878660405161163d939291906127f3565b60405180910390a150505050505050565b600360205280600052604060002060009150905080600001549080600101805461167790612a5f565b80601f01602080910402602001604051908101604052809291908181526020018280546116a390612a5f565b80156116f05780601f106116c5576101008083540402835291602001916116f0565b820191906000526020600020905b8154815290600101906020018083116116d357829003601f168201915b50505050509080600201805461170590612a5f565b80601f016020809104026020016040519081016040528092919081815260200182805461173190612a5f565b801561177e5780601f106117535761010080835404028352916020019161177e565b820191906000526020600020905b81548152906001019060200180831161176157829003601f168201915b50505050509080600301549080600401805461179990612a5f565b80601f01602080910402602001604051908101604052809291908181526020018280546117c590612a5f565b80156118125780601f106117e757610100808354040283529160200191611812565b820191906000526020600020905b8154815290600101906020018083116117f557829003601f168201915b5050505050908060050154908060070160009054906101000a900460ff16905087565b60046020528060005260406000206000915090505481565b604051806101000160405280600081526020016060815260200160608152602001600081526020016060815260200160008152602001606081526020016000151581525090565b8280546118a090612a5f565b90600052602060002090601f0160209004810192826118c25760008555611909565b82601f106118db57805160ff1916838001178555611909565b82800160010185558215611909579182015b828111156119085782518255916020019190600101906118ed565b5b509050611916919061197a565b5090565b828054828255906000526020600020908101928215611969579160200282015b82811115611968578251829080519060200190611958929190611894565b509160200191906001019061193a565b5b5090506119769190611997565b5090565b5b8082111561199357600081600090555060010161197b565b5090565b5b808211156119b757600081816119ae91906119bb565b50600101611998565b5090565b5080546119c790612a5f565b6000825580601f106119d957506119f8565b601f0160209004906000526020600020908101906119f7919061197a565b5b50565b6000611a0e611a0984612862565b612831565b9050808382526020820190508260005b85811015611a4e5781358501611a348882611b28565b845260208401935060208301925050600181019050611a1e565b5050509392505050565b6000611a6b611a668461288e565b612831565b905082815260208101848484011115611a8357600080fd5b611a8e848285612a1d565b509392505050565b6000611aa9611aa48461288e565b612831565b905082815260208101848484011115611ac157600080fd5b611acc848285612a2c565b509392505050565b600081359050611ae381612b78565b92915050565b600082601f830112611afa57600080fd5b8135611b0a8482602086016119fb565b91505092915050565b600081519050611b2281612b8f565b92915050565b600082601f830112611b3957600080fd5b8135611b49848260208601611a58565b91505092915050565b600082601f830112611b6357600080fd5b8151611b73848260208601611a96565b91505092915050565b600081359050611b8b81612ba6565b92915050565b600081519050611ba081612ba6565b92915050565b600060208284031215611bb857600080fd5b6000611bc684828501611ad4565b91505092915050565b60008060408385031215611be257600080fd5b6000611bf085828601611ad4565b9250506020611c0185828601611b7c565b9150509250929050565b6000806000806000806000806000806101408b8d031215611c2b57600080fd5b60008b015167ffffffffffffffff811115611c4557600080fd5b611c518d828e01611b52565b9a505060208b015167ffffffffffffffff811115611c6e57600080fd5b611c7a8d828e01611b52565b99505060408b015167ffffffffffffffff811115611c9757600080fd5b611ca38d828e01611b52565b98505060608b015167ffffffffffffffff811115611cc057600080fd5b611ccc8d828e01611b52565b97505060808b015167ffffffffffffffff811115611ce957600080fd5b611cf58d828e01611b52565b96505060a08b015167ffffffffffffffff811115611d1257600080fd5b611d1e8d828e01611b52565b95505060c0611d2f8d828e01611b91565b94505060e0611d408d828e01611b91565b9350506101008b015167ffffffffffffffff811115611d5e57600080fd5b611d6a8d828e01611b52565b925050610120611d7c8d828e01611b13565b9150509295989b9194979a5092959850565b60008060008060008060c08789031215611da757600080fd5b600087013567ffffffffffffffff811115611dc157600080fd5b611dcd89828a01611b28565b965050602087013567ffffffffffffffff811115611dea57600080fd5b611df689828a01611b28565b9550506040611e0789828a01611b7c565b945050606087013567ffffffffffffffff811115611e2457600080fd5b611e3089828a01611b28565b9350506080611e4189828a01611b7c565b92505060a087013567ffffffffffffffff811115611e5e57600080fd5b611e6a89828a01611ae9565b9150509295509295509295565b600060208284031215611e8957600080fd5b6000611e9784828501611b7c565b91505092915050565b600080600080600080600060e0888a031215611ebb57600080fd5b6000611ec98a828b01611b7c565b975050602088013567ffffffffffffffff811115611ee657600080fd5b611ef28a828b01611b28565b965050604088013567ffffffffffffffff811115611f0f57600080fd5b611f1b8a828b01611b28565b9550506060611f2c8a828b01611b7c565b945050608088013567ffffffffffffffff811115611f4957600080fd5b611f558a828b01611b28565b93505060a0611f668a828b01611b7c565b92505060c088013567ffffffffffffffff811115611f8357600080fd5b611f8f8a828b01611ae9565b91505092959891949750929550565b6000611faa8383612153565b905092915050565b6000611fbe8383612402565b905092915050565b6000611fd2838361258c565b60208301905092915050565b611fe7816129d5565b82525050565b6000611ff8826128ee565b6120028185612941565b935083602082028501612014856128be565b8060005b8581101561205057848403895281516120318582611f9e565b945061203c8361291a565b925060208a01995050600181019050612018565b50829750879550505050505092915050565b600061206d826128f9565b6120778185612952565b935083602082028501612089856128ce565b8060005b858110156120c557848403895281516120a68582611fb2565b94506120b183612927565b925060208a0199505060018101905061208d565b50829750879550505050505092915050565b60006120e282612904565b6120ec8185612963565b93506120f7836128de565b8060005b8381101561212857815161210f8882611fc6565b975061211a83612934565b9250506001810190506120fb565b5085935050505092915050565b61213e816129e7565b82525050565b61214d816129e7565b82525050565b600061215e8261290f565b6121688185612974565b9350612178818560208601612a2c565b61218181612b67565b840191505092915050565b60006121978261290f565b6121a18185612985565b93506121b1818560208601612a2c565b6121ba81612b67565b840191505092915050565b60006121d08261290f565b6121da8185612996565b93506121ea818560208601612a2c565b80840191505092915050565b6000612203601283612985565b91507f52657761726420686173206578706972656400000000000000000000000000006000830152602082019050919050565b6000612243600683612996565b91507f76656e646f7200000000000000000000000000000000000000000000000000006000830152600682019050919050565b6000612283602483612985565b91507f52657761726420697320696e616374697665206f7220646f6573206e6f74206560008301527f78697374000000000000000000000000000000000000000000000000000000006020830152604082019050919050565b60006122e9601383612985565b91507f496e73756666696369656e7420706f696e7473000000000000000000000000006000830152602082019050919050565b6000612329601783612985565b91507f52657761726420616c72656164792072656465656d65640000000000000000006000830152602082019050919050565b6000612369602483612985565b91507f4f6e6c792076656e646f72732063616e20706572666f726d207468697320616360008301527f74696f6e000000000000000000000000000000000000000000000000000000006020830152604082019050919050565b60006123cf601a83612985565b91507f52657761726420697320616c726561647920696e6163746976650000000000006000830152602082019050919050565b60006101008301600083015161241b600086018261258c565b50602083015184820360208601526124338282612153565b9150506040830151848203604086015261244d8282612153565b9150506060830151612462606086018261258c565b506080830151848203608086015261247a8282612153565b91505060a083015161248f60a086018261258c565b5060c083015184820360c08601526124a78282611fed565b91505060e08301516124bc60e0860182612135565b508091505092915050565b6000610100830160008301516124e0600086018261258c565b50602083015184820360208601526124f88282612153565b915050604083015184820360408601526125128282612153565b9150506060830151612527606086018261258c565b506080830151848203608086015261253f8282612153565b91505060a083015161255460a086018261258c565b5060c083015184820360c086015261256c8282611fed565b91505060e083015161258160e0860182612135565b508091505092915050565b61259581612a13565b82525050565b6125a481612a13565b82525050565b60006125b682846121c5565b915081905092915050565b60006125cc82612236565b9150819050919050565b60006020820190506125eb6000830184611fde565b92915050565b6000602082019050818103600083015261260b8184612062565b905092915050565b6000602082019050818103600083015261262d81846120d7565b905092915050565b600060208201905061264a6000830184612144565b92915050565b6000602082019050818103600083015261266a818461218c565b905092915050565b6000602082019050818103600083015261268b816121f6565b9050919050565b600060208201905081810360008301526126ab81612276565b9050919050565b600060208201905081810360008301526126cb816122dc565b9050919050565b600060208201905081810360008301526126eb8161231c565b9050919050565b6000602082019050818103600083015261270b8161235c565b9050919050565b6000602082019050818103600083015261272b816123c2565b9050919050565b6000602082019050818103600083015261274c81846124c7565b905092915050565b6000602082019050612769600083018461259b565b92915050565b600060e082019050612784600083018a61259b565b8181036020830152612796818961218c565b905081810360408301526127aa818861218c565b90506127b9606083018761259b565b81810360808301526127cb818661218c565b90506127da60a083018561259b565b6127e760c0830184612144565b98975050505050505050565b6000606082019050612808600083018661259b565b818103602083015261281a818561218c565b9050612829604083018461259b565b949350505050565b6000604051905081810181811067ffffffffffffffff8211171561285857612857612b38565b5b8060405250919050565b600067ffffffffffffffff82111561287d5761287c612b38565b5b602082029050602081019050919050565b600067ffffffffffffffff8211156128a9576128a8612b38565b5b601f19601f8301169050602081019050919050565b6000819050602082019050919050565b6000819050602082019050919050565b6000819050602082019050919050565b600081519050919050565b600081519050919050565b600081519050919050565b600081519050919050565b6000602082019050919050565b6000602082019050919050565b6000602082019050919050565b600082825260208201905092915050565b600082825260208201905092915050565b600082825260208201905092915050565b600082825260208201905092915050565b600082825260208201905092915050565b600081905092915050565b60006129ac82612a13565b91506129b783612a13565b9250828210156129ca576129c9612ada565b5b828203905092915050565b60006129e0826129f3565b9050919050565b60008115159050919050565b600073ffffffffffffffffffffffffffffffffffffffff82169050919050565b6000819050919050565b82818337600083830152505050565b60005b83811015612a4a578082015181840152602081019050612a2f565b83811115612a59576000848401525b50505050565b60006002820490506001821680612a7757607f821691505b60208210811415612a8b57612a8a612b09565b5b50919050565b6000612a9c82612a13565b91507fffffffffffffffffffffffffffffffffffffffffffffffffffffffffffffffff821415612acf57612ace612ada565b5b600182019050919050565b7f4e487b7100000000000000000000000000000000000000000000000000000000600052601160045260246000fd5b7f4e487b7100000000000000000000000000000000000000000000000000000000600052602260045260246000fd5b7f4e487b7100000000000000000000000000000000000000000000000000000000600052604160045260246000fd5b6000601f19601f8301169050919050565b612b81816129d5565b8114612b8c57600080fd5b50565b612b98816129e7565b8114612ba357600080fd5b50565b612baf81612a13565b8114612bba57600080fd5b5056fea2646970667358221220d16bc8d6aa26a3678847e641c03cc43676a865ba171d4adb9edbf93fc892de1e64736f6c63430008000033",
  "immutableReferences": {},
  "source": "// SPDX-License-Identifier: MIT\r\npragma solidity ^0.8.0;\r\n\r\nimport \"./PointlyUser.sol\";\r\n\r\ncontract Rewards {\r\n    address public owner;\r\n    address public pointlyUserContract;  // PointlyUser contract address\r\n\r\n    struct Reward {\r\n        uint256 id;\r\n        string name;\r\n        string description;\r\n        uint256 cost;\r\n        string img;\r\n        uint256 expiration; // Unix timestamp\r\n        string[] terms;\r\n        bool isActive;\r\n    }\r\n\r\n    uint256 public rewardCounter;\r\n    mapping(uint256 => Reward) public rewards;\r\n\r\n    mapping(address => uint256) public userPoints;\r\n    mapping(address => mapping(uint256 => bool)) public rewardRedeemed;\r\n\r\n    event RewardAdded(uint256 rewardId, string name, uint256 cost);\r\n    event RewardEdited(uint256 rewardId, string name, uint256 cost);\r\n    event RewardDeactivated(uint256 rewardId);\r\n    event RewardRedeemed(address indexed user, uint256 rewardId);\r\n    event PointsAdded(address indexed user, uint256 points);\r\n\r\n    modifier onlyOwner() {\r\n        require(msg.sender == owner, \"Not authorized\");\r\n        _;\r\n    }\r\n\r\n    modifier onlyVendor() {\r\n        require(\r\n            keccak256(abi.encodePacked(getUserRole(msg.sender))) == keccak256(abi.encodePacked(\"vendor\")),\r\n            \"Only vendors can perform this action\"\r\n        );\r\n        _;\r\n    }\r\n\r\n    constructor(address _pointlyUserContract) {\r\n        owner = msg.sender;\r\n        pointlyUserContract = _pointlyUserContract;\r\n    }\r\n\r\n    // Vendor Functions\r\n    function addReward(\r\n        string memory name,\r\n        string memory description,\r\n        uint256 cost,\r\n        string memory img,\r\n        uint256 expiration,\r\n        string[] memory terms\r\n    ) public onlyVendor {\r\n        rewardCounter++;\r\n        rewards[rewardCounter] = Reward({\r\n            id: rewardCounter,\r\n            name: name,\r\n            description: description,\r\n            cost: cost,\r\n            img: img,\r\n            expiration: expiration,\r\n            terms: terms,\r\n            isActive: true\r\n        });\r\n\r\n        emit RewardAdded(rewardCounter, name, cost);\r\n    }\r\n\r\n    function editReward(\r\n        uint256 rewardId,\r\n        string memory name,\r\n        string memory description,\r\n        uint256 cost,\r\n        string memory img,\r\n        uint256 expiration,\r\n        string[] memory terms\r\n    ) public onlyVendor {\r\n        require(rewards[rewardId].isActive, \"Reward is inactive or does not exist\");\r\n\r\n        rewards[rewardId].name = name;\r\n        rewards[rewardId].description = description;\r\n        rewards[rewardId].cost = cost;\r\n        rewards[rewardId].img = img;\r\n        rewards[rewardId].expiration = expiration;\r\n        rewards[rewardId].terms = terms;\r\n\r\n        emit RewardEdited(rewardId, name, cost);\r\n    }\r\n\r\n    function deactivateReward(uint256 rewardId) public onlyVendor {\r\n        require(rewards[rewardId].isActive, \"Reward is already inactive\");\r\n        rewards[rewardId].isActive = false;\r\n        emit RewardDeactivated(rewardId);\r\n    }\r\n\r\n    // User Functions\r\n    function getAllRewards() public view returns (Reward[] memory) {\r\n        uint256 activeCount = 0;\r\n\r\n        // Count active rewards\r\n        for (uint256 i = 1; i <= rewardCounter; i++) {\r\n            if (rewards[i].isActive) {\r\n                activeCount++;\r\n            }\r\n        }\r\n\r\n        // Create an array of active rewards\r\n        Reward[] memory activeRewards = new Reward[](activeCount);\r\n        uint256 index = 0;\r\n\r\n        for (uint256 i = 1; i <= rewardCounter; i++) {\r\n            if (rewards[i].isActive) {\r\n                activeRewards[index] = rewards[i];\r\n                index++;\r\n            }\r\n        }\r\n\r\n        return activeRewards;\r\n    }\r\n\r\n    function redeemReward(uint256 rewardId) public {\r\n        require(rewards[rewardId].isActive, \"Reward is inactive or does not exist\");\r\n        require(block.timestamp < rewards[rewardId].expiration, \"Reward has expired\");\r\n        require(!rewardRedeemed[msg.sender][rewardId], \"Reward already redeemed\");\r\n        require(userPoints[msg.sender] >= rewards[rewardId].cost, \"Insufficient points\");\r\n\r\n        userPoints[msg.sender] -= rewards[rewardId].cost;\r\n        rewardRedeemed[msg.sender][rewardId] = true;\r\n\r\n        emit RewardRedeemed(msg.sender, rewardId);\r\n    }\r\n\r\n    function getRewardDetails(uint256 rewardId) public view returns (Reward memory) {\r\n        require(rewards[rewardId].isActive, \"Reward is inactive or does not exist\");\r\n        return rewards[rewardId];\r\n    }\r\n\r\n    function checkRedeemedRewards(address user) public view returns (uint256[] memory) {\r\n        uint256 redeemedCount = 0;\r\n\r\n        // Count redeemed rewards\r\n        for (uint256 i = 1; i <= rewardCounter; i++) {\r\n            if (rewardRedeemed[user][i]) {\r\n                redeemedCount++;\r\n            }\r\n        }\r\n\r\n        // Create an array of redeemed reward IDs\r\n        uint256[] memory redeemedRewards = new uint256[](redeemedCount);\r\n        uint256 index = 0;\r\n\r\n        for (uint256 i = 1; i <= rewardCounter; i++) {\r\n            if (rewardRedeemed[user][i]) {\r\n                redeemedRewards[index] = i;\r\n                index++;\r\n            }\r\n        }\r\n\r\n        return redeemedRewards;\r\n    }\r\n\r\n    // Helper function to get the user's role from PointlyUser contract\r\n    function getUserRole(address user) public view returns (string memory) {\r\n        ( , , , , , , , ,string memory role,) = PointlyUser(pointlyUserContract).getUser(user);\r\n        return role;  // Return the role\r\n    }\r\n\r\n}\r\n",
  "sourcePath": "C:\\Users\\user\\Documents\\MMU\\Pointly-Blockchain\\contracts\\Rewards.sol",
  "compiler": {
    "name": "solc",
    "version": "0.8.0+commit.c7dfd78e.Emscripten.clang"
  },
  "schemaVersion": "3.4.16",
  "updatedAt": "2025-01-19T09:19:11.478Z",
  "networkType": "ethereum",
  "devdoc": {
    "kind": "dev",
    "methods": {},
    "version": 1
  },
  "userdoc": {
    "kind": "user",
    "methods": {},
    "version": 1
  }
}