{
  "contractName": "Rewards",
  "abi": [
    {
      "inputs": [
        {
          "internalType": "address",
          "name": "_pointlyUserContract",
          "type": "address"
        }
      ],
      "stateMutability": "nonpayable",
      "type": "constructor"
    },
    {
      "anonymous": false,
      "inputs": [
        {
          "indexed": true,
          "internalType": "address",
          "name": "user",
          "type": "address"
        },
        {
          "indexed": false,
          "internalType": "uint256",
          "name": "points",
          "type": "uint256"
        }
      ],
      "name": "PointsAdded",
      "type": "event"
    },
    {
      "anonymous": false,
      "inputs": [
        {
          "indexed": false,
          "internalType": "uint256",
          "name": "rewardId",
          "type": "uint256"
        },
        {
          "indexed": false,
          "internalType": "string",
          "name": "name",
          "type": "string"
        },
        {
          "indexed": false,
          "internalType": "uint256",
          "name": "cost",
          "type": "uint256"
        }
      ],
      "name": "RewardAdded",
      "type": "event"
    },
    {
      "anonymous": false,
      "inputs": [
        {
          "indexed": false,
          "internalType": "uint256",
          "name": "rewardId",
          "type": "uint256"
        }
      ],
      "name": "RewardDeactivated",
      "type": "event"
    },
    {
      "anonymous": false,
      "inputs": [
        {
          "indexed": false,
          "internalType": "uint256",
          "name": "rewardId",
          "type": "uint256"
        },
        {
          "indexed": false,
          "internalType": "string",
          "name": "name",
          "type": "string"
        },
        {
          "indexed": false,
          "internalType": "uint256",
          "name": "cost",
          "type": "uint256"
        }
      ],
      "name": "RewardEdited",
      "type": "event"
    },
    {
      "anonymous": false,
      "inputs": [
        {
          "indexed": true,
          "internalType": "address",
          "name": "user",
          "type": "address"
        },
        {
          "indexed": false,
          "internalType": "uint256",
          "name": "rewardId",
          "type": "uint256"
        }
      ],
      "name": "RewardRedeemed",
      "type": "event"
    },
    {
      "inputs": [],
      "name": "owner",
      "outputs": [
        {
          "internalType": "address",
          "name": "",
          "type": "address"
        }
      ],
      "stateMutability": "view",
      "type": "function",
      "constant": true
    },
    {
      "inputs": [],
      "name": "pointlyUserContract",
      "outputs": [
        {
          "internalType": "address",
          "name": "",
          "type": "address"
        }
      ],
      "stateMutability": "view",
      "type": "function",
      "constant": true
    },
    {
      "inputs": [],
      "name": "rewardCounter",
      "outputs": [
        {
          "internalType": "uint256",
          "name": "",
          "type": "uint256"
        }
      ],
      "stateMutability": "view",
      "type": "function",
      "constant": true
    },
    {
      "inputs": [
        {
          "internalType": "address",
          "name": "",
          "type": "address"
        },
        {
          "internalType": "uint256",
          "name": "",
          "type": "uint256"
        }
      ],
      "name": "rewardRedeemed",
      "outputs": [
        {
          "internalType": "bool",
          "name": "",
          "type": "bool"
        }
      ],
      "stateMutability": "view",
      "type": "function",
      "constant": true
    },
    {
      "inputs": [
        {
          "internalType": "uint256",
          "name": "",
          "type": "uint256"
        }
      ],
      "name": "rewards",
      "outputs": [
        {
          "internalType": "uint256",
          "name": "id",
          "type": "uint256"
        },
        {
          "internalType": "string",
          "name": "name",
          "type": "string"
        },
        {
          "internalType": "string",
          "name": "description",
          "type": "string"
        },
        {
          "internalType": "uint256",
          "name": "cost",
          "type": "uint256"
        },
        {
          "internalType": "string",
          "name": "img",
          "type": "string"
        },
        {
          "internalType": "uint256",
          "name": "expiration",
          "type": "uint256"
        },
        {
          "internalType": "bool",
          "name": "isActive",
          "type": "bool"
        },
        {
          "internalType": "address",
          "name": "vendorAddress",
          "type": "address"
        }
      ],
      "stateMutability": "view",
      "type": "function",
      "constant": true
    },
    {
      "inputs": [
        {
          "internalType": "address",
          "name": "",
          "type": "address"
        }
      ],
      "name": "userPoints",
      "outputs": [
        {
          "internalType": "uint256",
          "name": "",
          "type": "uint256"
        }
      ],
      "stateMutability": "view",
      "type": "function",
      "constant": true
    },
    {
      "inputs": [
        {
          "internalType": "string",
          "name": "name",
          "type": "string"
        },
        {
          "internalType": "string",
          "name": "description",
          "type": "string"
        },
        {
          "internalType": "uint256",
          "name": "cost",
          "type": "uint256"
        },
        {
          "internalType": "string",
          "name": "img",
          "type": "string"
        },
        {
          "internalType": "uint256",
          "name": "expiration",
          "type": "uint256"
        },
        {
          "internalType": "string[]",
          "name": "terms",
          "type": "string[]"
        }
      ],
      "name": "addReward",
      "outputs": [],
      "stateMutability": "nonpayable",
      "type": "function"
    },
    {
      "inputs": [
        {
          "internalType": "uint256",
          "name": "rewardId",
          "type": "uint256"
        },
        {
          "internalType": "string",
          "name": "name",
          "type": "string"
        },
        {
          "internalType": "string",
          "name": "description",
          "type": "string"
        },
        {
          "internalType": "uint256",
          "name": "cost",
          "type": "uint256"
        },
        {
          "internalType": "string",
          "name": "img",
          "type": "string"
        },
        {
          "internalType": "uint256",
          "name": "expiration",
          "type": "uint256"
        },
        {
          "internalType": "string[]",
          "name": "terms",
          "type": "string[]"
        }
      ],
      "name": "editReward",
      "outputs": [],
      "stateMutability": "nonpayable",
      "type": "function"
    },
    {
      "inputs": [
        {
          "internalType": "uint256",
          "name": "rewardId",
          "type": "uint256"
        }
      ],
      "name": "deactivateReward",
      "outputs": [],
      "stateMutability": "nonpayable",
      "type": "function"
    },
    {
      "inputs": [],
      "name": "getAllRewards",
      "outputs": [
        {
          "components": [
            {
              "internalType": "uint256",
              "name": "id",
              "type": "uint256"
            },
            {
              "internalType": "string",
              "name": "name",
              "type": "string"
            },
            {
              "internalType": "string",
              "name": "description",
              "type": "string"
            },
            {
              "internalType": "uint256",
              "name": "cost",
              "type": "uint256"
            },
            {
              "internalType": "string",
              "name": "img",
              "type": "string"
            },
            {
              "internalType": "uint256",
              "name": "expiration",
              "type": "uint256"
            },
            {
              "internalType": "string[]",
              "name": "terms",
              "type": "string[]"
            },
            {
              "internalType": "bool",
              "name": "isActive",
              "type": "bool"
            },
            {
              "internalType": "address",
              "name": "vendorAddress",
              "type": "address"
            }
          ],
          "internalType": "struct Rewards.Reward[]",
          "name": "",
          "type": "tuple[]"
        }
      ],
      "stateMutability": "view",
      "type": "function",
      "constant": true
    },
    {
      "inputs": [
        {
          "internalType": "uint256",
          "name": "rewardId",
          "type": "uint256"
        }
      ],
      "name": "redeemReward",
      "outputs": [],
      "stateMutability": "nonpayable",
      "type": "function"
    },
    {
      "inputs": [
        {
          "internalType": "uint256",
          "name": "rewardId",
          "type": "uint256"
        }
      ],
      "name": "getRewardDetails",
      "outputs": [
        {
          "components": [
            {
              "internalType": "uint256",
              "name": "id",
              "type": "uint256"
            },
            {
              "internalType": "string",
              "name": "name",
              "type": "string"
            },
            {
              "internalType": "string",
              "name": "description",
              "type": "string"
            },
            {
              "internalType": "uint256",
              "name": "cost",
              "type": "uint256"
            },
            {
              "internalType": "string",
              "name": "img",
              "type": "string"
            },
            {
              "internalType": "uint256",
              "name": "expiration",
              "type": "uint256"
            },
            {
              "internalType": "string[]",
              "name": "terms",
              "type": "string[]"
            },
            {
              "internalType": "bool",
              "name": "isActive",
              "type": "bool"
            },
            {
              "internalType": "address",
              "name": "vendorAddress",
              "type": "address"
            }
          ],
          "internalType": "struct Rewards.Reward",
          "name": "",
          "type": "tuple"
        }
      ],
      "stateMutability": "view",
      "type": "function",
      "constant": true
    },
    {
      "inputs": [
        {
          "internalType": "address",
          "name": "user",
          "type": "address"
        }
      ],
      "name": "checkRedeemedRewards",
      "outputs": [
        {
          "internalType": "uint256[]",
          "name": "",
          "type": "uint256[]"
        }
      ],
      "stateMutability": "view",
      "type": "function",
      "constant": true
    },
    {
      "inputs": [
        {
          "internalType": "address",
          "name": "user",
          "type": "address"
        }
      ],
      "name": "getUserRole",
      "outputs": [
        {
          "internalType": "string",
          "name": "",
          "type": "string"
        }
      ],
      "stateMutability": "view",
      "type": "function",
      "constant": true
    }
  ],
  "bytecode": "0x60806040523480156200001157600080fd5b50604051620030bc380380620030bc8339818101604052810190620000379190620000d6565b336000806101000a81548173ffffffffffffffffffffffffffffffffffffffff021916908373ffffffffffffffffffffffffffffffffffffffff16021790555080600160006101000a81548173ffffffffffffffffffffffffffffffffffffffff021916908373ffffffffffffffffffffffffffffffffffffffff1602179055505062000150565b600081519050620000d08162000136565b92915050565b600060208284031215620000e957600080fd5b6000620000f984828501620000bf565b91505092915050565b60006200010f8262000116565b9050919050565b600073ffffffffffffffffffffffffffffffffffffffff82169050919050565b620001418162000102565b81146200014d57600080fd5b50565b612f5c80620001606000396000f3fe608060405234801561001057600080fd5b50600436106100ea5760003560e01c80638698fec61161008c578063eabdc5b411610066578063eabdc5b41461025f578063eba928091461027b578063f301af4214610297578063f50ddbc7146102ce576100ea565b80638698fec6146101e15780638da5cb5b146102115780639c6a90d81461022f576100ea565b80634a064f84116100c85780634a064f841461016d5780634c6423e11461018b57806351a71b17146101a9578063583ab445146101c5576100ea565b806327820851146100ef5780633c1f84da1461011f57806345b35f561461014f575b600080fd5b61010960048036038101906101049190611dbb565b6102fe565b604051610116919061296a565b60405180910390f35b61013960048036038101906101349190611de4565b6103c6565b604051610146919061294f565b60405180910390f35b6101576103f5565b604051610164919061290b565b60405180910390f35b6101756108b9565b60405161018291906128f0565b60405180910390f35b6101936108df565b6040516101a09190612aae565b60405180910390f35b6101c360048036038101906101be919061208c565b6108e5565b005b6101df60048036038101906101da9190611fa3565b610bcc565b005b6101fb60048036038101906101f6919061208c565b610e2a565b6040516102089190612a8c565b60405180910390f35b6102196111d9565b60405161022691906128f0565b60405180910390f35b61024960048036038101906102449190611dbb565b6111fd565b604051610256919061292d565b60405180910390f35b6102796004803603810190610274919061208c565b6113f1565b005b610295600480360381019061029091906120b5565b6115d7565b005b6102b160048036038101906102ac919061208c565b611820565b6040516102c5989796959493929190612ac9565b60405180910390f35b6102e860048036038101906102e39190611dbb565b611a2d565b6040516102f59190612aae565b60405180910390f35b60606000600160009054906101000a900473ffffffffffffffffffffffffffffffffffffffff1673ffffffffffffffffffffffffffffffffffffffff16636f77926b846040518263ffffffff1660e01b815260040161035d91906128f0565b60006040518083038186803b15801561037557600080fd5b505afa158015610389573d6000803e3d6000fd5b505050506040513d6000823e3d601f19601f820116820180604052508101906103b29190611e20565b509850505050505050505080915050919050565b60056020528160005260406000206020528060005260406000206000915091509054906101000a900460ff1681565b6060600080600190505b6002548111610453576003600082815260200190815260200160002060070160009054906101000a900460ff161561044057818061043c90612dfa565b9250505b808061044b90612dfa565b9150506103ff565b5060008167ffffffffffffffff811115610496577f4e487b7100000000000000000000000000000000000000000000000000000000600052604160045260246000fd5b6040519080825280602002602001820160405280156104cf57816020015b6104bc611a45565b8152602001906001900390816104b45790505b509050600080600190505b60025481116108af576003600082815260200190815260200160002060070160009054906101000a900460ff161561089c5760036000828152602001908152602001600020604051806101200160405290816000820154815260200160018201805461054590612dc8565b80601f016020809104026020016040519081016040528092919081815260200182805461057190612dc8565b80156105be5780601f10610593576101008083540402835291602001916105be565b820191906000526020600020905b8154815290600101906020018083116105a157829003601f168201915b505050505081526020016002820180546105d790612dc8565b80601f016020809104026020016040519081016040528092919081815260200182805461060390612dc8565b80156106505780601f1061062557610100808354040283529160200191610650565b820191906000526020600020905b81548152906001019060200180831161063357829003601f168201915b505050505081526020016003820154815260200160048201805461067390612dc8565b80601f016020809104026020016040519081016040528092919081815260200182805461069f90612dc8565b80156106ec5780601f106106c1576101008083540402835291602001916106ec565b820191906000526020600020905b8154815290600101906020018083116106cf57829003601f168201915b505050505081526020016005820154815260200160068201805480602002602001604051908101604052809291908181526020016000905b828210156107d057838290600052602060002001805461074390612dc8565b80601f016020809104026020016040519081016040528092919081815260200182805461076f90612dc8565b80156107bc5780601f10610791576101008083540402835291602001916107bc565b820191906000526020600020905b81548152906001019060200180831161079f57829003601f168201915b505050505081526020019060010190610724565b5050505081526020016007820160009054906101000a900460ff161515151581526020016007820160019054906101000a900473ffffffffffffffffffffffffffffffffffffffff1673ffffffffffffffffffffffffffffffffffffffff1673ffffffffffffffffffffffffffffffffffffffff1681525050838381518110610882577f4e487b7100000000000000000000000000000000000000000000000000000000600052603260045260246000fd5b6020026020010181905250818061089890612dfa565b9250505b80806108a790612dfa565b9150506104da565b5081935050505090565b600160009054906101000a900473ffffffffffffffffffffffffffffffffffffffff1681565b60025481565b60006003600083815260200190815260200160002090508060070160009054906101000a900460ff1661094d576040517f08c379a0000000000000000000000000000000000000000000000000000000008152600401610944906129cc565b60405180910390fd5b80600501544210610993576040517f08c379a000000000000000000000000000000000000000000000000000000000815260040161098a906129ac565b60405180910390fd5b600560003373ffffffffffffffffffffffffffffffffffffffff1673ffffffffffffffffffffffffffffffffffffffff168152602001908152602001600020600083815260200190815260200160002060009054906101000a900460ff1615610a31576040517f08c379a0000000000000000000000000000000000000000000000000000000008152600401610a2890612a2c565b60405180910390fd5b8060030154600460003373ffffffffffffffffffffffffffffffffffffffff1673ffffffffffffffffffffffffffffffffffffffff168152602001908152602001600020541015610ab7576040517f08c379a0000000000000000000000000000000000000000000000000000000008152600401610aae90612a0c565b60405180910390fd5b8060030154600460003373ffffffffffffffffffffffffffffffffffffffff1673ffffffffffffffffffffffffffffffffffffffff1681526020019081526020016000206000828254610b0a9190612d0a565b925050819055506001600560003373ffffffffffffffffffffffffffffffffffffffff1673ffffffffffffffffffffffffffffffffffffffff168152602001908152602001600020600084815260200190815260200160002060006101000a81548160ff0219169083151502179055503373ffffffffffffffffffffffffffffffffffffffff167f9eac3fe9056119387c5d3c787803d1d83956985560f6780c569bb99870760e3683604051610bc09190612aae565b60405180910390a25050565b604051602001610bdb906128db565b60405160208183030381529060405280519060200120610bfa336102fe565b604051602001610c0a91906128c4565b6040516020818303038152906040528051906020012014610c60576040517f08c379a0000000000000000000000000000000000000000000000000000000008152600401610c5790612a4c565b60405180910390fd5b60026000815480929190610c7390612dfa565b919050555060405180610120016040528060025481526020018781526020018681526020018581526020018481526020018381526020018281526020016001151581526020013373ffffffffffffffffffffffffffffffffffffffff16815250600360006002548152602001908152602001600020600082015181600001556020820151816001019080519060200190610d0e929190611aa9565b506040820151816002019080519060200190610d2b929190611aa9565b50606082015181600301556080820151816004019080519060200190610d52929190611aa9565b5060a0820151816005015560c0820151816006019080519060200190610d79929190611b2f565b5060e08201518160070160006101000a81548160ff0219169083151502179055506101008201518160070160016101000a81548173ffffffffffffffffffffffffffffffffffffffff021916908373ffffffffffffffffffffffffffffffffffffffff1602179055509050507f37c72785eab64b1da5fbd974ad0d1cabd3165254886ab44bb84dbb855c98db596002548786604051610e1a93929190612b5c565b60405180910390a1505050505050565b610e32611a45565b6003600083815260200190815260200160002060070160009054906101000a900460ff16610e95576040517f08c379a0000000000000000000000000000000000000000000000000000000008152600401610e8c906129cc565b60405180910390fd5b600360008381526020019081526020016000206040518061012001604052908160008201548152602001600182018054610ece90612dc8565b80601f0160208091040260200160405190810160405280929190818152602001828054610efa90612dc8565b8015610f475780601f10610f1c57610100808354040283529160200191610f47565b820191906000526020600020905b815481529060010190602001808311610f2a57829003601f168201915b50505050508152602001600282018054610f6090612dc8565b80601f0160208091040260200160405190810160405280929190818152602001828054610f8c90612dc8565b8015610fd95780601f10610fae57610100808354040283529160200191610fd9565b820191906000526020600020905b815481529060010190602001808311610fbc57829003601f168201915b5050505050815260200160038201548152602001600482018054610ffc90612dc8565b80601f016020809104026020016040519081016040528092919081815260200182805461102890612dc8565b80156110755780601f1061104a57610100808354040283529160200191611075565b820191906000526020600020905b81548152906001019060200180831161105857829003601f168201915b505050505081526020016005820154815260200160068201805480602002602001604051908101604052809291908181526020016000905b828210156111595783829060005260206000200180546110cc90612dc8565b80601f01602080910402602001604051908101604052809291908181526020018280546110f890612dc8565b80156111455780601f1061111a57610100808354040283529160200191611145565b820191906000526020600020905b81548152906001019060200180831161112857829003601f168201915b5050505050815260200190600101906110ad565b5050505081526020016007820160009054906101000a900460ff161515151581526020016007820160019054906101000a900473ffffffffffffffffffffffffffffffffffffffff1673ffffffffffffffffffffffffffffffffffffffff1673ffffffffffffffffffffffffffffffffffffffff16815250509050919050565b60008054906101000a900473ffffffffffffffffffffffffffffffffffffffff1681565b6060600080600190505b600254811161129557600560008573ffffffffffffffffffffffffffffffffffffffff1673ffffffffffffffffffffffffffffffffffffffff168152602001908152602001600020600082815260200190815260200160002060009054906101000a900460ff161561128257818061127e90612dfa565b9250505b808061128d90612dfa565b915050611207565b5060008167ffffffffffffffff8111156112d8577f4e487b7100000000000000000000000000000000000000000000000000000000600052604160045260246000fd5b6040519080825280602002602001820160405280156113065781602001602082028036833780820191505090505b509050600080600190505b60025481116113e557600560008773ffffffffffffffffffffffffffffffffffffffff1673ffffffffffffffffffffffffffffffffffffffff168152602001908152602001600020600082815260200190815260200160002060009054906101000a900460ff16156113d257808383815181106113b7577f4e487b7100000000000000000000000000000000000000000000000000000000600052603260045260246000fd5b60200260200101818152505081806113ce90612dfa565b9250505b80806113dd90612dfa565b915050611311565b50819350505050919050565b604051602001611400906128db565b6040516020818303038152906040528051906020012061141f336102fe565b60405160200161142f91906128c4565b6040516020818303038152906040528051906020012014611485576040517f08c379a000000000000000000000000000000000000000000000000000000000815260040161147c90612a4c565b60405180910390fd5b60006003600083815260200190815260200160002090508060070160009054906101000a900460ff166114ed576040517f08c379a00000000000000000000000000000000000000000000000000000000081526004016114e490612a6c565b60405180910390fd5b3373ffffffffffffffffffffffffffffffffffffffff168160070160019054906101000a900473ffffffffffffffffffffffffffffffffffffffff1673ffffffffffffffffffffffffffffffffffffffff161461157f576040517f08c379a00000000000000000000000000000000000000000000000000000000081526004016115769061298c565b60405180910390fd5b60008160070160006101000a81548160ff0219169083151502179055507f385eed96ca33f0da03d900751711ff4392adf11be79222f4aa99f92e71a1da4f826040516115cb9190612aae565b60405180910390a15050565b6040516020016115e6906128db565b60405160208183030381529060405280519060200120611605336102fe565b60405160200161161591906128c4565b604051602081830303815290604052805190602001201461166b576040517f08c379a000000000000000000000000000000000000000000000000000000000815260040161166290612a4c565b60405180910390fd5b60006003600089815260200190815260200160002090508060070160009054906101000a900460ff166116d3576040517f08c379a00000000000000000000000000000000000000000000000000000000081526004016116ca906129cc565b60405180910390fd5b3373ffffffffffffffffffffffffffffffffffffffff168160070160019054906101000a900473ffffffffffffffffffffffffffffffffffffffff1673ffffffffffffffffffffffffffffffffffffffff1614611765576040517f08c379a000000000000000000000000000000000000000000000000000000000815260040161175c906129ec565b60405180910390fd5b8681600101908051906020019061177d929190611aa9565b5085816002019080519060200190611796929190611aa9565b50848160030181905550838160040190805190602001906117b8929190611aa9565b50828160050181905550818160060190805190602001906117da929190611b2f565b507f7aa6f8f4815205e7cecf9a9ed4eb318e3a398d8559bc2cc374bf1725d233442588888760405161180e93929190612b5c565b60405180910390a15050505050505050565b600360205280600052604060002060009150905080600001549080600101805461184990612dc8565b80601f016020809104026020016040519081016040528092919081815260200182805461187590612dc8565b80156118c25780601f10611897576101008083540402835291602001916118c2565b820191906000526020600020905b8154815290600101906020018083116118a557829003601f168201915b5050505050908060020180546118d790612dc8565b80601f016020809104026020016040519081016040528092919081815260200182805461190390612dc8565b80156119505780601f1061192557610100808354040283529160200191611950565b820191906000526020600020905b81548152906001019060200180831161193357829003601f168201915b50505050509080600301549080600401805461196b90612dc8565b80601f016020809104026020016040519081016040528092919081815260200182805461199790612dc8565b80156119e45780601f106119b9576101008083540402835291602001916119e4565b820191906000526020600020905b8154815290600101906020018083116119c757829003601f168201915b5050505050908060050154908060070160009054906101000a900460ff16908060070160019054906101000a900473ffffffffffffffffffffffffffffffffffffffff16905088565b60046020528060005260406000206000915090505481565b60405180610120016040528060008152602001606081526020016060815260200160008152602001606081526020016000815260200160608152602001600015158152602001600073ffffffffffffffffffffffffffffffffffffffff1681525090565b828054611ab590612dc8565b90600052602060002090601f016020900481019282611ad75760008555611b1e565b82601f10611af057805160ff1916838001178555611b1e565b82800160010185558215611b1e579182015b82811115611b1d578251825591602001919060010190611b02565b5b509050611b2b9190611b8f565b5090565b828054828255906000526020600020908101928215611b7e579160200282015b82811115611b7d578251829080519060200190611b6d929190611aa9565b5091602001919060010190611b4f565b5b509050611b8b9190611bac565b5090565b5b80821115611ba8576000816000905550600101611b90565b5090565b5b80821115611bcc5760008181611bc39190611bd0565b50600101611bad565b5090565b508054611bdc90612dc8565b6000825580601f10611bee5750611c0d565b601f016020900490600052602060002090810190611c0c9190611b8f565b5b50565b6000611c23611c1e84612bcb565b612b9a565b9050808382526020820190508260005b85811015611c635781358501611c498882611d3d565b845260208401935060208301925050600181019050611c33565b5050509392505050565b6000611c80611c7b84612bf7565b612b9a565b905082815260208101848484011115611c9857600080fd5b611ca3848285612d86565b509392505050565b6000611cbe611cb984612bf7565b612b9a565b905082815260208101848484011115611cd657600080fd5b611ce1848285612d95565b509392505050565b600081359050611cf881612ee1565b92915050565b600082601f830112611d0f57600080fd5b8135611d1f848260208601611c10565b91505092915050565b600081519050611d3781612ef8565b92915050565b600082601f830112611d4e57600080fd5b8135611d5e848260208601611c6d565b91505092915050565b600082601f830112611d7857600080fd5b8151611d88848260208601611cab565b91505092915050565b600081359050611da081612f0f565b92915050565b600081519050611db581612f0f565b92915050565b600060208284031215611dcd57600080fd5b6000611ddb84828501611ce9565b91505092915050565b60008060408385031215611df757600080fd5b6000611e0585828601611ce9565b9250506020611e1685828601611d91565b9150509250929050565b6000806000806000806000806000806101408b8d031215611e4057600080fd5b60008b015167ffffffffffffffff811115611e5a57600080fd5b611e668d828e01611d67565b9a505060208b015167ffffffffffffffff811115611e8357600080fd5b611e8f8d828e01611d67565b99505060408b015167ffffffffffffffff811115611eac57600080fd5b611eb88d828e01611d67565b98505060608b015167ffffffffffffffff811115611ed557600080fd5b611ee18d828e01611d67565b97505060808b015167ffffffffffffffff811115611efe57600080fd5b611f0a8d828e01611d67565b96505060a08b015167ffffffffffffffff811115611f2757600080fd5b611f338d828e01611d67565b95505060c0611f448d828e01611da6565b94505060e0611f558d828e01611da6565b9350506101008b015167ffffffffffffffff811115611f7357600080fd5b611f7f8d828e01611d67565b925050610120611f918d828e01611d28565b9150509295989b9194979a5092959850565b60008060008060008060c08789031215611fbc57600080fd5b600087013567ffffffffffffffff811115611fd657600080fd5b611fe289828a01611d3d565b965050602087013567ffffffffffffffff811115611fff57600080fd5b61200b89828a01611d3d565b955050604061201c89828a01611d91565b945050606087013567ffffffffffffffff81111561203957600080fd5b61204589828a01611d3d565b935050608061205689828a01611d91565b92505060a087013567ffffffffffffffff81111561207357600080fd5b61207f89828a01611cfe565b9150509295509295509295565b60006020828403121561209e57600080fd5b60006120ac84828501611d91565b91505092915050565b600080600080600080600060e0888a0312156120d057600080fd5b60006120de8a828b01611d91565b975050602088013567ffffffffffffffff8111156120fb57600080fd5b6121078a828b01611d3d565b965050604088013567ffffffffffffffff81111561212457600080fd5b6121308a828b01611d3d565b95505060606121418a828b01611d91565b945050608088013567ffffffffffffffff81111561215e57600080fd5b61216a8a828b01611d3d565b93505060a061217b8a828b01611d91565b92505060c088013567ffffffffffffffff81111561219857600080fd5b6121a48a828b01611cfe565b91505092959891949750929550565b60006121bf8383612377565b905092915050565b60006121d383836126f2565b905092915050565b60006121e783836128a6565b60208301905092915050565b6121fc81612d3e565b82525050565b61220b81612d3e565b82525050565b600061221c82612c57565b6122268185612caa565b93508360208202850161223885612c27565b8060005b85811015612274578484038952815161225585826121b3565b945061226083612c83565b925060208a0199505060018101905061223c565b50829750879550505050505092915050565b600061229182612c62565b61229b8185612cbb565b9350836020820285016122ad85612c37565b8060005b858110156122e957848403895281516122ca85826121c7565b94506122d583612c90565b925060208a019950506001810190506122b1565b50829750879550505050505092915050565b600061230682612c6d565b6123108185612ccc565b935061231b83612c47565b8060005b8381101561234c57815161233388826121db565b975061233e83612c9d565b92505060018101905061231f565b5085935050505092915050565b61236281612d50565b82525050565b61237181612d50565b82525050565b600061238282612c78565b61238c8185612cdd565b935061239c818560208601612d95565b6123a581612ed0565b840191505092915050565b60006123bb82612c78565b6123c58185612cee565b93506123d5818560208601612d95565b6123de81612ed0565b840191505092915050565b60006123f482612c78565b6123fe8185612cff565b935061240e818560208601612d95565b80840191505092915050565b6000612427602883612cee565b91507f4f6e6c792076656e646f722063616e206465616374697661746520746865697260008301527f20726577617264730000000000000000000000000000000000000000000000006020830152604082019050919050565b600061248d601283612cee565b91507f52657761726420686173206578706972656400000000000000000000000000006000830152602082019050919050565b60006124cd600683612cff565b91507f76656e646f7200000000000000000000000000000000000000000000000000006000830152600682019050919050565b600061250d602483612cee565b91507f52657761726420697320696e616374697665206f7220646f6573206e6f74206560008301527f78697374000000000000000000000000000000000000000000000000000000006020830152604082019050919050565b6000612573602283612cee565b91507f4f6e6c792076656e646f722063616e206564697420746865697220726577617260008301527f64730000000000000000000000000000000000000000000000000000000000006020830152604082019050919050565b60006125d9601383612cee565b91507f496e73756666696369656e7420706f696e7473000000000000000000000000006000830152602082019050919050565b6000612619601783612cee565b91507f52657761726420616c72656164792072656465656d65640000000000000000006000830152602082019050919050565b6000612659602483612cee565b91507f4f6e6c792076656e646f72732063616e20706572666f726d207468697320616360008301527f74696f6e000000000000000000000000000000000000000000000000000000006020830152604082019050919050565b60006126bf601a83612cee565b91507f52657761726420697320616c726561647920696e6163746976650000000000006000830152602082019050919050565b60006101208301600083015161270b60008601826128a6565b50602083015184820360208601526127238282612377565b9150506040830151848203604086015261273d8282612377565b915050606083015161275260608601826128a6565b506080830151848203608086015261276a8282612377565b91505060a083015161277f60a08601826128a6565b5060c083015184820360c08601526127978282612211565b91505060e08301516127ac60e0860182612359565b506101008301516127c16101008601826121f3565b508091505092915050565b6000610120830160008301516127e560008601826128a6565b50602083015184820360208601526127fd8282612377565b915050604083015184820360408601526128178282612377565b915050606083015161282c60608601826128a6565b50608083015184820360808601526128448282612377565b91505060a083015161285960a08601826128a6565b5060c083015184820360c08601526128718282612211565b91505060e083015161288660e0860182612359565b5061010083015161289b6101008601826121f3565b508091505092915050565b6128af81612d7c565b82525050565b6128be81612d7c565b82525050565b60006128d082846123e9565b915081905092915050565b60006128e6826124c0565b9150819050919050565b60006020820190506129056000830184612202565b92915050565b600060208201905081810360008301526129258184612286565b905092915050565b6000602082019050818103600083015261294781846122fb565b905092915050565b60006020820190506129646000830184612368565b92915050565b6000602082019050818103600083015261298481846123b0565b905092915050565b600060208201905081810360008301526129a58161241a565b9050919050565b600060208201905081810360008301526129c581612480565b9050919050565b600060208201905081810360008301526129e581612500565b9050919050565b60006020820190508181036000830152612a0581612566565b9050919050565b60006020820190508181036000830152612a25816125cc565b9050919050565b60006020820190508181036000830152612a458161260c565b9050919050565b60006020820190508181036000830152612a658161264c565b9050919050565b60006020820190508181036000830152612a85816126b2565b9050919050565b60006020820190508181036000830152612aa681846127cc565b905092915050565b6000602082019050612ac360008301846128b5565b92915050565b600061010082019050612adf600083018b6128b5565b8181036020830152612af1818a6123b0565b90508181036040830152612b0581896123b0565b9050612b1460608301886128b5565b8181036080830152612b2681876123b0565b9050612b3560a08301866128b5565b612b4260c0830185612368565b612b4f60e0830184612202565b9998505050505050505050565b6000606082019050612b7160008301866128b5565b8181036020830152612b8381856123b0565b9050612b9260408301846128b5565b949350505050565b6000604051905081810181811067ffffffffffffffff82111715612bc157612bc0612ea1565b5b8060405250919050565b600067ffffffffffffffff821115612be657612be5612ea1565b5b602082029050602081019050919050565b600067ffffffffffffffff821115612c1257612c11612ea1565b5b601f19601f8301169050602081019050919050565b6000819050602082019050919050565b6000819050602082019050919050565b6000819050602082019050919050565b600081519050919050565b600081519050919050565b600081519050919050565b600081519050919050565b6000602082019050919050565b6000602082019050919050565b6000602082019050919050565b600082825260208201905092915050565b600082825260208201905092915050565b600082825260208201905092915050565b600082825260208201905092915050565b600082825260208201905092915050565b600081905092915050565b6000612d1582612d7c565b9150612d2083612d7c565b925082821015612d3357612d32612e43565b5b828203905092915050565b6000612d4982612d5c565b9050919050565b60008115159050919050565b600073ffffffffffffffffffffffffffffffffffffffff82169050919050565b6000819050919050565b82818337600083830152505050565b60005b83811015612db3578082015181840152602081019050612d98565b83811115612dc2576000848401525b50505050565b60006002820490506001821680612de057607f821691505b60208210811415612df457612df3612e72565b5b50919050565b6000612e0582612d7c565b91507fffffffffffffffffffffffffffffffffffffffffffffffffffffffffffffffff821415612e3857612e37612e43565b5b600182019050919050565b7f4e487b7100000000000000000000000000000000000000000000000000000000600052601160045260246000fd5b7f4e487b7100000000000000000000000000000000000000000000000000000000600052602260045260246000fd5b7f4e487b7100000000000000000000000000000000000000000000000000000000600052604160045260246000fd5b6000601f19601f8301169050919050565b612eea81612d3e565b8114612ef557600080fd5b50565b612f0181612d50565b8114612f0c57600080fd5b50565b612f1881612d7c565b8114612f2357600080fd5b5056fea2646970667358221220415c8eb8acd1e2286a14540d3fe9bd1a3a450b04000b3c3a7298d3b31671aa5e64736f6c63430008000033",
  "immutableReferences": {},
  "source": "// SPDX-License-Identifier: MIT\r\npragma solidity ^0.8.0;\r\n\r\nimport \"./PointlyUser.sol\";\r\n\r\ncontract Rewards {\r\n    address public owner;\r\n    address public pointlyUserContract;  // PointlyUser contract address\r\n\r\n    struct Reward {\r\n        uint256 id;\r\n        string name;\r\n        string description;\r\n        uint256 cost;\r\n        string img;\r\n        uint256 expiration; // Unix timestamp\r\n        string[] terms;\r\n        bool isActive;\r\n        address vendorAddress; // Track the vendor who created the reward\r\n    }\r\n\r\n    uint256 public rewardCounter;\r\n    mapping(uint256 => Reward) public rewards;\r\n\r\n    mapping(address => uint256) public userPoints;\r\n    mapping(address => mapping(uint256 => bool)) public rewardRedeemed;\r\n\r\n    event RewardAdded(uint256 rewardId, string name, uint256 cost);\r\n    event RewardEdited(uint256 rewardId, string name, uint256 cost);\r\n    event RewardDeactivated(uint256 rewardId);\r\n    event RewardRedeemed(address indexed user, uint256 rewardId);\r\n    event PointsAdded(address indexed user, uint256 points);\r\n\r\n    modifier onlyOwner() {\r\n        require(msg.sender == owner, \"Not authorized\");\r\n        _;\r\n    }\r\n\r\n    modifier onlyVendor() {\r\n        require(\r\n            keccak256(abi.encodePacked(getUserRole(msg.sender))) == keccak256(abi.encodePacked(\"vendor\")),\r\n            \"Only vendors can perform this action\"\r\n        );\r\n        _;\r\n    }\r\n\r\n    constructor(address _pointlyUserContract) {\r\n        owner = msg.sender;\r\n        pointlyUserContract = _pointlyUserContract;\r\n    }\r\n\r\n    // Vendor Functions\r\n    function addReward(\r\n        string memory name,\r\n        string memory description,\r\n        uint256 cost,\r\n        string memory img,\r\n        uint256 expiration,\r\n        string[] memory terms\r\n    ) public onlyVendor {\r\n        rewardCounter++;\r\n        rewards[rewardCounter] = Reward({\r\n            id: rewardCounter,\r\n            name: name,\r\n            description: description,\r\n            cost: cost,\r\n            img: img,\r\n            expiration: expiration,\r\n            terms: terms,\r\n            isActive: true,\r\n            vendorAddress: msg.sender\r\n        });\r\n\r\n        emit RewardAdded(rewardCounter, name, cost);\r\n    }\r\n\r\n    function editReward(\r\n        uint256 rewardId,\r\n        string memory name,\r\n        string memory description,\r\n        uint256 cost,\r\n        string memory img,\r\n        uint256 expiration,\r\n        string[] memory terms\r\n    ) public onlyVendor {\r\n        Reward storage reward = rewards[rewardId];\r\n        require(reward.isActive, \"Reward is inactive or does not exist\");\r\n        require(reward.vendorAddress == msg.sender, \"Only vendor can edit their rewards\");\r\n\r\n        reward.name = name;\r\n        reward.description = description;\r\n        reward.cost = cost;\r\n        reward.img = img;\r\n        reward.expiration = expiration;\r\n        reward.terms = terms;\r\n\r\n        emit RewardEdited(rewardId, name, cost);\r\n    }\r\n\r\n    function deactivateReward(uint256 rewardId) public onlyVendor {\r\n        Reward storage reward = rewards[rewardId];\r\n        require(reward.isActive, \"Reward is already inactive\");\r\n        require(reward.vendorAddress == msg.sender, \"Only vendor can deactivate their rewards\");\r\n\r\n        reward.isActive = false;\r\n        emit RewardDeactivated(rewardId);\r\n    }\r\n\r\n    // User Functions\r\n    function getAllRewards() public view returns (Reward[] memory) {\r\n        uint256 activeCount = 0;\r\n\r\n        // Count active rewards\r\n        for (uint256 i = 1; i <= rewardCounter; i++) {\r\n            if (rewards[i].isActive) {\r\n                activeCount++;\r\n            }\r\n        }\r\n\r\n        // Create an array of active rewards\r\n        Reward[] memory activeRewards = new Reward[](activeCount);\r\n        uint256 index = 0;\r\n\r\n        for (uint256 i = 1; i <= rewardCounter; i++) {\r\n            if (rewards[i].isActive) {\r\n                activeRewards[index] = rewards[i];\r\n                index++;\r\n            }\r\n        }\r\n\r\n        return activeRewards;\r\n    }\r\n\r\n    function redeemReward(uint256 rewardId) public {\r\n        Reward storage reward = rewards[rewardId];\r\n        require(reward.isActive, \"Reward is inactive or does not exist\");\r\n        require(block.timestamp < reward.expiration, \"Reward has expired\");\r\n        require(!rewardRedeemed[msg.sender][rewardId], \"Reward already redeemed\");\r\n        require(userPoints[msg.sender] >= reward.cost, \"Insufficient points\");\r\n\r\n        userPoints[msg.sender] -= reward.cost;\r\n        rewardRedeemed[msg.sender][rewardId] = true;\r\n\r\n        emit RewardRedeemed(msg.sender, rewardId);\r\n    }\r\n\r\n    function getRewardDetails(uint256 rewardId) public view returns (Reward memory) {\r\n        require(rewards[rewardId].isActive, \"Reward is inactive or does not exist\");\r\n        return rewards[rewardId];\r\n    }\r\n\r\n    function checkRedeemedRewards(address user) public view returns (uint256[] memory) {\r\n        uint256 redeemedCount = 0;\r\n\r\n        // Count redeemed rewards\r\n        for (uint256 i = 1; i <= rewardCounter; i++) {\r\n            if (rewardRedeemed[user][i]) {\r\n                redeemedCount++;\r\n            }\r\n        }\r\n\r\n        // Create an array of redeemed reward IDs\r\n        uint256[] memory redeemedRewards = new uint256[](redeemedCount);\r\n        uint256 index = 0;\r\n\r\n        for (uint256 i = 1; i <= rewardCounter; i++) {\r\n            if (rewardRedeemed[user][i]) {\r\n                redeemedRewards[index] = i;\r\n                index++;\r\n            }\r\n        }\r\n\r\n        return redeemedRewards;\r\n    }\r\n\r\n    // Helper function to get the user's role from PointlyUser contract\r\n    function getUserRole(address user) public view returns (string memory) {\r\n        ( , , , , , , , ,string memory role,) = PointlyUser(pointlyUserContract).getUser(user);\r\n        return role;  // Return the role\r\n    }\r\n}\r\n",
  "sourcePath": "C:\\Users\\user\\Documents\\MMU\\Pointly-Blockchain\\contracts\\Rewards.sol",
  "compiler": {
    "name": "solc",
    "version": "0.8.0+commit.c7dfd78e.Emscripten.clang"
  },
  "schemaVersion": "3.4.16",
  "updatedAt": "2025-01-20T09:01:13.027Z",
  "networkType": "ethereum",
  "devdoc": {
    "kind": "dev",
    "methods": {},
    "version": 1
  },
  "userdoc": {
    "kind": "user",
    "methods": {},
    "version": 1
  }
}