{
  "contractName": "Transaction",
  "abi": [
    {
      "inputs": [],
      "stateMutability": "nonpayable",
      "type": "constructor"
    },
    {
      "anonymous": false,
      "inputs": [
        {
          "indexed": false,
          "internalType": "uint256",
          "name": "transactionId",
          "type": "uint256"
        },
        {
          "indexed": true,
          "internalType": "address",
          "name": "userAddress",
          "type": "address"
        },
        {
          "indexed": true,
          "internalType": "address",
          "name": "vendorAddress",
          "type": "address"
        },
        {
          "indexed": false,
          "internalType": "uint256",
          "name": "pointsChanged",
          "type": "uint256"
        },
        {
          "indexed": false,
          "internalType": "uint256",
          "name": "rewardId",
          "type": "uint256"
        },
        {
          "indexed": false,
          "internalType": "string",
          "name": "transactionType",
          "type": "string"
        },
        {
          "indexed": false,
          "internalType": "bool",
          "name": "success",
          "type": "bool"
        }
      ],
      "name": "TransactionLogged",
      "type": "event"
    },
    {
      "inputs": [],
      "name": "owner",
      "outputs": [
        {
          "internalType": "address",
          "name": "",
          "type": "address"
        }
      ],
      "stateMutability": "view",
      "type": "function",
      "constant": true
    },
    {
      "inputs": [],
      "name": "transactionCounter",
      "outputs": [
        {
          "internalType": "uint256",
          "name": "",
          "type": "uint256"
        }
      ],
      "stateMutability": "view",
      "type": "function",
      "constant": true
    },
    {
      "inputs": [
        {
          "internalType": "uint256",
          "name": "",
          "type": "uint256"
        }
      ],
      "name": "transactions",
      "outputs": [
        {
          "internalType": "uint256",
          "name": "transactionId",
          "type": "uint256"
        },
        {
          "internalType": "address",
          "name": "userAddress",
          "type": "address"
        },
        {
          "internalType": "address",
          "name": "vendorAddress",
          "type": "address"
        },
        {
          "internalType": "uint256",
          "name": "pointsChanged",
          "type": "uint256"
        },
        {
          "internalType": "uint256",
          "name": "rewardId",
          "type": "uint256"
        },
        {
          "internalType": "uint256",
          "name": "timestamp",
          "type": "uint256"
        },
        {
          "internalType": "string",
          "name": "transactionType",
          "type": "string"
        },
        {
          "internalType": "bool",
          "name": "success",
          "type": "bool"
        }
      ],
      "stateMutability": "view",
      "type": "function",
      "constant": true
    },
    {
      "inputs": [
        {
          "internalType": "address",
          "name": "userAddress",
          "type": "address"
        },
        {
          "internalType": "address",
          "name": "vendorAddress",
          "type": "address"
        },
        {
          "internalType": "uint256",
          "name": "pointsChanged",
          "type": "uint256"
        },
        {
          "internalType": "uint256",
          "name": "rewardId",
          "type": "uint256"
        },
        {
          "internalType": "string",
          "name": "transactionType",
          "type": "string"
        },
        {
          "internalType": "bool",
          "name": "success",
          "type": "bool"
        }
      ],
      "name": "logTransaction",
      "outputs": [],
      "stateMutability": "nonpayable",
      "type": "function"
    },
    {
      "inputs": [
        {
          "internalType": "uint256",
          "name": "transactionId",
          "type": "uint256"
        }
      ],
      "name": "getTransaction",
      "outputs": [
        {
          "internalType": "address",
          "name": "userAddress",
          "type": "address"
        },
        {
          "internalType": "address",
          "name": "vendorAddress",
          "type": "address"
        },
        {
          "internalType": "uint256",
          "name": "pointsChanged",
          "type": "uint256"
        },
        {
          "internalType": "uint256",
          "name": "rewardId",
          "type": "uint256"
        },
        {
          "internalType": "uint256",
          "name": "timestamp",
          "type": "uint256"
        },
        {
          "internalType": "string",
          "name": "transactionType",
          "type": "string"
        },
        {
          "internalType": "bool",
          "name": "success",
          "type": "bool"
        }
      ],
      "stateMutability": "view",
      "type": "function",
      "constant": true
    },
    {
      "inputs": [
        {
          "internalType": "address",
          "name": "userAddress",
          "type": "address"
        }
      ],
      "name": "getUserTransactions",
      "outputs": [
        {
          "components": [
            {
              "internalType": "uint256",
              "name": "transactionId",
              "type": "uint256"
            },
            {
              "internalType": "address",
              "name": "userAddress",
              "type": "address"
            },
            {
              "internalType": "address",
              "name": "vendorAddress",
              "type": "address"
            },
            {
              "internalType": "uint256",
              "name": "pointsChanged",
              "type": "uint256"
            },
            {
              "internalType": "uint256",
              "name": "rewardId",
              "type": "uint256"
            },
            {
              "internalType": "uint256",
              "name": "timestamp",
              "type": "uint256"
            },
            {
              "internalType": "string",
              "name": "transactionType",
              "type": "string"
            },
            {
              "internalType": "bool",
              "name": "success",
              "type": "bool"
            }
          ],
          "internalType": "struct Transaction.TransactionRecord[]",
          "name": "",
          "type": "tuple[]"
        }
      ],
      "stateMutability": "view",
      "type": "function",
      "constant": true
    },
    {
      "inputs": [
        {
          "internalType": "address",
          "name": "vendorAddress",
          "type": "address"
        }
      ],
      "name": "getVendorTransactions",
      "outputs": [
        {
          "components": [
            {
              "internalType": "uint256",
              "name": "transactionId",
              "type": "uint256"
            },
            {
              "internalType": "address",
              "name": "userAddress",
              "type": "address"
            },
            {
              "internalType": "address",
              "name": "vendorAddress",
              "type": "address"
            },
            {
              "internalType": "uint256",
              "name": "pointsChanged",
              "type": "uint256"
            },
            {
              "internalType": "uint256",
              "name": "rewardId",
              "type": "uint256"
            },
            {
              "internalType": "uint256",
              "name": "timestamp",
              "type": "uint256"
            },
            {
              "internalType": "string",
              "name": "transactionType",
              "type": "string"
            },
            {
              "internalType": "bool",
              "name": "success",
              "type": "bool"
            }
          ],
          "internalType": "struct Transaction.TransactionRecord[]",
          "name": "",
          "type": "tuple[]"
        }
      ],
      "stateMutability": "view",
      "type": "function",
      "constant": true
    },
    {
      "inputs": [
        {
          "internalType": "uint256",
          "name": "transactionId",
          "type": "uint256"
        }
      ],
      "name": "deleteTransaction",
      "outputs": [],
      "stateMutability": "nonpayable",
      "type": "function"
    }
  ],
  "bytecode": "0x608060405234801561001057600080fd5b50336000806101000a81548173ffffffffffffffffffffffffffffffffffffffff021916908373ffffffffffffffffffffffffffffffffffffffff160217905550611a65806100606000396000f3fe608060405234801561001057600080fd5b50600436106100875760003560e01c80638da5cb5b1161005b5780638da5cb5b146101185780639ace38c214610136578063ef9253991461016d578063f82a5b8a1461019d57610087565b8062e9c0061461008c57806314e887e8146100a857806333ea3dc8146100c6578063501c1b13146100fc575b600080fd5b6100a660048036038101906100a191906112e5565b6101cd565b005b6100b061034b565b6040516100bd9190611686565b60405180910390f35b6100e060048036038101906100db91906112e5565b610351565b6040516100f397969594939291906115ae565b60405180910390f35b61011660048036038101906101119190611244565b610583565b005b610120610787565b60405161012d9190611593565b60405180910390f35b610150600480360381019061014b91906112e5565b6107ab565b6040516101649897969594939291906116a1565b60405180910390f35b6101876004803603810190610182919061121b565b6108c8565b6040516101949190611624565b60405180910390f35b6101b760048036038101906101b2919061121b565b610c73565b6040516101c49190611624565b60405180910390f35b60008054906101000a900473ffffffffffffffffffffffffffffffffffffffff1673ffffffffffffffffffffffffffffffffffffffff163373ffffffffffffffffffffffffffffffffffffffff161461025b576040517f08c379a000000000000000000000000000000000000000000000000000000000815260040161025290611666565b60405180910390fd5b6001548111156102a0576040517f08c379a000000000000000000000000000000000000000000000000000000000815260040161029790611646565b60405180910390fd5b600260008281526020019081526020016000206000808201600090556001820160006101000a81549073ffffffffffffffffffffffffffffffffffffffff02191690556002820160006101000a81549073ffffffffffffffffffffffffffffffffffffffff0219169055600382016000905560048201600090556005820160009055600682016000610332919061101e565b6007820160006101000a81549060ff0219169055505050565b60015481565b6000806000806000606060006001548811156103a2576040517f08c379a000000000000000000000000000000000000000000000000000000000815260040161039990611646565b60405180910390fd5b6000600260008a815260200190815260200160002060405180610100016040529081600082015481526020016001820160009054906101000a900473ffffffffffffffffffffffffffffffffffffffff1673ffffffffffffffffffffffffffffffffffffffff1673ffffffffffffffffffffffffffffffffffffffff1681526020016002820160009054906101000a900473ffffffffffffffffffffffffffffffffffffffff1673ffffffffffffffffffffffffffffffffffffffff1673ffffffffffffffffffffffffffffffffffffffff1681526020016003820154815260200160048201548152602001600582015481526020016006820180546104a7906118d1565b80601f01602080910402602001604051908101604052809291908181526020018280546104d3906118d1565b80156105205780601f106104f557610100808354040283529160200191610520565b820191906000526020600020905b81548152906001019060200180831161050357829003601f168201915b505050505081526020016007820160009054906101000a900460ff161515151581525050905080602001518160400151826060015183608001518460a001518560c001518660e00151975097509750975097509750975050919395979092949650565b6001600081548092919061059690611903565b919050555060405180610100016040528060015481526020018773ffffffffffffffffffffffffffffffffffffffff1681526020018673ffffffffffffffffffffffffffffffffffffffff1681526020018581526020018481526020014281526020018381526020018215158152506002600060015481526020019081526020016000206000820151816000015560208201518160010160006101000a81548173ffffffffffffffffffffffffffffffffffffffff021916908373ffffffffffffffffffffffffffffffffffffffff16021790555060408201518160020160006101000a81548173ffffffffffffffffffffffffffffffffffffffff021916908373ffffffffffffffffffffffffffffffffffffffff160217905550606082015181600301556080820151816004015560a0820151816005015560c08201518160060190805190602001906106ec92919061105e565b5060e08201518160070160006101000a81548160ff0219169083151502179055509050508473ffffffffffffffffffffffffffffffffffffffff168673ffffffffffffffffffffffffffffffffffffffff167ff0d3071b6481a70f9c6a40c65c4bf91739a00c8a376a8876a393cc4f415830a160015487878787604051610777959493929190611726565b60405180910390a3505050505050565b60008054906101000a900473ffffffffffffffffffffffffffffffffffffffff1681565b60026020528060005260406000206000915090508060000154908060010160009054906101000a900473ffffffffffffffffffffffffffffffffffffffff16908060020160009054906101000a900473ffffffffffffffffffffffffffffffffffffffff1690806003015490806004015490806005015490806006018054610832906118d1565b80601f016020809104026020016040519081016040528092919081815260200182805461085e906118d1565b80156108ab5780601f10610880576101008083540402835291602001916108ab565b820191906000526020600020905b81548152906001019060200180831161088e57829003601f168201915b5050505050908060070160009054906101000a900460ff16905088565b6060600080600190505b6001548111610967578373ffffffffffffffffffffffffffffffffffffffff166002600083815260200190815260200160002060010160009054906101000a900473ffffffffffffffffffffffffffffffffffffffff1673ffffffffffffffffffffffffffffffffffffffff16141561095457818061095090611903565b9250505b808061095f90611903565b9150506108d2565b5060008167ffffffffffffffff8111156109aa577f4e487b7100000000000000000000000000000000000000000000000000000000600052604160045260246000fd5b6040519080825280602002602001820160405280156109e357816020015b6109d06110e4565b8152602001906001900390816109c85790505b509050600080600190505b6001548111610c67578573ffffffffffffffffffffffffffffffffffffffff166002600083815260200190815260200160002060010160009054906101000a900473ffffffffffffffffffffffffffffffffffffffff1673ffffffffffffffffffffffffffffffffffffffff161415610c54576002600082815260200190815260200160002060405180610100016040529081600082015481526020016001820160009054906101000a900473ffffffffffffffffffffffffffffffffffffffff1673ffffffffffffffffffffffffffffffffffffffff1673ffffffffffffffffffffffffffffffffffffffff1681526020016002820160009054906101000a900473ffffffffffffffffffffffffffffffffffffffff1673ffffffffffffffffffffffffffffffffffffffff1673ffffffffffffffffffffffffffffffffffffffff168152602001600382015481526020016004820154815260200160058201548152602001600682018054610b64906118d1565b80601f0160208091040260200160405190810160405280929190818152602001828054610b90906118d1565b8015610bdd5780601f10610bb257610100808354040283529160200191610bdd565b820191906000526020600020905b815481529060010190602001808311610bc057829003601f168201915b505050505081526020016007820160009054906101000a900460ff161515151581525050838381518110610c3a577f4e487b7100000000000000000000000000000000000000000000000000000000600052603260045260246000fd5b60200260200101819052508180610c5090611903565b9250505b8080610c5f90611903565b9150506109ee565b50819350505050919050565b6060600080600190505b6001548111610d12578373ffffffffffffffffffffffffffffffffffffffff166002600083815260200190815260200160002060020160009054906101000a900473ffffffffffffffffffffffffffffffffffffffff1673ffffffffffffffffffffffffffffffffffffffff161415610cff578180610cfb90611903565b9250505b8080610d0a90611903565b915050610c7d565b5060008167ffffffffffffffff811115610d55577f4e487b7100000000000000000000000000000000000000000000000000000000600052604160045260246000fd5b604051908082528060200260200182016040528015610d8e57816020015b610d7b6110e4565b815260200190600190039081610d735790505b509050600080600190505b6001548111611012578573ffffffffffffffffffffffffffffffffffffffff166002600083815260200190815260200160002060020160009054906101000a900473ffffffffffffffffffffffffffffffffffffffff1673ffffffffffffffffffffffffffffffffffffffff161415610fff576002600082815260200190815260200160002060405180610100016040529081600082015481526020016001820160009054906101000a900473ffffffffffffffffffffffffffffffffffffffff1673ffffffffffffffffffffffffffffffffffffffff1673ffffffffffffffffffffffffffffffffffffffff1681526020016002820160009054906101000a900473ffffffffffffffffffffffffffffffffffffffff1673ffffffffffffffffffffffffffffffffffffffff1673ffffffffffffffffffffffffffffffffffffffff168152602001600382015481526020016004820154815260200160058201548152602001600682018054610f0f906118d1565b80601f0160208091040260200160405190810160405280929190818152602001828054610f3b906118d1565b8015610f885780601f10610f5d57610100808354040283529160200191610f88565b820191906000526020600020905b815481529060010190602001808311610f6b57829003601f168201915b505050505081526020016007820160009054906101000a900460ff161515151581525050838381518110610fe5577f4e487b7100000000000000000000000000000000000000000000000000000000600052603260045260246000fd5b60200260200101819052508180610ffb90611903565b9250505b808061100a90611903565b915050610d99565b50819350505050919050565b50805461102a906118d1565b6000825580601f1061103c575061105b565b601f01602090049060005260206000209081019061105a9190611157565b5b50565b82805461106a906118d1565b90600052602060002090601f01602090048101928261108c57600085556110d3565b82601f106110a557805160ff19168380011785556110d3565b828001600101855582156110d3579182015b828111156110d25782518255916020019190600101906110b7565b5b5090506110e09190611157565b5090565b60405180610100016040528060008152602001600073ffffffffffffffffffffffffffffffffffffffff168152602001600073ffffffffffffffffffffffffffffffffffffffff168152602001600081526020016000815260200160008152602001606081526020016000151581525090565b5b80821115611170576000816000905550600101611158565b5090565b6000611187611182846117b1565b611780565b90508281526020810184848401111561119f57600080fd5b6111aa84828561188f565b509392505050565b6000813590506111c1816119ea565b92915050565b6000813590506111d681611a01565b92915050565b600082601f8301126111ed57600080fd5b81356111fd848260208601611174565b91505092915050565b60008135905061121581611a18565b92915050565b60006020828403121561122d57600080fd5b600061123b848285016111b2565b91505092915050565b60008060008060008060c0878903121561125d57600080fd5b600061126b89828a016111b2565b965050602061127c89828a016111b2565b955050604061128d89828a01611206565b945050606061129e89828a01611206565b935050608087013567ffffffffffffffff8111156112bb57600080fd5b6112c789828a016111dc565b92505060a06112d889828a016111c7565b9150509295509295509295565b6000602082840312156112f757600080fd5b600061130584828501611206565b91505092915050565b600061131a83836114c5565b905092915050565b61132b81611847565b82525050565b61133a81611847565b82525050565b600061134b826117f1565b6113558185611814565b935083602082028501611367856117e1565b8060005b858110156113a35784840389528151611384858261130e565b945061138f83611807565b925060208a0199505060018101905061136b565b50829750879550505050505092915050565b6113be81611859565b82525050565b6113cd81611859565b82525050565b60006113de826117fc565b6113e88185611825565b93506113f881856020860161189e565b611401816119d9565b840191505092915050565b6000611417826117fc565b6114218185611836565b935061143181856020860161189e565b61143a816119d9565b840191505092915050565b6000611452601a83611836565b91507f5472616e73616374696f6e20646f6573206e6f742065786973740000000000006000830152602082019050919050565b6000611492600e83611836565b91507f4e6f7420617574686f72697a65640000000000000000000000000000000000006000830152602082019050919050565b6000610100830160008301516114de6000860182611575565b5060208301516114f16020860182611322565b5060408301516115046040860182611322565b5060608301516115176060860182611575565b50608083015161152a6080860182611575565b5060a083015161153d60a0860182611575565b5060c083015184820360c086015261155582826113d3565b91505060e083015161156a60e08601826113b5565b508091505092915050565b61157e81611885565b82525050565b61158d81611885565b82525050565b60006020820190506115a86000830184611331565b92915050565b600060e0820190506115c3600083018a611331565b6115d06020830189611331565b6115dd6040830188611584565b6115ea6060830187611584565b6115f76080830186611584565b81810360a0830152611609818561140c565b905061161860c08301846113c4565b98975050505050505050565b6000602082019050818103600083015261163e8184611340565b905092915050565b6000602082019050818103600083015261165f81611445565b9050919050565b6000602082019050818103600083015261167f81611485565b9050919050565b600060208201905061169b6000830184611584565b92915050565b6000610100820190506116b7600083018b611584565b6116c4602083018a611331565b6116d16040830189611331565b6116de6060830188611584565b6116eb6080830187611584565b6116f860a0830186611584565b81810360c083015261170a818561140c565b905061171960e08301846113c4565b9998505050505050505050565b600060a08201905061173b6000830188611584565b6117486020830187611584565b6117556040830186611584565b8181036060830152611767818561140c565b905061177660808301846113c4565b9695505050505050565b6000604051905081810181811067ffffffffffffffff821117156117a7576117a66119aa565b5b8060405250919050565b600067ffffffffffffffff8211156117cc576117cb6119aa565b5b601f19601f8301169050602081019050919050565b6000819050602082019050919050565b600081519050919050565b600081519050919050565b6000602082019050919050565b600082825260208201905092915050565b600082825260208201905092915050565b600082825260208201905092915050565b600061185282611865565b9050919050565b60008115159050919050565b600073ffffffffffffffffffffffffffffffffffffffff82169050919050565b6000819050919050565b82818337600083830152505050565b60005b838110156118bc5780820151818401526020810190506118a1565b838111156118cb576000848401525b50505050565b600060028204905060018216806118e957607f821691505b602082108114156118fd576118fc61197b565b5b50919050565b600061190e82611885565b91507fffffffffffffffffffffffffffffffffffffffffffffffffffffffffffffffff8214156119415761194061194c565b5b600182019050919050565b7f4e487b7100000000000000000000000000000000000000000000000000000000600052601160045260246000fd5b7f4e487b7100000000000000000000000000000000000000000000000000000000600052602260045260246000fd5b7f4e487b7100000000000000000000000000000000000000000000000000000000600052604160045260246000fd5b6000601f19601f8301169050919050565b6119f381611847565b81146119fe57600080fd5b50565b611a0a81611859565b8114611a1557600080fd5b50565b611a2181611885565b8114611a2c57600080fd5b5056fea2646970667358221220bdd9c553a09efe36b9fa962420b76e972c024ba38c239bb7d57005dd4a61d79064736f6c63430008000033",
  "immutableReferences": {},
  "source": "// SPDX-License-Identifier: MIT\r\npragma solidity ^0.8.0;\r\n\r\ncontract Transaction {\r\n    // Owner of the contract (platform admin)\r\n    address public owner;\r\n\r\n    // Struct for storing transaction details\r\n    struct TransactionRecord {\r\n        uint256 transactionId;\r\n        address userAddress;\r\n        address vendorAddress;\r\n        uint256 pointsChanged;  // Positive for points added, negative for points deducted\r\n        uint256 rewardId;      // ID of the reward involved (0 if no reward)\r\n        uint256 timestamp;     // Timestamp of the transaction\r\n        string transactionType; // \"Reward Redemption\" or \"Points Update\"\r\n        bool success;           // Whether the transaction was successful\r\n    }\r\n\r\n    uint256 public transactionCounter;\r\n    mapping(uint256 => TransactionRecord) public transactions;\r\n\r\n    // Events for logging transactions\r\n    event TransactionLogged(\r\n        uint256 transactionId,\r\n        address indexed userAddress,\r\n        address indexed vendorAddress,\r\n        uint256 pointsChanged,\r\n        uint256 rewardId,\r\n        string transactionType,\r\n        bool success\r\n    );\r\n\r\n    // Constructor to initialize the contract owner\r\n    constructor() {\r\n        owner = msg.sender; // Assign contract deployer as owner\r\n    }\r\n\r\n    // Function to log a transaction (used by both users and vendors)\r\n    function logTransaction(\r\n        address userAddress,\r\n        address vendorAddress,\r\n        uint256 pointsChanged,\r\n        uint256 rewardId,\r\n        string memory transactionType,\r\n        bool success\r\n    ) public {\r\n        // Increment the transaction counter for a new transaction ID\r\n        transactionCounter++;\r\n\r\n        // Create a new transaction record\r\n        transactions[transactionCounter] = TransactionRecord({\r\n            transactionId: transactionCounter,\r\n            userAddress: userAddress,\r\n            vendorAddress: vendorAddress,\r\n            pointsChanged: pointsChanged,\r\n            rewardId: rewardId,\r\n            timestamp: block.timestamp,\r\n            transactionType: transactionType,\r\n            success: success\r\n        });\r\n\r\n        // Emit event for the logged transaction\r\n        emit TransactionLogged(\r\n            transactionCounter,\r\n            userAddress,\r\n            vendorAddress,\r\n            pointsChanged,\r\n            rewardId,\r\n            transactionType,\r\n            success\r\n        );\r\n    }\r\n\r\n    // Function to get a transaction record by its ID\r\n    function getTransaction(uint256 transactionId)\r\n        public\r\n        view\r\n        returns (\r\n            address userAddress,\r\n            address vendorAddress,\r\n            uint256 pointsChanged,\r\n            uint256 rewardId,\r\n            uint256 timestamp,\r\n            string memory transactionType,\r\n            bool success\r\n        )\r\n    {\r\n        require(transactionId <= transactionCounter, \"Transaction does not exist\");\r\n\r\n        TransactionRecord memory txRecord = transactions[transactionId];\r\n        return (\r\n            txRecord.userAddress,\r\n            txRecord.vendorAddress,\r\n            txRecord.pointsChanged,\r\n            txRecord.rewardId,\r\n            txRecord.timestamp,\r\n            txRecord.transactionType,\r\n            txRecord.success\r\n        );\r\n    }\r\n\r\n    // Function to get all transactions of a particular user\r\n    function getUserTransactions(address userAddress) public view returns (TransactionRecord[] memory) {\r\n        uint256 userTransactionCount = 0;\r\n\r\n        // Count how many transactions the user has\r\n        for (uint256 i = 1; i <= transactionCounter; i++) {\r\n            if (transactions[i].userAddress == userAddress) {\r\n                userTransactionCount++;\r\n            }\r\n        }\r\n\r\n        // Create an array to hold the user's transactions\r\n        TransactionRecord[] memory userTransactions = new TransactionRecord[](userTransactionCount);\r\n        uint256 index = 0;\r\n\r\n        // Populate the user's transaction array\r\n        for (uint256 i = 1; i <= transactionCounter; i++) {\r\n            if (transactions[i].userAddress == userAddress) {\r\n                userTransactions[index] = transactions[i];\r\n                index++;\r\n            }\r\n        }\r\n\r\n        return userTransactions;\r\n    }\r\n\r\n    // Function to get all transactions of a particular vendor\r\n    function getVendorTransactions(address vendorAddress) public view returns (TransactionRecord[] memory) {\r\n        uint256 vendorTransactionCount = 0;\r\n\r\n        // Count how many transactions the vendor has\r\n        for (uint256 i = 1; i <= transactionCounter; i++) {\r\n            if (transactions[i].vendorAddress == vendorAddress) {\r\n                vendorTransactionCount++;\r\n            }\r\n        }\r\n\r\n        // Create an array to hold the vendor's transactions\r\n        TransactionRecord[] memory vendorTransactions = new TransactionRecord[](vendorTransactionCount);\r\n        uint256 index = 0;\r\n\r\n        // Populate the vendor's transaction array\r\n        for (uint256 i = 1; i <= transactionCounter; i++) {\r\n            if (transactions[i].vendorAddress == vendorAddress) {\r\n                vendorTransactions[index] = transactions[i];\r\n                index++;\r\n            }\r\n        }\r\n\r\n        return vendorTransactions;\r\n    }\r\n\r\n    // Modifier to check if the caller is the contract owner\r\n    modifier onlyOwner() {\r\n        require(msg.sender == owner, \"Not authorized\");\r\n        _;\r\n    }\r\n\r\n    // Function to delete a transaction (if needed for any reason, could be optional)\r\n    function deleteTransaction(uint256 transactionId) public onlyOwner {\r\n        require(transactionId <= transactionCounter, \"Transaction does not exist\");\r\n        delete transactions[transactionId];\r\n    }\r\n}\r\n",
  "sourcePath": "C:\\Users\\77izz\\Pointly-Blockchain\\Pointly-Blockchain\\contracts\\Transaction.sol",
  "compiler": {
    "name": "solc",
    "version": "0.8.0+commit.c7dfd78e.Emscripten.clang"
  },
  "schemaVersion": "3.4.16",
  "updatedAt": "2025-01-23T07:59:39.484Z",
  "networkType": "ethereum",
  "devdoc": {
    "kind": "dev",
    "methods": {},
    "version": 1
  },
  "userdoc": {
    "kind": "user",
    "methods": {},
    "version": 1
  }
}